{
  "contractName": "Distributor",
  "abi": [
    {
      "inputs": [
        {
          "internalType": "address",
          "name": "",
          "type": "address"
        },
        {
          "internalType": "uint256",
          "name": "",
          "type": "uint256"
        }
      ],
      "name": "MedicineDtoC",
      "outputs": [
        {
          "internalType": "address",
          "name": "",
          "type": "address"
        }
      ],
      "stateMutability": "view",
      "type": "function"
    },
    {
      "inputs": [
        {
          "internalType": "address",
          "name": "",
          "type": "address"
        }
      ],
      "name": "MedicineDtoCTxContract",
      "outputs": [
        {
          "internalType": "address",
          "name": "",
          "type": "address"
        }
      ],
      "stateMutability": "view",
      "type": "function"
    },
    {
      "inputs": [
        {
          "internalType": "address",
          "name": "",
          "type": "address"
        },
        {
          "internalType": "uint256",
          "name": "",
          "type": "uint256"
        }
      ],
      "name": "MedicinesAtDistributor",
      "outputs": [
        {
          "internalType": "address",
          "name": "",
          "type": "address"
        }
      ],
      "stateMutability": "view",
      "type": "function"
    },
    {
      "inputs": [
        {
          "internalType": "address",
          "name": "_address",
          "type": "address"
        },
        {
          "internalType": "address",
          "name": "cid",
          "type": "address"
        }
      ],
      "name": "medicineRecievedAtDistributor",
      "outputs": [],
      "stateMutability": "nonpayable",
      "type": "function"
    },
    {
      "inputs": [
        {
          "internalType": "address",
          "name": "_address",
          "type": "address"
        },
        {
          "internalType": "address",
          "name": "transporter",
          "type": "address"
        },
        {
          "internalType": "address",
          "name": "receiver",
          "type": "address"
        }
      ],
      "name": "transferMedicineDtoC",
      "outputs": [],
      "stateMutability": "nonpayable",
      "type": "function"
    }
  ],
  "bytecode": "0x608060405234801561001057600080fd5b50610825806100206000396000f3fe608060405234801561001057600080fd5b50600436106100575760003560e01c8063798a826f1461005c5780638dfa742d1461009e578063c2b70988146100ca578063c40b38af14610104578063fd302c3514610132575b600080fd5b6100826004803603602081101561007257600080fd5b50356001600160a01b031661015e565b604080516001600160a01b039092168252519081900360200190f35b610082600480360360408110156100b457600080fd5b506001600160a01b038135169060200135610179565b610102600480360360608110156100e057600080fd5b506001600160a01b0381358116916020810135821691604090910135166101ae565b005b6101026004803603604081101561011a57600080fd5b506001600160a01b0381358116916020013516610261565b6100826004803603604081101561014857600080fd5b506001600160a01b03813516906020013561040d565b6002602052600090815260409020546001600160a01b031681565b6000602052816000526040600020818154811061019257fe5b6000918252602090912001546001600160a01b03169150829050565b6000833384846040516101c090610426565b6001600160a01b039485168152928416602084015290831660408084019190915292166060820152905190819003608001906000f080158015610207573d6000803e3d6000fd5b5033600090815260016020818152604080842080549384018155845281842090920180546001600160a01b039586166001600160a01b03199182168117909255989094168352600290529020805490951617909355505050565b604080516307fb74db60e21b815233600482015290516000916001600160a01b03851691631fedd36c9160248082019260209290919082900301818787803b1580156102ac57600080fd5b505af11580156102c0573d6000803e3d6000fd5b505050506040513d60208110156102d657600080fd5b5051905060028114156104085733600090815260208181526040808320805460018101825590845291832090910180546001600160a01b0319166001600160a01b03871690811790915581516355da145360e11b81529151909163abb428a6916004808301926060929190829003018186803b15801561035557600080fd5b505afa158015610369573d6000803e3d6000fd5b505050506040513d601f19601f82011682018060405250606081101561038e57600080fd5b50516001600160a01b031614610408576040805163d7dcbe3b60e01b81526001600160a01b03858116600483015233602483015291519184169163d7dcbe3b9160448082019260009290919082900301818387803b1580156103ef57600080fd5b505af1158015610403573d6000803e3d6000fd5b505050505b505050565b6001602052816000526040600020818154811061019257fe5b6103bc806104348339019056fe608060405234801561001057600080fd5b506040516103bc3803806103bc8339818101604052608081101561003357600080fd5b50805160208201516040830151606090930151600080546001600160a01b03199081166001600160a01b03948516908117835560018054831696861696909617909555600280548216909517909455600380548516958416959095179094556004805490931691161760ff60a01b191690556103079081906100b590396000f3fe608060405234801561001057600080fd5b50600436106100415760003560e01c806353157b1a14610046578063c0114d0614610076578063f7addc3e14610090575b600080fd5b6100746004803603604081101561005c57600080fd5b506001600160a01b03813581169160200135166100be565b005b61007e610190565b60408051918252519081900360200190f35b610074600480360360408110156100a657600080fd5b506001600160a01b03813581169160200135166101b0565b6003546001600160a01b0382811691161461010a5760405162461bcd60e51b815260040180806020018281038252603381526020018061026f6033913960400191505060405180910390fd5b6004805460ff60a01b1916600160a01b17808255600254604080516305e3aeb160e31b81526001600160a01b039384169481019490945290821660248401525190841691632f1d758891604480830192600092919082900301818387803b15801561017457600080fd5b505af1158015610188573d6000803e3d6000fd5b505050505050565b600454600090600160a01b900460ff1660028111156101ab57fe5b905090565b6004546001600160a01b038281169116146101fc5760405162461bcd60e51b81526004018080602001828103825260308152602001806102a26030913960400191505060405180910390fd5b600480546002919060ff60a01b1916600160a01b830217905550816001600160a01b031663c8f5f189826040518263ffffffff1660e01b815260040180826001600160a01b03166001600160a01b03168152602001915050600060405180830381600087803b15801561017457600080fdfe4f6e6c79204173736f636961746564207472616e73706f727465722063616e2063616c6c20746869732066756e6374696f6e2e4f6e6c79204173736f6369617465642072656365697665722063616e2063616c6c20746869732066756e6374696f6e2ea2646970667358221220df5b40873acde493b400cfc1e9a688776838c79ef9481209bf2cb142275bf50164736f6c63430006060033a264697066735822122053384ad8d37d618dcdb4e61d9328a8138c71c195b22448086bdf3eaa84dc15d164736f6c63430006060033",
  "immutableReferences": {},
  "source": "pragma solidity ^0.6.6;\n\nimport './MedicineW_D.sol';\nimport './Medicine.sol';\nimport './MedicineD_C.sol';\n\ncontract Distributor {\n    \n    mapping(address => address[]) public MedicinesAtDistributor;\n    mapping(address => address[]) public MedicineDtoC;\n    mapping(address => address) public MedicineDtoCTxContract;\n    \n    function medicineRecievedAtDistributor(\n        address _address, \n        address cid\n        ) public {\n            \n        uint rtype = Medicine(_address).receivedMedicine(msg.sender);\n        if(rtype == 2){\n            MedicinesAtDistributor[msg.sender].push(_address);\n            if(Medicine(_address).getWDC()[0] != address(0)){\n                MedicineW_D(cid).receiveWD(_address, msg.sender);\n            }\n        }\n    }\n\n\n    function transferMedicineDtoC(\n        address _address,\n        address transporter,\n        address receiver\n    ) public {\n        MedicineD_C dp = new MedicineD_C(\n            _address,\n            msg.sender,\n            transporter,\n            receiver\n        );\n        MedicineDtoC[msg.sender].push(address(dp));\n        MedicineDtoCTxContract[_address] = address(dp);\n    }\n\n}",
  "sourcePath": "/Users/sherwyndsouza/Desktop/Work/Blockchain/Medicine-Supply-Chain/blockchain/contracts/Distributor.sol",
  "compiler": {
    "name": "solc",
    "version": "0.6.6+commit.6c089d02.Emscripten.clang"
  },
  "schemaVersion": "3.2.2",
  "updatedAt": "2020-11-15T13:38:14.051Z",
  "devdoc": {
    "methods": {}
  },
  "userdoc": {
    "methods": {}
  }
}