{
  "contractName": "Manufacturer",
  "abi": [
    {
      "inputs": [],
      "stateMutability": "nonpayable",
      "type": "constructor"
    },
    {
      "inputs": [
        {
          "internalType": "address",
          "name": "",
          "type": "address"
        },
        {
          "internalType": "uint256",
          "name": "",
          "type": "uint256"
        }
      ],
      "name": "manufacturerMedicines",
      "outputs": [
        {
          "internalType": "address",
          "name": "",
          "type": "address"
        }
      ],
      "stateMutability": "view",
      "type": "function"
    },
    {
      "inputs": [
        {
          "internalType": "address",
          "name": "",
          "type": "address"
        },
        {
          "internalType": "uint256",
          "name": "",
          "type": "uint256"
        }
      ],
      "name": "manufacturerRawMaterials",
      "outputs": [
        {
          "internalType": "address",
          "name": "",
          "type": "address"
        }
      ],
      "stateMutability": "view",
      "type": "function"
    },
    {
      "inputs": [
        {
          "internalType": "address",
          "name": "_addr",
          "type": "address"
        },
        {
          "internalType": "address",
          "name": "_manufacturerAddress",
          "type": "address"
        }
      ],
      "name": "manufacturerReceivedPackage",
      "outputs": [],
      "stateMutability": "nonpayable",
      "type": "function"
    },
    {
      "inputs": [
        {
          "internalType": "address",
          "name": "_manufacturerAddr",
          "type": "address"
        },
        {
          "internalType": "bytes32",
          "name": "_description",
          "type": "bytes32"
        },
        {
          "internalType": "address[]",
          "name": "_rawAddr",
          "type": "address[]"
        },
        {
          "internalType": "uint256",
          "name": "_quantity",
          "type": "uint256"
        },
        {
          "internalType": "address[]",
          "name": "_transporterAddr",
          "type": "address[]"
        },
        {
          "internalType": "address",
          "name": "_recieverAddr",
          "type": "address"
        },
        {
          "internalType": "uint256",
          "name": "RcvrType",
          "type": "uint256"
        }
      ],
      "name": "manufacturerCreatesMedicine",
      "outputs": [],
      "stateMutability": "nonpayable",
      "type": "function"
    }
  ],
  "bytecode": "0x608060405234801561001057600080fd5b50611309806100206000396000f3fe608060405234801561001057600080fd5b506004361061004c5760003560e01c806356466dee1461005157806356e5efc4146100815780638ccc8db7146101cf578063a999cca114610217575b600080fd5b61007f6004803603604081101561006757600080fd5b506001600160a01b0381358116916020013516610243565b005b61007f600480360360e081101561009757600080fd5b6001600160a01b0382351691602081013591810190606081016040820135600160201b8111156100c657600080fd5b8201836020820111156100d857600080fd5b803590602001918460208302840111600160201b831117156100f957600080fd5b91908080602002602001604051908101604052809392919081815260200183836020028082843760009201919091525092958435959094909350604081019250602001359050600160201b81111561015057600080fd5b82018360208201111561016257600080fd5b803590602001918460208302840111600160201b8311171561018357600080fd5b919080806020026020016040519081016040528093929190818152602001838360200280828437600092019190915250929550506001600160a01b0383351693505050602001356102f2565b6101fb600480360360408110156101e557600080fd5b506001600160a01b03813516906020013561043d565b604080516001600160a01b039092168252519081900360200190f35b6101fb6004803603604081101561022d57600080fd5b506001600160a01b038135169060200135610472565b816001600160a01b03166352b99968826040518263ffffffff1660e01b815260040180826001600160a01b03166001600160a01b03168152602001915050600060405180830381600087803b15801561029b57600080fd5b505af11580156102af573d6000803e3d6000fd5b505050506001600160a01b039081166000908152602081815260408220805460018101825590835291200180546001600160a01b03191692909116919091179055565b6000878787878787876040516103079061048b565b80886001600160a01b03166001600160a01b031681526020018781526020018060200186815260200180602001856001600160a01b03166001600160a01b03168152602001848152602001838103835288818151815260200191508051906020019060200280838360005b8381101561038a578181015183820152602001610372565b50505050905001838103825286818151815260200191508051906020019060200280838360005b838110156103c95781810151838201526020016103b1565b505050509050019950505050505050505050604051809103906000f0801580156103f7573d6000803e3d6000fd5b506001600160a01b03988916600090815260016020818152604083208054928301815583529091200180546001600160a01b031916919099161790975550505050505050565b6000602052816000526040600020818154811061045657fe5b6000918252602090912001546001600160a01b03169150829050565b6001602052816000526040600020818154811061045657fe5b610e3b806104998339019056fe60806040523480156200001157600080fd5b5060405162000e3b38038062000e3b833981810160405260e08110156200003757600080fd5b815160208301516040808501805191519395929483019291846401000000008211156200006357600080fd5b9083019060208201858111156200007957600080fd5b82518660208202830111640100000000821117156200009757600080fd5b82525081516020918201928201910280838360005b83811015620000c6578181015183820152602001620000ac565b505050509050016040526020018051906020019092919080516040519392919084640100000000821115620000fa57600080fd5b9083019060208201858111156200011057600080fd5b82518660208202830111640100000000821117156200012e57600080fd5b82525081516020918201928201910280838360005b838110156200015d57818101518382015260200162000143565b505050509190910160409081526020838101519390910151600080546001600160a01b038d166001600160a01b0319918216811790925560048054909116909117905560018a905588519395509350620001bf92600292509088019062000239565b5060088490558251620001da90600390602086019062000239565b5080600114156200020657600580546001600160a01b0319166001600160a01b0384161790556200022c565b80600214156200022c57600680546001600160a01b0319166001600160a01b0384161790555b50505050505050620002cd565b82805482825590600052602060002090810192821562000291579160200282015b828111156200029157825182546001600160a01b0319166001600160a01b039091161782556020909201916001909101906200025a565b506200029f929150620002a3565b5090565b620002ca91905b808211156200029f5780546001600160a01b0319168155600101620002aa565b90565b610b5e80620002dd6000396000f3fe608060405234801561001057600080fd5b506004361061008e5760003560e01c80631fedd36c146100935780632f1d7588146100cb57806393a668b7146100fb578063aab3a9d614610121578063abb428a614610147578063ac42a41514610187578063c8f5f189146101ad578063d2f3fcc7146101d3578063e002c8a5146101db578063f5c0e383146102d5575b600080fd5b6100b9600480360360208110156100a957600080fd5b50356001600160a01b0316610303565b60408051918252519081900360200190f35b6100f9600480360360408110156100e157600080fd5b506001600160a01b038135811691602001351661052e565b005b6100f96004803603602081101561011157600080fd5b50356001600160a01b03166105b7565b6100f96004803603602081101561013757600080fd5b50356001600160a01b0316610624565b61014f610676565b6040518082606080838360005b8381101561017457818101518382015260200161015c565b5050505090500191505060405180910390f35b6100f96004803603602081101561019d57600080fd5b50356001600160a01b03166106b1565b6100f9600480360360208110156101c357600080fd5b50356001600160a01b0316610832565b6100b961089b565b6101e36108b4565b60405180886001600160a01b03166001600160a01b031681526020018781526020018060200186815260200180602001856001600160a01b03166001600160a01b03168152602001846001600160a01b03166001600160a01b03168152602001838103835288818151815260200191508051906020019060200280838360005b8381101561027b578181015183820152602001610263565b50505050905001838103825286818151815260200191508051906020019060200280838360005b838110156102ba5781810151838201526020016102a2565b50505050905001995050505050505050505060405180910390f35b6100f9600480360360408110156102eb57600080fd5b506001600160a01b03813581169160200135166109db565b6005546000906001600160a01b038381169116148061032f57506006546001600160a01b038381169116145b61036a5760405162461bcd60e51b8152600401808060200182810382526035815260200180610a886035913960400191505060405180910390fd5b60095460019060ff16600681111561037e57fe5b10156103cd576040805162461bcd60e51b8152602060048201526019602482015278141c9bd91d58dd081b9bdd081c1a58dad959081d5c081e595d603a1b604482015290519081900360640190fd5b6005546001600160a01b0383811691161480156103fa5750600160095460ff1660068111156103f857fe5b145b1561047e576009805460ff1916600390811790915560055481546001600160a01b039091169190600019810190811061042f57fe5b60009182526020918290200154604080516002815260039381019390935280516001600160a01b03909216923092600080516020610a68833981519152929181900390910190a4506001610529565b6006546001600160a01b0383811691161480156104ab5750600260095460ff1660068111156104a957fe5b145b15610529576009805460ff19166004179055600654600380546001600160a01b039092169160001981019081106104de57fe5b60009182526020918290200154604080516003815260049381019390935280516001600160a01b03909216923092600080516020610a68833981519152929181900390910190a45060025b919050565b6006546001600160a01b0382811691161461057a5760405162461bcd60e51b8152600401808060200182810382526023815260200180610adf6023913960400191505060405180910390fd5b600780546001600160a01b0319166001600160a01b03841617905560055b6009805460ff191660018360068111156105ae57fe5b02179055505050565b6006546001600160a01b038281169116146106035760405162461bcd60e51b8152600401808060200182810382526023815260200180610adf6023913960400191505060405180910390fd5b60045b6009805460ff1916600183600681111561061c57fe5b021790555050565b600380546001810182556000919091527fc2575a0e9e593c00f959f8c92f12db2869c3395a3b0502d05e2516446f71f85b0180546001600160a01b0319166001600160a01b0392909216919091179055565b61067e610a49565b50604080516060810182526005546001600160a01b03908116825260065481166020830152600754169181019190915290565b6003805460001981019081106106c357fe5b6000918252602090912001546001600160a01b038281169116146107185760405162461bcd60e51b8152600401808060200182810382526027815260200180610b026027913960400191505060405180910390fd5b600060095460ff16600681111561072b57fe5b1461077d576040805162461bcd60e51b815260206004820181905260248201527f5061636b616765206d757374206265206174204d616e7566616374757265722e604482015290519081900360640190fd5b6005546001600160a01b0316156107e0576009805460ff1916600190811790915560055460408051838152602081019390935280516001600160a01b0392831693928516923092600080516020610a6883398151915292918290030190a461082f565b6009805460ff191660029081179091556006546040805160018152602081019390935280516001600160a01b0392831693928516923092600080516020610a6883398151915292918290030190a45b50565b6007546001600160a01b03828116911614610894576040805162461bcd60e51b815260206004820181905260248201527f5468697320437573746f6d6572206973206e6f74204173736f6369617465642e604482015290519081900360640190fd5b6006610606565b60095460009060ff1660068111156108af57fe5b905090565b600080606060006060600080600460009054906101000a90046001600160a01b031660015460026008546003600660009054906101000a90046001600160a01b0316600760009054906101000a90046001600160a01b03168480548060200260200160405190810160405280929190818152602001828054801561096157602002820191906000526020600020905b81546001600160a01b03168152600190910190602001808311610943575b50505050509450828054806020026020016040519081016040528092919081815260200182805480156109bd57602002820191906000526020600020905b81546001600160a01b0316815260019091019060200180831161099f575b50505050509250965096509650965096509650965090919293949596565b6005546001600160a01b03828116911614610a275760405162461bcd60e51b8152600401808060200182810382526022815260200180610abd6022913960400191505060405180910390fd5b600680546001600160a01b0319166001600160a01b0384161790556002610598565b6040518060600160405280600390602082028036833750919291505056fe7e89c4b1a4e2b51aae84eb1f90e8a34cb792ece5ac5cb63db4830c891220b28d4f6e6c792057686f6c6573616c6572206f72204469737472696275746f722063616e2063616c6c20746869732066756e6374696f6e746869732057686f6c6573616c6572206973206e6f74204173736f6369617465642e54686973204469737472696275746f72206973206e6f74204173736f6369617465642e4f6e6c79205472616e73706f727465722063616e2063616c6c20746869732066756e6374696f6ea26469706673582212205a0625f1d0df112a3590cf0951421e75c8939a232faec9f9d0f774c66fe8527b64736f6c63430006060033a2646970667358221220b2b0ed2935288ebc26f5bfe5dbe1273dcf6f7760968dc4b2fde502c083da0c6364736f6c63430006060033",
  "immutableReferences": {},
  "source": "pragma solidity ^0.6.6;\n\nimport './RawMaterial.sol';\nimport './Medicine.sol';\n\ncontract Manufacturer {\n    \n    mapping (address => address[]) public manufacturerRawMaterials;\n    mapping (address => address[]) public manufacturerMedicines;\n\n    constructor() public {}\n    \n    function manufacturerReceivedPackage(\n        address _addr,\n        address _manufacturerAddress\n        ) public {\n            \n        RawMaterial(_addr).receivedPackage(_manufacturerAddress);\n        manufacturerRawMaterials[_manufacturerAddress].push(_addr);\n    }\n    \n    \n    function manufacturerCreatesMedicine(\n        address _manufacturerAddr,\n        bytes32 _description,\n        address[] memory _rawAddr,\n        uint _quantity,\n        address[] memory _transporterAddr,\n        address _recieverAddr,\n        uint RcvrType\n        ) public {\n            \n        Medicine _medicine = new Medicine(\n            _manufacturerAddr,\n            _description,\n            _rawAddr,\n            _quantity,\n            _transporterAddr,\n            _recieverAddr,\n            RcvrType\n        );\n        \n        manufacturerMedicines[_manufacturerAddr].push(address(_medicine));\n        \n    }\n    \n}",
  "sourcePath": "/Users/sherwyndsouza/Desktop/Work/Blockchain/Medicine-Supply-Chain/blockchain/src/contracts/Manufacturer.sol",
  "compiler": {
    "name": "solc",
    "version": "0.6.6+commit.6c089d02.Emscripten.clang"
  },
  "schemaVersion": "3.2.2",
  "updatedAt": "2020-10-09T11:14:14.005Z",
  "devdoc": {
    "methods": {}
  },
  "userdoc": {
    "methods": {}
  }
}