{
  "contractName": "Manufacturer",
  "abi": [
    {
      "inputs": [],
      "stateMutability": "nonpayable",
      "type": "constructor"
    },
    {
      "anonymous": false,
      "inputs": [
        {
          "indexed": true,
          "internalType": "address",
          "name": "account",
          "type": "address"
        }
      ],
      "name": "ProducerAdded",
      "type": "event"
    },
    {
      "anonymous": false,
      "inputs": [
        {
          "indexed": true,
          "internalType": "address",
          "name": "account",
          "type": "address"
        }
      ],
      "name": "ProducerRemoved",
      "type": "event"
    },
    {
      "inputs": [
        {
          "internalType": "address",
          "name": "account",
          "type": "address"
        }
      ],
      "name": "isProducer",
      "outputs": [
        {
          "internalType": "bool",
          "name": "",
          "type": "bool"
        }
      ],
      "stateMutability": "view",
      "type": "function",
      "constant": true
    },
    {
      "inputs": [
        {
          "internalType": "address",
          "name": "account",
          "type": "address"
        }
      ],
      "name": "addProducer",
      "outputs": [],
      "stateMutability": "nonpayable",
      "type": "function"
    },
    {
      "inputs": [
        {
          "internalType": "address",
          "name": "account",
          "type": "address"
        }
      ],
      "name": "renounceProducer",
      "outputs": [],
      "stateMutability": "nonpayable",
      "type": "function"
    }
  ],
  "bytecode": "0x608060405234801561001057600080fd5b506100203361002560201b60201c565b610242565b61003d81600061008360201b6104a41790919060201c565b8073ffffffffffffffffffffffffffffffffffffffff167f2977383b0207d39ef14220620b6cf3e6c9b6e78592af90baeef6614ed2fcd2c660405160405180910390a250565b610093828261016460201b60201c565b15610106576040517f08c379a000000000000000000000000000000000000000000000000000000000815260040180806020018281038252601f8152602001807f526f6c65733a206163636f756e7420616c72656164792068617320726f6c650081525060200191505060405180910390fd5b60018260000160008373ffffffffffffffffffffffffffffffffffffffff1673ffffffffffffffffffffffffffffffffffffffff16815260200190815260200160002060006101000a81548160ff0219169083151502179055505050565b60008073ffffffffffffffffffffffffffffffffffffffff168273ffffffffffffffffffffffffffffffffffffffff1614156101eb576040517f08c379a00000000000000000000000000000000000000000000000000000000081526004018080602001828103825260228152602001806108496022913960400191505060405180910390fd5b8260000160008373ffffffffffffffffffffffffffffffffffffffff1673ffffffffffffffffffffffffffffffffffffffff16815260200190815260200160002060009054906101000a900460ff16905092915050565b6105f8806102516000396000f3fe608060405234801561001057600080fd5b50600436106100415760003560e01c8063bc2d118a14610046578063ddf801661461008a578063f5521022146100ce575b600080fd5b6100886004803603602081101561005c57600080fd5b81019080803573ffffffffffffffffffffffffffffffffffffffff16906020019092919050505061012a565b005b6100cc600480360360208110156100a057600080fd5b81019080803573ffffffffffffffffffffffffffffffffffffffff1690602001909291905050506101b1565b005b610110600480360360208110156100e457600080fd5b81019080803573ffffffffffffffffffffffffffffffffffffffff169060200190929190505050610238565b604051808215151515815260200191505060405180910390f35b61013333610238565b6101a5576040517f08c379a00000000000000000000000000000000000000000000000000000000081526004018080602001828103825260158152602001807f53656e646572206e6f7420617574686f72697a6564000000000000000000000081525060200191505060405180910390fd5b6101ae81610255565b50565b6101ba33610238565b61022c576040517f08c379a00000000000000000000000000000000000000000000000000000000081526004018080602001828103825260158152602001807f53656e646572206e6f7420617574686f72697a6564000000000000000000000081525060200191505060405180910390fd5b610235816102af565b50565b600061024e82600061030990919063ffffffff16565b9050919050565b6102698160006103e790919063ffffffff16565b8073ffffffffffffffffffffffffffffffffffffffff167fb78e9906c5bae930ccf756a5214c9855b1782f0eb30f9566de2384f034af48f360405160405180910390a250565b6102c38160006104a490919063ffffffff16565b8073ffffffffffffffffffffffffffffffffffffffff167f2977383b0207d39ef14220620b6cf3e6c9b6e78592af90baeef6614ed2fcd2c660405160405180910390a250565b60008073ffffffffffffffffffffffffffffffffffffffff168273ffffffffffffffffffffffffffffffffffffffff161415610390576040517f08c379a00000000000000000000000000000000000000000000000000000000081526004018080602001828103825260228152602001806105a16022913960400191505060405180910390fd5b8260000160008373ffffffffffffffffffffffffffffffffffffffff1673ffffffffffffffffffffffffffffffffffffffff16815260200190815260200160002060009054906101000a900460ff16905092915050565b6103f18282610309565b610446576040517f08c379a00000000000000000000000000000000000000000000000000000000081526004018080602001828103825260218152602001806105806021913960400191505060405180910390fd5b60008260000160008373ffffffffffffffffffffffffffffffffffffffff1673ffffffffffffffffffffffffffffffffffffffff16815260200190815260200160002060006101000a81548160ff0219169083151502179055505050565b6104ae8282610309565b15610521576040517f08c379a000000000000000000000000000000000000000000000000000000000815260040180806020018281038252601f8152602001807f526f6c65733a206163636f756e7420616c72656164792068617320726f6c650081525060200191505060405180910390fd5b60018260000160008373ffffffffffffffffffffffffffffffffffffffff1673ffffffffffffffffffffffffffffffffffffffff16815260200190815260200160002060006101000a81548160ff021916908315150217905550505056fe526f6c65733a206163636f756e7420646f6573206e6f74206861766520726f6c65526f6c65733a206163636f756e7420697320746865207a65726f2061646472657373a2646970667358221220cdc5dec1e42e81a769bcaf20251335bbb355b32e519b587efaa44ca54a95845764736f6c63430006060033526f6c65733a206163636f756e7420697320746865207a65726f2061646472657373",
  "immutableReferences": {},
  "source": "pragma solidity ^0.6.6;\n\nimport \"./Roles.sol\";\n\n\ncontract Manufacturer {\n\n    using Roles for Roles.Role;\n\n    event ProducerAdded(address indexed account);\n    event ProducerRemoved(address indexed account);\n\n    Roles.Role private producers;\n\n    constructor() public {\n        _addProducer(msg.sender);\n    }\n\n    modifier onlyProducer() {\n        require(isProducer(msg.sender), \"Sender not authorized\");\n        _;\n    }\n\n    function isProducer(address account) public view returns(bool) {\n        return producers.has(account);\n    }\n\n    function addProducer(address account) public onlyProducer {\n        _addProducer(account);\n    }\n\n    function renounceProducer(address account) public onlyProducer {\n        _removeProducer(account);\n    }\n\n    function _addProducer(address account) internal {\n        producers.add(account);\n        emit ProducerAdded(account);\n    }\n\n    function _removeProducer(address account) internal {\n        producers.remove(account);\n        emit ProducerRemoved(account);\n    }\n}",
  "sourcePath": "/Users/sherwyndsouza/Desktop/Work/Blockchain/Medicine-Supply-Chain/blockchain/src/contracts/Manufacturer.sol",
  "compiler": {
    "name": "solc",
    "version": "0.6.6+commit.6c089d02.Emscripten.clang"
  },
  "schemaVersion": "3.2.2",
  "updatedAt": "2020-08-08T08:47:18.995Z",
  "networkType": "ethereum",
  "devdoc": {
    "methods": {}
  },
  "userdoc": {
    "methods": {}
  }
}