{
  "contractName": "Manufacturer",
  "abi": [
    {
      "inputs": [],
      "stateMutability": "nonpayable",
      "type": "constructor"
    },
    {
      "inputs": [
        {
          "internalType": "address",
          "name": "",
          "type": "address"
        },
        {
          "internalType": "uint256",
          "name": "",
          "type": "uint256"
        }
      ],
      "name": "manufacturerMedicines",
      "outputs": [
        {
          "internalType": "address",
          "name": "",
          "type": "address"
        }
      ],
      "stateMutability": "view",
      "type": "function"
    },
    {
      "inputs": [
        {
          "internalType": "address",
          "name": "",
          "type": "address"
        },
        {
          "internalType": "uint256",
          "name": "",
          "type": "uint256"
        }
      ],
      "name": "manufacturerRawMaterials",
      "outputs": [
        {
          "internalType": "address",
          "name": "",
          "type": "address"
        }
      ],
      "stateMutability": "view",
      "type": "function"
    },
    {
      "inputs": [
        {
          "internalType": "address",
          "name": "_addr",
          "type": "address"
        },
        {
          "internalType": "address",
          "name": "_manufacturerAddress",
          "type": "address"
        }
      ],
      "name": "manufacturerReceivedPackage",
      "outputs": [],
      "stateMutability": "nonpayable",
      "type": "function"
    },
    {
      "inputs": [
        {
          "internalType": "address",
          "name": "_manufacturerAddr",
          "type": "address"
        },
        {
          "internalType": "bytes32",
          "name": "_description",
          "type": "bytes32"
        },
        {
          "internalType": "address[]",
          "name": "_rawAddr",
          "type": "address[]"
        },
        {
          "internalType": "uint256",
          "name": "_quantity",
          "type": "uint256"
        },
        {
          "internalType": "address[]",
          "name": "_transporterAddr",
          "type": "address[]"
        },
        {
          "internalType": "address",
          "name": "_recieverAddr",
          "type": "address"
        },
        {
          "internalType": "uint256",
          "name": "RcvrType",
          "type": "uint256"
        }
      ],
      "name": "manufacturerCreatesMedicine",
      "outputs": [],
      "stateMutability": "nonpayable",
      "type": "function"
    }
  ],
  "bytecode": "0x608060405234801561001057600080fd5b50611321806100206000396000f3fe608060405234801561001057600080fd5b506004361061004c5760003560e01c806356466dee1461005157806356e5efc4146100815780638ccc8db7146101d3578063a999cca11461021b575b600080fd5b61007f6004803603604081101561006757600080fd5b506001600160a01b0381358116916020013516610247565b005b61007f600480360360e081101561009757600080fd5b6001600160a01b03823516916020810135918101906060810160408201356401000000008111156100c757600080fd5b8201836020820111156100d957600080fd5b803590602001918460208302840111640100000000831117156100fb57600080fd5b9190808060200260200160405190810160405280939291908181526020018383602002808284376000920191909152509295843595909490935060408101925060200135905064010000000081111561015357600080fd5b82018360208201111561016557600080fd5b8035906020019184602083028401116401000000008311171561018757600080fd5b919080806020026020016040519081016040528093929190818152602001838360200280828437600092019190915250929550506001600160a01b0383351693505050602001356102f6565b6101ff600480360360408110156101e957600080fd5b506001600160a01b038135169060200135610441565b604080516001600160a01b039092168252519081900360200190f35b6101ff6004803603604081101561023157600080fd5b506001600160a01b038135169060200135610476565b816001600160a01b03166352b99968826040518263ffffffff1660e01b815260040180826001600160a01b03166001600160a01b03168152602001915050600060405180830381600087803b15801561029f57600080fd5b505af11580156102b3573d6000803e3d6000fd5b505050506001600160a01b039081166000908152602081815260408220805460018101825590835291200180546001600160a01b03191692909116919091179055565b60008787878787878760405161030b9061048f565b80886001600160a01b03166001600160a01b031681526020018781526020018060200186815260200180602001856001600160a01b03166001600160a01b03168152602001848152602001838103835288818151815260200191508051906020019060200280838360005b8381101561038e578181015183820152602001610376565b50505050905001838103825286818151815260200191508051906020019060200280838360005b838110156103cd5781810151838201526020016103b5565b505050509050019950505050505050505050604051809103906000f0801580156103fb573d6000803e3d6000fd5b506001600160a01b03988916600090815260016020818152604083208054928301815583529091200180546001600160a01b031916919099161790975550505050505050565b6000602052816000526040600020818154811061045a57fe5b6000918252602090912001546001600160a01b03169150829050565b6001602052816000526040600020818154811061045a57fe5b610e4f8061049d8339019056fe60806040523480156200001157600080fd5b5060405162000e4f38038062000e4f833981810160405260e08110156200003757600080fd5b815160208301516040808501805191519395929483019291846401000000008211156200006357600080fd5b9083019060208201858111156200007957600080fd5b82518660208202830111640100000000821117156200009757600080fd5b82525081516020918201928201910280838360005b83811015620000c6578181015183820152602001620000ac565b505050509050016040526020018051906020019092919080516040519392919084640100000000821115620000fa57600080fd5b9083019060208201858111156200011057600080fd5b82518660208202830111640100000000821117156200012e57600080fd5b82525081516020918201928201910280838360005b838110156200015d57818101518382015260200162000143565b505050509190910160409081526020838101519390910151600080546001600160a01b038d166001600160a01b0319918216811790925560048054909116909117905560018a905588519395509350620001bf92600292509088019062000239565b5060088490558251620001da90600390602086019062000239565b5080600114156200020657600580546001600160a01b0319166001600160a01b0384161790556200022c565b80600214156200022c57600680546001600160a01b0319166001600160a01b0384161790555b50505050505050620002cd565b82805482825590600052602060002090810192821562000291579160200282015b828111156200029157825182546001600160a01b0319166001600160a01b039091161782556020909201916001909101906200025a565b506200029f929150620002a3565b5090565b620002ca91905b808211156200029f5780546001600160a01b0319168155600101620002aa565b90565b610b7280620002dd6000396000f3fe608060405234801561001057600080fd5b506004361061009e5760003560e01c8063ac42a41511610066578063ac42a41514610197578063c8f5f189146101bd578063d2f3fcc7146101e3578063e002c8a5146101eb578063f5c0e383146102e55761009e565b80631fedd36c146100a35780632f1d7588146100db57806393a668b71461010b578063aab3a9d614610131578063abb428a614610157575b600080fd5b6100c9600480360360208110156100b957600080fd5b50356001600160a01b0316610313565b60408051918252519081900360200190f35b610109600480360360408110156100f157600080fd5b506001600160a01b0381358116916020013516610542565b005b6101096004803603602081101561012157600080fd5b50356001600160a01b03166105cb565b6101096004803603602081101561014757600080fd5b50356001600160a01b0316610638565b61015f61068a565b6040518082606080838360005b8381101561018457818101518382015260200161016c565b5050505090500191505060405180910390f35b610109600480360360208110156101ad57600080fd5b50356001600160a01b03166106c5565b610109600480360360208110156101d357600080fd5b50356001600160a01b0316610846565b6100c96108af565b6101f36108c8565b60405180886001600160a01b03166001600160a01b031681526020018781526020018060200186815260200180602001856001600160a01b03166001600160a01b03168152602001846001600160a01b03166001600160a01b03168152602001838103835288818151815260200191508051906020019060200280838360005b8381101561028b578181015183820152602001610273565b50505050905001838103825286818151815260200191508051906020019060200280838360005b838110156102ca5781810151838201526020016102b2565b50505050905001995050505050505050505060405180910390f35b610109600480360360408110156102fb57600080fd5b506001600160a01b03813581169160200135166109ef565b6005546000906001600160a01b038381169116148061033f57506006546001600160a01b038381169116145b61037a5760405162461bcd60e51b8152600401808060200182810382526035815260200180610a9c6035913960400191505060405180910390fd5b60095460019060ff16600681111561038e57fe5b10156103e1576040805162461bcd60e51b815260206004820152601960248201527f50726f64756374206e6f74207069636b65642075702079657400000000000000604482015290519081900360640190fd5b6005546001600160a01b03838116911614801561040e5750600160095460ff16600681111561040c57fe5b145b15610492576009805460ff1916600390811790915560055481546001600160a01b039091169190600019810190811061044357fe5b60009182526020918290200154604080516002815260039381019390935280516001600160a01b03909216923092600080516020610a7c833981519152929181900390910190a450600161053d565b6006546001600160a01b0383811691161480156104bf5750600260095460ff1660068111156104bd57fe5b145b1561053d576009805460ff19166004179055600654600380546001600160a01b039092169160001981019081106104f257fe5b60009182526020918290200154604080516003815260049381019390935280516001600160a01b03909216923092600080516020610a7c833981519152929181900390910190a45060025b919050565b6006546001600160a01b0382811691161461058e5760405162461bcd60e51b8152600401808060200182810382526023815260200180610af36023913960400191505060405180910390fd5b600780546001600160a01b0319166001600160a01b03841617905560055b6009805460ff191660018360068111156105c257fe5b02179055505050565b6006546001600160a01b038281169116146106175760405162461bcd60e51b8152600401808060200182810382526023815260200180610af36023913960400191505060405180910390fd5b60045b6009805460ff1916600183600681111561063057fe5b021790555050565b600380546001810182556000919091527fc2575a0e9e593c00f959f8c92f12db2869c3395a3b0502d05e2516446f71f85b0180546001600160a01b0319166001600160a01b0392909216919091179055565b610692610a5d565b50604080516060810182526005546001600160a01b03908116825260065481166020830152600754169181019190915290565b6003805460001981019081106106d757fe5b6000918252602090912001546001600160a01b0382811691161461072c5760405162461bcd60e51b8152600401808060200182810382526027815260200180610b166027913960400191505060405180910390fd5b600060095460ff16600681111561073f57fe5b14610791576040805162461bcd60e51b815260206004820181905260248201527f5061636b616765206d757374206265206174204d616e7566616374757265722e604482015290519081900360640190fd5b6005546001600160a01b0316156107f4576009805460ff1916600190811790915560055460408051838152602081019390935280516001600160a01b0392831693928516923092600080516020610a7c83398151915292918290030190a4610843565b6009805460ff191660029081179091556006546040805160018152602081019390935280516001600160a01b0392831693928516923092600080516020610a7c83398151915292918290030190a45b50565b6007546001600160a01b038281169116146108a8576040805162461bcd60e51b815260206004820181905260248201527f5468697320437573746f6d6572206973206e6f74204173736f6369617465642e604482015290519081900360640190fd5b600661061a565b60095460009060ff1660068111156108c357fe5b905090565b600080606060006060600080600460009054906101000a90046001600160a01b031660015460026008546003600660009054906101000a90046001600160a01b0316600760009054906101000a90046001600160a01b03168480548060200260200160405190810160405280929190818152602001828054801561097557602002820191906000526020600020905b81546001600160a01b03168152600190910190602001808311610957575b50505050509450828054806020026020016040519081016040528092919081815260200182805480156109d157602002820191906000526020600020905b81546001600160a01b031681526001909101906020018083116109b3575b50505050509250965096509650965096509650965090919293949596565b6005546001600160a01b03828116911614610a3b5760405162461bcd60e51b8152600401808060200182810382526022815260200180610ad16022913960400191505060405180910390fd5b600680546001600160a01b0319166001600160a01b03841617905560026105ac565b6040518060600160405280600390602082028036833750919291505056fe7e89c4b1a4e2b51aae84eb1f90e8a34cb792ece5ac5cb63db4830c891220b28d4f6e6c792057686f6c6573616c6572206f72204469737472696275746f722063616e2063616c6c20746869732066756e6374696f6e746869732057686f6c6573616c6572206973206e6f74204173736f6369617465642e54686973204469737472696275746f72206973206e6f74204173736f6369617465642e4f6e6c79205472616e73706f727465722063616e2063616c6c20746869732066756e6374696f6ea26469706673582212202591812d18abf1bc808ca6a6f488c45a184f64cc40509b26d86675773d68502f64736f6c63430006060033a26469706673582212204e22e1d9274d3037be4c827551600cd74acab08b979d077d1d357acc1efbe92864736f6c63430006060033",
  "immutableReferences": {},
  "source": "pragma solidity ^0.6.6;\n\nimport './RawMaterial.sol';\nimport './Medicine.sol';\n\ncontract Manufacturer {\n    \n    mapping (address => address[]) public manufacturerRawMaterials;\n    mapping (address => address[]) public manufacturerMedicines;\n\n    constructor() public {}\n    \n    function manufacturerReceivedPackage(\n        address _addr,\n        address _manufacturerAddress\n        ) public {\n            \n        RawMaterial(_addr).receivedPackage(_manufacturerAddress);\n        manufacturerRawMaterials[_manufacturerAddress].push(_addr);\n    }\n    \n    \n    function manufacturerCreatesMedicine(\n        address _manufacturerAddr,\n        bytes32 _description,\n        address[] memory _rawAddr,\n        uint _quantity,\n        address[] memory _transporterAddr,\n        address _recieverAddr,\n        uint RcvrType\n        ) public {\n            \n        Medicine _medicine = new Medicine(\n            _manufacturerAddr,\n            _description,\n            _rawAddr,\n            _quantity,\n            _transporterAddr,\n            _recieverAddr,\n            RcvrType\n        );\n        \n        manufacturerMedicines[_manufacturerAddr].push(address(_medicine));\n        \n    }\n    \n}",
  "sourcePath": "/Users/sherwyndsouza/Desktop/Work/Blockchain/Medicine-Supply-Chain/blockchain/contracts/Manufacturer.sol",
  "compiler": {
    "name": "solc",
    "version": "0.6.6+commit.6c089d02.Emscripten.clang"
  },
  "schemaVersion": "3.2.2",
  "updatedAt": "2020-11-11T06:46:00.212Z",
  "devdoc": {
    "methods": {}
  },
  "userdoc": {
    "methods": {}
  }
}