{
  "contractName": "Medicine",
  "abi": [
    {
      "inputs": [
        {
          "internalType": "address",
          "name": "_manufacturerAddr",
          "type": "address"
        },
        {
          "internalType": "bytes32",
          "name": "_description",
          "type": "bytes32"
        },
        {
          "internalType": "address[]",
          "name": "_rawAddr",
          "type": "address[]"
        },
        {
          "internalType": "uint256",
          "name": "_quantity",
          "type": "uint256"
        },
        {
          "internalType": "address[]",
          "name": "_transporterAddr",
          "type": "address[]"
        },
        {
          "internalType": "address",
          "name": "_receiverAddr",
          "type": "address"
        },
        {
          "internalType": "uint256",
          "name": "RcvrType",
          "type": "uint256"
        }
      ],
      "stateMutability": "nonpayable",
      "type": "constructor"
    },
    {
      "anonymous": false,
      "inputs": [
        {
          "indexed": true,
          "internalType": "address",
          "name": "BatchID",
          "type": "address"
        },
        {
          "indexed": true,
          "internalType": "address",
          "name": "Shipper",
          "type": "address"
        },
        {
          "indexed": true,
          "internalType": "address",
          "name": "Receiver",
          "type": "address"
        },
        {
          "indexed": false,
          "internalType": "uint256",
          "name": "TransporterType",
          "type": "uint256"
        },
        {
          "indexed": false,
          "internalType": "uint256",
          "name": "Status",
          "type": "uint256"
        }
      ],
      "name": "ShippmentUpdate",
      "type": "event"
    },
    {
      "inputs": [],
      "name": "getMedicineInfo",
      "outputs": [
        {
          "internalType": "address",
          "name": "_manufacturerAddr",
          "type": "address"
        },
        {
          "internalType": "bytes32",
          "name": "_description",
          "type": "bytes32"
        },
        {
          "internalType": "address[]",
          "name": "_rawAddr",
          "type": "address[]"
        },
        {
          "internalType": "uint256",
          "name": "_quantity",
          "type": "uint256"
        },
        {
          "internalType": "address[]",
          "name": "_transporterAddr",
          "type": "address[]"
        },
        {
          "internalType": "address",
          "name": "_distributor",
          "type": "address"
        },
        {
          "internalType": "address",
          "name": "_customer",
          "type": "address"
        }
      ],
      "stateMutability": "view",
      "type": "function"
    },
    {
      "inputs": [],
      "name": "getWDC",
      "outputs": [
        {
          "internalType": "address[3]",
          "name": "WDP",
          "type": "address[3]"
        }
      ],
      "stateMutability": "view",
      "type": "function"
    },
    {
      "inputs": [],
      "name": "getBatchIDStatus",
      "outputs": [
        {
          "internalType": "uint256",
          "name": "",
          "type": "uint256"
        }
      ],
      "stateMutability": "view",
      "type": "function"
    },
    {
      "inputs": [
        {
          "internalType": "address",
          "name": "_transporterAddr",
          "type": "address"
        }
      ],
      "name": "pickMedicine",
      "outputs": [],
      "stateMutability": "nonpayable",
      "type": "function"
    },
    {
      "inputs": [
        {
          "internalType": "address",
          "name": "_transporterAddr",
          "type": "address"
        }
      ],
      "name": "updateTransporterArray",
      "outputs": [],
      "stateMutability": "nonpayable",
      "type": "function"
    },
    {
      "inputs": [
        {
          "internalType": "address",
          "name": "_receiverAddr",
          "type": "address"
        }
      ],
      "name": "receivedMedicine",
      "outputs": [
        {
          "internalType": "uint256",
          "name": "",
          "type": "uint256"
        }
      ],
      "stateMutability": "nonpayable",
      "type": "function"
    },
    {
      "inputs": [
        {
          "internalType": "address",
          "name": "receiver",
          "type": "address"
        },
        {
          "internalType": "address",
          "name": "sender",
          "type": "address"
        }
      ],
      "name": "sendWtoD",
      "outputs": [],
      "stateMutability": "nonpayable",
      "type": "function"
    },
    {
      "inputs": [
        {
          "internalType": "address",
          "name": "receiver",
          "type": "address"
        }
      ],
      "name": "receivedWtoD",
      "outputs": [],
      "stateMutability": "nonpayable",
      "type": "function"
    },
    {
      "inputs": [
        {
          "internalType": "address",
          "name": "receiver",
          "type": "address"
        },
        {
          "internalType": "address",
          "name": "sender",
          "type": "address"
        }
      ],
      "name": "sendDtoC",
      "outputs": [],
      "stateMutability": "nonpayable",
      "type": "function"
    },
    {
      "inputs": [
        {
          "internalType": "address",
          "name": "receiver",
          "type": "address"
        }
      ],
      "name": "receivedDtoC",
      "outputs": [],
      "stateMutability": "nonpayable",
      "type": "function"
    }
  ],
  "bytecode": "0x60806040523480156200001157600080fd5b5060405162001a2438038062001a24833981810160405260e08110156200003757600080fd5b815160208301516040808501805191519395929483019291846401000000008211156200006357600080fd5b9083019060208201858111156200007957600080fd5b82518660208202830111640100000000821117156200009757600080fd5b82525081516020918201928201910280838360005b83811015620000c6578181015183820152602001620000ac565b505050509050016040526020018051906020019092919080516040519392919084640100000000821115620000fa57600080fd5b9083019060208201858111156200011057600080fd5b82518660208202830111640100000000821117156200012e57600080fd5b82525081516020918201928201910280838360005b838110156200015d57818101518382015260200162000143565b505050509190910160409081526020838101519390910151600080546001600160a01b038d166001600160a01b0319918216811790925560048054909116909117905560018a905588519395509350620001bf926002925090880190620002a1565b5060088490558251620001da906003906020860190620002a1565b5080600114156200020657600580546001600160a01b0319166001600160a01b0384161790556200022c565b80600214156200022c57600680546001600160a01b0319166001600160a01b0384161790555b6000876040516200023d906200030b565b6001600160a01b03909116815260405190819003602001906000f0801580156200026b573d6000803e3d6000fd5b50600980546001600160a01b0390921661010002610100600160a81b031990921691909117905550620003439650505050505050565b828054828255906000526020600020908101928215620002f9579160200282015b82811115620002f957825182546001600160a01b0319166001600160a01b03909116178255602090920191600190910190620002c2565b506200030792915062000319565b5090565b610b638062000ec183390190565b6200034091905b80821115620003075780546001600160a01b031916815560010162000320565b90565b610b6e80620003536000396000f3fe608060405234801561001057600080fd5b506004361061009e5760003560e01c8063ac42a41511610066578063ac42a41514610197578063c8f5f189146101bd578063d2f3fcc7146101e3578063e002c8a5146101eb578063f5c0e383146102e55761009e565b80631fedd36c146100a35780632f1d7588146100db57806393a668b71461010b578063aab3a9d614610131578063abb428a614610157575b600080fd5b6100c9600480360360208110156100b957600080fd5b50356001600160a01b0316610313565b60408051918252519081900360200190f35b610109600480360360408110156100f157600080fd5b506001600160a01b038135811691602001351661053e565b005b6101096004803603602081101561012157600080fd5b50356001600160a01b03166105c7565b6101096004803603602081101561014757600080fd5b50356001600160a01b0316610634565b61015f610686565b6040518082606080838360005b8381101561018457818101518382015260200161016c565b5050505090500191505060405180910390f35b610109600480360360208110156101ad57600080fd5b50356001600160a01b03166106c1565b610109600480360360208110156101d357600080fd5b50356001600160a01b0316610842565b6100c96108ab565b6101f36108c4565b60405180886001600160a01b03166001600160a01b031681526020018781526020018060200186815260200180602001856001600160a01b03166001600160a01b03168152602001846001600160a01b03166001600160a01b03168152602001838103835288818151815260200191508051906020019060200280838360005b8381101561028b578181015183820152602001610273565b50505050905001838103825286818151815260200191508051906020019060200280838360005b838110156102ca5781810151838201526020016102b2565b50505050905001995050505050505050505060405180910390f35b610109600480360360408110156102fb57600080fd5b506001600160a01b03813581169160200135166109eb565b6005546000906001600160a01b038381169116148061033f57506006546001600160a01b038381169116145b61037a5760405162461bcd60e51b8152600401808060200182810382526035815260200180610a986035913960400191505060405180910390fd5b60095460019060ff16600681111561038e57fe5b10156103dd576040805162461bcd60e51b8152602060048201526019602482015278141c9bd91d58dd081b9bdd081c1a58dad959081d5c081e595d603a1b604482015290519081900360640190fd5b6005546001600160a01b03838116911614801561040a5750600160095460ff16600681111561040857fe5b145b1561048e576009805460ff1916600390811790915560055481546001600160a01b039091169190600019810190811061043f57fe5b60009182526020918290200154604080516002815260039381019390935280516001600160a01b03909216923092600080516020610a78833981519152929181900390910190a4506001610539565b6006546001600160a01b0383811691161480156104bb5750600260095460ff1660068111156104b957fe5b145b15610539576009805460ff19166004179055600654600380546001600160a01b039092169160001981019081106104ee57fe5b60009182526020918290200154604080516003815260049381019390935280516001600160a01b03909216923092600080516020610a78833981519152929181900390910190a45060025b919050565b6006546001600160a01b0382811691161461058a5760405162461bcd60e51b8152600401808060200182810382526023815260200180610aef6023913960400191505060405180910390fd5b600780546001600160a01b0319166001600160a01b03841617905560055b6009805460ff191660018360068111156105be57fe5b02179055505050565b6006546001600160a01b038281169116146106135760405162461bcd60e51b8152600401808060200182810382526023815260200180610aef6023913960400191505060405180910390fd5b60045b6009805460ff1916600183600681111561062c57fe5b021790555050565b600380546001810182556000919091527fc2575a0e9e593c00f959f8c92f12db2869c3395a3b0502d05e2516446f71f85b0180546001600160a01b0319166001600160a01b0392909216919091179055565b61068e610a59565b50604080516060810182526005546001600160a01b03908116825260065481166020830152600754169181019190915290565b6003805460001981019081106106d357fe5b6000918252602090912001546001600160a01b038281169116146107285760405162461bcd60e51b8152600401808060200182810382526027815260200180610b126027913960400191505060405180910390fd5b600060095460ff16600681111561073b57fe5b1461078d576040805162461bcd60e51b815260206004820181905260248201527f5061636b616765206d757374206265206174204d616e7566616374757265722e604482015290519081900360640190fd5b6005546001600160a01b0316156107f0576009805460ff1916600190811790915560055460408051838152602081019390935280516001600160a01b0392831693928516923092600080516020610a7883398151915292918290030190a461083f565b6009805460ff191660029081179091556006546040805160018152602081019390935280516001600160a01b0392831693928516923092600080516020610a7883398151915292918290030190a45b50565b6007546001600160a01b038281169116146108a4576040805162461bcd60e51b815260206004820181905260248201527f5468697320437573746f6d6572206973206e6f74204173736f6369617465642e604482015290519081900360640190fd5b6006610616565b60095460009060ff1660068111156108bf57fe5b905090565b600080606060006060600080600460009054906101000a90046001600160a01b031660015460026008546003600660009054906101000a90046001600160a01b0316600760009054906101000a90046001600160a01b03168480548060200260200160405190810160405280929190818152602001828054801561097157602002820191906000526020600020905b81546001600160a01b03168152600190910190602001808311610953575b50505050509450828054806020026020016040519081016040528092919081815260200182805480156109cd57602002820191906000526020600020905b81546001600160a01b031681526001909101906020018083116109af575b50505050509250965096509650965096509650965090919293949596565b6005546001600160a01b03828116911614610a375760405162461bcd60e51b8152600401808060200182810382526022815260200180610acd6022913960400191505060405180910390fd5b600680546001600160a01b0319166001600160a01b03841617905560026105a8565b6040518060600160405280600390602082028036833750919291505056fe7e89c4b1a4e2b51aae84eb1f90e8a34cb792ece5ac5cb63db4830c891220b28d4f6e6c792057686f6c6573616c6572206f72204469737472696275746f722063616e2063616c6c20746869732066756e6374696f6e746869732057686f6c6573616c6572206973206e6f74204173736f6369617465642e54686973204469737472696275746f72206973206e6f74204173736f6369617465642e4f6e6c79205472616e73706f727465722063616e2063616c6c20746869732066756e6374696f6ea264697066735822122060620228bbbd23bdd9e492a29e741ff334efcefe3dd2c613969b79b5684d09b564736f6c634300060600336080604052600060025534801561001557600080fd5b50604051610b63380380610b6383398101604081905261003491610059565b600080546001600160a01b0319166001600160a01b0392909216919091179055610087565b60006020828403121561006a578081fd5b81516001600160a01b0381168114610080578182fd5b9392505050565b610acd806100966000396000f3fe608060405234801561001057600080fd5b506004361061004c5760003560e01c806327506f53146100515780633626a3681461006f57806378ce1365146100845780639ace38c214610099575b600080fd5b6100596100bf565b60405161006691906108b6565b60405180910390f35b61008261007d3660046107bb565b6102c7565b005b61008c61050b565b6040516100669190610a76565b6100ac6100a7366004610853565b610511565b604051610066979695949392919061097f565b600254606090818167ffffffffffffffff811180156100dd57600080fd5b5060405190808252806020026020018201604052801561011757816020015b61010461066a565b8152602001906001900390816100fc5790505b50905060005b828110156102bf57600081815260016020818152604092839020835160e08101855281548152818401546001600160a01b0390811682850152600280840154909116828701526003830154606083015260048301805487516101009782161597909702600019011691909104601f81018590048502860185019096528585529094919360808601939092908301828280156101f95780601f106101ce576101008083540402835291602001916101f9565b820191906000526020600020905b8154815290600101906020018083116101dc57829003601f168201915b505050918352505060058201805460408051602060026001851615610100026000190190941693909304601f810184900484028201840190925281815293820193929183018282801561028d5780601f106102625761010080835404028352916020019161028d565b820191906000526020600020905b81548152906001019060200180831161027057829003601f168201915b505050505081526020016006820154815250508282815181106102ac57fe5b602090810291909101015260010161011d565b509150505b90565b60025442906103a6576040805160e0810182528881526001600160a01b038089166020808401918252898316848601908152606085018a8152608086018a815260a087018a905260c08701899052600280546000908152600180875299902088518155955198860180549988166001600160a01b03199a8b1617905592519285018054939096169290971691909117909355915160038201559251805192939261037792600485019201906106a5565b5060a082015180516103939160058401916020909101906106a5565b5060c082015181600601559050506104b5565b6002546000190160009081526001602052604090205484146103e35760405162461bcd60e51b81526004016103da90610a3f565b60405180910390fd5b6040805160e0810182528881526001600160a01b038089166020808401918252898316848601908152606085018a8152608086018a815260a087018a905260c08701899052600280546000908152600180875299902088518155955198860180549988166001600160a01b03199a8b1617905592519285018054939096169290971691909117909355915160038201559251805192939261048a92600485019201906106a5565b5060a082015180516104a69160058401916020909101906106a5565b5060c082015181600601559050505b6002805460010190556040517f30d01d358fb0899fe4d50947b2e9301c952d9eed09b14c7ecdcbeed4434557c4906104fa90899089908990899087908a908a906109df565b60405180910390a150505050505050565b60025481565b60016020818152600092835260409283902080548184015460028084015460038501546004860180548a516101009a8216159a909a02600019011693909304601f810188900488028901880190995288885293976001600160a01b039384169793909116959394938301828280156105ca5780601f1061059f576101008083540402835291602001916105ca565b820191906000526020600020905b8154815290600101906020018083116105ad57829003601f168201915b5050505060058301805460408051602060026001851615610100026000190190941693909304601f810184900484028201840190925281815294959493509083018282801561065a5780601f1061062f5761010080835404028352916020019161065a565b820191906000526020600020905b81548152906001019060200180831161063d57829003601f168201915b5050505050908060060154905087565b6040805160e08101825260008082526020820181905291810182905260608082018390526080820181905260a082015260c081019190915290565b828054600181600116156101000203166002900490600052602060002090601f016020900481019282601f106106e657805160ff1916838001178555610713565b82800160010185558215610713579182015b828111156107135782518255916020019190600101906106f8565b5061071f929150610723565b5090565b6102c491905b8082111561071f5760008155600101610729565b600082601f83011261074d578081fd5b813567ffffffffffffffff80821115610764578283fd5b604051601f8301601f191681016020018281118282101715610784578485fd5b60405282815292508284830160200186101561079f57600080fd5b8260208601602083013760006020848301015250505092915050565b60008060008060008060c087890312156107d3578182fd5b8635955060208701356107e581610a7f565b945060408701356107f581610a7f565b935060608701359250608087013567ffffffffffffffff80821115610818578384fd5b6108248a838b0161073d565b935060a0890135915080821115610839578283fd5b5061084689828a0161073d565b9150509295509295509295565b600060208284031215610864578081fd5b5035919050565b60008151808452815b8181101561089057602081850181015186830182015201610874565b818111156108a15782602083870101525b50601f01601f19169290920160200192915050565b60208082528251828201819052600091906040908185019080840286018301878501865b8381101561097157888303603f19018552815180518452878101516001600160a01b03908116898601528782015116878501526060808201519085015260808082015160e082870181905291906109338388018261086b565b91505060a09150818301518682038388015261094f828261086b565b60c09485015197909401969096525050948701949250908601906001016108da565b509098975050505050505050565b8781526001600160a01b038781166020830152861660408201526060810185905260e0608082018190526000906109b89083018661086b565b82810360a08401526109ca818661086b565b9150508260c083015298975050505050505050565b8781526001600160a01b03878116602083015286166040820152606081018590526080810184905260e060a08201819052600090610a1f9083018561086b565b82810360c0840152610a31818561086b565b9a9950505050505050505050565b6020808252601b908201527f5472616e73616374696f6e206572726f72206f63637572726564210000000000604082015260600190565b90815260200190565b6001600160a01b0381168114610a9457600080fd5b5056fea26469706673582212208e8c92ee2ddb954d56a57dcb6fab8b5247c07a9e0c2299012988b1c986ef221464736f6c63430006060033",
  "immutableReferences": {},
  "source": "pragma solidity ^0.6.6;\n\nimport './Transactions.sol';\n\ncontract Medicine {\n\n    address Owner;\n\n    enum medicineStatus {\n        atManufacturer,\n        pickedForW,\n        pickedForD,\n        deliveredAtW,\n        deliveredAtD,\n        pickedForC,\n        deliveredAtC\n    }\n\n    bytes32 description;\n    address[] rawMaterials;\n    address[] transporters;\n    address manufacturer;\n    address wholesaler;\n    address distributor;\n    address customer;\n    uint quantity;\n    medicineStatus status;\n    address txnContractAddress;\n\n    event ShippmentUpdate(\n        address indexed BatchID,\n        address indexed Shipper,\n        address indexed Receiver,\n        uint TransporterType,\n        uint Status\n    );\n\n\n    constructor(\n        address _manufacturerAddr,\n        bytes32 _description,\n        address[] memory _rawAddr,\n        uint _quantity,\n        address[] memory _transporterAddr,\n        address _receiverAddr,\n        uint RcvrType\n    ) public {\n        Owner = _manufacturerAddr;\n        manufacturer = _manufacturerAddr;\n        description = _description;\n        rawMaterials = _rawAddr;\n        quantity = _quantity;\n        transporters = _transporterAddr;\n        if(RcvrType == 1) {\n            wholesaler = _receiverAddr;\n        } else if( RcvrType == 2){\n            distributor = _receiverAddr;\n        }\n        Transactions txnContract = new Transactions(_manufacturerAddr);\n        txnContractAddress = address(txnContract);\n    }\n\n\n    function getMedicineInfo () public view returns(\n        address _manufacturerAddr,\n        bytes32 _description,\n        address[] memory _rawAddr,\n        uint _quantity,\n        address[] memory _transporterAddr,\n        address _distributor,\n        address _customer\n    ) {\n        return(\n            manufacturer,\n            description,\n            rawMaterials,\n            quantity,\n            transporters,\n            distributor,\n            customer\n        );\n    }\n\n \n    function getWDC() public view returns(\n        address[3] memory WDP\n    ) {\n        return (\n            [wholesaler, distributor, customer]\n        );\n    }\n\n    function getBatchIDStatus() public view returns(\n        uint\n    ) {\n        return uint(status);\n    }\n\n\n    function pickMedicine(\n        address _transporterAddr\n    ) public {\n        require(\n            _transporterAddr == transporters[transporters.length - 1],\n            \"Only Transporter can call this function\"\n        );\n        require(\n            status == medicineStatus(0),\n            \"Package must be at Manufacturer.\"\n        );\n\n        if(wholesaler != address(0x0)){\n            status = medicineStatus(1);\n            emit ShippmentUpdate(address(this), _transporterAddr, wholesaler, 1, 1);\n        }else{\n            status = medicineStatus(2);\n            emit ShippmentUpdate(address(this), _transporterAddr, distributor, 1, 2);\n        }\n    }\n    \n    function updateTransporterArray(address _transporterAddr) public {\n        transporters.push(_transporterAddr);\n    }\n\n\n    function receivedMedicine(\n        address _receiverAddr\n    ) public\n    returns(uint)\n    {\n\n        require(\n            _receiverAddr == wholesaler || _receiverAddr == distributor,\n            \"Only Wholesaler or Distributor can call this function\"\n        );\n\n        require(\n            uint(status) >= 1,\n            \"Product not picked up yet\"\n        );\n\n        if(_receiverAddr == wholesaler && status == medicineStatus(1)){\n            status = medicineStatus(3);\n            emit ShippmentUpdate(address(this), transporters[transporters.length - 1], wholesaler, 2, 3);\n            return 1;\n        } else if(_receiverAddr == distributor && status == medicineStatus(2)){\n            status = medicineStatus(4);\n            emit ShippmentUpdate(address(this), transporters[transporters.length - 1], distributor,3, 4);\n            return 2;\n        }\n    }\n\n\n    function sendWtoD(\n        address receiver,\n        address sender\n    ) public {\n        require(\n            wholesaler == sender,\n            \"this Wholesaler is not Associated.\"\n        );\n        distributor = receiver;\n        status = medicineStatus(2);\n    }\n\n\n    function receivedWtoD(\n        address receiver\n    ) public {\n        require(\n            distributor == receiver,\n            \"This Distributor is not Associated.\"\n        );\n        status = medicineStatus(4);\n    }\n\n\n    function sendDtoC(\n        address receiver,\n        address sender\n    ) public {\n        require(\n            distributor == sender,\n            \"This Distributor is not Associated.\"\n        );\n        customer = receiver;\n        status = medicineStatus(5);\n    }\n\n\n    function receivedDtoC(\n        address receiver\n    ) public {\n        require(\n            customer == receiver,\n            \"This Customer is not Associated.\"\n        );\n        status = medicineStatus(6);\n    }\n}",
  "sourcePath": "/Users/sherwyndsouza/Desktop/Work/Blockchain/Medicine-Supply-Chain/blockchain/testing/Medicine.sol",
  "compiler": {
    "name": "solc",
    "version": "0.6.6+commit.6c089d02.Emscripten.clang"
  },
  "schemaVersion": "3.2.2",
  "updatedAt": "2020-12-20T13:43:36.832Z",
  "devdoc": {
    "methods": {}
  },
  "userdoc": {
    "methods": {}
  }
}