{
  "contractName": "RawMaterial",
  "abi": [
    {
      "inputs": [
        {
          "internalType": "address",
          "name": "_creatorAddr",
          "type": "address"
        },
        {
          "internalType": "address",
          "name": "_productid",
          "type": "address"
        },
        {
          "internalType": "bytes32",
          "name": "_description",
          "type": "bytes32"
        },
        {
          "internalType": "string",
          "name": "_locationx",
          "type": "string"
        },
        {
          "internalType": "string",
          "name": "_locationy",
          "type": "string"
        },
        {
          "internalType": "uint256",
          "name": "_quantity",
          "type": "uint256"
        },
        {
          "internalType": "address",
          "name": "_transporterAddr",
          "type": "address"
        },
        {
          "internalType": "address",
          "name": "_manufacturerAddr",
          "type": "address"
        }
      ],
      "stateMutability": "nonpayable",
      "type": "constructor"
    },
    {
      "anonymous": false,
      "inputs": [
        {
          "indexed": true,
          "internalType": "address",
          "name": "ProductID",
          "type": "address"
        },
        {
          "indexed": true,
          "internalType": "address",
          "name": "Transporter",
          "type": "address"
        },
        {
          "indexed": true,
          "internalType": "address",
          "name": "Manufacturer",
          "type": "address"
        },
        {
          "indexed": false,
          "internalType": "uint256",
          "name": "TransporterType",
          "type": "uint256"
        },
        {
          "indexed": false,
          "internalType": "uint256",
          "name": "Status",
          "type": "uint256"
        }
      ],
      "name": "ShippmentUpdate",
      "type": "event"
    },
    {
      "inputs": [],
      "name": "getSuppliedRawMaterials",
      "outputs": [
        {
          "internalType": "address",
          "name": "",
          "type": "address"
        },
        {
          "internalType": "bytes32",
          "name": "",
          "type": "bytes32"
        },
        {
          "internalType": "string[]",
          "name": "",
          "type": "string[]"
        },
        {
          "internalType": "uint256",
          "name": "",
          "type": "uint256"
        },
        {
          "internalType": "address",
          "name": "",
          "type": "address"
        },
        {
          "internalType": "address",
          "name": "",
          "type": "address"
        },
        {
          "internalType": "address",
          "name": "",
          "type": "address"
        }
      ],
      "stateMutability": "view",
      "type": "function"
    },
    {
      "inputs": [],
      "name": "getRawMaterialStatus",
      "outputs": [
        {
          "internalType": "uint256",
          "name": "",
          "type": "uint256"
        }
      ],
      "stateMutability": "view",
      "type": "function"
    },
    {
      "inputs": [
        {
          "internalType": "address",
          "name": "_transporterAddr",
          "type": "address"
        }
      ],
      "name": "pickPackage",
      "outputs": [],
      "stateMutability": "nonpayable",
      "type": "function"
    },
    {
      "inputs": [
        {
          "internalType": "address",
          "name": "_manufacturerAddr",
          "type": "address"
        }
      ],
      "name": "receivedPackage",
      "outputs": [],
      "stateMutability": "nonpayable",
      "type": "function"
    }
  ],
  "bytecode": "0x60806040523480156200001157600080fd5b50604051620009eb380380620009eb8339810160408190526200003491620002c0565b600080546001600160a01b03808b166001600160a01b03199283161790925560018054928a1692909116919091179055600286905584516200007e90600390602088019062000156565b5083516200009490600390602087019062000156565b506006839055600780546001600160a01b03199081166001600160a01b03858116919091179092556008805482168484161790556009805460ff60a01b199216928b16929092171690556005805460018101825560009190915285516200011291600080516020620009cb8339815191520190602088019062000156565b506005805460018101825560009190915284516200014791600080516020620009cb8339815191520190602087019062000156565b5050505050505050506200038a565b828054600181600116156101000203166002900490600052602060002090601f016020900481019282601f106200019957805160ff1916838001178555620001c9565b82800160010185558215620001c9579182015b82811115620001c9578251825591602001919060010190620001ac565b50620001d7929150620001db565b5090565b620001f891905b80821115620001d75760008155600101620001e2565b90565b80516001600160a01b03811681146200021357600080fd5b92915050565b600082601f8301126200022a578081fd5b81516001600160401b038082111562000241578283fd5b6040516020601f8401601f191682018101838111838210171562000263578586fd5b806040525081945083825286818588010111156200028057600080fd5b600092505b83831015620002a4578583018101518284018201529182019162000285565b83831115620002b65760008185840101525b5050505092915050565b600080600080600080600080610100898b031215620002dd578384fd5b620002e98a8a620001fb565b9750620002fa8a60208b01620001fb565b60408a015160608b015191985096506001600160401b03808211156200031e578586fd5b6200032c8c838d0162000219565b965060808b015191508082111562000342578586fd5b50620003518b828c0162000219565b94505060a089015192506200036a8a60c08b01620001fb565b91506200037b8a60e08b01620001fb565b90509295985092959890939650565b610631806200039a6000396000f3fe608060405234801561001057600080fd5b506004361061004c5760003560e01c806352b9996814610051578063638e9a3d146100665780636b099dca146100795780638072352014610097575b600080fd5b61006461005f36600461039b565b6100b2565b005b61006461007436600461039b565b61018d565b610081610253565b60405161008e91906105f2565b60405180910390f35b61009f610273565b60405161008e9796959493929190610421565b6008546001600160a01b038281169116146100e85760405162461bcd60e51b81526004016100df9061050e565b60405180910390fd5b6001600954600160a01b900460ff16600281111561010257fe5b1461011f5760405162461bcd60e51b81526004016100df906104d7565b6009805460ff60a01b1916600160a11b179055600854600754600180546040516001600160a01b039485169493841693909116917f7e89c4b1a4e2b51aae84eb1f90e8a34cb792ece5ac5cb63db4830c891220b28d9161018291906002906104c9565b60405180910390a450565b6007546001600160a01b038281169116146101ba5760405162461bcd60e51b81526004016100df906105a2565b6000600954600160a01b900460ff1660028111156101d457fe5b146101f15760405162461bcd60e51b81526004016100df9061056b565b6009805460ff60a01b1916600160a01b179055600854600754600180546040516001600160a01b039485169493841693909116917f7e89c4b1a4e2b51aae84eb1f90e8a34cb792ece5ac5cb63db4830c891220b28d91610182919081906104c9565b600954600090600160a01b900460ff16600281111561026e57fe5b905090565b60015460025460065460095460075460085460058054604080516020808402820181019092528281526000998a996060998b998a998a998a996001600160a01b0396871699959890979496938416959284169493909116929187918b9084015b8282101561037e5760008481526020908190208301805460408051601f600260001961010060018716150201909416939093049283018590048502810185019091528181529283018282801561036a5780601f1061033f5761010080835404028352916020019161036a565b820191906000526020600020905b81548152906001019060200180831161034d57829003601f168201915b5050505050815260200190600101906102d3565b505050509450965096509650965096509650965090919293949596565b6000602082840312156103ac578081fd5b81356001600160a01b03811681146103c2578182fd5b9392505050565b60008151808452815b818110156103ee576020818501810151868301820152016103d2565b818111156103ff5782602083870101525b50601f01601f19169290920160200192915050565b6001600160a01b03169052565b600060e0820160018060a01b038a1683526020898185015260e0604085015281895161044d81856105f2565b91508193508281028201838c01865b838110156104865786830385526104748383516103c9565b9486019492509085019060010161045c565b505080955050505050508560608301526104a36080830186610414565b6104b060a0830185610414565b6104bd60c0830184610414565b98975050505050505050565b918252602082015260400190565b60208082526019908201527f50726f64756374206e6f74207069636b65642075702079657400000000000000604082015260600190565b60208082526039908201527f4f6e6c79204d616e756661637475726572206f6620746865207061636b61676560408201527f2063616e20726563656965766520746865207061636b61676500000000000000606082015260800190565b6020808252601c908201527f5061636b616765206d75737420626520617420537570706c6965722e00000000604082015260600190565b60208082526030908201527f4f6e6c79207472616e73706f72746572206f6620746865207061636b6167652060408201526f63616e207069636b207061636b61676560801b606082015260800190565b9081526020019056fea26469706673582212201b155970daa004b501e9f27bb00a41b51fe38e75628cce79c25a0544416d03c764736f6c63430006060033036b6384b5eca791c62761152d0c79bb0604c104a5fb6f4eb0703f3154bb3db0",
  "immutableReferences": {},
  "source": "pragma solidity ^0.6.6;\r\npragma experimental ABIEncoderV2;\r\n\r\ncontract RawMaterial {\r\n    \r\n    address Owner;\r\n\r\n    enum packageStatus { atCreator, picked, delivered }\r\n    \r\n    event ShippmentUpdate(\r\n        address indexed ProductID,\r\n        address indexed Transporter,\r\n        address indexed Manufacturer,\r\n        uint TransporterType,\r\n        uint Status\r\n    );\r\n\r\n    address productid;\r\n    bytes32 description;\r\n    string locationx;\r\n    string locationy;\r\n    string[] locationArr;\r\n    uint quantity;\r\n    address transporter;\r\n    address manufacturer;\r\n    address supplier;\r\n    packageStatus status;\r\n    bytes32 packageReceiverDescription;\r\n\r\n    \r\n    constructor (\r\n        address _creatorAddr,\r\n        address _productid,\r\n        bytes32 _description,\r\n        string memory _locationx,\r\n        string memory _locationy,\r\n        uint _quantity,\r\n        address _transporterAddr,\r\n        address _manufacturerAddr\r\n    ) public {\r\n        Owner = _creatorAddr;\r\n        productid = _productid;\r\n        description = _description;\r\n        locationx = _locationx;\r\n        locationx = _locationy;\r\n        quantity = _quantity;\r\n        transporter = _transporterAddr;\r\n        manufacturer = _manufacturerAddr;\r\n        supplier = _creatorAddr;\r\n        status = packageStatus(0);\r\n        locationArr.push(_locationx);\r\n        locationArr.push(_locationy);\r\n    }\r\n\r\n\r\n    function getSuppliedRawMaterials () public view returns(\r\n        address,\r\n        bytes32,\r\n        string[] memory,\r\n        uint,\r\n        address,\r\n        address,\r\n        address\r\n    ) {\r\n        return (productid, description, locationArr, quantity, supplier, transporter, manufacturer);\r\n    }\r\n\r\n\r\n\r\n    function getRawMaterialStatus() public view returns(\r\n        uint\r\n    ) {\r\n        return uint(status);\r\n    }\r\n\r\n\r\n\r\n    function pickPackage(\r\n        address _transporterAddr\r\n    ) public {\r\n        require(\r\n            _transporterAddr == transporter,\r\n            \"Only transporter of the package can pick package\"\r\n        );\r\n        require(\r\n            status == packageStatus(0),\r\n            \"Package must be at Supplier.\"\r\n        );\r\n        status = packageStatus(1);\r\n        emit ShippmentUpdate(productid, transporter, manufacturer, 1, 1);\r\n    }\r\n\r\n    \r\n    function receivedPackage(\r\n        address _manufacturerAddr\r\n    ) public {\r\n\r\n        require(\r\n            _manufacturerAddr == manufacturer,\r\n            \"Only Manufacturer of the package can receieve the package\"\r\n        );\r\n\r\n        require(\r\n            status == packageStatus(1),\r\n            \"Product not picked up yet\"\r\n        );\r\n        status = packageStatus(2);\r\n        emit ShippmentUpdate(productid, transporter, manufacturer, 1, 2);\r\n    }\r\n}",
  "sourcePath": "C:\\Users\\Sherwyn\\Desktop\\GitHub\\Medicine-Supply-Chain\\blockchain\\src\\contracts\\RawMaterial.sol",
  "compiler": {
    "name": "solc",
    "version": "0.6.6+commit.6c089d02.Emscripten.clang"
  },
  "schemaVersion": "3.3.1",
  "updatedAt": "2020-11-05T09:09:42.218Z",
  "devdoc": {
    "methods": {}
  },
  "userdoc": {
    "methods": {}
  }
}