{
  "contractName": "RawMaterial",
  "abi": [
    {
      "inputs": [
        {
          "internalType": "address",
          "name": "_creatorAddr",
          "type": "address"
        },
        {
          "internalType": "address",
          "name": "_productid",
          "type": "address"
        },
        {
          "internalType": "bytes32",
          "name": "_description",
          "type": "bytes32"
        },
        {
          "internalType": "uint256[]",
          "name": "_locationArr",
          "type": "uint256[]"
        },
        {
          "internalType": "uint256",
          "name": "_quantity",
          "type": "uint256"
        },
        {
          "internalType": "address",
          "name": "_transporterAddr",
          "type": "address"
        },
        {
          "internalType": "address",
          "name": "_manufacturerAddr",
          "type": "address"
        }
      ],
      "stateMutability": "nonpayable",
      "type": "constructor"
    },
    {
      "anonymous": false,
      "inputs": [
        {
          "indexed": true,
          "internalType": "address",
          "name": "ProductID",
          "type": "address"
        },
        {
          "indexed": true,
          "internalType": "address",
          "name": "Transporter",
          "type": "address"
        },
        {
          "indexed": true,
          "internalType": "address",
          "name": "Manufacturer",
          "type": "address"
        },
        {
          "indexed": false,
          "internalType": "uint256",
          "name": "TransporterType",
          "type": "uint256"
        },
        {
          "indexed": false,
          "internalType": "uint256",
          "name": "Status",
          "type": "uint256"
        }
      ],
      "name": "ShippmentUpdate",
      "type": "event"
    },
    {
      "inputs": [],
      "name": "getSuppliedRawMaterials",
      "outputs": [
        {
          "internalType": "address",
          "name": "",
          "type": "address"
        },
        {
          "internalType": "bytes32",
          "name": "",
          "type": "bytes32"
        },
        {
          "internalType": "uint256[]",
          "name": "",
          "type": "uint256[]"
        },
        {
          "internalType": "uint256",
          "name": "",
          "type": "uint256"
        },
        {
          "internalType": "address",
          "name": "",
          "type": "address"
        },
        {
          "internalType": "address",
          "name": "",
          "type": "address"
        },
        {
          "internalType": "address",
          "name": "",
          "type": "address"
        }
      ],
      "stateMutability": "view",
      "type": "function"
    },
    {
      "inputs": [],
      "name": "getRawMaterialStatus",
      "outputs": [
        {
          "internalType": "uint256",
          "name": "",
          "type": "uint256"
        }
      ],
      "stateMutability": "view",
      "type": "function"
    },
    {
      "inputs": [
        {
          "internalType": "address",
          "name": "_transporterAddr",
          "type": "address"
        }
      ],
      "name": "pickPackage",
      "outputs": [],
      "stateMutability": "nonpayable",
      "type": "function"
    },
    {
      "inputs": [
        {
          "internalType": "address",
          "name": "_manufacturerAddr",
          "type": "address"
        }
      ],
      "name": "receivedPackage",
      "outputs": [],
      "stateMutability": "nonpayable",
      "type": "function"
    }
  ],
  "bytecode": "0x608060405234801561001057600080fd5b506040516106fd3803806106fd833981810160405260e081101561003357600080fd5b81516020830151604080850151606086018051925194969395919493918201928464010000000082111561006657600080fd5b90830190602082018581111561007b57600080fd5b825186602082028301116401000000008211171561009857600080fd5b82525081516020918201928201910280838360005b838110156100c55781810151838201526020016100ad565b5050505091909101604090815260208381015191840151606090940151600080546001600160a01b03808e166001600160a01b03199283161790925560018054928d169290911691909117905560028990558751929650939450610130925060039190870190610187565b50600492909255600580546001600160a01b03199081166001600160a01b0393841617909155600680548216938316939093179092556007805460ff60a01b199316969091169590951716909355506101ef915050565b8280548282559060005260206000209081019282156101c2579160200282015b828111156101c25782518255916020019190600101906101a7565b506101ce9291506101d2565b5090565b6101ec91905b808211156101ce57600081556001016101d8565b90565b6104ff806101fe6000396000f3fe608060405234801561001057600080fd5b506004361061004c5760003560e01c806352b9996814610051578063638e9a3d146100795780636b099dca1461009f57806380723520146100b9575b600080fd5b6100776004803603602081101561006757600080fd5b50356001600160a01b0316610152565b005b6100776004803603602081101561008f57600080fd5b50356001600160a01b0316610263565b6100a7610378565b60408051918252519081900360200190f35b6100c1610398565b604080516001600160a01b03808a16825260208083018a905260608301889052868216608084015285821660a084015290841660c083015260e09282018381528851938301939093528751919291610100840191898101910280838360005b83811015610138578181015183820152602001610120565b505050509050019850505050505050505060405180910390f35b6006546001600160a01b0382811691161461019e5760405162461bcd60e51b81526004018080602001828103825260398152602001806104616039913960400191505060405180910390fd5b6001600754600160a01b900460ff1660028111156101b857fe5b14610206576040805162461bcd60e51b8152602060048201526019602482015278141c9bd91d58dd081b9bdd081c1a58dad959081d5c081e595d603a1b604482015290519081900360640190fd5b6007805460ff60a01b1916600160a11b17905560065460055460018054604080519283526002602084015280516001600160a01b03958616959485169490921692600080516020610441833981519152929081900390910190a450565b6005546001600160a01b038281169116146102af5760405162461bcd60e51b815260040180806020018281038252603081526020018061049a6030913960400191505060405180910390fd5b6000600754600160a01b900460ff1660028111156102c957fe5b1461031a576040805162461bcd60e51b815260206004820152601c60248201527b2830b1b5b0b3b29036bab9ba1031329030ba1029bab8383634b2b91760211b604482015290519081900360640190fd5b6007805460ff60a01b1916600160a01b1790556006546005546001805460408051838152602081019390935280516001600160a01b03958616959485169490921692600080516020610441833981519152929081900390910190a450565b600754600090600160a01b900460ff16600281111561039357fe5b905090565b60015460025460045460075460055460065460038054604080516020808402820181019092528281526000998a996060998b998a998a998a996001600160a01b03968716999598909794969384169592841694939091169291879183018282801561042257602002820191906000526020600020905b81548152602001906001019080831161040e575b5050505050945096509650965096509650965096509091929394959656fe7e89c4b1a4e2b51aae84eb1f90e8a34cb792ece5ac5cb63db4830c891220b28d4f6e6c79204d616e756661637475726572206f6620746865207061636b6167652063616e20726563656965766520746865207061636b6167654f6e6c79207472616e73706f72746572206f6620746865207061636b6167652063616e207069636b207061636b616765a2646970667358221220358d43744237a33efb6839893a4b38378fcf607079f9b7d5843b12f2e0e3bc9364736f6c63430006060033",
  "immutableReferences": {},
  "source": "pragma solidity ^0.6.6;\n\ncontract RawMaterial {\n    \n    address Owner;\n\n    enum packageStatus { atCreator, picked, delivered }\n    \n    event ShippmentUpdate(\n        address indexed ProductID,\n        address indexed Transporter,\n        address indexed Manufacturer,\n        uint TransporterType,\n        uint Status\n    );\n\n    address productid;\n    bytes32 description;\n    uint[] location;\n    uint quantity;\n    address transporter;\n    address manufacturer;\n    address supplier;\n    packageStatus status;\n    bytes32 packageReceiverDescription;\n\n    \n    constructor (\n        address _creatorAddr,\n        address _productid,\n        bytes32 _description,\n        uint[] memory _locationArr,\n        uint _quantity,\n        address _transporterAddr,\n        address _manufacturerAddr\n    ) public {\n        Owner = _creatorAddr;\n        productid = _productid;\n        description = _description;\n        location = _locationArr;\n        quantity = _quantity;\n        transporter = _transporterAddr;\n        manufacturer = _manufacturerAddr;\n        supplier = _creatorAddr;\n        status = packageStatus(0);\n    }\n\n\n    function getSuppliedRawMaterials () public view returns(\n        address,\n        bytes32,\n        uint[] memory,\n        uint,\n        address,\n        address,\n        address\n    ) {\n        return (productid, description, location, quantity, supplier, transporter, manufacturer);\n    }\n\n\n\n    function getRawMaterialStatus() public view returns(\n        uint\n    ) {\n        return uint(status);\n    }\n\n\n\n    function pickPackage(\n        address _transporterAddr\n    ) public {\n        require(\n            _transporterAddr == transporter,\n            \"Only transporter of the package can pick package\"\n        );\n        require(\n            status == packageStatus(0),\n            \"Package must be at Supplier.\"\n        );\n        status = packageStatus(1);\n        emit ShippmentUpdate(productid, transporter, manufacturer, 1, 1);\n    }\n\n    \n    function receivedPackage(\n        address _manufacturerAddr\n    ) public {\n\n        require(\n            _manufacturerAddr == manufacturer,\n            \"Only Manufacturer of the package can receieve the package\"\n        );\n\n        require(\n            status == packageStatus(1),\n            \"Product not picked up yet\"\n        );\n        status = packageStatus(2);\n        emit ShippmentUpdate(productid, transporter, manufacturer, 1, 2);\n    }\n}",
  "sourcePath": "/Users/sherwyndsouza/Desktop/Work/Blockchain/Medicine-Supply-Chain/blockchain/src/contracts/RawMaterial.sol",
  "compiler": {
    "name": "solc",
    "version": "0.6.6+commit.6c089d02.Emscripten.clang"
  },
  "schemaVersion": "3.2.2",
  "updatedAt": "2020-10-09T11:14:14.073Z",
  "devdoc": {
    "methods": {}
  },
  "userdoc": {
    "methods": {}
  }
}