{
  "contractName": "Supplier",
  "abi": [
    {
      "inputs": [],
      "stateMutability": "nonpayable",
      "type": "constructor"
    },
    {
      "inputs": [
        {
          "internalType": "address",
          "name": "",
          "type": "address"
        },
        {
          "internalType": "uint256",
          "name": "",
          "type": "uint256"
        }
      ],
      "name": "supplierRawMaterials",
      "outputs": [
        {
          "internalType": "address",
          "name": "",
          "type": "address"
        }
      ],
      "stateMutability": "view",
      "type": "function"
    },
    {
      "inputs": [
        {
          "internalType": "bytes32",
          "name": "_description",
          "type": "bytes32"
        },
        {
          "internalType": "string",
          "name": "_locx",
          "type": "string"
        },
        {
          "internalType": "string",
          "name": "_locy",
          "type": "string"
        },
        {
          "internalType": "uint256",
          "name": "_quantity",
          "type": "uint256"
        },
        {
          "internalType": "address",
          "name": "_transporterAddr",
          "type": "address"
        },
        {
          "internalType": "address",
          "name": "_manufacturerAddr",
          "type": "address"
        }
      ],
      "name": "createRawMaterialPackage",
      "outputs": [],
      "stateMutability": "nonpayable",
      "type": "function"
    },
    {
      "inputs": [],
      "name": "getNoOfPackagesOfSupplier",
      "outputs": [
        {
          "internalType": "uint256",
          "name": "",
          "type": "uint256"
        }
      ],
      "stateMutability": "view",
      "type": "function"
    },
    {
      "inputs": [],
      "name": "getAllPackages",
      "outputs": [
        {
          "internalType": "address[]",
          "name": "",
          "type": "address[]"
        }
      ],
      "stateMutability": "view",
      "type": "function"
    }
  ],
  "bytecode": "0x608060405234801561001057600080fd5b50611028806100206000396000f3fe608060405234801561001057600080fd5b506004361061004c5760003560e01c806306db8324146100515780630a421f0f14610099578063c22470ea146100f1578063f171f1e61461010b575b600080fd5b61007d6004803603604081101561006757600080fd5b506001600160a01b038135169060200135610258565b604080516001600160a01b039092168252519081900360200190f35b6100a161028d565b60408051602080825283518183015283519192839290830191858101910280838360005b838110156100dd5781810151838201526020016100c5565b505050509050019250505060405180910390f35b6100f961035c565b60408051918252519081900360200190f35b610256600480360360c081101561012157600080fd5b8135919081019060408101602082013564010000000081111561014357600080fd5b82018360208201111561015557600080fd5b8035906020019184600183028401116401000000008311171561017757600080fd5b91908080601f01602080910402602001604051908101604052809392919081815260200183838082843760009201919091525092959493602081019350359150506401000000008111156101ca57600080fd5b8201836020820111156101dc57600080fd5b803590602001918460018302840111640100000000831117156101fe57600080fd5b91908080601f0160208091040260200160405190810160405280939291908181526020018383808284376000920191909152509295505082359350506001600160a01b0360208301358116926040013516905061036f565b005b6000602052816000526040600020818154811061027157fe5b6000918252602090912001546001600160a01b03169150829050565b33600090815260208190526040902054606090818167ffffffffffffffff811180156102b857600080fd5b506040519080825280602002602001820160405280156102e2578160200160208202803683370190505b50905060005b828110156103555733600090815260208190526040902080548290811061030b57fe5b9060005260206000200160009054906101000a90046001600160a01b031682828151811061033557fe5b6001600160a01b03909216602092830291909101909101526001016102e8565b5091505090565b3360009081526020819052604090205490565b6000336002334260405160200180836001600160a01b03166001600160a01b031660601b8152601401828152602001925050506040516020818303038152906040526040518082805190602001908083835b602083106103e05780518252601f1990920191602091820191016103c1565b51815160209384036101000a60001901801990921691161790526040519190930194509192505080830381855afa15801561041f573d6000803e3d6000fd5b5050506040513d602081101561043457600080fd5b505160405160609190911c90899089908990899089908990610455906105fa565b80896001600160a01b03166001600160a01b03168152602001886001600160a01b03166001600160a01b031681526020018781526020018060200180602001868152602001856001600160a01b03166001600160a01b03168152602001846001600160a01b03166001600160a01b03168152602001838103835288818151815260200191508051906020019080838360005b838110156104ff5781810151838201526020016104e7565b50505050905090810190601f16801561052c5780820380516001836020036101000a031916815260200191505b50838103825287518152875160209182019189019080838360005b8381101561055f578181015183820152602001610547565b50505050905090810190601f16801561058c5780820380516001836020036101000a031916815260200191505b509a5050505050505050505050604051809103906000f0801580156105b5573d6000803e3d6000fd5b50336000908152602081815260408220805460018101825590835291200180546001600160a01b0319166001600160a01b039290921691909117905550505050505050565b6109eb806106088339019056fe60806040523480156200001157600080fd5b50604051620009eb380380620009eb8339810160408190526200003491620002c0565b600080546001600160a01b03808b166001600160a01b03199283161790925560018054928a1692909116919091179055600286905584516200007e90600390602088019062000156565b5083516200009490600390602087019062000156565b506006839055600780546001600160a01b03199081166001600160a01b03858116919091179092556008805482168484161790556009805460ff60a01b199216928b16929092171690556005805460018101825560009190915285516200011291600080516020620009cb8339815191520190602088019062000156565b506005805460018101825560009190915284516200014791600080516020620009cb8339815191520190602087019062000156565b5050505050505050506200038a565b828054600181600116156101000203166002900490600052602060002090601f016020900481019282601f106200019957805160ff1916838001178555620001c9565b82800160010185558215620001c9579182015b82811115620001c9578251825591602001919060010190620001ac565b50620001d7929150620001db565b5090565b620001f891905b80821115620001d75760008155600101620001e2565b90565b80516001600160a01b03811681146200021357600080fd5b92915050565b600082601f8301126200022a578081fd5b81516001600160401b038082111562000241578283fd5b6040516020601f8401601f191682018101838111838210171562000263578586fd5b806040525081945083825286818588010111156200028057600080fd5b600092505b83831015620002a4578583018101518284018201529182019162000285565b83831115620002b65760008185840101525b5050505092915050565b600080600080600080600080610100898b031215620002dd578384fd5b620002e98a8a620001fb565b9750620002fa8a60208b01620001fb565b60408a015160608b015191985096506001600160401b03808211156200031e578586fd5b6200032c8c838d0162000219565b965060808b015191508082111562000342578586fd5b50620003518b828c0162000219565b94505060a089015192506200036a8a60c08b01620001fb565b91506200037b8a60e08b01620001fb565b90509295985092959890939650565b610631806200039a6000396000f3fe608060405234801561001057600080fd5b506004361061004c5760003560e01c806352b9996814610051578063638e9a3d146100665780636b099dca146100795780638072352014610097575b600080fd5b61006461005f36600461039b565b6100b2565b005b61006461007436600461039b565b61018d565b610081610253565b60405161008e91906105f2565b60405180910390f35b61009f610273565b60405161008e9796959493929190610421565b6008546001600160a01b038281169116146100e85760405162461bcd60e51b81526004016100df9061050e565b60405180910390fd5b6001600954600160a01b900460ff16600281111561010257fe5b1461011f5760405162461bcd60e51b81526004016100df906104d7565b6009805460ff60a01b1916600160a11b179055600854600754600180546040516001600160a01b039485169493841693909116917f7e89c4b1a4e2b51aae84eb1f90e8a34cb792ece5ac5cb63db4830c891220b28d9161018291906002906104c9565b60405180910390a450565b6007546001600160a01b038281169116146101ba5760405162461bcd60e51b81526004016100df906105a2565b6000600954600160a01b900460ff1660028111156101d457fe5b146101f15760405162461bcd60e51b81526004016100df9061056b565b6009805460ff60a01b1916600160a01b179055600854600754600180546040516001600160a01b039485169493841693909116917f7e89c4b1a4e2b51aae84eb1f90e8a34cb792ece5ac5cb63db4830c891220b28d91610182919081906104c9565b600954600090600160a01b900460ff16600281111561026e57fe5b905090565b60015460025460065460095460075460085460058054604080516020808402820181019092528281526000998a996060998b998a998a998a996001600160a01b0396871699959890979496938416959284169493909116929187918b9084015b8282101561037e5760008481526020908190208301805460408051601f600260001961010060018716150201909416939093049283018590048502810185019091528181529283018282801561036a5780601f1061033f5761010080835404028352916020019161036a565b820191906000526020600020905b81548152906001019060200180831161034d57829003601f168201915b5050505050815260200190600101906102d3565b505050509450965096509650965096509650965090919293949596565b6000602082840312156103ac578081fd5b81356001600160a01b03811681146103c2578182fd5b9392505050565b60008151808452815b818110156103ee576020818501810151868301820152016103d2565b818111156103ff5782602083870101525b50601f01601f19169290920160200192915050565b6001600160a01b03169052565b600060e0820160018060a01b038a1683526020898185015260e0604085015281895161044d81856105f2565b91508193508281028201838c01865b838110156104865786830385526104748383516103c9565b9486019492509085019060010161045c565b505080955050505050508560608301526104a36080830186610414565b6104b060a0830185610414565b6104bd60c0830184610414565b98975050505050505050565b918252602082015260400190565b60208082526019908201527f50726f64756374206e6f74207069636b65642075702079657400000000000000604082015260600190565b60208082526039908201527f4f6e6c79204d616e756661637475726572206f6620746865207061636b61676560408201527f2063616e20726563656965766520746865207061636b61676500000000000000606082015260800190565b6020808252601c908201527f5061636b616765206d75737420626520617420537570706c6965722e00000000604082015260600190565b60208082526030908201527f4f6e6c79207472616e73706f72746572206f6620746865207061636b6167652060408201526f63616e207069636b207061636b61676560801b606082015260800190565b9081526020019056fea26469706673582212201b155970daa004b501e9f27bb00a41b51fe38e75628cce79c25a0544416d03c764736f6c63430006060033036b6384b5eca791c62761152d0c79bb0604c104a5fb6f4eb0703f3154bb3db0a2646970667358221220770f2d0ce7eed22cf390053a87e1ee3db7a81ce3847093e84994b5254e328dca64736f6c63430006060033",
  "immutableReferences": {},
  "source": "pragma solidity ^0.6.6;\r\n\r\nimport './RawMaterial.sol';\r\n\r\ncontract Supplier {\r\n    \r\n    mapping (address => address[]) public supplierRawMaterials;\r\n    \r\n    constructor() public {}\r\n    \r\n    function createRawMaterialPackage(\r\n        bytes32 _description,\r\n        string memory _locx,\r\n        string memory _locy,\r\n        uint _quantity,\r\n        address _transporterAddr,\r\n        address _manufacturerAddr\r\n    ) public {\r\n\r\n        RawMaterial rawMaterial = new RawMaterial(\r\n            msg.sender,\r\n            address(bytes20(sha256(abi.encodePacked(msg.sender, now)))),\r\n            _description,\r\n            _locx,\r\n            _locy,\r\n            _quantity,\r\n            _transporterAddr,\r\n            _manufacturerAddr\r\n        );\r\n        \r\n        supplierRawMaterials[msg.sender].push(address(rawMaterial));\r\n    }\r\n    \r\n    \r\n    function getNoOfPackagesOfSupplier() public view returns(uint) {\r\n        return supplierRawMaterials[msg.sender].length;\r\n    }\r\n    \r\n    \r\n    function getAllPackages() public view returns(address[] memory) {\r\n        uint len = supplierRawMaterials[msg.sender].length;\r\n        address[] memory ret = new address[](len);\r\n        for (uint i = 0; i < len; i++) {\r\n            ret[i] = supplierRawMaterials[msg.sender][i];\r\n        }\r\n        return ret;\r\n    }\r\n}",
  "sourcePath": "C:\\Users\\Sherwyn\\Desktop\\GitHub\\Medicine-Supply-Chain\\blockchain\\src\\contracts\\Supplier.sol",
  "compiler": {
    "name": "solc",
    "version": "0.6.6+commit.6c089d02.Emscripten.clang"
  },
  "schemaVersion": "3.3.1",
  "updatedAt": "2020-11-05T15:02:41.564Z",
  "devdoc": {
    "methods": {}
  },
  "userdoc": {
    "methods": {}
  }
}