{
  "contractName": "SupplyChain",
  "abi": [
    {
      "inputs": [],
      "stateMutability": "nonpayable",
      "type": "constructor"
    },
    {
      "anonymous": false,
      "inputs": [
        {
          "indexed": true,
          "internalType": "address",
          "name": "_address",
          "type": "address"
        },
        {
          "indexed": false,
          "internalType": "bytes32",
          "name": "name",
          "type": "bytes32"
        }
      ],
      "name": "UserRegister",
      "type": "event"
    },
    {
      "anonymous": false,
      "inputs": [
        {
          "indexed": false,
          "internalType": "address",
          "name": "buyer",
          "type": "address"
        },
        {
          "indexed": true,
          "internalType": "address",
          "name": "seller",
          "type": "address"
        },
        {
          "indexed": false,
          "internalType": "address",
          "name": "packageAddr",
          "type": "address"
        },
        {
          "indexed": false,
          "internalType": "bytes",
          "name": "signature",
          "type": "bytes"
        },
        {
          "indexed": true,
          "internalType": "uint256",
          "name": "timestamp",
          "type": "uint256"
        }
      ],
      "name": "buyEvent",
      "type": "event"
    },
    {
      "anonymous": false,
      "inputs": [
        {
          "indexed": true,
          "internalType": "address",
          "name": "buyer",
          "type": "address"
        },
        {
          "indexed": false,
          "internalType": "address",
          "name": "seller",
          "type": "address"
        },
        {
          "indexed": false,
          "internalType": "address",
          "name": "packageAddr",
          "type": "address"
        },
        {
          "indexed": false,
          "internalType": "bytes",
          "name": "signature",
          "type": "bytes"
        },
        {
          "indexed": true,
          "internalType": "uint256",
          "name": "timestamp",
          "type": "uint256"
        }
      ],
      "name": "receivedEvent",
      "type": "event"
    },
    {
      "anonymous": false,
      "inputs": [
        {
          "indexed": false,
          "internalType": "address",
          "name": "buyer",
          "type": "address"
        },
        {
          "indexed": true,
          "internalType": "address",
          "name": "seller",
          "type": "address"
        },
        {
          "indexed": false,
          "internalType": "address",
          "name": "packageAddr",
          "type": "address"
        },
        {
          "indexed": false,
          "internalType": "bytes",
          "name": "signature",
          "type": "bytes"
        },
        {
          "indexed": true,
          "internalType": "uint256",
          "name": "timestamp",
          "type": "uint256"
        }
      ],
      "name": "respondEvent",
      "type": "event"
    },
    {
      "anonymous": false,
      "inputs": [
        {
          "indexed": true,
          "internalType": "address",
          "name": "seller",
          "type": "address"
        },
        {
          "indexed": false,
          "internalType": "address",
          "name": "buyer",
          "type": "address"
        },
        {
          "indexed": false,
          "internalType": "address",
          "name": "packageAddr",
          "type": "address"
        },
        {
          "indexed": false,
          "internalType": "bytes",
          "name": "signature",
          "type": "bytes"
        },
        {
          "indexed": true,
          "internalType": "uint256",
          "name": "timestamp",
          "type": "uint256"
        }
      ],
      "name": "sendEvent",
      "type": "event"
    },
    {
      "inputs": [
        {
          "internalType": "address",
          "name": "",
          "type": "address"
        },
        {
          "internalType": "uint256",
          "name": "",
          "type": "uint256"
        }
      ],
      "name": "manufacturerMedicines",
      "outputs": [
        {
          "internalType": "address",
          "name": "",
          "type": "address"
        }
      ],
      "stateMutability": "view",
      "type": "function",
      "constant": true
    },
    {
      "inputs": [
        {
          "internalType": "address",
          "name": "",
          "type": "address"
        },
        {
          "internalType": "uint256",
          "name": "",
          "type": "uint256"
        }
      ],
      "name": "manufacturerRawMaterials",
      "outputs": [
        {
          "internalType": "address",
          "name": "",
          "type": "address"
        }
      ],
      "stateMutability": "view",
      "type": "function",
      "constant": true
    },
    {
      "inputs": [
        {
          "internalType": "address",
          "name": "",
          "type": "address"
        },
        {
          "internalType": "uint256",
          "name": "",
          "type": "uint256"
        }
      ],
      "name": "supplierRawMaterials",
      "outputs": [
        {
          "internalType": "address",
          "name": "",
          "type": "address"
        }
      ],
      "stateMutability": "view",
      "type": "function",
      "constant": true
    },
    {
      "inputs": [
        {
          "internalType": "address",
          "name": "",
          "type": "address"
        }
      ],
      "name": "userInfo",
      "outputs": [
        {
          "internalType": "bytes32",
          "name": "name",
          "type": "bytes32"
        },
        {
          "internalType": "enum SupplyChain.roles",
          "name": "role",
          "type": "uint8"
        },
        {
          "internalType": "address",
          "name": "userAddr",
          "type": "address"
        }
      ],
      "stateMutability": "view",
      "type": "function",
      "constant": true
    },
    {
      "inputs": [
        {
          "internalType": "bytes32",
          "name": "name",
          "type": "bytes32"
        },
        {
          "internalType": "string[]",
          "name": "loc",
          "type": "string[]"
        },
        {
          "internalType": "uint256",
          "name": "role",
          "type": "uint256"
        },
        {
          "internalType": "address",
          "name": "_userAddr",
          "type": "address"
        }
      ],
      "name": "registerUser",
      "outputs": [],
      "stateMutability": "nonpayable",
      "type": "function"
    },
    {
      "inputs": [
        {
          "internalType": "uint256",
          "name": "_role",
          "type": "uint256"
        },
        {
          "internalType": "address",
          "name": "_addr",
          "type": "address"
        }
      ],
      "name": "changeUserRole",
      "outputs": [
        {
          "internalType": "string",
          "name": "",
          "type": "string"
        }
      ],
      "stateMutability": "nonpayable",
      "type": "function"
    },
    {
      "inputs": [
        {
          "internalType": "address",
          "name": "_address",
          "type": "address"
        }
      ],
      "name": "getUserInfo",
      "outputs": [
        {
          "components": [
            {
              "internalType": "bytes32",
              "name": "name",
              "type": "bytes32"
            },
            {
              "internalType": "string[]",
              "name": "userLoc",
              "type": "string[]"
            },
            {
              "internalType": "enum SupplyChain.roles",
              "name": "role",
              "type": "uint8"
            },
            {
              "internalType": "address",
              "name": "userAddr",
              "type": "address"
            }
          ],
          "internalType": "struct SupplyChain.userData",
          "name": "",
          "type": "tuple"
        }
      ],
      "stateMutability": "view",
      "type": "function",
      "constant": true
    },
    {
      "inputs": [
        {
          "internalType": "address",
          "name": "buyer",
          "type": "address"
        },
        {
          "internalType": "address",
          "name": "seller",
          "type": "address"
        },
        {
          "internalType": "address",
          "name": "packageAddr",
          "type": "address"
        },
        {
          "internalType": "bytes",
          "name": "signature",
          "type": "bytes"
        }
      ],
      "name": "respondToManufacturer",
      "outputs": [],
      "stateMutability": "nonpayable",
      "type": "function"
    },
    {
      "inputs": [
        {
          "internalType": "bytes32",
          "name": "_description",
          "type": "bytes32"
        },
        {
          "internalType": "uint256",
          "name": "_quantity",
          "type": "uint256"
        },
        {
          "internalType": "address",
          "name": "_transporterAddr",
          "type": "address"
        },
        {
          "internalType": "address",
          "name": "_manufacturerAddr",
          "type": "address"
        }
      ],
      "name": "createRawMaterialPackage",
      "outputs": [],
      "stateMutability": "nonpayable",
      "type": "function"
    },
    {
      "inputs": [],
      "name": "getNoOfPackagesOfSupplier",
      "outputs": [
        {
          "internalType": "uint256",
          "name": "",
          "type": "uint256"
        }
      ],
      "stateMutability": "view",
      "type": "function",
      "constant": true
    },
    {
      "inputs": [],
      "name": "getAllPackages",
      "outputs": [
        {
          "internalType": "address[]",
          "name": "",
          "type": "address[]"
        }
      ],
      "stateMutability": "view",
      "type": "function",
      "constant": true
    },
    {
      "inputs": [
        {
          "internalType": "address",
          "name": "_addr",
          "type": "address"
        },
        {
          "internalType": "uint256",
          "name": "transportertype",
          "type": "uint256"
        },
        {
          "internalType": "address",
          "name": "cid",
          "type": "address"
        }
      ],
      "name": "transporterHandlePackage",
      "outputs": [],
      "stateMutability": "nonpayable",
      "type": "function"
    },
    {
      "inputs": [
        {
          "internalType": "address",
          "name": "supplierAddr",
          "type": "address"
        },
        {
          "internalType": "address",
          "name": "manuAddr",
          "type": "address"
        },
        {
          "internalType": "address",
          "name": "rawMaterialAddr",
          "type": "address"
        },
        {
          "internalType": "bytes",
          "name": "signature",
          "type": "bytes"
        }
      ],
      "name": "requestRawMaterial",
      "outputs": [],
      "stateMutability": "nonpayable",
      "type": "function"
    },
    {
      "inputs": [
        {
          "internalType": "address",
          "name": "_addr",
          "type": "address"
        },
        {
          "internalType": "address",
          "name": "_manufacturerAddress",
          "type": "address"
        },
        {
          "internalType": "address",
          "name": "_sellerAddr",
          "type": "address"
        },
        {
          "internalType": "bytes",
          "name": "signature",
          "type": "bytes"
        }
      ],
      "name": "manufacturerReceivedPackage",
      "outputs": [],
      "stateMutability": "nonpayable",
      "type": "function"
    },
    {
      "inputs": [
        {
          "internalType": "address",
          "name": "_manufacturerAddr",
          "type": "address"
        },
        {
          "internalType": "bytes32",
          "name": "_description",
          "type": "bytes32"
        },
        {
          "internalType": "address[]",
          "name": "_rawAddr",
          "type": "address[]"
        },
        {
          "internalType": "uint256",
          "name": "_quantity",
          "type": "uint256"
        },
        {
          "internalType": "address[]",
          "name": "_transporterAddr",
          "type": "address[]"
        },
        {
          "internalType": "address",
          "name": "_recieverAddr",
          "type": "address"
        },
        {
          "internalType": "uint256",
          "name": "RcvrType",
          "type": "uint256"
        }
      ],
      "name": "manufacturerCreatesMedicine",
      "outputs": [],
      "stateMutability": "nonpayable",
      "type": "function"
    },
    {
      "inputs": [
        {
          "internalType": "address",
          "name": "p",
          "type": "address"
        },
        {
          "internalType": "bytes32",
          "name": "hash",
          "type": "bytes32"
        },
        {
          "internalType": "uint8",
          "name": "v",
          "type": "uint8"
        },
        {
          "internalType": "bytes32",
          "name": "r",
          "type": "bytes32"
        },
        {
          "internalType": "bytes32",
          "name": "s",
          "type": "bytes32"
        }
      ],
      "name": "verify",
      "outputs": [
        {
          "internalType": "bool",
          "name": "",
          "type": "bool"
        }
      ],
      "stateMutability": "pure",
      "type": "function",
      "constant": true
    }
  ],
  "bytecode": "0x608060405234801561001057600080fd5b50600080546001600160a01b031916331790556141b4806100326000396000f3fe60806040523480156200001157600080fd5b5060043610620000f45760003560e01c80638ccc8db711620000935780638ccc8db714620001fc578063910097861462000213578063965980381462000239578063a999cca11462000250578063be7ef9c01462000267578063c22470ea146200027e578063fc7e01f31462000297578063ff4d01b514620002ae57620000f4565b806306db832414620000f95780630a421f0f14620001285780631959a00214620001415780631f90ddaf14620001695780634e2e89351462000182578063506535f3146200019957806356e5efc414620001bf5780636386c1c714620001d6575b600080fd5b620001106200010a3660046200102e565b620002c5565b6040516200011f9190620012b6565b60405180910390f35b62000132620002fb565b6040516200011f919062001397565b620001586200015236600462000e8c565b620003d0565b6040516200011f93929190620013c0565b620001806200017a366004620010ba565b620003fc565b005b620001806200019336600462000eb1565b62000501565b620001b0620001aa36600462000fd5565b6200054f565b6040516200011f9190620013ac565b62000180620001d036600462000f2a565b620005c2565b620001ed620001e736600462000e8c565b6200064f565b6040516200011f9190620014a0565b620001106200020d3660046200102e565b620007bc565b6200022a62000224366004620011b8565b620007d6565b6040516200011f91906200140d565b620001806200024a36600462000eb1565b62000865565b62000110620002613660046200102e565b62000941565b62000180620002783660046200105b565b6200095b565b6200028862000a7a565b6040516200011f9190620013b7565b62000180620002a836600462001177565b62000a8d565b62000180620002bf36600462000eb1565b62000b8e565b60026020528160005260406000208181548110620002df57fe5b6000918252602090912001546001600160a01b03169150829050565b3360009081526002602052604090205460609081816001600160401b03811180156200032657600080fd5b5060405190808252806020026020018201604052801562000351578160200160208202803683370190505b50905060005b82811015620003c8573360009081526002602052604090208054829081106200037c57fe5b9060005260206000200160009054906101000a90046001600160a01b0316828281518110620003a757fe5b6001600160a01b039092166020928302919091019091015260010162000357565b509150505b90565b6001602052600090815260409020805460029091015460ff81169061010090046001600160a01b031683565b6000546001600160a01b031633146200041457600080fd5b6001600160a01b03811660009081526001602081815260409092208681558551620004489391909201919086019062000bce565b508160068111156200045657fe5b6001600160a01b03821660009081526001602081905260409091206002018054909160ff19909116908360068111156200048c57fe5b02179055506001600160a01b038116600081815260016020526040908190206002018054610100600160a81b0319166101008402179055517f33a7170f028b1e4f5ba321064a00ed820856a920c7f9c6636fbcf385427b1b0f90620004f3908790620013b7565b60405180910390a250505050565b42836001600160a01b03167f9151271dfe612a18bf915ee1609e6f94f62fd775c704a0ae2ef091519f0c9b39868585604051620005419392919062001304565b60405180910390a350505050565b6000856001600160a01b031660018686868660405160008152602001604052604051620005809493929190620013ef565b6020604051602081039080840390855afa158015620005a3573d6000803e3d6000fd5b505050602060405103516001600160a01b031614905095945050505050565b600087878787878787604051620005d99062000c32565b620005eb97969594939291906200133b565b604051809103906000f08015801562000608573d6000803e3d6000fd5b506001600160a01b0398891660009081526004602090815260408220805460018101825590835291200180546001600160a01b031916919099161790975550505050505050565b6200065962000c40565b6000546001600160a01b031633146200067157600080fd5b6001600160a01b0382166000908152600160208181526040808420815160808101835281548152938101805483518186028101860190945280845294959194868501949192909184015b828210156200076c5760008481526020908190208301805460408051601f6002600019610100600187161502019094169390930492830185900485028101850190915281815292830182828015620007575780601f106200072b5761010080835404028352916020019162000757565b820191906000526020600020905b8154815290600101906020018083116200073957829003601f168201915b505050505081526020019060010190620006bb565b50505090825250600282015460209091019060ff1660068111156200078d57fe5b60068111156200079957fe5b81526002919091015461010090046001600160a01b031660209091015292915050565b60036020528160005260406000208181548110620002df57fe5b6000546060906001600160a01b03163314620007f157600080fd5b826006811115620007fe57fe5b6001600160a01b03831660009081526001602081905260409091206002018054909160ff19909116908360068111156200083457fe5b02179055505060408051808201909152600d81526c526f6c6520557064617465642160981b60208201525b92915050565b604051630a57332d60e31b81526001600160a01b038516906352b999689062000893908690600401620012b6565b600060405180830381600087803b158015620008ae57600080fd5b505af1158015620008c3573d6000803e3d6000fd5b505050506001600160a01b0383811660009081526003602090815260408083208054600181018255908452919092200180546001600160a01b0319169287169290921790915551429033907fcfbd3a658e0a38877312e3f5767ddb0c6541620d7bd0368d43e0b94a55d9876e90620005419086908990879062001304565b60046020528160005260406000208181548110620002df57fe5b60023360009081526001602052604090206002015460ff1660068111156200097f57fe5b14620009a85760405162461bcd60e51b81526004016200099f9062001422565b60405180910390fd5b60008211620009cb5760405162461bcd60e51b81526004016200099f9062001469565b816001141562000a3d5760405163638e9a3d60e01b81526001600160a01b0384169063638e9a3d9062000a03903390600401620012b6565b600060405180830381600087803b15801562000a1e57600080fd5b505af115801562000a33573d6000803e3d6000fd5b5050505062000a75565b816002141562000a755760405163ac42a41560e01b81526001600160a01b0384169063ac42a4159062000a03903390600401620012b6565b505050565b3360009081526002602052604090205490565b6000336002334260405160200162000aa792919062001276565b60408051601f198184030181529082905262000ac39162001298565b602060405180830381855afa15801562000ae1573d6000803e3d6000fd5b5050506040513d601f19601f8201168201806040525081019062000b069190620010a1565b60601c8686868660405162000b1b9062000c68565b62000b2c96959493929190620012ca565b604051809103906000f08015801562000b49573d6000803e3d6000fd5b503360009081526002602090815260408220805460018101825590835291200180546001600160a01b0319166001600160a01b03929092169190911790555050505050565b42836001600160a01b03167f22561ca0666e99052dd8231a6c5c337204ed5658c357aa6afcd53c207acfac67868585604051620005419392919062001304565b82805482825590600052602060002090810192821562000c20579160200282015b8281111562000c20578251805162000c0f91849160209091019062000c76565b509160200191906001019062000bef565b5062000c2e92915062000cf7565b5090565b611a2480620015d383390190565b6040805160808101825260008082526060602083015290918201908152600060209091015290565b6111888062002ff783390190565b828054600181600116156101000203166002900490600052602060002090601f016020900481019282601f1062000cb957805160ff191683800117855562000ce9565b8280016001018555821562000ce9579182015b8281111562000ce957825182559160200191906001019062000ccc565b5062000c2e92915062000d1f565b620003cd91905b8082111562000c2e57600062000d15828262000d3c565b5060010162000cfe565b620003cd91905b8082111562000c2e576000815560010162000d26565b50805460018160011615610100020316600290046000825580601f1062000d64575062000d84565b601f01602090049060005260206000209081019062000d84919062000d1f565b50565b80356001600160a01b03811681146200085f57600080fd5b600082601f83011262000db0578081fd5b813562000dc762000dc18262001569565b62001542565b81815291506020808301908481018184028601820187101562000de957600080fd5b60005b8481101562000e145762000e01888362000d87565b8452928201929082019060010162000dec565b505050505092915050565b600082601f83011262000e30578081fd5b81356001600160401b0381111562000e46578182fd5b62000e5b601f8201601f191660200162001542565b915080825283602082850101111562000e7357600080fd5b8060208401602084013760009082016020015292915050565b60006020828403121562000e9e578081fd5b62000eaa838362000d87565b9392505050565b6000806000806080858703121562000ec7578283fd5b62000ed3868662000d87565b935062000ee4866020870162000d87565b925062000ef5866040870162000d87565b915060608501356001600160401b0381111562000f10578182fd5b62000f1e8782880162000e1f565b91505092959194509250565b600080600080600080600060e0888a03121562000f45578283fd5b62000f51898962000d87565b96506020880135955060408801356001600160401b038082111562000f74578485fd5b62000f828b838c0162000d9f565b965060608a0135955060808a013591508082111562000f9f578485fd5b5062000fae8a828b0162000d9f565b93505062000fc08960a08a0162000d87565b915060c0880135905092959891949750929550565b600080600080600060a0868803121562000fed578081fd5b62000ff9878762000d87565b945060208601359350604086013560ff8116811462001016578182fd5b94979396509394606081013594506080013592915050565b6000806040838503121562001041578182fd5b6200104d848462000d87565b946020939093013593505050565b60008060006060848603121562001070578283fd5b83356200107d81620015bc565b92506020840135915060408401356200109681620015bc565b809150509250925092565b600060208284031215620010b3578081fd5b5051919050565b60008060008060808587031215620010d0578384fd5b843593506020808601356001600160401b03811115620010ee578485fd5b80870188601f82011262001100578586fd5b803591506200111362000dc18362001569565b82815283810190828501885b858110156200114c57620011398d88843588010162000e1f565b845292860192908601906001016200111f565b50508097505050505050604085013591506200116c866060870162000d87565b905092959194509250565b600080600080608085870312156200118d578182fd5b8435935060208501359250620011a7866040870162000d87565b91506200116c866060870162000d87565b60008060408385031215620011cb578182fd5b82359150620011de846020850162000d87565b90509250929050565b6001600160a01b03169052565b6000815180845260208085019450808401835b838110156200122e5781516001600160a01b03168752958201959082019060010162001207565b509495945050505050565b600081518084526200125381602086016020860162001589565b601f01601f19169290920160200192915050565b600781106200127257fe5b9052565b60609290921b6bffffffffffffffffffffffff19168252601482015260340190565b60008251620012ac81846020870162001589565b9190910192915050565b6001600160a01b0391909116815260200190565b6001600160a01b0396871681529486166020860152604085019390935260608401919091528316608083015290911660a082015260c00190565b6001600160a01b03848116825283166020820152606060408201819052600090620013329083018462001239565b95945050505050565b600060018060a01b03808a16835288602084015260e060408401526200136560e0840189620011f4565b87606085015283810360808501526200137f8188620011f4565b9590911660a0840152505060c0015295945050505050565b60006020825262000eaa6020830184620011f4565b901515815260200190565b90815260200190565b83815260608101620013d6602083018562001267565b6001600160a01b03929092166040919091015292915050565b93845260ff9290921660208401526040830152606082015260800190565b60006020825262000eaa602083018462001239565b60208082526027908201527f4f6e6c79205472616e73706f727465722063616e2063616c6c207468697320666040820152663ab731ba34b7b760c91b606082015260800190565b6020808252601d908201527f5472616e73706f72746572205479706520697320696e636f7272656374000000604082015260600190565b60208082528251828201528281015160806040840152805160a084018190526000929160c0828402860181019285929187019185015b818410156200150a5760bf19888603018352620014f585825162001239565b945060019390930192918501918501620014d6565b505050506040850151915062001524606085018362001267565b606085015191506200153a6080850183620011e7565b949350505050565b6040518181016001600160401b03811182821017156200156157600080fd5b604052919050565b60006001600160401b038211156200157f578081fd5b5060209081020190565b60005b83811015620015a65781810151838201526020016200158c565b83811115620015b6576000848401525b50505050565b6001600160a01b038116811462000d8457600080fdfe60806040523480156200001157600080fd5b5060405162001a2438038062001a24833981810160405260e08110156200003757600080fd5b815160208301516040808501805191519395929483019291846401000000008211156200006357600080fd5b9083019060208201858111156200007957600080fd5b82518660208202830111640100000000821117156200009757600080fd5b82525081516020918201928201910280838360005b83811015620000c6578181015183820152602001620000ac565b505050509050016040526020018051906020019092919080516040519392919084640100000000821115620000fa57600080fd5b9083019060208201858111156200011057600080fd5b82518660208202830111640100000000821117156200012e57600080fd5b82525081516020918201928201910280838360005b838110156200015d57818101518382015260200162000143565b505050509190910160409081526020838101519390910151600080546001600160a01b038d166001600160a01b0319918216811790925560048054909116909117905560018a905588519395509350620001bf926002925090880190620002a1565b5060088490558251620001da906003906020860190620002a1565b5080600114156200020657600580546001600160a01b0319166001600160a01b0384161790556200022c565b80600214156200022c57600680546001600160a01b0319166001600160a01b0384161790555b6000876040516200023d906200030b565b6001600160a01b03909116815260405190819003602001906000f0801580156200026b573d6000803e3d6000fd5b50600980546001600160a01b0390921661010002610100600160a81b031990921691909117905550620003439650505050505050565b828054828255906000526020600020908101928215620002f9579160200282015b82811115620002f957825182546001600160a01b0319166001600160a01b03909116178255602090920191600190910190620002c2565b506200030792915062000319565b5090565b610b638062000ec183390190565b6200034091905b80821115620003075780546001600160a01b031916815560010162000320565b90565b610b6e80620003536000396000f3fe608060405234801561001057600080fd5b506004361061009e5760003560e01c8063ac42a41511610066578063ac42a41514610197578063c8f5f189146101bd578063d2f3fcc7146101e3578063e002c8a5146101eb578063f5c0e383146102e55761009e565b80631fedd36c146100a35780632f1d7588146100db57806393a668b71461010b578063aab3a9d614610131578063abb428a614610157575b600080fd5b6100c9600480360360208110156100b957600080fd5b50356001600160a01b0316610313565b60408051918252519081900360200190f35b610109600480360360408110156100f157600080fd5b506001600160a01b038135811691602001351661053e565b005b6101096004803603602081101561012157600080fd5b50356001600160a01b03166105c7565b6101096004803603602081101561014757600080fd5b50356001600160a01b0316610634565b61015f610686565b6040518082606080838360005b8381101561018457818101518382015260200161016c565b5050505090500191505060405180910390f35b610109600480360360208110156101ad57600080fd5b50356001600160a01b03166106c1565b610109600480360360208110156101d357600080fd5b50356001600160a01b0316610842565b6100c96108ab565b6101f36108c4565b60405180886001600160a01b03166001600160a01b031681526020018781526020018060200186815260200180602001856001600160a01b03166001600160a01b03168152602001846001600160a01b03166001600160a01b03168152602001838103835288818151815260200191508051906020019060200280838360005b8381101561028b578181015183820152602001610273565b50505050905001838103825286818151815260200191508051906020019060200280838360005b838110156102ca5781810151838201526020016102b2565b50505050905001995050505050505050505060405180910390f35b610109600480360360408110156102fb57600080fd5b506001600160a01b03813581169160200135166109eb565b6005546000906001600160a01b038381169116148061033f57506006546001600160a01b038381169116145b61037a5760405162461bcd60e51b8152600401808060200182810382526035815260200180610a986035913960400191505060405180910390fd5b60095460019060ff16600681111561038e57fe5b10156103dd576040805162461bcd60e51b8152602060048201526019602482015278141c9bd91d58dd081b9bdd081c1a58dad959081d5c081e595d603a1b604482015290519081900360640190fd5b6005546001600160a01b03838116911614801561040a5750600160095460ff16600681111561040857fe5b145b1561048e576009805460ff1916600390811790915560055481546001600160a01b039091169190600019810190811061043f57fe5b60009182526020918290200154604080516002815260039381019390935280516001600160a01b03909216923092600080516020610a78833981519152929181900390910190a4506001610539565b6006546001600160a01b0383811691161480156104bb5750600260095460ff1660068111156104b957fe5b145b15610539576009805460ff19166004179055600654600380546001600160a01b039092169160001981019081106104ee57fe5b60009182526020918290200154604080516003815260049381019390935280516001600160a01b03909216923092600080516020610a78833981519152929181900390910190a45060025b919050565b6006546001600160a01b0382811691161461058a5760405162461bcd60e51b8152600401808060200182810382526023815260200180610aef6023913960400191505060405180910390fd5b600780546001600160a01b0319166001600160a01b03841617905560055b6009805460ff191660018360068111156105be57fe5b02179055505050565b6006546001600160a01b038281169116146106135760405162461bcd60e51b8152600401808060200182810382526023815260200180610aef6023913960400191505060405180910390fd5b60045b6009805460ff1916600183600681111561062c57fe5b021790555050565b600380546001810182556000919091527fc2575a0e9e593c00f959f8c92f12db2869c3395a3b0502d05e2516446f71f85b0180546001600160a01b0319166001600160a01b0392909216919091179055565b61068e610a59565b50604080516060810182526005546001600160a01b03908116825260065481166020830152600754169181019190915290565b6003805460001981019081106106d357fe5b6000918252602090912001546001600160a01b038281169116146107285760405162461bcd60e51b8152600401808060200182810382526027815260200180610b126027913960400191505060405180910390fd5b600060095460ff16600681111561073b57fe5b1461078d576040805162461bcd60e51b815260206004820181905260248201527f5061636b616765206d757374206265206174204d616e7566616374757265722e604482015290519081900360640190fd5b6005546001600160a01b0316156107f0576009805460ff1916600190811790915560055460408051838152602081019390935280516001600160a01b0392831693928516923092600080516020610a7883398151915292918290030190a461083f565b6009805460ff191660029081179091556006546040805160018152602081019390935280516001600160a01b0392831693928516923092600080516020610a7883398151915292918290030190a45b50565b6007546001600160a01b038281169116146108a4576040805162461bcd60e51b815260206004820181905260248201527f5468697320437573746f6d6572206973206e6f74204173736f6369617465642e604482015290519081900360640190fd5b6006610616565b60095460009060ff1660068111156108bf57fe5b905090565b600080606060006060600080600460009054906101000a90046001600160a01b031660015460026008546003600660009054906101000a90046001600160a01b0316600760009054906101000a90046001600160a01b03168480548060200260200160405190810160405280929190818152602001828054801561097157602002820191906000526020600020905b81546001600160a01b03168152600190910190602001808311610953575b50505050509450828054806020026020016040519081016040528092919081815260200182805480156109cd57602002820191906000526020600020905b81546001600160a01b031681526001909101906020018083116109af575b50505050509250965096509650965096509650965090919293949596565b6005546001600160a01b03828116911614610a375760405162461bcd60e51b8152600401808060200182810382526022815260200180610acd6022913960400191505060405180910390fd5b600680546001600160a01b0319166001600160a01b03841617905560026105a8565b6040518060600160405280600390602082028036833750919291505056fe7e89c4b1a4e2b51aae84eb1f90e8a34cb792ece5ac5cb63db4830c891220b28d4f6e6c792057686f6c6573616c6572206f72204469737472696275746f722063616e2063616c6c20746869732066756e6374696f6e746869732057686f6c6573616c6572206973206e6f74204173736f6369617465642e54686973204469737472696275746f72206973206e6f74204173736f6369617465642e4f6e6c79205472616e73706f727465722063616e2063616c6c20746869732066756e6374696f6ea264697066735822122060620228bbbd23bdd9e492a29e741ff334efcefe3dd2c613969b79b5684d09b564736f6c634300060600336080604052600060025534801561001557600080fd5b50604051610b63380380610b6383398101604081905261003491610059565b600080546001600160a01b0319166001600160a01b0392909216919091179055610087565b60006020828403121561006a578081fd5b81516001600160a01b0381168114610080578182fd5b9392505050565b610acd806100966000396000f3fe608060405234801561001057600080fd5b506004361061004c5760003560e01c806327506f53146100515780633626a3681461006f57806378ce1365146100845780639ace38c214610099575b600080fd5b6100596100bf565b60405161006691906108b6565b60405180910390f35b61008261007d3660046107bb565b6102c7565b005b61008c61050b565b6040516100669190610a76565b6100ac6100a7366004610853565b610511565b604051610066979695949392919061097f565b600254606090818167ffffffffffffffff811180156100dd57600080fd5b5060405190808252806020026020018201604052801561011757816020015b61010461066a565b8152602001906001900390816100fc5790505b50905060005b828110156102bf57600081815260016020818152604092839020835160e08101855281548152818401546001600160a01b0390811682850152600280840154909116828701526003830154606083015260048301805487516101009782161597909702600019011691909104601f81018590048502860185019096528585529094919360808601939092908301828280156101f95780601f106101ce576101008083540402835291602001916101f9565b820191906000526020600020905b8154815290600101906020018083116101dc57829003601f168201915b505050918352505060058201805460408051602060026001851615610100026000190190941693909304601f810184900484028201840190925281815293820193929183018282801561028d5780601f106102625761010080835404028352916020019161028d565b820191906000526020600020905b81548152906001019060200180831161027057829003601f168201915b505050505081526020016006820154815250508282815181106102ac57fe5b602090810291909101015260010161011d565b509150505b90565b60025442906103a6576040805160e0810182528881526001600160a01b038089166020808401918252898316848601908152606085018a8152608086018a815260a087018a905260c08701899052600280546000908152600180875299902088518155955198860180549988166001600160a01b03199a8b1617905592519285018054939096169290971691909117909355915160038201559251805192939261037792600485019201906106a5565b5060a082015180516103939160058401916020909101906106a5565b5060c082015181600601559050506104b5565b6002546000190160009081526001602052604090205484146103e35760405162461bcd60e51b81526004016103da90610a3f565b60405180910390fd5b6040805160e0810182528881526001600160a01b038089166020808401918252898316848601908152606085018a8152608086018a815260a087018a905260c08701899052600280546000908152600180875299902088518155955198860180549988166001600160a01b03199a8b1617905592519285018054939096169290971691909117909355915160038201559251805192939261048a92600485019201906106a5565b5060a082015180516104a69160058401916020909101906106a5565b5060c082015181600601559050505b6002805460010190556040517f30d01d358fb0899fe4d50947b2e9301c952d9eed09b14c7ecdcbeed4434557c4906104fa90899089908990899087908a908a906109df565b60405180910390a150505050505050565b60025481565b60016020818152600092835260409283902080548184015460028084015460038501546004860180548a516101009a8216159a909a02600019011693909304601f810188900488028901880190995288885293976001600160a01b039384169793909116959394938301828280156105ca5780601f1061059f576101008083540402835291602001916105ca565b820191906000526020600020905b8154815290600101906020018083116105ad57829003601f168201915b5050505060058301805460408051602060026001851615610100026000190190941693909304601f810184900484028201840190925281815294959493509083018282801561065a5780601f1061062f5761010080835404028352916020019161065a565b820191906000526020600020905b81548152906001019060200180831161063d57829003601f168201915b5050505050908060060154905087565b6040805160e08101825260008082526020820181905291810182905260608082018390526080820181905260a082015260c081019190915290565b828054600181600116156101000203166002900490600052602060002090601f016020900481019282601f106106e657805160ff1916838001178555610713565b82800160010185558215610713579182015b828111156107135782518255916020019190600101906106f8565b5061071f929150610723565b5090565b6102c491905b8082111561071f5760008155600101610729565b600082601f83011261074d578081fd5b813567ffffffffffffffff80821115610764578283fd5b604051601f8301601f191681016020018281118282101715610784578485fd5b60405282815292508284830160200186101561079f57600080fd5b8260208601602083013760006020848301015250505092915050565b60008060008060008060c087890312156107d3578182fd5b8635955060208701356107e581610a7f565b945060408701356107f581610a7f565b935060608701359250608087013567ffffffffffffffff80821115610818578384fd5b6108248a838b0161073d565b935060a0890135915080821115610839578283fd5b5061084689828a0161073d565b9150509295509295509295565b600060208284031215610864578081fd5b5035919050565b60008151808452815b8181101561089057602081850181015186830182015201610874565b818111156108a15782602083870101525b50601f01601f19169290920160200192915050565b60208082528251828201819052600091906040908185019080840286018301878501865b8381101561097157888303603f19018552815180518452878101516001600160a01b03908116898601528782015116878501526060808201519085015260808082015160e082870181905291906109338388018261086b565b91505060a09150818301518682038388015261094f828261086b565b60c09485015197909401969096525050948701949250908601906001016108da565b509098975050505050505050565b8781526001600160a01b038781166020830152861660408201526060810185905260e0608082018190526000906109b89083018661086b565b82810360a08401526109ca818661086b565b9150508260c083015298975050505050505050565b8781526001600160a01b03878116602083015286166040820152606081018590526080810184905260e060a08201819052600090610a1f9083018561086b565b82810360c0840152610a31818561086b565b9a9950505050505050505050565b6020808252601b908201527f5472616e73616374696f6e206572726f72206f63637572726564210000000000604082015260600190565b90815260200190565b6001600160a01b0381168114610a9457600080fd5b5056fea26469706673582212208e8c92ee2ddb954d56a57dcb6fab8b5247c07a9e0c2299012988b1c986ef221464736f6c63430006060033608060405234801561001057600080fd5b5060405161118838038061118883398101604081905261002f91610100565b600080546001600160a01b03199081166001600160a01b0389811691821784556001805484168a831617905560028890556003879055600480548416878316179055600580548416918616919091179055600680549092161760ff60a01b19169055604051829061009f906100f3565b6100a99190610173565b604051809103906000f0801580156100c5573d6000803e3d6000fd5b50600880546001600160a01b0319166001600160a01b03929092169190911790555061019f95505050505050565b610b638061062583390190565b60008060008060008060c08789031215610118578182fd5b865161012381610187565b602088015190965061013481610187565b809550506040870151935060608701519250608087015161015481610187565b60a088015190925061016581610187565b809150509295509295509295565b6001600160a01b0391909116815260200190565b6001600160a01b038116811461019c57600080fd5b50565b610477806101ae6000396000f3fe608060405234801561001057600080fd5b506004361061004c5760003560e01c806352b9996814610051578063638e9a3d146100665780636b099dca146100795780638072352014610097575b600080fd5b61006461005f3660046102a8565b6100b2565b005b6100646100743660046102a8565b61018d565b610081610253565b60405161008e9190610438565b60405180910390f35b61009f610273565b60405161008e97969594939291906102d6565b6005546001600160a01b038281169116146100e85760405162461bcd60e51b81526004016100df90610358565b60405180910390fd5b6001600654600160a01b900460ff16600281111561010257fe5b1461011f5760405162461bcd60e51b81526004016100df90610325565b6006805460ff60a01b1916600160a11b179055600554600454600180546040516001600160a01b039485169493841693909116917f7e89c4b1a4e2b51aae84eb1f90e8a34cb792ece5ac5cb63db4830c891220b28d916101829190600290610317565b60405180910390a450565b6004546001600160a01b038281169116146101ba5760405162461bcd60e51b81526004016100df906103e8565b6000600654600160a01b900460ff1660028111156101d457fe5b146101f15760405162461bcd60e51b81526004016100df906103b1565b6006805460ff60a01b1916600160a01b179055600554600454600180546040516001600160a01b039485169493841693909116917f7e89c4b1a4e2b51aae84eb1f90e8a34cb792ece5ac5cb63db4830c891220b28d9161018291908190610317565b600654600090600160a01b900460ff16600281111561026e57fe5b905090565b6001546002546003546006546004546005546008546001600160a01b0396871697959694959385169492831693918316921690565b6000602082840312156102b9578081fd5b81356001600160a01b03811681146102cf578182fd5b9392505050565b6001600160a01b03978816815260208101969096526040860194909452918516606085015284166080840152831660a083015290911660c082015260e00190565b918252602082015260400190565b602080825260199082015278141c9bd91d58dd081b9bdd081c1a58dad959081d5c081e595d603a1b604082015260600190565b60208082526039908201527f4f6e6c79204d616e756661637475726572206f6620746865207061636b6167656040820152782063616e20726563656965766520746865207061636b61676560381b606082015260800190565b6020808252601c908201527f5061636b616765206d75737420626520617420537570706c6965722e00000000604082015260600190565b60208082526030908201527f4f6e6c79207472616e73706f72746572206f6620746865207061636b6167652060408201526f63616e207069636b207061636b61676560801b606082015260800190565b9081526020019056fea26469706673582212205b1258ad77a2604a5119430469f4cc63dc6fadf5c2e70aa5b812a743bf3a196964736f6c634300060600336080604052600060025534801561001557600080fd5b50604051610b63380380610b6383398101604081905261003491610059565b600080546001600160a01b0319166001600160a01b0392909216919091179055610087565b60006020828403121561006a578081fd5b81516001600160a01b0381168114610080578182fd5b9392505050565b610acd806100966000396000f3fe608060405234801561001057600080fd5b506004361061004c5760003560e01c806327506f53146100515780633626a3681461006f57806378ce1365146100845780639ace38c214610099575b600080fd5b6100596100bf565b60405161006691906108b6565b60405180910390f35b61008261007d3660046107bb565b6102c7565b005b61008c61050b565b6040516100669190610a76565b6100ac6100a7366004610853565b610511565b604051610066979695949392919061097f565b600254606090818167ffffffffffffffff811180156100dd57600080fd5b5060405190808252806020026020018201604052801561011757816020015b61010461066a565b8152602001906001900390816100fc5790505b50905060005b828110156102bf57600081815260016020818152604092839020835160e08101855281548152818401546001600160a01b0390811682850152600280840154909116828701526003830154606083015260048301805487516101009782161597909702600019011691909104601f81018590048502860185019096528585529094919360808601939092908301828280156101f95780601f106101ce576101008083540402835291602001916101f9565b820191906000526020600020905b8154815290600101906020018083116101dc57829003601f168201915b505050918352505060058201805460408051602060026001851615610100026000190190941693909304601f810184900484028201840190925281815293820193929183018282801561028d5780601f106102625761010080835404028352916020019161028d565b820191906000526020600020905b81548152906001019060200180831161027057829003601f168201915b505050505081526020016006820154815250508282815181106102ac57fe5b602090810291909101015260010161011d565b509150505b90565b60025442906103a6576040805160e0810182528881526001600160a01b038089166020808401918252898316848601908152606085018a8152608086018a815260a087018a905260c08701899052600280546000908152600180875299902088518155955198860180549988166001600160a01b03199a8b1617905592519285018054939096169290971691909117909355915160038201559251805192939261037792600485019201906106a5565b5060a082015180516103939160058401916020909101906106a5565b5060c082015181600601559050506104b5565b6002546000190160009081526001602052604090205484146103e35760405162461bcd60e51b81526004016103da90610a3f565b60405180910390fd5b6040805160e0810182528881526001600160a01b038089166020808401918252898316848601908152606085018a8152608086018a815260a087018a905260c08701899052600280546000908152600180875299902088518155955198860180549988166001600160a01b03199a8b1617905592519285018054939096169290971691909117909355915160038201559251805192939261048a92600485019201906106a5565b5060a082015180516104a69160058401916020909101906106a5565b5060c082015181600601559050505b6002805460010190556040517f30d01d358fb0899fe4d50947b2e9301c952d9eed09b14c7ecdcbeed4434557c4906104fa90899089908990899087908a908a906109df565b60405180910390a150505050505050565b60025481565b60016020818152600092835260409283902080548184015460028084015460038501546004860180548a516101009a8216159a909a02600019011693909304601f810188900488028901880190995288885293976001600160a01b039384169793909116959394938301828280156105ca5780601f1061059f576101008083540402835291602001916105ca565b820191906000526020600020905b8154815290600101906020018083116105ad57829003601f168201915b5050505060058301805460408051602060026001851615610100026000190190941693909304601f810184900484028201840190925281815294959493509083018282801561065a5780601f1061062f5761010080835404028352916020019161065a565b820191906000526020600020905b81548152906001019060200180831161063d57829003601f168201915b5050505050908060060154905087565b6040805160e08101825260008082526020820181905291810182905260608082018390526080820181905260a082015260c081019190915290565b828054600181600116156101000203166002900490600052602060002090601f016020900481019282601f106106e657805160ff1916838001178555610713565b82800160010185558215610713579182015b828111156107135782518255916020019190600101906106f8565b5061071f929150610723565b5090565b6102c491905b8082111561071f5760008155600101610729565b600082601f83011261074d578081fd5b813567ffffffffffffffff80821115610764578283fd5b604051601f8301601f191681016020018281118282101715610784578485fd5b60405282815292508284830160200186101561079f57600080fd5b8260208601602083013760006020848301015250505092915050565b60008060008060008060c087890312156107d3578182fd5b8635955060208701356107e581610a7f565b945060408701356107f581610a7f565b935060608701359250608087013567ffffffffffffffff80821115610818578384fd5b6108248a838b0161073d565b935060a0890135915080821115610839578283fd5b5061084689828a0161073d565b9150509295509295509295565b600060208284031215610864578081fd5b5035919050565b60008151808452815b8181101561089057602081850181015186830182015201610874565b818111156108a15782602083870101525b50601f01601f19169290920160200192915050565b60208082528251828201819052600091906040908185019080840286018301878501865b8381101561097157888303603f19018552815180518452878101516001600160a01b03908116898601528782015116878501526060808201519085015260808082015160e082870181905291906109338388018261086b565b91505060a09150818301518682038388015261094f828261086b565b60c09485015197909401969096525050948701949250908601906001016108da565b509098975050505050505050565b8781526001600160a01b038781166020830152861660408201526060810185905260e0608082018190526000906109b89083018661086b565b82810360a08401526109ca818661086b565b9150508260c083015298975050505050505050565b8781526001600160a01b03878116602083015286166040820152606081018590526080810184905260e060a08201819052600090610a1f9083018561086b565b82810360c0840152610a31818561086b565b9a9950505050505050505050565b6020808252601b908201527f5472616e73616374696f6e206572726f72206f63637572726564210000000000604082015260600190565b90815260200190565b6001600160a01b0381168114610a9457600080fd5b5056fea26469706673582212208e8c92ee2ddb954d56a57dcb6fab8b5247c07a9e0c2299012988b1c986ef221464736f6c63430006060033a2646970667358221220e9ba840f262fa1103c6270051efa8cf606677dbdf5aa3faf2e96037a9054b4d664736f6c63430006060033",
  "immutableReferences": {},
  "source": "pragma solidity ^0.6.6;\npragma experimental ABIEncoderV2;\n\nimport './RawMaterial.sol';\n// import './Supplier.sol';\n// import './Transporter.sol';\nimport './Medicine.sol';\n// import './Manufacturer.sol';\n// import './MedicineW_D.sol';\n// import './Wholesaler.sol';\n// import './MedicineD_C.sol';\n// import './Distributor.sol';\n// import './Customer.sol';\n\n\n//// New supply chain : supplier -> transporter -> manufacturer -> transporter -> whole-saler -> transporter -> distributor -> transporter -> customer/hospital/pharmacy\n\ncontract SupplyChain {\n    \n    address Owner;\n    \n    constructor() public {\n        Owner = msg.sender;\n    }\n    \n    modifier onlyOwner() {\n        require(Owner == msg.sender);\n        _;\n    }\n    \n    modifier checkUser(address addr) {\n        require(addr == msg.sender);\n        _;\n    }\n    \n    enum roles {\n        noRole,\n        supplier,\n        transporter,\n        manufacturer,\n        wholesaler,\n        distributor,\n        customer\n    }\n    \n    \n    //////////////// Events ////////////////////\n    \n    event UserRegister(address indexed _address, bytes32 name);\n    event buyEvent(address buyer, address indexed seller, address packageAddr, bytes signature, uint indexed timestamp);\n    event respondEvent(address buyer, address indexed seller, address packageAddr, bytes signature, uint indexed timestamp);\n    event sendEvent(address indexed seller, address buyer, address packageAddr, bytes signature, uint indexed timestamp);\n    event receivedEvent(address indexed buyer, address seller, address packageAddr, bytes signature, uint indexed timestamp);\n    \n    /////////////// Users (Only Owner Executable) //////////////////////\n    \n    struct userData {\n        bytes32 name;\n        string[] userLoc;\n        roles role;\n        address userAddr;\n    }\n    \n    mapping (address => userData) public userInfo;\n    \n    function registerUser(bytes32 name, string[] memory loc, uint role, address _userAddr) public onlyOwner {\n        userInfo[_userAddr].name = name;\n        userInfo[_userAddr].userLoc = loc;\n        userInfo[_userAddr].role = roles(role);\n        userInfo[_userAddr].userAddr = _userAddr;\n        \n        emit UserRegister(_userAddr, name);\n    }\n    \n    function changeUserRole(uint _role, address _addr) public onlyOwner returns(string memory) {\n        userInfo[_addr].role = roles(_role);\n       return \"Role Updated!\";\n    }\n    \n    function getUserInfo(address _address) public view onlyOwner returns(\n        userData memory\n        ) {\n        return userInfo[_address];\n    }\n    \n\n    /////////////// Supplier //////////////////////\n    \n    mapping (address => address[]) public supplierRawMaterials;\n    \n    function respondToManufacturer(address buyer, address seller, address packageAddr, bytes memory signature) public {\n        emit respondEvent(buyer, seller, packageAddr, signature, now);\n    }\n    \n    function createRawMaterialPackage(\n        bytes32 _description,\n        uint _quantity,\n        address _transporterAddr,\n        address _manufacturerAddr\n    ) public {\n\n        RawMaterial rawMaterial = new RawMaterial(\n            msg.sender,\n            address(bytes20(sha256(abi.encodePacked(msg.sender, now)))),\n            _description,\n            _quantity,\n            _transporterAddr,\n            _manufacturerAddr\n        );\n        \n        supplierRawMaterials[msg.sender].push(address(rawMaterial));\n    }\n    \n    function getNoOfPackagesOfSupplier() public view returns(uint) {\n        return supplierRawMaterials[msg.sender].length;\n    }\n    \n    \n    function getAllPackages() public view returns(address[] memory) {\n        uint len = supplierRawMaterials[msg.sender].length;\n        address[] memory ret = new address[](len);\n        for (uint i = 0; i < len; i++) {\n            ret[i] = supplierRawMaterials[msg.sender][i];\n        }\n        return ret;\n    }\n    \n    ///////////////  Transporter ///////////////\n    \n    \n    function transporterHandlePackage(\n        address _addr,\n        uint transportertype,\n        address cid\n        ) public {\n            \n        require(\n            userInfo[msg.sender].role == roles.transporter,\n            \"Only Transporter can call this function\"\n        );\n        require(\n            transportertype > 0,\n            \"Transporter Type is incorrect\"\n        );\n        \n        if(transportertype == 1) { \n            /// Supplier -> Manufacturer\n            RawMaterial(_addr).pickPackage(msg.sender);\n        } else if(transportertype == 2) { \n            /// Manufacturer -> Wholesaler\n            Medicine(_addr).pickMedicine(msg.sender);\n        } else if(transportertype == 3) {   \n            // Wholesaler to Distributer\n            // MedicineW_D(cid).pickWD(_addr, msg.sender);\n        } else if(transportertype == 4) {   \n            // Distrubuter to Customer\n            // MedicineD_C(cid).pickDC(_addr, msg.sender);\n        }\n    }\n    \n    \n    ///////////////  Manufacturer ///////////////\n    \n    mapping (address => address[]) public manufacturerRawMaterials;\n    mapping (address => address[]) public manufacturerMedicines;\n    \n    function requestRawMaterial(address supplierAddr, address manuAddr, address rawMaterialAddr, bytes memory signature) public {\n        emit buyEvent(supplierAddr, manuAddr, rawMaterialAddr, signature, now);\n    }\n\n    \n    function manufacturerReceivedPackage(\n        address _addr,\n        address _manufacturerAddress,\n        address _sellerAddr,\n        bytes memory signature\n        ) public {\n            \n        RawMaterial(_addr).receivedPackage(_manufacturerAddress);\n        manufacturerRawMaterials[_manufacturerAddress].push(_addr);\n        emit receivedEvent(msg.sender, _sellerAddr, _addr, signature, now);\n    }\n    \n    \n    function manufacturerCreatesMedicine(\n        address _manufacturerAddr,\n        bytes32 _description,\n        address[] memory _rawAddr,\n        uint _quantity,\n        address[] memory _transporterAddr,\n        address _recieverAddr,\n        uint RcvrType\n        ) public {\n            \n        Medicine _medicine = new Medicine(\n            _manufacturerAddr,\n            _description,\n            _rawAddr,\n            _quantity,\n            _transporterAddr,\n            _recieverAddr,\n            RcvrType\n        );\n        \n        manufacturerMedicines[_manufacturerAddr].push(address(_medicine));\n        \n    }\n    \n\n    ///////////////  Wholesaler  ///////////////\n\n    \n//     function wholesalerReceivedMedicine(\n//         address _address\n//         ) public {\n//         require(\n//             userInfo[msg.sender].role == roles.wholesaler || userInfo[msg.sender].role == roles.distributor,\n//             \"Only Wholesaler and Distributor can call this function\"\n//         );\n        \n//         medicineRecievedAtWholesaler(\n//             _address\n//         );\n//     }\n    \n//     function transferMedicineW_D(\n//         address _address,\n//         address transporter,\n//         address receiver) public {\n//         require(\n//             userInfo[msg.sender].role == roles.wholesaler &&\n//             msg.sender == Medicine(_address).getWDC()[0],\n//             \"Only Wholesaler or current owner of package can call this function\"\n//         );\n        \n//         transferMedicineWtoD(\n//             _address,\n//             transporter,\n//             receiver\n//         );\n//     }\n    \n//     function getBatchIdByIndexWD(uint index) public view returns(address packageID) {\n//         require(\n//             userInfo[msg.sender].role == roles.wholesaler,\n//             \"Only Wholesaler Can call this function.\"\n//         );\n//         return MedicineWtoD[msg.sender][index];\n//     }\n\n//     function getSubContractWD(address _address) public view returns (address SubContractWD) {\n//         return MedicineWtoDTxContract[_address];\n//     }\n\n\n//     ///////////////  Distributor  ///////////////\n\n\n//     function distributorReceivedMedicine(\n//       address _address,\n//       address cid\n//     ) public {\n//         require(\n//             userInfo[msg.sender].role == roles.distributor &&\n//             msg.sender == Medicine(_address).getWDC()[1],\n//             \"Only Distributor or current owner of package can call this function\"  \n//         );\n        \n//         medicineRecievedAtDistributor(\n//             _address,\n//             cid\n//         );\n//     }\n\n//     function distributorTransferMedicinetoCustomer(\n//         address _address,\n//         address transporter,\n//         address receiver\n//     ) public {\n//         require(\n//             userInfo[msg.sender].role == roles.distributor &&\n//             msg.sender == Medicine(_address).getWDC()[1],\n//             \"Only Distributor or current owner of package can call this function\"\n//         );\n//         transferMedicineDtoC(_address, transporter, receiver);\n//     }\n    \n//     function getBatchesCountDC() public view returns (uint count){\n//         require(\n//             userInfo[msg.sender].role == roles.distributor,\n//             \"Only Distributor Can call this function.\"\n//         );\n//         return MedicineDtoC[msg.sender].length;\n//     }\n\n//     function getBatchIdByIndexDC(uint index) public view returns(address packageID) {\n//         require(\n//             userInfo[msg.sender].role == roles.distributor,\n//             \"Only Distributor Can call this function.\"\n//         );\n//         return MedicineDtoC[msg.sender][index];\n//     }\n\n//     function getSubContractDC(address _address) public view returns (address SubContractDP) {\n//         return MedicineDtoCTxContract[_address];\n//     }\n    \n    \n//     ///////////////  Customer  ///////////////\n    \n    \n//     function customerReceivedMedicine(\n//         address _address,\n//         address cid\n//     ) public {\n//         require(\n//             userInfo[msg.sender].role == roles.customer,\n//             \"Only Customer Can call this function.\"\n//         );\n//         medicineRecievedAtCustomer(_address, cid);\n//     }\n\n//     function updateStatus(\n//         address _address,\n//         uint Status\n//     ) public {\n//         require(\n//             userInfo[msg.sender].role == roles.customer &&\n//             msg.sender == Medicine(_address).getWDC()[2],\n//             \"Only Customer or current owner of package can call this function\"\n//         );\n//         require(sale[_address] == salestatus(1), \"Medicine Must be at Customer\");\n        \n//         updateSaleStatus(_address, Status);\n//     }\n\n//     function getSalesInfo(\n//         address _address\n//     ) public\n//     view\n//     returns(\n//         uint Status \n//     ){\n//         return salesInfo(_address);\n//     }\n\n    \n//     function getBatchesCountC() public view returns(uint count) {\n//         require(\n//             userInfo[msg.sender].role == roles.customer,\n//             \"Only Wholesaler or current owner of package can call this function\"\n//         );\n//         return  MedicineBatchAtCustomer[msg.sender].length;\n//     }\n\n//     function getBatchIdByIndexC(uint index) public view returns(address _address) {\n//         require(\n//             userInfo[msg.sender].role == roles.customer,\n//             \"Only Wholesaler or current owner of package can call this function\"\n//         );\n//         return MedicineBatchAtCustomer[msg.sender][index];\n//     }\n    \n    function verify(address p, bytes32 hash, uint8 v, bytes32 r, bytes32 s) public pure returns(bool) {\n        return ecrecover(hash, v, r, s) == p;\n    }   \n}\n    ",
  "sourcePath": "/Users/sherwyndsouza/Desktop/Work/Blockchain/Medicine-Supply-Chain/blockchain/testing/Testing.sol",
  "compiler": {
    "name": "solc",
    "version": "0.6.6+commit.6c089d02.Emscripten.clang"
  },
  "schemaVersion": "3.2.2",
  "updatedAt": "2020-11-17T07:51:34.232Z",
  "networkType": "ethereum",
  "devdoc": {
    "methods": {}
  },
  "userdoc": {
    "methods": {
      "transporterHandlePackage(address,uint256,address)": {
        "notice": "////////////  Transporter ///////////////"
      },
      "verify(address,bytes32,uint8,bytes32,bytes32)": {
        "notice": "////////////  Wholesaler  ///////////////"
      }
    },
    "notice": "/ New supply chain : supplier -> transporter -> manufacturer -> transporter -> whole-saler -> transporter -> distributor -> transporter -> customer/hospital/pharmacy"
  }
}