{
  "contractName": "SupplyChain",
  "abi": [
    {
      "inputs": [],
      "stateMutability": "nonpayable",
      "type": "constructor"
    },
    {
      "anonymous": false,
      "inputs": [
        {
          "indexed": false,
          "internalType": "address",
          "name": "_address",
          "type": "address"
        },
        {
          "indexed": true,
          "internalType": "address",
          "name": "Customer",
          "type": "address"
        },
        {
          "indexed": false,
          "internalType": "uint256",
          "name": "status",
          "type": "uint256"
        }
      ],
      "name": "MedicineStatus",
      "type": "event"
    },
    {
      "anonymous": false,
      "inputs": [
        {
          "indexed": true,
          "internalType": "address",
          "name": "_address",
          "type": "address"
        },
        {
          "indexed": false,
          "internalType": "bytes32",
          "name": "name",
          "type": "bytes32"
        }
      ],
      "name": "UserRegister",
      "type": "event"
    },
    {
      "inputs": [
        {
          "internalType": "address",
          "name": "",
          "type": "address"
        },
        {
          "internalType": "uint256",
          "name": "",
          "type": "uint256"
        }
      ],
      "name": "MedicineBatchAtCustomer",
      "outputs": [
        {
          "internalType": "address",
          "name": "",
          "type": "address"
        }
      ],
      "stateMutability": "view",
      "type": "function",
      "constant": true
    },
    {
      "inputs": [
        {
          "internalType": "address",
          "name": "",
          "type": "address"
        },
        {
          "internalType": "uint256",
          "name": "",
          "type": "uint256"
        }
      ],
      "name": "MedicineDtoC",
      "outputs": [
        {
          "internalType": "address",
          "name": "",
          "type": "address"
        }
      ],
      "stateMutability": "view",
      "type": "function",
      "constant": true
    },
    {
      "inputs": [
        {
          "internalType": "address",
          "name": "",
          "type": "address"
        }
      ],
      "name": "MedicineDtoCTxContract",
      "outputs": [
        {
          "internalType": "address",
          "name": "",
          "type": "address"
        }
      ],
      "stateMutability": "view",
      "type": "function",
      "constant": true
    },
    {
      "inputs": [
        {
          "internalType": "address",
          "name": "",
          "type": "address"
        },
        {
          "internalType": "uint256",
          "name": "",
          "type": "uint256"
        }
      ],
      "name": "MedicineWtoD",
      "outputs": [
        {
          "internalType": "address",
          "name": "",
          "type": "address"
        }
      ],
      "stateMutability": "view",
      "type": "function",
      "constant": true
    },
    {
      "inputs": [
        {
          "internalType": "address",
          "name": "",
          "type": "address"
        }
      ],
      "name": "MedicineWtoDTxContract",
      "outputs": [
        {
          "internalType": "address",
          "name": "",
          "type": "address"
        }
      ],
      "stateMutability": "view",
      "type": "function",
      "constant": true
    },
    {
      "inputs": [
        {
          "internalType": "address",
          "name": "",
          "type": "address"
        },
        {
          "internalType": "uint256",
          "name": "",
          "type": "uint256"
        }
      ],
      "name": "MedicinesAtDistributor",
      "outputs": [
        {
          "internalType": "address",
          "name": "",
          "type": "address"
        }
      ],
      "stateMutability": "view",
      "type": "function",
      "constant": true
    },
    {
      "inputs": [
        {
          "internalType": "address",
          "name": "",
          "type": "address"
        },
        {
          "internalType": "uint256",
          "name": "",
          "type": "uint256"
        }
      ],
      "name": "MedicinesAtWholesaler",
      "outputs": [
        {
          "internalType": "address",
          "name": "",
          "type": "address"
        }
      ],
      "stateMutability": "view",
      "type": "function",
      "constant": true
    },
    {
      "inputs": [],
      "name": "Owner",
      "outputs": [
        {
          "internalType": "address",
          "name": "",
          "type": "address"
        }
      ],
      "stateMutability": "view",
      "type": "function",
      "constant": true
    },
    {
      "inputs": [
        {
          "internalType": "bytes32",
          "name": "_description",
          "type": "bytes32"
        },
        {
          "internalType": "uint256",
          "name": "_quantity",
          "type": "uint256"
        },
        {
          "internalType": "address",
          "name": "_transporterAddr",
          "type": "address"
        },
        {
          "internalType": "address",
          "name": "_manufacturerAddr",
          "type": "address"
        }
      ],
      "name": "createRawMaterialPackage",
      "outputs": [],
      "stateMutability": "nonpayable",
      "type": "function"
    },
    {
      "inputs": [],
      "name": "getAllPackages",
      "outputs": [
        {
          "internalType": "address[]",
          "name": "",
          "type": "address[]"
        }
      ],
      "stateMutability": "view",
      "type": "function",
      "constant": true
    },
    {
      "inputs": [],
      "name": "getNoOfPackagesOfSupplier",
      "outputs": [
        {
          "internalType": "uint256",
          "name": "",
          "type": "uint256"
        }
      ],
      "stateMutability": "view",
      "type": "function",
      "constant": true
    },
    {
      "inputs": [
        {
          "internalType": "address",
          "name": "_addr",
          "type": "address"
        },
        {
          "internalType": "uint256",
          "name": "transportertype",
          "type": "uint256"
        },
        {
          "internalType": "address",
          "name": "cid",
          "type": "address"
        }
      ],
      "name": "handlePackage",
      "outputs": [],
      "stateMutability": "nonpayable",
      "type": "function"
    },
    {
      "inputs": [
        {
          "internalType": "address",
          "name": "_manufacturerAddr",
          "type": "address"
        },
        {
          "internalType": "bytes32",
          "name": "_description",
          "type": "bytes32"
        },
        {
          "internalType": "address[]",
          "name": "_rawAddr",
          "type": "address[]"
        },
        {
          "internalType": "uint256",
          "name": "_quantity",
          "type": "uint256"
        },
        {
          "internalType": "address[]",
          "name": "_transporterAddr",
          "type": "address[]"
        },
        {
          "internalType": "address",
          "name": "_recieverAddr",
          "type": "address"
        },
        {
          "internalType": "uint256",
          "name": "RcvrType",
          "type": "uint256"
        }
      ],
      "name": "manufacturerCreatesMedicine",
      "outputs": [],
      "stateMutability": "nonpayable",
      "type": "function"
    },
    {
      "inputs": [
        {
          "internalType": "address",
          "name": "",
          "type": "address"
        },
        {
          "internalType": "uint256",
          "name": "",
          "type": "uint256"
        }
      ],
      "name": "manufacturerMedicines",
      "outputs": [
        {
          "internalType": "address",
          "name": "",
          "type": "address"
        }
      ],
      "stateMutability": "view",
      "type": "function",
      "constant": true
    },
    {
      "inputs": [
        {
          "internalType": "address",
          "name": "",
          "type": "address"
        },
        {
          "internalType": "uint256",
          "name": "",
          "type": "uint256"
        }
      ],
      "name": "manufacturerRawMaterials",
      "outputs": [
        {
          "internalType": "address",
          "name": "",
          "type": "address"
        }
      ],
      "stateMutability": "view",
      "type": "function",
      "constant": true
    },
    {
      "inputs": [
        {
          "internalType": "address",
          "name": "_addr",
          "type": "address"
        },
        {
          "internalType": "address",
          "name": "_manufacturerAddress",
          "type": "address"
        }
      ],
      "name": "manufacturerReceivedPackage",
      "outputs": [],
      "stateMutability": "nonpayable",
      "type": "function"
    },
    {
      "inputs": [
        {
          "internalType": "address",
          "name": "_address",
          "type": "address"
        },
        {
          "internalType": "address",
          "name": "cid",
          "type": "address"
        }
      ],
      "name": "medicineRecievedAtCustomer",
      "outputs": [],
      "stateMutability": "nonpayable",
      "type": "function"
    },
    {
      "inputs": [
        {
          "internalType": "address",
          "name": "_address",
          "type": "address"
        },
        {
          "internalType": "address",
          "name": "cid",
          "type": "address"
        }
      ],
      "name": "medicineRecievedAtDistributor",
      "outputs": [],
      "stateMutability": "nonpayable",
      "type": "function"
    },
    {
      "inputs": [
        {
          "internalType": "address",
          "name": "_address",
          "type": "address"
        }
      ],
      "name": "medicineRecievedAtWholesaler",
      "outputs": [],
      "stateMutability": "nonpayable",
      "type": "function"
    },
    {
      "inputs": [
        {
          "internalType": "address",
          "name": "",
          "type": "address"
        }
      ],
      "name": "sale",
      "outputs": [
        {
          "internalType": "enum Customer.salestatus",
          "name": "",
          "type": "uint8"
        }
      ],
      "stateMutability": "view",
      "type": "function",
      "constant": true
    },
    {
      "inputs": [
        {
          "internalType": "address",
          "name": "_address",
          "type": "address"
        }
      ],
      "name": "salesInfo",
      "outputs": [
        {
          "internalType": "uint256",
          "name": "Status",
          "type": "uint256"
        }
      ],
      "stateMutability": "view",
      "type": "function",
      "constant": true
    },
    {
      "inputs": [
        {
          "internalType": "address",
          "name": "",
          "type": "address"
        },
        {
          "internalType": "uint256",
          "name": "",
          "type": "uint256"
        }
      ],
      "name": "supplierRawMaterials",
      "outputs": [
        {
          "internalType": "address",
          "name": "",
          "type": "address"
        }
      ],
      "stateMutability": "view",
      "type": "function",
      "constant": true
    },
    {
      "inputs": [
        {
          "internalType": "address",
          "name": "_address",
          "type": "address"
        },
        {
          "internalType": "address",
          "name": "transporter",
          "type": "address"
        },
        {
          "internalType": "address",
          "name": "receiver",
          "type": "address"
        }
      ],
      "name": "transferMedicineDtoC",
      "outputs": [],
      "stateMutability": "nonpayable",
      "type": "function"
    },
    {
      "inputs": [
        {
          "internalType": "address",
          "name": "_address",
          "type": "address"
        },
        {
          "internalType": "address",
          "name": "transporter",
          "type": "address"
        },
        {
          "internalType": "address",
          "name": "receiver",
          "type": "address"
        }
      ],
      "name": "transferMedicineWtoD",
      "outputs": [],
      "stateMutability": "nonpayable",
      "type": "function"
    },
    {
      "inputs": [
        {
          "internalType": "address",
          "name": "_address",
          "type": "address"
        },
        {
          "internalType": "uint256",
          "name": "Status",
          "type": "uint256"
        }
      ],
      "name": "updateSaleStatus",
      "outputs": [],
      "stateMutability": "nonpayable",
      "type": "function"
    },
    {
      "inputs": [
        {
          "internalType": "address",
          "name": "",
          "type": "address"
        }
      ],
      "name": "userInfo",
      "outputs": [
        {
          "internalType": "bytes32",
          "name": "name",
          "type": "bytes32"
        },
        {
          "internalType": "enum SupplyChain.roles",
          "name": "role",
          "type": "uint8"
        },
        {
          "internalType": "address",
          "name": "userAddr",
          "type": "address"
        }
      ],
      "stateMutability": "view",
      "type": "function",
      "constant": true
    },
    {
      "inputs": [
        {
          "internalType": "bytes32",
          "name": "name",
          "type": "bytes32"
        },
        {
          "internalType": "string[]",
          "name": "loc",
          "type": "string[]"
        },
        {
          "internalType": "uint256",
          "name": "role",
          "type": "uint256"
        },
        {
          "internalType": "address",
          "name": "_userAddr",
          "type": "address"
        }
      ],
      "name": "registerUser",
      "outputs": [],
      "stateMutability": "nonpayable",
      "type": "function"
    },
    {
      "inputs": [
        {
          "internalType": "uint256",
          "name": "_role",
          "type": "uint256"
        },
        {
          "internalType": "address",
          "name": "_addr",
          "type": "address"
        }
      ],
      "name": "changeUserRole",
      "outputs": [
        {
          "internalType": "string",
          "name": "",
          "type": "string"
        }
      ],
      "stateMutability": "nonpayable",
      "type": "function"
    },
    {
      "inputs": [
        {
          "internalType": "address",
          "name": "_address",
          "type": "address"
        }
      ],
      "name": "getUserInfo",
      "outputs": [
        {
          "components": [
            {
              "internalType": "bytes32",
              "name": "name",
              "type": "bytes32"
            },
            {
              "internalType": "string[]",
              "name": "userLoc",
              "type": "string[]"
            },
            {
              "internalType": "enum SupplyChain.roles",
              "name": "role",
              "type": "uint8"
            },
            {
              "internalType": "address",
              "name": "userAddr",
              "type": "address"
            }
          ],
          "internalType": "struct SupplyChain.userData",
          "name": "",
          "type": "tuple"
        }
      ],
      "stateMutability": "view",
      "type": "function",
      "constant": true
    },
    {
      "inputs": [
        {
          "internalType": "bytes32",
          "name": "_description",
          "type": "bytes32"
        },
        {
          "internalType": "uint256",
          "name": "_quantity",
          "type": "uint256"
        },
        {
          "internalType": "address",
          "name": "_transporterAddr",
          "type": "address"
        },
        {
          "internalType": "address",
          "name": "_manufacturerAddr",
          "type": "address"
        }
      ],
      "name": "supplierCreatesRawPackage",
      "outputs": [],
      "stateMutability": "nonpayable",
      "type": "function"
    },
    {
      "inputs": [],
      "name": "supplierGetPackageCount",
      "outputs": [
        {
          "internalType": "uint256",
          "name": "",
          "type": "uint256"
        }
      ],
      "stateMutability": "view",
      "type": "function",
      "constant": true
    },
    {
      "inputs": [],
      "name": "supplierGetRawMaterialAddresses",
      "outputs": [
        {
          "internalType": "address[]",
          "name": "",
          "type": "address[]"
        }
      ],
      "stateMutability": "view",
      "type": "function",
      "constant": true
    },
    {
      "inputs": [
        {
          "internalType": "address",
          "name": "_address",
          "type": "address"
        },
        {
          "internalType": "uint256",
          "name": "transporterType",
          "type": "uint256"
        },
        {
          "internalType": "address",
          "name": "cid",
          "type": "address"
        }
      ],
      "name": "transporterHandlePackage",
      "outputs": [],
      "stateMutability": "nonpayable",
      "type": "function"
    },
    {
      "inputs": [
        {
          "internalType": "address",
          "name": "_addr",
          "type": "address"
        }
      ],
      "name": "manufacturerReceivedRawMaterials",
      "outputs": [],
      "stateMutability": "nonpayable",
      "type": "function"
    },
    {
      "inputs": [
        {
          "internalType": "bytes32",
          "name": "_description",
          "type": "bytes32"
        },
        {
          "internalType": "address[]",
          "name": "_rawAddr",
          "type": "address[]"
        },
        {
          "internalType": "uint256",
          "name": "_quantity",
          "type": "uint256"
        },
        {
          "internalType": "address[]",
          "name": "_transporterAddr",
          "type": "address[]"
        },
        {
          "internalType": "address",
          "name": "_receiverAddr",
          "type": "address"
        },
        {
          "internalType": "uint256",
          "name": "RcvrType",
          "type": "uint256"
        }
      ],
      "name": "manufacturerCreatesNewMedicine",
      "outputs": [
        {
          "internalType": "string",
          "name": "",
          "type": "string"
        }
      ],
      "stateMutability": "nonpayable",
      "type": "function"
    },
    {
      "inputs": [
        {
          "internalType": "address",
          "name": "_address",
          "type": "address"
        }
      ],
      "name": "wholesalerReceivedMedicine",
      "outputs": [],
      "stateMutability": "nonpayable",
      "type": "function"
    },
    {
      "inputs": [
        {
          "internalType": "address",
          "name": "_address",
          "type": "address"
        },
        {
          "internalType": "address",
          "name": "transporter",
          "type": "address"
        },
        {
          "internalType": "address",
          "name": "receiver",
          "type": "address"
        }
      ],
      "name": "transferMedicineW_D",
      "outputs": [],
      "stateMutability": "nonpayable",
      "type": "function"
    },
    {
      "inputs": [
        {
          "internalType": "uint256",
          "name": "index",
          "type": "uint256"
        }
      ],
      "name": "getBatchIdByIndexWD",
      "outputs": [
        {
          "internalType": "address",
          "name": "packageID",
          "type": "address"
        }
      ],
      "stateMutability": "view",
      "type": "function",
      "constant": true
    },
    {
      "inputs": [
        {
          "internalType": "address",
          "name": "_address",
          "type": "address"
        }
      ],
      "name": "getSubContractWD",
      "outputs": [
        {
          "internalType": "address",
          "name": "SubContractWD",
          "type": "address"
        }
      ],
      "stateMutability": "view",
      "type": "function",
      "constant": true
    },
    {
      "inputs": [
        {
          "internalType": "address",
          "name": "_address",
          "type": "address"
        },
        {
          "internalType": "address",
          "name": "cid",
          "type": "address"
        }
      ],
      "name": "distributorReceivedMedicine",
      "outputs": [],
      "stateMutability": "nonpayable",
      "type": "function"
    },
    {
      "inputs": [
        {
          "internalType": "address",
          "name": "_address",
          "type": "address"
        },
        {
          "internalType": "address",
          "name": "transporter",
          "type": "address"
        },
        {
          "internalType": "address",
          "name": "receiver",
          "type": "address"
        }
      ],
      "name": "distributorTransferMedicinetoCustomer",
      "outputs": [],
      "stateMutability": "nonpayable",
      "type": "function"
    },
    {
      "inputs": [],
      "name": "getBatchesCountDC",
      "outputs": [
        {
          "internalType": "uint256",
          "name": "count",
          "type": "uint256"
        }
      ],
      "stateMutability": "view",
      "type": "function",
      "constant": true
    },
    {
      "inputs": [
        {
          "internalType": "uint256",
          "name": "index",
          "type": "uint256"
        }
      ],
      "name": "getBatchIdByIndexDC",
      "outputs": [
        {
          "internalType": "address",
          "name": "packageID",
          "type": "address"
        }
      ],
      "stateMutability": "view",
      "type": "function",
      "constant": true
    },
    {
      "inputs": [
        {
          "internalType": "address",
          "name": "_address",
          "type": "address"
        }
      ],
      "name": "getSubContractDC",
      "outputs": [
        {
          "internalType": "address",
          "name": "SubContractDP",
          "type": "address"
        }
      ],
      "stateMutability": "view",
      "type": "function",
      "constant": true
    },
    {
      "inputs": [
        {
          "internalType": "address",
          "name": "_address",
          "type": "address"
        },
        {
          "internalType": "address",
          "name": "cid",
          "type": "address"
        }
      ],
      "name": "customerReceivedMedicine",
      "outputs": [],
      "stateMutability": "nonpayable",
      "type": "function"
    }
  ],
  "bytecode": "0x608060405234801561001057600080fd5b50600b80546001600160a01b03191633179055615d98806100326000396000f3fe60806040523480156200001157600080fd5b5060043610620002bc5760003560e01c80638ccc8db7116200017d578063c2b7098811620000e1578063dd1facb21162000093578063dd1facb2146200066a578063eae3c2071462000681578063f06822d81462000698578063fc7e01f314620006af578063fd302c3514620006c6578063ff2b065a14620006dd57620002bc565b8063c2b7098814620005fa578063c40b38af1462000611578063cd55152e1462000628578063d1acb5271462000632578063da48f20c146200063c578063dc4c25b3146200065357620002bc565b8063a999cca1116200013b578063a999cca1146200057b578063b0fc028d1462000592578063b4a99a4e14620005a9578063bb8ee1c514620005b3578063be7ef9c014620005d9578063c22470ea14620005f057620002bc565b80638ccc8db714620005085780638dfa742d146200051f5780639100978614620005365780639509c2ff146200054d5780639af035a3146200056457620002bc565b806356466dee11620002255780636f41507c11620001e35780636f41507c146200046d57806375df26841462000484578063798a826f14620004aa578063805bac9714620004c1578063824e43e714620004e75780638aca032b14620004f157620002bc565b806356466dee14620003eb57806356e5efc4146200040257806362c1fe3914620004195780636386c1c714620004305780636e6c6c18146200045657620002bc565b8063164bcd5b116200027f578063164bcd5b14620003505780631959a00214620003675780631f90ddaf146200038f5780633475901614620003a6578063412afbaf14620003bd5780634aab072614620003d457620002bc565b8063050e70db14620002c157806306db832414620002f05780630a421f0f1462000307578063102795bc146200032057806311789ca61462000339575b600080fd5b620002d8620002d236600462002025565b620006f4565b604051620002e79190620023d5565b60405180910390f35b620002d86200030136600462002025565b6200072a565b6200031162000744565b604051620002e79190620024dd565b620003376200033136600462001ec1565b6200081a565b005b620003376200034a36600462002278565b62000876565b620002d862000361366004620022c6565b620008ce565b6200037e6200037836600462001ec1565b6200094b565b604051620002e793929190620024fb565b62000337620003a0366004620021ba565b62000977565b620002d8620003b736600462001ec1565b62000a76565b620002d8620003ce36600462002025565b62000a94565b620002d8620003e536600462002025565b62000aae565b62000337620003fc36600462001ee7565b62000ac8565b620003376200041336600462001f75565b62000b6a565b620002d86200042a36600462001ec1565b62000bf7565b620004476200044136600462001ec1565b62000c15565b604051620002e79190620028d9565b620003376200046736600462001ec1565b62000d84565b620003376200047e36600462002053565b62000e54565b6200049b6200049536600462001ec1565b62000fac565b604051620002e791906200252c565b620002d8620004bb36600462001ec1565b62000fc1565b620004d8620004d236600462002120565b62000fdc565b604051620002e7919062002541565b6200031162001086565b620003376200050236600462001ee7565b62001099565b620002d86200051936600462002025565b620010e9565b620002d86200053036600462002025565b62001103565b620004d862000547366004620022df565b6200111d565b620003376200055e36600462001f24565b620011a6565b620002d862000575366004620022c6565b62001281565b620002d86200058c36600462002025565b620012e3565b620002d8620005a336600462001ec1565b620012fd565b620002d862001318565b620005ca620005c436600462001ec1565b62001327565b604051620002e79190620024f2565b62000337620005ea36600462002053565b6200134f565b620005ca620013c3565b620003376200060b36600462001f24565b620013d6565b620003376200062236600462001ee7565b62001471565b620005ca620015f4565b620005ca6200164e565b620003376200064d36600462001ee7565b620016a3565b620003376200066436600462001ee7565b62001780565b620003376200067b36600462001ec1565b6200185d565b620003376200069236600462002025565b620018d9565b62000337620006a936600462001f24565b62001961565b62000337620006c036600462002278565b620019fc565b620002d8620006d736600462002025565b62001afb565b62000337620006ee36600462001f24565b62001b15565b600460205281600052604060002081815481106200070e57fe5b6000918252602090912001546001600160a01b03169150829050565b600060205281600052604060002081815481106200070e57fe5b33600090815260208190526040902054606090818167ffffffffffffffff811180156200077057600080fd5b506040519080825280602002602001820160405280156200079b578160200160208202803683370190505b50905060005b828110156200081257336000908152602081905260409020805482908110620007c657fe5b9060005260206000200160009054906101000a90046001600160a01b0316828281518110620007f157fe5b6001600160a01b0390921660209283029190910190910152600101620007a1565b509150505b90565b6003336000908152600c602052604090206002015460ff1660068111156200083e57fe5b14620008675760405162461bcd60e51b81526004016200085e9062002615565b60405180910390fd5b62000873813362000ac8565b50565b6001336000908152600c602052604090206002015460ff1660068111156200089a57fe5b14620008ba5760405162461bcd60e51b81526004016200085e906200278b565b620008c884848484620019fc565b50505050565b60006005336000908152600c602052604090206002015460ff166006811115620008f457fe5b14620009145760405162461bcd60e51b81526004016200085e9062002696565b3360009081526007602052604090208054839081106200093057fe5b6000918252602090912001546001600160a01b031692915050565b600c602052600090815260409020805460029091015460ff81169061010090046001600160a01b031683565b600b546001600160a01b031633146200098f57600080fd5b6001600160a01b0381166000908152600c602090815260409091208581558451620009c39260019092019186019062001bf3565b50816006811115620009d157fe5b6001600160a01b0382166000908152600c60205260409020600201805460ff1916600183600681111562000a0157fe5b02179055506001600160a01b0381166000818152600c6020526040908190206002018054610100600160a81b0319166101008402179055517f33a7170f028b1e4f5ba321064a00ed820856a920c7f9c6636fbcf385427b1b0f9062000a68908790620024f2565b60405180910390a250505050565b6001600160a01b039081166000908152600560205260409020541690565b600360205281600052604060002081815481106200070e57fe5b600960205281600052604060002081815481106200070e57fe5b604051630a57332d60e31b81526001600160a01b038316906352b999689062000af6908490600401620023d5565b600060405180830381600087803b15801562000b1157600080fd5b505af115801562000b26573d6000803e3d6000fd5b505050506001600160a01b03908116600090815260016020818152604083208054928301815583529091200180546001600160a01b03191692909116919091179055565b60008787878787878760405162000b819062001c57565b62000b93979695949392919062002468565b604051809103906000f08015801562000bb0573d6000803e3d6000fd5b506001600160a01b0398891660009081526002602090815260408220805460018101825590835291200180546001600160a01b031916919099161790975550505050505050565b6001600160a01b039081166000908152600860205260409020541690565b62000c1f62001c65565b600b546001600160a01b0316331462000c3757600080fd5b6001600160a01b0382166000908152600c602090815260408083208151608081018352815481526001820180548451818702810187019095528085529195929486810194939192919084015b8282101562000d345760008481526020908190208301805460408051601f600260001961010060018716150201909416939093049283018590048502810185019091528181529283018282801562000d1f5780601f1062000cf35761010080835404028352916020019162000d1f565b820191906000526020600020905b81548152906001019060200180831162000d0157829003601f168201915b50505050508152602001906001019062000c83565b50505090825250600282015460209091019060ff16600681111562000d5557fe5b600681111562000d6157fe5b81526002919091015461010090046001600160a01b031660209091015292915050565b6040516307fb74db60e21b81526000906001600160a01b03831690631fedd36c9062000db5903390600401620023d5565b602060405180830381600087803b15801562000dd057600080fd5b505af115801562000de5573d6000803e3d6000fd5b505050506040513d601f19601f8201168201806040525081019062000e0b919062002107565b9050806001141562000e50573360009081526003602090815260408220805460018101825590835291200180546001600160a01b0319166001600160a01b0384161790555b5050565b816001141562000ec65760405163638e9a3d60e01b81526001600160a01b0384169063638e9a3d9062000e8c903390600401620023d5565b600060405180830381600087803b15801562000ea757600080fd5b505af115801562000ebc573d6000803e3d6000fd5b5050505062000fa7565b816002141562000efe5760405163ac42a41560e01b81526001600160a01b0384169063ac42a4159062000e8c903390600401620023d5565b816003141562000f3857604051630887851b60e31b81526001600160a01b0382169063443c28d89062000e8c908690339060040162002423565b816004141562000fa75760405163298abd8d60e11b81526001600160a01b038216906353157b1a9062000f72908690339060040162002423565b600060405180830381600087803b15801562000f8d57600080fd5b505af115801562000fa2573d6000803e3d6000fd5b505050505b505050565b600a6020526000908152604090205460ff1681565b6008602052600090815260409020546001600160a01b031681565b60606003336000908152600c602052604090206002015460ff1660068111156200100257fe5b14620010225760405162461bcd60e51b81526004016200085e906200285d565b81620010425760405162461bcd60e51b81526004016200085e906200265f565b620010533388888888888862000b6a565b506040805180820190915260118152704d65646963696e6520637265617465642160781b60208201529695505050505050565b6060806200109362000744565b91505090565b6006336000908152600c602052604090206002015460ff166006811115620010bd57fe5b14620010dd5760405162461bcd60e51b81526004016200085e90620026de565b62000e508282620016a3565b600160205281600052604060002081815481106200070e57fe5b600660205281600052604060002081815481106200070e57fe5b600b546060906001600160a01b031633146200113857600080fd5b8260068111156200114557fe5b6001600160a01b0383166000908152600c60205260409020600201805460ff191660018360068111156200117557fe5b02179055505060408051808201909152600d81526c526f6c6520557064617465642160981b60208201525b92915050565b6004336000908152600c602052604090206002015460ff166006811115620011ca57fe5b148015620012555750826001600160a01b031663abb428a66040518163ffffffff1660e01b815260040160606040518083038186803b1580156200120d57600080fd5b505afa15801562001222573d6000803e3d6000fd5b505050506040513d601f19601f820116820180604052508101906200124891906200208e565b516001600160a01b031633145b620012745760405162461bcd60e51b81526004016200085e9062002723565b62000fa783838362001961565b60006004336000908152600c602052604090206002015460ff166006811115620012a757fe5b14620012c75760405162461bcd60e51b81526004016200085e90620027cf565b3360009081526004602052604090208054839081106200093057fe5b600260205281600052604060002081815481106200070e57fe5b6005602052600090815260409020546001600160a01b031681565b600b546001600160a01b031681565b6001600160a01b0381166000908152600a602052604081205460ff166004811115620011a057fe5b6002336000908152600c602052604090206002015460ff1660068111156200137357fe5b14620013935760405162461bcd60e51b81526004016200085e9062002816565b60008211620013b65760405162461bcd60e51b81526004016200085e90620028a2565b62000fa783838362000e54565b3360009081526020819052604090205490565b600083338484604051620013ea9062001c8d565b620013f994939291906200243d565b604051809103906000f08015801562001416573d6000803e3d6000fd5b5033600090815260076020908152604080832080546001810182559084528284200180546001600160a01b039586166001600160a01b0319918216811790925598909416835260089091529020805490951617909355505050565b6040516307fb74db60e21b81526000906001600160a01b03841690631fedd36c90620014a2903390600401620023d5565b602060405180830381600087803b158015620014bd57600080fd5b505af1158015620014d2573d6000803e3d6000fd5b505050506040513d601f19601f82011682018060405250810190620014f8919062002107565b9050806002141562000fa757336000908152600660209081526040808320805460018101825590845291832090910180546001600160a01b0319166001600160a01b03871690811790915581516355da145360e11b81529151909163abb428a6916004808301926060929190829003018186803b1580156200157957600080fd5b505afa1580156200158e573d6000803e3d6000fd5b505050506040513d601f19601f82011682018060405250810190620015b491906200208e565b516001600160a01b03161462000fa75760405163d7dcbe3b60e01b81526001600160a01b0383169063d7dcbe3b9062000f72908690339060040162002423565b60006005336000908152600c602052604090206002015460ff1660068111156200161a57fe5b146200163a5760405162461bcd60e51b81526004016200085e9062002696565b503360009081526007602052604090205490565b60006001336000908152600c602052604090206002015460ff1660068111156200167457fe5b14620016945760405162461bcd60e51b81526004016200085e906200278b565b6200169e620013c3565b905090565b604051637bd6ee1f60e11b81526001600160a01b0382169063f7addc3e90620016d3908590339060040162002423565b600060405180830381600087803b158015620016ee57600080fd5b505af115801562001703573d6000803e3d6000fd5b50503360009081526009602090815260408220805460018082018355918452919092200180546001600160a01b0319166001600160a01b03871617905591506200174a9050565b6001600160a01b0383166000908152600a60205260409020805460ff191660018360048111156200177757fe5b02179055505050565b6005336000908152600c602052604090206002015460ff166006811115620017a457fe5b148015620018325750816001600160a01b031663abb428a66040518163ffffffff1660e01b815260040160606040518083038186803b158015620017e757600080fd5b505afa158015620017fc573d6000803e3d6000fd5b505050506040513d601f19601f820116820180604052508101906200182291906200208e565b602001516001600160a01b031633145b620018515760405162461bcd60e51b81526004016200085e9062002556565b62000e50828262001471565b6004336000908152600c602052604090206002015460ff1660068111156200188157fe5b1480620018af57506005336000908152600c602052604090206002015460ff166006811115620018ad57fe5b145b620018ce5760405162461bcd60e51b81526004016200085e90620025bf565b620008738162000d84565b806004811115620018e657fe5b6001600160a01b0383166000908152600a60205260409020805460ff191660018360048111156200191357fe5b0217905550336001600160a01b03167f778762ccb04f5a8838ed8914b13eb6f118224696959cbfa0cfea54133f76a7d5838360405162001955929190620024c4565b60405180910390a25050565b600083338484604051620019759062001c9b565b6200198494939291906200243d565b604051809103906000f080158015620019a1573d6000803e3d6000fd5b5033600090815260046020908152604080832080546001810182559084528284200180546001600160a01b039586166001600160a01b0319918216811790925598909416835260059091529020805490951617909355505050565b6000336002334260405160200162001a1692919062002395565b60408051601f198184030181529082905262001a3291620023b7565b602060405180830381855afa15801562001a50573d6000803e3d6000fd5b5050506040513d601f19601f8201168201806040525081019062001a75919062002107565b60601c8686868660405162001a8a9062001ca9565b62001a9b96959493929190620023e9565b604051809103906000f08015801562001ab8573d6000803e3d6000fd5b50336000908152602081815260408220805460018101825590835291200180546001600160a01b0319166001600160a01b03929092169190911790555050505050565b600760205281600052604060002081815481106200070e57fe5b6005336000908152600c602052604090206002015460ff16600681111562001b3957fe5b14801562001bc75750826001600160a01b031663abb428a66040518163ffffffff1660e01b815260040160606040518083038186803b15801562001b7c57600080fd5b505afa15801562001b91573d6000803e3d6000fd5b505050506040513d601f19601f8201168201806040525081019062001bb791906200208e565b602001516001600160a01b031633145b62001be65760405162461bcd60e51b81526004016200085e9062002556565b62000fa7838383620013d6565b82805482825590600052602060002090810192821562001c45579160200282015b8281111562001c45578251805162001c3491849160209091019062001cb7565b509160200191906001019062001c14565b5062001c5392915062001d38565b5090565b611a398062002a1583390190565b6040805160808101825260008082526060602083015290918201908152600060209091015290565b6103bc806200444e83390190565b6103b8806200480a83390190565b6111a18062004bc283390190565b828054600181600116156101000203166002900490600052602060002090601f016020900481019282601f1062001cfa57805160ff191683800117855562001d2a565b8280016001018555821562001d2a579182015b8281111562001d2a57825182559160200191906001019062001d0d565b5062001c5392915062001d60565b6200081791905b8082111562001c5357600062001d56828262001d7d565b5060010162001d3f565b6200081791905b8082111562001c53576000815560010162001d67565b50805460018160011615610100020316600290046000825580601f1062001da5575062000873565b601f01602090049060005260206000209081019062000873919062001d60565b8035620011a081620029fe565b600082601f83011262001de3578081fd5b813562001dfa62001df482620029a3565b6200297b565b81815291506020808301908481018184028601820187101562001e1c57600080fd5b60005b8481101562001e4857813562001e3581620029fe565b8452928201929082019060010162001e1f565b505050505092915050565b600082601f83011262001e64578081fd5b813567ffffffffffffffff81111562001e7b578182fd5b62001e90601f8201601f19166020016200297b565b915080825283602082850101111562001ea857600080fd5b8060208401602084013760009082016020015292915050565b60006020828403121562001ed3578081fd5b813562001ee081620029fe565b9392505050565b6000806040838503121562001efa578081fd5b823562001f0781620029fe565b9150602083013562001f1981620029fe565b809150509250929050565b60008060006060848603121562001f39578081fd5b833562001f4681620029fe565b9250602084013562001f5881620029fe565b9150604084013562001f6a81620029fe565b809150509250925092565b600080600080600080600060e0888a03121562001f90578283fd5b873562001f9d81620029fe565b965060208801359550604088013567ffffffffffffffff8082111562001fc1578485fd5b62001fcf8b838c0162001dd2565b965060608a0135955060808a013591508082111562001fec578485fd5b5062001ffb8a828b0162001dd2565b93505060a08801356200200e81620029fe565b8092505060c0880135905092959891949750929550565b6000806040838503121562002038578182fd5b82356200204581620029fe565b946020939093013593505050565b60008060006060848603121562002068578283fd5b83356200207581620029fe565b925060208401359150604084013562001f6a81620029fe565b600060608284031215620020a0578081fd5b82601f830112620020af578081fd5b620020bb60606200297b565b808385606086011115620020cd578384fd5b835b6003811015620020fc578151620020e681620029fe565b84526020938401939190910190600101620020cf565b509095945050505050565b60006020828403121562002119578081fd5b5051919050565b60008060008060008060c0878903121562002139578182fd5b86359550602087013567ffffffffffffffff8082111562002158578384fd5b620021668a838b0162001dd2565b965060408901359550606089013591508082111562002183578384fd5b506200219289828a0162001dd2565b9350506080870135620021a581620029fe565b8092505060a087013590509295509295509295565b60008060008060808587031215620021d0578182fd5b8435935060208086013567ffffffffffffffff811115620021ef578384fd5b80870188601f82011262002201578485fd5b803591506200221462001df483620029a3565b82815283810190828501875b858110156200224d576200223a8d88843588010162001e53565b8452928601929086019060010162002220565b50508097505050505050604085013591506200226d866060870162001dc5565b905092959194509250565b600080600080608085870312156200228e578182fd5b84359350602085013592506040850135620022a981620029fe565b91506060850135620022bb81620029fe565b939692955090935050565b600060208284031215620022d8578081fd5b5035919050565b60008060408385031215620022f2578182fd5b82359150602083013562001f1981620029fe565b6001600160a01b03169052565b6000815180845260208085019450808401835b838110156200234d5781516001600160a01b03168752958201959082019060010162002326565b509495945050505050565b6200236381620029f3565b9052565b6000815180845262002381816020860160208601620029c4565b601f01601f19169290920160200192915050565b60609290921b6bffffffffffffffffffffffff19168252601482015260340190565b60008251620023cb818460208701620029c4565b9190910192915050565b6001600160a01b0391909116815260200190565b6001600160a01b0396871681529486166020860152604085019390935260608401919091528316608083015290911660a082015260c00190565b6001600160a01b0392831681529116602082015260400190565b6001600160a01b03948516815292841660208401529083166040830152909116606082015260800190565b600060018060a01b03808a16835288602084015260e060408401526200249260e084018962002313565b8760608501528381036080850152620024ac818862002313565b9590911660a0840152505060c0015295945050505050565b6001600160a01b03929092168252602082015260400190565b60006020825262001ee0602083018462002313565b90815260200190565b838152606081016200250d84620029f3565b60208201939093526001600160a01b0391909116604090910152919050565b60208101600583106200253b57fe5b91905290565b60006020825262001ee0602083018462002367565b60208082526043908201527f4f6e6c79204469737472696275746f72206f722063757272656e74206f776e6560408201527f72206f66207061636b6167652063616e2063616c6c20746869732066756e637460608201526234b7b760e91b608082015260a00190565b60208082526036908201527f4f6e6c792057686f6c6573616c657220616e64204469737472696275746f722060408201527531b0b71031b0b636103a3434b990333ab731ba34b7b760511b606082015260800190565b6020808252602a908201527f4f6e6c79204d616e7566616374757265722063616e20616363657373207468696040820152693990333ab731ba34b7b760b11b606082015260800190565b6020808252601f908201527f526563696576657220547970652073686f756c6420626520646566696e656400604082015260600190565b60208082526028908201527f4f6e6c79204469737472696275746f722043616e2063616c6c207468697320666040820152673ab731ba34b7b71760c11b606082015260800190565b60208082526025908201527f4f6e6c7920437573746f6d65722043616e2063616c6c20746869732066756e636040820152643a34b7b71760d91b606082015260800190565b60208082526042908201527f4f6e6c792057686f6c6573616c6572206f722063757272656e74206f776e657260408201527f206f66207061636b6167652063616e2063616c6c20746869732066756e63746960608201526137b760f11b608082015260a00190565b60208082526024908201527f526f6c653d3e537570706c6965722063616e2075736520746869732066756e636040820152633a34b7b760e11b606082015260800190565b60208082526027908201527f4f6e6c792057686f6c6573616c65722043616e2063616c6c20746869732066756040820152663731ba34b7b71760c91b606082015260800190565b60208082526027908201527f4f6e6c79205472616e73706f727465722063616e2063616c6c207468697320666040820152663ab731ba34b7b760c91b606082015260800190565b60208082526025908201527f4f6e6c79204d616e7566616374757265722063616e20637265617465204d65646040820152646963696e6560d81b606082015260800190565b6020808252601d908201527f5472616e73706f72746572205479706520697320696e636f7272656374000000604082015260600190565b60208082528251828201528281015160806040840152805160a084018190526000929160c0828402860181019285929187019185015b81841015620029435760bf198886030183526200292e85825162002367565b9450600193909301929185019185016200290f565b50505050604085015191506200295d606085018362002358565b6060850151915062002973608085018362002306565b949350505050565b60405181810167ffffffffffffffff811182821017156200299b57600080fd5b604052919050565b600067ffffffffffffffff821115620029ba578081fd5b5060209081020190565b60005b83811015620029e1578181015183820152602001620029c7565b83811115620008c85750506000910152565b600781106200087357fe5b6001600160a01b03811681146200087357600080fdfe60806040523480156200001157600080fd5b5060405162001a3938038062001a39833981810160405260e08110156200003757600080fd5b815160208301516040808501805191519395929483019291846401000000008211156200006357600080fd5b9083019060208201858111156200007957600080fd5b82518660208202830111640100000000821117156200009757600080fd5b82525081516020918201928201910280838360005b83811015620000c6578181015183820152602001620000ac565b505050509050016040526020018051906020019092919080516040519392919084640100000000821115620000fa57600080fd5b9083019060208201858111156200011057600080fd5b82518660208202830111640100000000821117156200012e57600080fd5b82525081516020918201928201910280838360005b838110156200015d57818101518382015260200162000143565b505050509190910160409081526020838101519390910151600080546001600160a01b038d166001600160a01b0319918216811790925560048054909116909117905560018a905588519395509350620001bf926002925090880190620002a1565b5060088490558251620001da906003906020860190620002a1565b5080600114156200020657600580546001600160a01b0319166001600160a01b0384161790556200022c565b80600214156200022c57600680546001600160a01b0319166001600160a01b0384161790555b6000876040516200023d906200030b565b6001600160a01b03909116815260405190819003602001906000f0801580156200026b573d6000803e3d6000fd5b50600980546001600160a01b0390921661010002610100600160a81b031990921691909117905550620003439650505050505050565b828054828255906000526020600020908101928215620002f9579160200282015b82811115620002f957825182546001600160a01b0319166001600160a01b03909116178255602090920191600190910190620002c2565b506200030792915062000319565b5090565b610b748062000ec583390190565b6200034091905b80821115620003075780546001600160a01b031916815560010162000320565b90565b610b7280620003536000396000f3fe608060405234801561001057600080fd5b506004361061009e5760003560e01c8063ac42a41511610066578063ac42a41514610197578063c8f5f189146101bd578063d2f3fcc7146101e3578063e002c8a5146101eb578063f5c0e383146102e55761009e565b80631fedd36c146100a35780632f1d7588146100db57806393a668b71461010b578063aab3a9d614610131578063abb428a614610157575b600080fd5b6100c9600480360360208110156100b957600080fd5b50356001600160a01b0316610313565b60408051918252519081900360200190f35b610109600480360360408110156100f157600080fd5b506001600160a01b0381358116916020013516610542565b005b6101096004803603602081101561012157600080fd5b50356001600160a01b03166105cb565b6101096004803603602081101561014757600080fd5b50356001600160a01b0316610638565b61015f61068a565b6040518082606080838360005b8381101561018457818101518382015260200161016c565b5050505090500191505060405180910390f35b610109600480360360208110156101ad57600080fd5b50356001600160a01b03166106c5565b610109600480360360208110156101d357600080fd5b50356001600160a01b0316610846565b6100c96108af565b6101f36108c8565b60405180886001600160a01b03166001600160a01b031681526020018781526020018060200186815260200180602001856001600160a01b03166001600160a01b03168152602001846001600160a01b03166001600160a01b03168152602001838103835288818151815260200191508051906020019060200280838360005b8381101561028b578181015183820152602001610273565b50505050905001838103825286818151815260200191508051906020019060200280838360005b838110156102ca5781810151838201526020016102b2565b50505050905001995050505050505050505060405180910390f35b610109600480360360408110156102fb57600080fd5b506001600160a01b03813581169160200135166109ef565b6005546000906001600160a01b038381169116148061033f57506006546001600160a01b038381169116145b61037a5760405162461bcd60e51b8152600401808060200182810382526035815260200180610a9c6035913960400191505060405180910390fd5b60095460019060ff16600681111561038e57fe5b10156103e1576040805162461bcd60e51b815260206004820152601960248201527f50726f64756374206e6f74207069636b65642075702079657400000000000000604482015290519081900360640190fd5b6005546001600160a01b03838116911614801561040e5750600160095460ff16600681111561040c57fe5b145b15610492576009805460ff1916600390811790915560055481546001600160a01b039091169190600019810190811061044357fe5b60009182526020918290200154604080516002815260039381019390935280516001600160a01b03909216923092600080516020610a7c833981519152929181900390910190a450600161053d565b6006546001600160a01b0383811691161480156104bf5750600260095460ff1660068111156104bd57fe5b145b1561053d576009805460ff19166004179055600654600380546001600160a01b039092169160001981019081106104f257fe5b60009182526020918290200154604080516003815260049381019390935280516001600160a01b03909216923092600080516020610a7c833981519152929181900390910190a45060025b919050565b6006546001600160a01b0382811691161461058e5760405162461bcd60e51b8152600401808060200182810382526023815260200180610af36023913960400191505060405180910390fd5b600780546001600160a01b0319166001600160a01b03841617905560055b6009805460ff191660018360068111156105c257fe5b02179055505050565b6006546001600160a01b038281169116146106175760405162461bcd60e51b8152600401808060200182810382526023815260200180610af36023913960400191505060405180910390fd5b60045b6009805460ff1916600183600681111561063057fe5b021790555050565b600380546001810182556000919091527fc2575a0e9e593c00f959f8c92f12db2869c3395a3b0502d05e2516446f71f85b0180546001600160a01b0319166001600160a01b0392909216919091179055565b610692610a5d565b50604080516060810182526005546001600160a01b03908116825260065481166020830152600754169181019190915290565b6003805460001981019081106106d757fe5b6000918252602090912001546001600160a01b0382811691161461072c5760405162461bcd60e51b8152600401808060200182810382526027815260200180610b166027913960400191505060405180910390fd5b600060095460ff16600681111561073f57fe5b14610791576040805162461bcd60e51b815260206004820181905260248201527f5061636b616765206d757374206265206174204d616e7566616374757265722e604482015290519081900360640190fd5b6005546001600160a01b0316156107f4576009805460ff1916600190811790915560055460408051838152602081019390935280516001600160a01b0392831693928516923092600080516020610a7c83398151915292918290030190a4610843565b6009805460ff191660029081179091556006546040805160018152602081019390935280516001600160a01b0392831693928516923092600080516020610a7c83398151915292918290030190a45b50565b6007546001600160a01b038281169116146108a8576040805162461bcd60e51b815260206004820181905260248201527f5468697320437573746f6d6572206973206e6f74204173736f6369617465642e604482015290519081900360640190fd5b600661061a565b60095460009060ff1660068111156108c357fe5b905090565b600080606060006060600080600460009054906101000a90046001600160a01b031660015460026008546003600660009054906101000a90046001600160a01b0316600760009054906101000a90046001600160a01b03168480548060200260200160405190810160405280929190818152602001828054801561097557602002820191906000526020600020905b81546001600160a01b03168152600190910190602001808311610957575b50505050509450828054806020026020016040519081016040528092919081815260200182805480156109d157602002820191906000526020600020905b81546001600160a01b031681526001909101906020018083116109b3575b50505050509250965096509650965096509650965090919293949596565b6005546001600160a01b03828116911614610a3b5760405162461bcd60e51b8152600401808060200182810382526022815260200180610ad16022913960400191505060405180910390fd5b600680546001600160a01b0319166001600160a01b03841617905560026105ac565b6040518060600160405280600390602082028036833750919291505056fe7e89c4b1a4e2b51aae84eb1f90e8a34cb792ece5ac5cb63db4830c891220b28d4f6e6c792057686f6c6573616c6572206f72204469737472696275746f722063616e2063616c6c20746869732066756e6374696f6e746869732057686f6c6573616c6572206973206e6f74204173736f6369617465642e54686973204469737472696275746f72206973206e6f74204173736f6369617465642e4f6e6c79205472616e73706f727465722063616e2063616c6c20746869732066756e6374696f6ea2646970667358221220c5bbc556900508a5bc6a0f5b47d44d2b4f1d388eceb17d11a8c8ecbfb670ed1364736f6c634300060600336080604052600060025534801561001557600080fd5b50604051610b74380380610b7483398101604081905261003491610059565b600080546001600160a01b0319166001600160a01b0392909216919091179055610087565b60006020828403121561006a578081fd5b81516001600160a01b0381168114610080578182fd5b9392505050565b610ade806100966000396000f3fe608060405234801561001057600080fd5b506004361061004c5760003560e01c806327506f53146100515780633626a3681461006f57806378ce1365146100845780639ace38c214610099575b600080fd5b6100596100bf565b60405161006691906108c3565b60405180910390f35b61008261007d3660046107bb565b6102c7565b005b61008c61050b565b6040516100669190610a87565b6100ac6100a7366004610853565b610511565b6040516100669796959493929190610990565b600254606090818167ffffffffffffffff811180156100dd57600080fd5b5060405190808252806020026020018201604052801561011757816020015b61010461066a565b8152602001906001900390816100fc5790505b50905060005b828110156102bf57600081815260016020818152604092839020835160e08101855281548152818401546001600160a01b0390811682850152600280840154909116828701526003830154606083015260048301805487516101009782161597909702600019011691909104601f81018590048502860185019096528585529094919360808601939092908301828280156101f95780601f106101ce576101008083540402835291602001916101f9565b820191906000526020600020905b8154815290600101906020018083116101dc57829003601f168201915b505050918352505060058201805460408051602060026001851615610100026000190190941693909304601f810184900484028201840190925281815293820193929183018282801561028d5780601f106102625761010080835404028352916020019161028d565b820191906000526020600020905b81548152906001019060200180831161027057829003601f168201915b505050505081526020016006820154815250508282815181106102ac57fe5b602090810291909101015260010161011d565b509150505b90565b60025442906103a6576040805160e0810182528881526001600160a01b038089166020808401918252898316848601908152606085018a8152608086018a815260a087018a905260c08701899052600280546000908152600180875299902088518155955198860180549988166001600160a01b03199a8b1617905592519285018054939096169290971691909117909355915160038201559251805192939261037792600485019201906106a5565b5060a082015180516103939160058401916020909101906106a5565b5060c082015181600601559050506104b5565b6002546000190160009081526001602052604090205484146103e35760405162461bcd60e51b81526004016103da90610a50565b60405180910390fd5b6040805160e0810182528881526001600160a01b038089166020808401918252898316848601908152606085018a8152608086018a815260a087018a905260c08701899052600280546000908152600180875299902088518155955198860180549988166001600160a01b03199a8b1617905592519285018054939096169290971691909117909355915160038201559251805192939261048a92600485019201906106a5565b5060a082015180516104a69160058401916020909101906106a5565b5060c082015181600601559050505b6002805460010190556040517f30d01d358fb0899fe4d50947b2e9301c952d9eed09b14c7ecdcbeed4434557c4906104fa90899089908990899087908a908a906109f0565b60405180910390a150505050505050565b60025481565b60016020818152600092835260409283902080548184015460028084015460038501546004860180548a516101009a8216159a909a02600019011693909304601f810188900488028901880190995288885293976001600160a01b039384169793909116959394938301828280156105ca5780601f1061059f576101008083540402835291602001916105ca565b820191906000526020600020905b8154815290600101906020018083116105ad57829003601f168201915b5050505060058301805460408051602060026001851615610100026000190190941693909304601f810184900484028201840190925281815294959493509083018282801561065a5780601f1061062f5761010080835404028352916020019161065a565b820191906000526020600020905b81548152906001019060200180831161063d57829003601f168201915b5050505050908060060154905087565b6040805160e08101825260008082526020820181905291810182905260608082018390526080820181905260a082015260c081019190915290565b828054600181600116156101000203166002900490600052602060002090601f016020900481019282601f106106e657805160ff1916838001178555610713565b82800160010185558215610713579182015b828111156107135782518255916020019190600101906106f8565b5061071f929150610723565b5090565b6102c491905b8082111561071f5760008155600101610729565b600082601f83011261074d578081fd5b813567ffffffffffffffff80821115610764578283fd5b604051601f8301601f191681016020018281118282101715610784578485fd5b60405282815292508284830160200186101561079f57600080fd5b8260208601602083013760006020848301015250505092915050565b60008060008060008060c087890312156107d3578182fd5b8635955060208701356107e581610a90565b945060408701356107f581610a90565b935060608701359250608087013567ffffffffffffffff80821115610818578384fd5b6108248a838b0161073d565b935060a0890135915080821115610839578283fd5b5061084689828a0161073d565b9150509295509295509295565b600060208284031215610864578081fd5b5035919050565b6001600160a01b03169052565b60008151808452815b8181101561089d57602081850181015186830182015201610881565b818111156108ae5782602083870101525b50601f01601f19169290920160200192915050565b60208082528251828201819052600091906040908185019080840286018301878501865b8381101561098257603f19898403018552815160e081518552888201516109108a87018261086b565b50878201516109218987018261086b565b506060808301518187015250608080830151828288015261094483880182610878565b91505060a0915081830151868203838801526109608282610878565b60c09485015197909401969096525050948701949250908601906001016108e7565b509098975050505050505050565b8781526001600160a01b038781166020830152861660408201526060810185905260e0608082018190526000906109c990830186610878565b82810360a08401526109db8186610878565b9150508260c083015298975050505050505050565b8781526001600160a01b03878116602083015286166040820152606081018590526080810184905260e060a08201819052600090610a3090830185610878565b82810360c0840152610a428185610878565b9a9950505050505050505050565b6020808252601b908201527f5472616e73616374696f6e206572726f72206f63637572726564210000000000604082015260600190565b90815260200190565b6001600160a01b0381168114610aa557600080fd5b5056fea2646970667358221220d460c96a77e35106c4bf7ba52486b143f594aa398e5ba9c3208fa49be9dcf7af64736f6c63430006060033608060405234801561001057600080fd5b506040516103bc3803806103bc8339818101604052608081101561003357600080fd5b50805160208201516040830151606090930151600080546001600160a01b03199081166001600160a01b03948516908117835560018054831696861696909617909555600280548216909517909455600380548516958416959095179094556004805490931691161760ff60a01b191690556103079081906100b590396000f3fe608060405234801561001057600080fd5b50600436106100415760003560e01c806353157b1a14610046578063c0114d0614610076578063f7addc3e14610090575b600080fd5b6100746004803603604081101561005c57600080fd5b506001600160a01b03813581169160200135166100be565b005b61007e610190565b60408051918252519081900360200190f35b610074600480360360408110156100a657600080fd5b506001600160a01b03813581169160200135166101b0565b6003546001600160a01b0382811691161461010a5760405162461bcd60e51b815260040180806020018281038252603381526020018061026f6033913960400191505060405180910390fd5b6004805460ff60a01b1916600160a01b17808255600254604080516305e3aeb160e31b81526001600160a01b039384169481019490945290821660248401525190841691632f1d758891604480830192600092919082900301818387803b15801561017457600080fd5b505af1158015610188573d6000803e3d6000fd5b505050505050565b600454600090600160a01b900460ff1660028111156101ab57fe5b905090565b6004546001600160a01b038281169116146101fc5760405162461bcd60e51b81526004018080602001828103825260308152602001806102a26030913960400191505060405180910390fd5b600480546002919060ff60a01b1916600160a01b830217905550816001600160a01b031663c8f5f189826040518263ffffffff1660e01b815260040180826001600160a01b03166001600160a01b03168152602001915050600060405180830381600087803b15801561017457600080fdfe4f6e6c79204173736f636961746564207472616e73706f727465722063616e2063616c6c20746869732066756e6374696f6e2e4f6e6c79204173736f6369617465642072656365697665722063616e2063616c6c20746869732066756e6374696f6e2ea2646970667358221220df5b40873acde493b400cfc1e9a688776838c79ef9481209bf2cb142275bf50164736f6c63430006060033608060405234801561001057600080fd5b506040516103b83803806103b88339818101604052608081101561003357600080fd5b50805160208201516040830151606090930151600080546001600160a01b03199081166001600160a01b03948516908117835560018054831696861696909617909555600280548216909517909455600380548516958416959095179094556004805490931691161760ff60a01b191690556103039081906100b590396000f3fe608060405234801561001057600080fd5b50600436106100415760003560e01c8063443c28d814610046578063d2f3fcc714610076578063d7dcbe3b14610090575b600080fd5b6100746004803603604081101561005c57600080fd5b506001600160a01b03813581169160200135166100be565b005b61007e610190565b60408051918252519081900360200190f35b610074600480360360408110156100a657600080fd5b506001600160a01b03813581169160200135166101b0565b6003546001600160a01b0382811691161461010a5760405162461bcd60e51b815260040180806020018281038252602f81526020018061029f602f913960400191505060405180910390fd5b6004805460ff60a01b1916600160a01b178082556002546040805163f5c0e38360e01b81526001600160a01b03938416948101949094529082166024840152519084169163f5c0e38391604480830192600092919082900301818387803b15801561017457600080fd5b505af1158015610188573d6000803e3d6000fd5b505050505050565b600454600090600160a01b900460ff1660028111156101ab57fe5b905090565b6004546001600160a01b038281169116146101fc5760405162461bcd60e51b815260040180806020018281038252603081526020018061026f6030913960400191505060405180910390fd5b600480546002919060ff60a01b1916600160a01b830217905550816001600160a01b03166393a668b7826040518263ffffffff1660e01b815260040180826001600160a01b03166001600160a01b03168152602001915050600060405180830381600087803b15801561017457600080fdfe4f6e6c79204173736f6369617465642072656365697665722063616e2063616c6c20746869732066756e6374696f6e2e4f6e6c79204173736f63696174656420736869707065722063616e2063616c6c20746869732066756e6374696f6e2ea2646970667358221220aa0b45ebcfe5b57729366a5e8dafb21c15db97324cacabcdbaa304d589c7491064736f6c63430006060033608060405234801561001057600080fd5b506040516111a13803806111a183398101604081905261002f91610100565b600080546001600160a01b03199081166001600160a01b0389811691821784556001805484168a831617905560028890556003879055600480548416878316179055600580548416918616919091179055600680549092161760ff60a01b19169055604051829061009f906100f3565b6100a99190610173565b604051809103906000f0801580156100c5573d6000803e3d6000fd5b50600880546001600160a01b0319166001600160a01b03929092169190911790555061019f95505050505050565b610b748061062d83390190565b60008060008060008060c08789031215610118578182fd5b865161012381610187565b602088015190965061013481610187565b809550506040870151935060608701519250608087015161015481610187565b60a088015190925061016581610187565b809150509295509295509295565b6001600160a01b0391909116815260200190565b6001600160a01b038116811461019c57600080fd5b50565b61047f806101ae6000396000f3fe608060405234801561001057600080fd5b506004361061004c5760003560e01c806352b9996814610051578063638e9a3d146100665780636b099dca146100795780638072352014610097575b600080fd5b61006461005f3660046102a8565b6100b2565b005b6100646100743660046102a8565b61018d565b610081610253565b60405161008e9190610440565b60405180910390f35b61009f610273565b60405161008e97969594939291906102d6565b6005546001600160a01b038281169116146100e85760405162461bcd60e51b81526004016100df9061035c565b60405180910390fd5b6001600654600160a01b900460ff16600281111561010257fe5b1461011f5760405162461bcd60e51b81526004016100df90610325565b6006805460ff60a01b1916600160a11b179055600554600454600180546040516001600160a01b039485169493841693909116917f7e89c4b1a4e2b51aae84eb1f90e8a34cb792ece5ac5cb63db4830c891220b28d916101829190600290610317565b60405180910390a450565b6004546001600160a01b038281169116146101ba5760405162461bcd60e51b81526004016100df906103f0565b6000600654600160a01b900460ff1660028111156101d457fe5b146101f15760405162461bcd60e51b81526004016100df906103b9565b6006805460ff60a01b1916600160a01b179055600554600454600180546040516001600160a01b039485169493841693909116917f7e89c4b1a4e2b51aae84eb1f90e8a34cb792ece5ac5cb63db4830c891220b28d9161018291908190610317565b600654600090600160a01b900460ff16600281111561026e57fe5b905090565b6001546002546003546006546004546005546008546001600160a01b0396871697959694959385169492831693918316921690565b6000602082840312156102b9578081fd5b81356001600160a01b03811681146102cf578182fd5b9392505050565b6001600160a01b03978816815260208101969096526040860194909452918516606085015284166080840152831660a083015290911660c082015260e00190565b918252602082015260400190565b60208082526019908201527f50726f64756374206e6f74207069636b65642075702079657400000000000000604082015260600190565b60208082526039908201527f4f6e6c79204d616e756661637475726572206f6620746865207061636b61676560408201527f2063616e20726563656965766520746865207061636b61676500000000000000606082015260800190565b6020808252601c908201527f5061636b616765206d75737420626520617420537570706c6965722e00000000604082015260600190565b60208082526030908201527f4f6e6c79207472616e73706f72746572206f6620746865207061636b6167652060408201526f63616e207069636b207061636b61676560801b606082015260800190565b9081526020019056fea2646970667358221220730113c24352df9daf282053914b5ef36794fc75512e34d43b26b05377c7956364736f6c634300060600336080604052600060025534801561001557600080fd5b50604051610b74380380610b7483398101604081905261003491610059565b600080546001600160a01b0319166001600160a01b0392909216919091179055610087565b60006020828403121561006a578081fd5b81516001600160a01b0381168114610080578182fd5b9392505050565b610ade806100966000396000f3fe608060405234801561001057600080fd5b506004361061004c5760003560e01c806327506f53146100515780633626a3681461006f57806378ce1365146100845780639ace38c214610099575b600080fd5b6100596100bf565b60405161006691906108c3565b60405180910390f35b61008261007d3660046107bb565b6102c7565b005b61008c61050b565b6040516100669190610a87565b6100ac6100a7366004610853565b610511565b6040516100669796959493929190610990565b600254606090818167ffffffffffffffff811180156100dd57600080fd5b5060405190808252806020026020018201604052801561011757816020015b61010461066a565b8152602001906001900390816100fc5790505b50905060005b828110156102bf57600081815260016020818152604092839020835160e08101855281548152818401546001600160a01b0390811682850152600280840154909116828701526003830154606083015260048301805487516101009782161597909702600019011691909104601f81018590048502860185019096528585529094919360808601939092908301828280156101f95780601f106101ce576101008083540402835291602001916101f9565b820191906000526020600020905b8154815290600101906020018083116101dc57829003601f168201915b505050918352505060058201805460408051602060026001851615610100026000190190941693909304601f810184900484028201840190925281815293820193929183018282801561028d5780601f106102625761010080835404028352916020019161028d565b820191906000526020600020905b81548152906001019060200180831161027057829003601f168201915b505050505081526020016006820154815250508282815181106102ac57fe5b602090810291909101015260010161011d565b509150505b90565b60025442906103a6576040805160e0810182528881526001600160a01b038089166020808401918252898316848601908152606085018a8152608086018a815260a087018a905260c08701899052600280546000908152600180875299902088518155955198860180549988166001600160a01b03199a8b1617905592519285018054939096169290971691909117909355915160038201559251805192939261037792600485019201906106a5565b5060a082015180516103939160058401916020909101906106a5565b5060c082015181600601559050506104b5565b6002546000190160009081526001602052604090205484146103e35760405162461bcd60e51b81526004016103da90610a50565b60405180910390fd5b6040805160e0810182528881526001600160a01b038089166020808401918252898316848601908152606085018a8152608086018a815260a087018a905260c08701899052600280546000908152600180875299902088518155955198860180549988166001600160a01b03199a8b1617905592519285018054939096169290971691909117909355915160038201559251805192939261048a92600485019201906106a5565b5060a082015180516104a69160058401916020909101906106a5565b5060c082015181600601559050505b6002805460010190556040517f30d01d358fb0899fe4d50947b2e9301c952d9eed09b14c7ecdcbeed4434557c4906104fa90899089908990899087908a908a906109f0565b60405180910390a150505050505050565b60025481565b60016020818152600092835260409283902080548184015460028084015460038501546004860180548a516101009a8216159a909a02600019011693909304601f810188900488028901880190995288885293976001600160a01b039384169793909116959394938301828280156105ca5780601f1061059f576101008083540402835291602001916105ca565b820191906000526020600020905b8154815290600101906020018083116105ad57829003601f168201915b5050505060058301805460408051602060026001851615610100026000190190941693909304601f810184900484028201840190925281815294959493509083018282801561065a5780601f1061062f5761010080835404028352916020019161065a565b820191906000526020600020905b81548152906001019060200180831161063d57829003601f168201915b5050505050908060060154905087565b6040805160e08101825260008082526020820181905291810182905260608082018390526080820181905260a082015260c081019190915290565b828054600181600116156101000203166002900490600052602060002090601f016020900481019282601f106106e657805160ff1916838001178555610713565b82800160010185558215610713579182015b828111156107135782518255916020019190600101906106f8565b5061071f929150610723565b5090565b6102c491905b8082111561071f5760008155600101610729565b600082601f83011261074d578081fd5b813567ffffffffffffffff80821115610764578283fd5b604051601f8301601f191681016020018281118282101715610784578485fd5b60405282815292508284830160200186101561079f57600080fd5b8260208601602083013760006020848301015250505092915050565b60008060008060008060c087890312156107d3578182fd5b8635955060208701356107e581610a90565b945060408701356107f581610a90565b935060608701359250608087013567ffffffffffffffff80821115610818578384fd5b6108248a838b0161073d565b935060a0890135915080821115610839578283fd5b5061084689828a0161073d565b9150509295509295509295565b600060208284031215610864578081fd5b5035919050565b6001600160a01b03169052565b60008151808452815b8181101561089d57602081850181015186830182015201610881565b818111156108ae5782602083870101525b50601f01601f19169290920160200192915050565b60208082528251828201819052600091906040908185019080840286018301878501865b8381101561098257603f19898403018552815160e081518552888201516109108a87018261086b565b50878201516109218987018261086b565b506060808301518187015250608080830151828288015261094483880182610878565b91505060a0915081830151868203838801526109608282610878565b60c09485015197909401969096525050948701949250908601906001016108e7565b509098975050505050505050565b8781526001600160a01b038781166020830152861660408201526060810185905260e0608082018190526000906109c990830186610878565b82810360a08401526109db8186610878565b9150508260c083015298975050505050505050565b8781526001600160a01b03878116602083015286166040820152606081018590526080810184905260e060a08201819052600090610a3090830185610878565b82810360c0840152610a428185610878565b9a9950505050505050505050565b6020808252601b908201527f5472616e73616374696f6e206572726f72206f63637572726564210000000000604082015260600190565b90815260200190565b6001600160a01b0381168114610aa557600080fd5b5056fea2646970667358221220d460c96a77e35106c4bf7ba52486b143f594aa398e5ba9c3208fa49be9dcf7af64736f6c63430006060033a2646970667358221220740379f4e0a7009637d09747d0a9e37064b2a4e15e811f32ce03e08b8b67a11864736f6c63430006060033",
  "immutableReferences": {},
  "source": "pragma solidity ^0.6.6;\npragma experimental ABIEncoderV2;\n\nimport './RawMaterial.sol';\nimport './Supplier.sol';\nimport './Transporter.sol';\nimport './Medicine.sol';\nimport './Manufacturer.sol';\nimport './MedicineW_D.sol';\nimport './Wholesaler.sol';\nimport './MedicineD_C.sol';\nimport './Distributor.sol';\nimport './Customer.sol';\n\n\n//// New supply chain : supplier -> transporter -> manufacturer -> transporter -> whole-saler -> transporter -> distributor -> transporter -> customer/hospital/pharmacy\n\n\ncontract SupplyChain is Supplier, Transporter, Manufacturer, Wholesaler, Distributor, Customer {\n    \n    address public Owner;\n    \n    constructor() public {\n        Owner = msg.sender;\n    }\n    \n    modifier onlyOwner() {\n        require(Owner == msg.sender);\n        _;\n    }\n    \n    modifier checkUser(address addr) {\n        require(addr == msg.sender);\n        _;\n    }\n    \n    enum roles {\n        noRole,\n        supplier,\n        transporter,\n        manufacturer,\n        wholesaler,\n        distributor,\n        customer\n    }\n    \n    \n    //////////////// Events ////////////////////\n    \n    event UserRegister(address indexed _address, bytes32 name);\n    \n    \n    /////////////// Users (Only Owner Executable) //////////////////////\n    \n    struct userData {\n        bytes32 name;\n        string[] userLoc;\n        roles role;\n        address userAddr;\n    }\n    \n    mapping (address => userData) public userInfo;\n    \n    function registerUser(bytes32 name, string[] memory loc, uint role, address _userAddr) public onlyOwner {\n        userInfo[_userAddr].name = name;\n        userInfo[_userAddr].userLoc = loc;\n        userInfo[_userAddr].role = roles(role);\n        userInfo[_userAddr].userAddr = _userAddr;\n        \n        emit UserRegister(_userAddr, name);\n    }\n    \n    function changeUserRole(uint _role, address _addr) public onlyOwner returns(string memory) {\n        userInfo[_addr].role = roles(_role);\n       return \"Role Updated!\";\n    }\n    \n    function getUserInfo(address _address) public view onlyOwner returns(\n        userData memory\n        ) {\n        return userInfo[_address];\n    }\n    \n\n    /////////////// Supplier //////////////////////\n    \n    \n    function supplierCreatesRawPackage(\n        bytes32 _description,\n        uint _quantity,\n        address _transporterAddr,\n        address _manufacturerAddr\n        ) public {\n            \n        require(userInfo[msg.sender].role == roles.supplier, \"Role=>Supplier can use this function\");\n        \n        createRawMaterialPackage(\n            _description,\n            _quantity,\n            _transporterAddr,\n            _manufacturerAddr\n        );\n    }\n    \n    function supplierGetPackageCount() public view returns(uint) {\n        require(userInfo[msg.sender].role == roles.supplier, \"Role=>Supplier can use this function\");\n        \n        return getNoOfPackagesOfSupplier();\n    }\n    \n    function supplierGetRawMaterialAddresses() public view returns(address[] memory) {\n        address[] memory ret = getAllPackages();\n        return ret;\n    }\n    \n    \n    ///////////////  Transporter ///////////////\n    \n    \n    function transporterHandlePackage(\n        address _address,\n        uint transporterType,\n        address cid\n        ) public {\n            \n        require(\n            userInfo[msg.sender].role == roles.transporter,\n            \"Only Transporter can call this function\"\n        );\n        require(\n            transporterType > 0,\n            \"Transporter Type is incorrect\"\n        );\n        \n        handlePackage(_address, transporterType, cid);\n    }\n    \n    \n    ///////////////  Manufacturer ///////////////\n    \n    \n    function manufacturerReceivedRawMaterials(address _addr) public {\n        require(userInfo[msg.sender].role == roles.manufacturer, \"Only Manufacturer can access this function\");\n        manufacturerReceivedPackage(_addr, msg.sender);\n    }\n    \n    function manufacturerCreatesNewMedicine(\n        bytes32 _description,\n        address[] memory _rawAddr,\n        uint _quantity,\n        address[] memory _transporterAddr,\n        address _receiverAddr,\n        uint RcvrType\n        ) public returns(string memory){\n            \n        require(userInfo[msg.sender].role == roles.manufacturer, \"Only Manufacturer can create Medicine\");\n        require(RcvrType != 0, \"Reciever Type should be defined\");\n        \n        manufacturerCreatesMedicine(\n            msg.sender,\n            _description,\n            _rawAddr,\n            _quantity,\n            _transporterAddr,\n            _receiverAddr,\n            RcvrType\n        );\n        \n        return \"Medicine created!\";\n    }\n    \n\n    ///////////////  Wholesaler  ///////////////\n\n    \n    function wholesalerReceivedMedicine(\n        address _address\n        ) public {\n        require(\n            userInfo[msg.sender].role == roles.wholesaler || userInfo[msg.sender].role == roles.distributor,\n            \"Only Wholesaler and Distributor can call this function\"\n        );\n        \n        medicineRecievedAtWholesaler(\n            _address\n        );\n    }\n    \n    function transferMedicineW_D(\n        address _address,\n        address transporter,\n        address receiver) public {\n        require(\n            userInfo[msg.sender].role == roles.wholesaler &&\n            msg.sender == Medicine(_address).getWDC()[0],\n            \"Only Wholesaler or current owner of package can call this function\"\n        );\n        \n        transferMedicineWtoD(\n            _address,\n            transporter,\n            receiver\n        );\n    }\n    \n    function getBatchIdByIndexWD(uint index) public view returns(address packageID) {\n        require(\n            userInfo[msg.sender].role == roles.wholesaler,\n            \"Only Wholesaler Can call this function.\"\n        );\n        return MedicineWtoD[msg.sender][index];\n    }\n\n    function getSubContractWD(address _address) public view returns (address SubContractWD) {\n        return MedicineWtoDTxContract[_address];\n    }\n\n\n    ///////////////  Distributor  ///////////////\n\n\n    function distributorReceivedMedicine(\n      address _address,\n      address cid\n    ) public {\n        require(\n            userInfo[msg.sender].role == roles.distributor &&\n            msg.sender == Medicine(_address).getWDC()[1],\n            \"Only Distributor or current owner of package can call this function\"  \n        );\n        \n        medicineRecievedAtDistributor(\n            _address,\n            cid\n        );\n    }\n\n    function distributorTransferMedicinetoCustomer(\n        address _address,\n        address transporter,\n        address receiver\n    ) public {\n        require(\n            userInfo[msg.sender].role == roles.distributor &&\n            msg.sender == Medicine(_address).getWDC()[1],\n            \"Only Distributor or current owner of package can call this function\"\n        );\n        transferMedicineDtoC(_address, transporter, receiver);\n    }\n    \n    function getBatchesCountDC() public view returns (uint count){\n        require(\n            userInfo[msg.sender].role == roles.distributor,\n            \"Only Distributor Can call this function.\"\n        );\n        return MedicineDtoC[msg.sender].length;\n    }\n\n    function getBatchIdByIndexDC(uint index) public view returns(address packageID) {\n        require(\n            userInfo[msg.sender].role == roles.distributor,\n            \"Only Distributor Can call this function.\"\n        );\n        return MedicineDtoC[msg.sender][index];\n    }\n\n    function getSubContractDC(address _address) public view returns (address SubContractDP) {\n        return MedicineDtoCTxContract[_address];\n    }\n    \n    \n    ///////////////  Customer  ///////////////\n    \n    \n    function customerReceivedMedicine(\n        address _address,\n        address cid\n    ) public {\n        require(\n            userInfo[msg.sender].role == roles.customer,\n            \"Only Customer Can call this function.\"\n        );\n        medicineRecievedAtCustomer(_address, cid);\n    }\n}    \n    \n\n    // function updateStatus(\n    //     address _address,\n    //     uint Status\n    // ) public {\n    //     require(\n    //         userInfo[msg.sender].role == roles.customer &&\n    //         msg.sender == Medicine(_address).getWDC()[2],\n    //         \"Only Customer or current owner of package can call this function\"\n    //     );\n    //     require(sale[_address] == salestatus(1), \"Medicine Must be at Customer\");\n        \n    //     updateSaleStatus(_address, Status);\n    // }\n\n    // function getSalesInfo(\n    //     address _address\n    // ) public\n    // view\n    // returns(\n    //     uint Status \n    // ){\n    //     return salesInfo(_address);\n    // }\n\n    \n    // function getBatchesCountC() public view returns(uint count) {\n    //     require(\n    //         userInfo[msg.sender].role == roles.customer,\n    //         \"Only Wholesaler or current owner of package can call this function\"\n    //     );\n    //     return  MedicineBatchAtCustomer[msg.sender].length;\n    // }\n\n    // function getBatchIdByIndexC(uint index) public view returns(address _address) {\n    //     require(\n    //         userInfo[msg.sender].role == roles.customer,\n    //         \"Only Wholesaler or current owner of package can call this function\"\n    //     );\n    //     return MedicineBatchAtCustomer[msg.sender][index];\n    // }\n    \n    ",
  "sourcePath": "/Users/sherwyndsouza/Desktop/Work/Blockchain/Medicine-Supply-Chain/blockchain/contracts/SupplyChain.sol",
  "compiler": {
    "name": "solc",
    "version": "0.6.6+commit.6c089d02.Emscripten.clang"
  },
  "schemaVersion": "3.2.2",
  "updatedAt": "2020-11-15T13:38:18.002Z",
  "networkType": "ethereum",
  "devdoc": {
    "methods": {}
  },
  "userdoc": {
    "methods": {
      "customerReceivedMedicine(address,address)": {
        "notice": "////////////  Customer  ///////////////"
      },
      "distributorReceivedMedicine(address,address)": {
        "notice": "////////////  Distributor  ///////////////"
      },
      "manufacturerReceivedRawMaterials(address)": {
        "notice": "////////////  Manufacturer ///////////////"
      },
      "supplierCreatesRawPackage(bytes32,uint256,address,address)": {
        "notice": "//////////// Supplier //////////////////////"
      },
      "transporterHandlePackage(address,uint256,address)": {
        "notice": "////////////  Transporter ///////////////"
      },
      "wholesalerReceivedMedicine(address)": {
        "notice": "////////////  Wholesaler  ///////////////"
      }
    },
    "notice": "/ New supply chain : supplier -> transporter -> manufacturer -> transporter -> whole-saler -> transporter -> distributor -> transporter -> customer/hospital/pharmacy"
  }
}