{
  "contractName": "SupplyChain",
  "abi": [
    {
      "inputs": [],
      "stateMutability": "nonpayable",
      "type": "constructor"
    },
    {
      "anonymous": false,
      "inputs": [
        {
          "indexed": true,
          "internalType": "address",
          "name": "_address",
          "type": "address"
        },
        {
          "indexed": false,
          "internalType": "bytes32",
          "name": "name",
          "type": "bytes32"
        }
      ],
      "name": "UserRegister",
      "type": "event"
    },
    {
      "anonymous": false,
      "inputs": [
        {
          "indexed": false,
          "internalType": "address",
          "name": "buyer",
          "type": "address"
        },
        {
          "indexed": true,
          "internalType": "address",
          "name": "seller",
          "type": "address"
        },
        {
          "indexed": false,
          "internalType": "address",
          "name": "packageAddr",
          "type": "address"
        },
        {
          "indexed": false,
          "internalType": "bytes",
          "name": "signature",
          "type": "bytes"
        },
        {
          "indexed": true,
          "internalType": "uint256",
          "name": "timestamp",
          "type": "uint256"
        }
      ],
      "name": "buyEvent",
      "type": "event"
    },
    {
      "anonymous": false,
      "inputs": [
        {
          "indexed": true,
          "internalType": "address",
          "name": "buyer",
          "type": "address"
        },
        {
          "indexed": false,
          "internalType": "address",
          "name": "seller",
          "type": "address"
        },
        {
          "indexed": false,
          "internalType": "address",
          "name": "packageAddr",
          "type": "address"
        },
        {
          "indexed": false,
          "internalType": "bytes",
          "name": "signature",
          "type": "bytes"
        },
        {
          "indexed": true,
          "internalType": "uint256",
          "name": "timestamp",
          "type": "uint256"
        }
      ],
      "name": "receivedEvent",
      "type": "event"
    },
    {
      "anonymous": false,
      "inputs": [
        {
          "indexed": true,
          "internalType": "address",
          "name": "buyer",
          "type": "address"
        },
        {
          "indexed": false,
          "internalType": "address",
          "name": "seller",
          "type": "address"
        },
        {
          "indexed": false,
          "internalType": "address",
          "name": "packageAddr",
          "type": "address"
        },
        {
          "indexed": false,
          "internalType": "bytes",
          "name": "signature",
          "type": "bytes"
        },
        {
          "indexed": true,
          "internalType": "uint256",
          "name": "timestamp",
          "type": "uint256"
        }
      ],
      "name": "respondEvent",
      "type": "event"
    },
    {
      "anonymous": false,
      "inputs": [
        {
          "indexed": false,
          "internalType": "address",
          "name": "seller",
          "type": "address"
        },
        {
          "indexed": false,
          "internalType": "address",
          "name": "buyer",
          "type": "address"
        },
        {
          "indexed": true,
          "internalType": "address",
          "name": "packageAddr",
          "type": "address"
        },
        {
          "indexed": false,
          "internalType": "bytes",
          "name": "signature",
          "type": "bytes"
        },
        {
          "indexed": true,
          "internalType": "uint256",
          "name": "timestamp",
          "type": "uint256"
        }
      ],
      "name": "sendEvent",
      "type": "event"
    },
    {
      "inputs": [
        {
          "internalType": "address",
          "name": "",
          "type": "address"
        },
        {
          "internalType": "uint256",
          "name": "",
          "type": "uint256"
        }
      ],
      "name": "MedicineDtoC",
      "outputs": [
        {
          "internalType": "address",
          "name": "",
          "type": "address"
        }
      ],
      "stateMutability": "view",
      "type": "function",
      "constant": true
    },
    {
      "inputs": [
        {
          "internalType": "address",
          "name": "",
          "type": "address"
        }
      ],
      "name": "MedicineDtoCTxContract",
      "outputs": [
        {
          "internalType": "address",
          "name": "",
          "type": "address"
        }
      ],
      "stateMutability": "view",
      "type": "function",
      "constant": true
    },
    {
      "inputs": [
        {
          "internalType": "address",
          "name": "",
          "type": "address"
        },
        {
          "internalType": "uint256",
          "name": "",
          "type": "uint256"
        }
      ],
      "name": "MedicineWtoD",
      "outputs": [
        {
          "internalType": "address",
          "name": "",
          "type": "address"
        }
      ],
      "stateMutability": "view",
      "type": "function",
      "constant": true
    },
    {
      "inputs": [
        {
          "internalType": "address",
          "name": "",
          "type": "address"
        }
      ],
      "name": "MedicineWtoDTxContract",
      "outputs": [
        {
          "internalType": "address",
          "name": "",
          "type": "address"
        }
      ],
      "stateMutability": "view",
      "type": "function",
      "constant": true
    },
    {
      "inputs": [
        {
          "internalType": "address",
          "name": "",
          "type": "address"
        },
        {
          "internalType": "uint256",
          "name": "",
          "type": "uint256"
        }
      ],
      "name": "MedicinesAtDistributor",
      "outputs": [
        {
          "internalType": "address",
          "name": "",
          "type": "address"
        }
      ],
      "stateMutability": "view",
      "type": "function",
      "constant": true
    },
    {
      "inputs": [
        {
          "internalType": "address",
          "name": "",
          "type": "address"
        },
        {
          "internalType": "uint256",
          "name": "",
          "type": "uint256"
        }
      ],
      "name": "MedicinesAtWholesaler",
      "outputs": [
        {
          "internalType": "address",
          "name": "",
          "type": "address"
        }
      ],
      "stateMutability": "view",
      "type": "function",
      "constant": true
    },
    {
      "inputs": [
        {
          "internalType": "address",
          "name": "",
          "type": "address"
        },
        {
          "internalType": "uint256",
          "name": "",
          "type": "uint256"
        }
      ],
      "name": "manufacturerMedicines",
      "outputs": [
        {
          "internalType": "address",
          "name": "",
          "type": "address"
        }
      ],
      "stateMutability": "view",
      "type": "function",
      "constant": true
    },
    {
      "inputs": [
        {
          "internalType": "address",
          "name": "",
          "type": "address"
        },
        {
          "internalType": "uint256",
          "name": "",
          "type": "uint256"
        }
      ],
      "name": "manufacturerRawMaterials",
      "outputs": [
        {
          "internalType": "address",
          "name": "",
          "type": "address"
        }
      ],
      "stateMutability": "view",
      "type": "function",
      "constant": true
    },
    {
      "inputs": [
        {
          "internalType": "address",
          "name": "",
          "type": "address"
        },
        {
          "internalType": "uint256",
          "name": "",
          "type": "uint256"
        }
      ],
      "name": "supplierRawMaterials",
      "outputs": [
        {
          "internalType": "address",
          "name": "",
          "type": "address"
        }
      ],
      "stateMutability": "view",
      "type": "function",
      "constant": true
    },
    {
      "inputs": [
        {
          "internalType": "address",
          "name": "",
          "type": "address"
        }
      ],
      "name": "userInfo",
      "outputs": [
        {
          "internalType": "bytes32",
          "name": "name",
          "type": "bytes32"
        },
        {
          "internalType": "enum SupplyChain.roles",
          "name": "role",
          "type": "uint8"
        },
        {
          "internalType": "address",
          "name": "userAddr",
          "type": "address"
        }
      ],
      "stateMutability": "view",
      "type": "function",
      "constant": true
    },
    {
      "inputs": [
        {
          "internalType": "bytes32",
          "name": "name",
          "type": "bytes32"
        },
        {
          "internalType": "string[]",
          "name": "loc",
          "type": "string[]"
        },
        {
          "internalType": "uint256",
          "name": "role",
          "type": "uint256"
        },
        {
          "internalType": "address",
          "name": "_userAddr",
          "type": "address"
        }
      ],
      "name": "registerUser",
      "outputs": [],
      "stateMutability": "nonpayable",
      "type": "function"
    },
    {
      "inputs": [
        {
          "internalType": "uint256",
          "name": "_role",
          "type": "uint256"
        },
        {
          "internalType": "address",
          "name": "_addr",
          "type": "address"
        }
      ],
      "name": "changeUserRole",
      "outputs": [
        {
          "internalType": "string",
          "name": "",
          "type": "string"
        }
      ],
      "stateMutability": "nonpayable",
      "type": "function"
    },
    {
      "inputs": [
        {
          "internalType": "address",
          "name": "_address",
          "type": "address"
        }
      ],
      "name": "getUserInfo",
      "outputs": [
        {
          "components": [
            {
              "internalType": "bytes32",
              "name": "name",
              "type": "bytes32"
            },
            {
              "internalType": "string[]",
              "name": "userLoc",
              "type": "string[]"
            },
            {
              "internalType": "enum SupplyChain.roles",
              "name": "role",
              "type": "uint8"
            },
            {
              "internalType": "address",
              "name": "userAddr",
              "type": "address"
            }
          ],
          "internalType": "struct SupplyChain.userData",
          "name": "",
          "type": "tuple"
        }
      ],
      "stateMutability": "view",
      "type": "function",
      "constant": true
    },
    {
      "inputs": [
        {
          "internalType": "address",
          "name": "buyer",
          "type": "address"
        },
        {
          "internalType": "address",
          "name": "seller",
          "type": "address"
        },
        {
          "internalType": "address",
          "name": "packageAddr",
          "type": "address"
        },
        {
          "internalType": "bytes",
          "name": "signature",
          "type": "bytes"
        }
      ],
      "name": "respondToManufacturer",
      "outputs": [],
      "stateMutability": "nonpayable",
      "type": "function"
    },
    {
      "inputs": [
        {
          "internalType": "bytes32",
          "name": "_description",
          "type": "bytes32"
        },
        {
          "internalType": "uint256",
          "name": "_quantity",
          "type": "uint256"
        },
        {
          "internalType": "address",
          "name": "_transporterAddr",
          "type": "address"
        },
        {
          "internalType": "address",
          "name": "_manufacturerAddr",
          "type": "address"
        }
      ],
      "name": "createRawMaterialPackage",
      "outputs": [
        {
          "internalType": "address",
          "name": "",
          "type": "address"
        }
      ],
      "stateMutability": "nonpayable",
      "type": "function"
    },
    {
      "inputs": [],
      "name": "getNoOfPackagesOfSupplier",
      "outputs": [
        {
          "internalType": "uint256",
          "name": "",
          "type": "uint256"
        }
      ],
      "stateMutability": "view",
      "type": "function",
      "constant": true
    },
    {
      "inputs": [],
      "name": "getAllPackages",
      "outputs": [
        {
          "internalType": "address[]",
          "name": "",
          "type": "address[]"
        }
      ],
      "stateMutability": "view",
      "type": "function",
      "constant": true
    },
    {
      "inputs": [
        {
          "internalType": "address",
          "name": "buyer",
          "type": "address"
        },
        {
          "internalType": "address",
          "name": "seller",
          "type": "address"
        },
        {
          "internalType": "address",
          "name": "packageAddr",
          "type": "address"
        },
        {
          "internalType": "bytes",
          "name": "signature",
          "type": "bytes"
        }
      ],
      "name": "sendPackageToManufacturer",
      "outputs": [],
      "stateMutability": "nonpayable",
      "type": "function"
    },
    {
      "inputs": [
        {
          "internalType": "address",
          "name": "_addr",
          "type": "address"
        },
        {
          "internalType": "uint256",
          "name": "transportertype",
          "type": "uint256"
        },
        {
          "internalType": "address",
          "name": "cid",
          "type": "address"
        }
      ],
      "name": "transporterHandlePackage",
      "outputs": [],
      "stateMutability": "nonpayable",
      "type": "function"
    },
    {
      "inputs": [
        {
          "internalType": "address",
          "name": "manuAddr",
          "type": "address"
        },
        {
          "internalType": "address",
          "name": "supplierAddr",
          "type": "address"
        },
        {
          "internalType": "address",
          "name": "rawMaterialAddr",
          "type": "address"
        },
        {
          "internalType": "bytes",
          "name": "signature",
          "type": "bytes"
        }
      ],
      "name": "requestRawMaterial",
      "outputs": [],
      "stateMutability": "nonpayable",
      "type": "function"
    },
    {
      "inputs": [
        {
          "internalType": "address",
          "name": "_addr",
          "type": "address"
        },
        {
          "internalType": "address",
          "name": "_manufacturerAddress",
          "type": "address"
        },
        {
          "internalType": "address",
          "name": "_sellerAddr",
          "type": "address"
        },
        {
          "internalType": "bytes",
          "name": "signature",
          "type": "bytes"
        }
      ],
      "name": "manufacturerReceivedPackage",
      "outputs": [],
      "stateMutability": "nonpayable",
      "type": "function"
    },
    {
      "inputs": [
        {
          "internalType": "address",
          "name": "_manufacturerAddr",
          "type": "address"
        },
        {
          "internalType": "bytes32",
          "name": "_description",
          "type": "bytes32"
        },
        {
          "internalType": "address[]",
          "name": "_rawAddr",
          "type": "address[]"
        },
        {
          "internalType": "uint256",
          "name": "_quantity",
          "type": "uint256"
        },
        {
          "internalType": "address[]",
          "name": "_transporterAddr",
          "type": "address[]"
        },
        {
          "internalType": "address",
          "name": "_recieverAddr",
          "type": "address"
        },
        {
          "internalType": "uint256",
          "name": "RcvrType",
          "type": "uint256"
        }
      ],
      "name": "manufacturerCreatesMedicine",
      "outputs": [],
      "stateMutability": "nonpayable",
      "type": "function"
    },
    {
      "inputs": [
        {
          "internalType": "address",
          "name": "_address",
          "type": "address"
        }
      ],
      "name": "wholesalerReceivedMedicine",
      "outputs": [],
      "stateMutability": "nonpayable",
      "type": "function"
    },
    {
      "inputs": [
        {
          "internalType": "address",
          "name": "_address",
          "type": "address"
        },
        {
          "internalType": "address",
          "name": "transporter",
          "type": "address"
        },
        {
          "internalType": "address",
          "name": "receiver",
          "type": "address"
        }
      ],
      "name": "transferMedicineWtoD",
      "outputs": [],
      "stateMutability": "nonpayable",
      "type": "function"
    },
    {
      "inputs": [
        {
          "internalType": "uint256",
          "name": "index",
          "type": "uint256"
        }
      ],
      "name": "getBatchIdByIndexWD",
      "outputs": [
        {
          "internalType": "address",
          "name": "packageID",
          "type": "address"
        }
      ],
      "stateMutability": "view",
      "type": "function",
      "constant": true
    },
    {
      "inputs": [
        {
          "internalType": "address",
          "name": "_address",
          "type": "address"
        }
      ],
      "name": "getSubContractWD",
      "outputs": [
        {
          "internalType": "address",
          "name": "SubContractWD",
          "type": "address"
        }
      ],
      "stateMutability": "view",
      "type": "function",
      "constant": true
    },
    {
      "inputs": [
        {
          "internalType": "address",
          "name": "_address",
          "type": "address"
        },
        {
          "internalType": "address",
          "name": "cid",
          "type": "address"
        }
      ],
      "name": "distributorReceivedMedicine",
      "outputs": [],
      "stateMutability": "nonpayable",
      "type": "function"
    },
    {
      "inputs": [
        {
          "internalType": "address",
          "name": "_address",
          "type": "address"
        },
        {
          "internalType": "address",
          "name": "transporter",
          "type": "address"
        },
        {
          "internalType": "address",
          "name": "receiver",
          "type": "address"
        }
      ],
      "name": "distributorTransferMedicinetoCustomer",
      "outputs": [],
      "stateMutability": "nonpayable",
      "type": "function"
    },
    {
      "inputs": [],
      "name": "getBatchesCountDC",
      "outputs": [
        {
          "internalType": "uint256",
          "name": "count",
          "type": "uint256"
        }
      ],
      "stateMutability": "view",
      "type": "function",
      "constant": true
    },
    {
      "inputs": [
        {
          "internalType": "uint256",
          "name": "index",
          "type": "uint256"
        }
      ],
      "name": "getBatchIdByIndexDC",
      "outputs": [
        {
          "internalType": "address",
          "name": "packageID",
          "type": "address"
        }
      ],
      "stateMutability": "view",
      "type": "function",
      "constant": true
    },
    {
      "inputs": [
        {
          "internalType": "address",
          "name": "_address",
          "type": "address"
        }
      ],
      "name": "getSubContractDC",
      "outputs": [
        {
          "internalType": "address",
          "name": "SubContractDP",
          "type": "address"
        }
      ],
      "stateMutability": "view",
      "type": "function",
      "constant": true
    },
    {
      "inputs": [
        {
          "internalType": "address",
          "name": "p",
          "type": "address"
        },
        {
          "internalType": "bytes32",
          "name": "hash",
          "type": "bytes32"
        },
        {
          "internalType": "uint8",
          "name": "v",
          "type": "uint8"
        },
        {
          "internalType": "bytes32",
          "name": "r",
          "type": "bytes32"
        },
        {
          "internalType": "bytes32",
          "name": "s",
          "type": "bytes32"
        }
      ],
      "name": "verify",
      "outputs": [
        {
          "internalType": "bool",
          "name": "",
          "type": "bool"
        }
      ],
      "stateMutability": "pure",
      "type": "function",
      "constant": true
    }
  ],
  "bytecode": "0x608060405234801561001057600080fd5b50600080546001600160a01b031916331790556156db806100326000396000f3fe60806040523480156200001157600080fd5b5060043610620001d85760003560e01c80638dfa742d1162000105578063cd55152e116200009f578063cd55152e1462000461578063dc4c25b3146200046b578063dd1facb21462000482578063f06822d81462000499578063fc7e01f314620004b0578063fd302c3514620004c7578063ff2b065a14620004de578063ff4d01b514620004f557620001d8565b80638dfa742d14620003985780639100978614620003af5780639659803814620003d55780639af035a314620003ec578063a999cca11462000403578063b0fc028d146200041a578063be7ef9c01462000431578063c22470ea146200044857620001d8565b80634e2e893511620001775780634e2e893514620002c2578063506535f314620002d957806356e5efc414620002ff57806362c1fe3914620003165780636386c1c7146200032d57806375f9cc581462000353578063798a826f146200036a5780638ccc8db7146200038157620001d8565b8063050e70db14620001dd57806306db8324146200020c5780630a421f0f1462000223578063164bcd5b146200023c5780631959a00214620002535780631f90ddaf146200027b578063347590161462000294578063412afbaf14620002ab575b600080fd5b620001f4620001ee36600462001b7f565b6200050c565b60405162000203919062001e94565b60405180910390f35b620001f46200021d36600462001b7f565b62000542565b6200022d6200055c565b60405162000203919062001fba565b620001f46200024d36600462001d85565b62000631565b6200026a6200026436600462001946565b620006b7565b604051620002039392919062001fe3565b620002926200028c36600462001c7a565b620006e3565b005b620001f4620002a536600462001946565b620007e8565b620001f4620002bc36600462001b7f565b62000806565b62000292620002d3366004620019fa565b62000820565b620002f0620002ea36600462001b25565b6200086e565b60405162000203919062001fcf565b620002926200031036600462001a76565b620008e1565b620001f46200032736600462001946565b6200096e565b620003446200033e36600462001946565b6200098c565b60405162000203919062002213565b6200029262000364366004620019fa565b62000af9565b620001f46200037b36600462001946565b62000b39565b620001f46200039236600462001b7f565b62000b54565b620001f4620003a936600462001b7f565b62000b6e565b620003c6620003c036600462001d9e565b62000b88565b60405162000203919062002032565b62000292620003e6366004620019fa565b62000c17565b620001f4620003fd36600462001d85565b62000cf3565b620001f46200041436600462001b7f565b62000d55565b620001f46200042b36600462001946565b62000d6f565b620002926200044236600462001bad565b62000d8a565b6200045262000eda565b60405162000203919062001fda565b6200045262000eed565b620002926200047c3660046200196c565b62000f47565b620002926200049336600462001946565b620011d4565b62000292620004aa366004620019a9565b62001315565b620001f4620004c136600462001d37565b620013b0565b620001f4620004d836600462001b7f565b620014b0565b62000292620004ef366004620019a9565b620014ca565b6200029262000506366004620019fa565b62001636565b600660205281600052604060002081815481106200052657fe5b6000918252602090912001546001600160a01b03169150829050565b600260205281600052604060002081815481106200052657fe5b3360009081526002602052604090205460609081816001600160401b03811180156200058757600080fd5b50604051908082528060200260200182016040528015620005b2578160200160208202803683370190505b50905060005b828110156200062957336000908152600260205260409020805482908110620005dd57fe5b9060005260206000200160009054906101000a90046001600160a01b03168282815181106200060857fe5b6001600160a01b0390921660209283029190910190910152600101620005b8565b509150505b90565b600060053360009081526001602052604090206002015460ff1660068111156200065757fe5b14620006805760405162461bcd60e51b8152600401620006779062002106565b60405180910390fd5b3360009081526009602052604090208054839081106200069c57fe5b6000918252602090912001546001600160a01b031692915050565b6001602052600090815260409020805460029091015460ff81169061010090046001600160a01b031683565b6000546001600160a01b03163314620006fb57600080fd5b6001600160a01b038116600090815260016020818152604090922086815585516200072f9391909201919086019062001676565b508160068111156200073d57fe5b6001600160a01b03821660009081526001602081905260409091206002018054909160ff19909116908360068111156200077357fe5b02179055506001600160a01b038116600081815260016020526040908190206002018054610100600160a81b0319166101008402179055517f33a7170f028b1e4f5ba321064a00ed820856a920c7f9c6636fbcf385427b1b0f90620007da90879062001fda565b60405180910390a250505050565b6001600160a01b039081166000908152600760205260409020541690565b600560205281600052604060002081815481106200052657fe5b42846001600160a01b03167f9151271dfe612a18bf915ee1609e6f94f62fd775c704a0ae2ef091519f0c9b39858585604051620008609392919062001f27565b60405180910390a350505050565b6000856001600160a01b0316600186868686604051600081526020016040526040516200089f949392919062002014565b6020604051602081039080840390855afa158015620008c2573d6000803e3d6000fd5b505050602060405103516001600160a01b031614905095945050505050565b600087878787878787604051620008f890620016da565b6200090a979695949392919062001f5e565b604051809103906000f08015801562000927573d6000803e3d6000fd5b506001600160a01b0398891660009081526004602090815260408220805460018101825590835291200180546001600160a01b031916919099161790975550505050505050565b6001600160a01b039081166000908152600a60205260409020541690565b62000996620016e8565b6000546001600160a01b03163314620009ae57600080fd5b6001600160a01b0382166000908152600160208181526040808420815160808101835281548152938101805483518186028101860190945280845294959194868501949192909184015b8282101562000aa95760008481526020908190208301805460408051601f600260001961010060018716150201909416939093049283018590048502810185019091528181529283018282801562000a945780601f1062000a685761010080835404028352916020019162000a94565b820191906000526020600020905b81548152906001019060200180831162000a7657829003601f168201915b505050505081526020019060010190620009f8565b50505090825250600282015460209091019060ff16600681111562000aca57fe5b600681111562000ad657fe5b81526002919091015461010090046001600160a01b031660209091015292915050565b42826001600160a01b03167f31f87de04fd141167b8131be7a8ccb2bac63361a15671c96d90c39ddc9ef909d858785604051620008609392919062001f27565b600a602052600090815260409020546001600160a01b031681565b600360205281600052604060002081815481106200052657fe5b600860205281600052604060002081815481106200052657fe5b6000546060906001600160a01b0316331462000ba357600080fd5b82600681111562000bb057fe5b6001600160a01b03831660009081526001602081905260409091206002018054909160ff199091169083600681111562000be657fe5b02179055505060408051808201909152600d81526c526f6c6520557064617465642160981b60208201525b92915050565b604051630a57332d60e31b81526001600160a01b038516906352b999689062000c4590869060040162001e94565b600060405180830381600087803b15801562000c6057600080fd5b505af115801562000c75573d6000803e3d6000fd5b505050506001600160a01b0383811660009081526003602090815260408083208054600181018255908452919092200180546001600160a01b0319169287169290921790915551429033907fcfbd3a658e0a38877312e3f5767ddb0c6541620d7bd0368d43e0b94a55d9876e90620008609086908990879062001f27565b600060043360009081526001602052604090206002015460ff16600681111562000d1957fe5b1462000d395760405162461bcd60e51b815260040162000677906200214e565b3360009081526006602052604090208054839081106200069c57fe5b600460205281600052604060002081815481106200052657fe5b6007602052600090815260409020546001600160a01b031681565b60023360009081526001602052604090206002015460ff16600681111562000dae57fe5b1462000dce5760405162461bcd60e51b8152600401620006779062002195565b6000821162000df15760405162461bcd60e51b81526004016200067790620021dc565b816001141562000e635760405163638e9a3d60e01b81526001600160a01b0384169063638e9a3d9062000e2990339060040162001e94565b600060405180830381600087803b15801562000e4457600080fd5b505af115801562000e59573d6000803e3d6000fd5b5050505062000ed5565b816002141562000e9b5760405163ac42a41560e01b81526001600160a01b0384169063ac42a4159062000e2990339060040162001e94565b816003141562000ed557604051630887851b60e31b81526001600160a01b0382169063443c28d89062000e29908690339060040162001ee2565b505050565b3360009081526002602052604090205490565b600060053360009081526001602052604090206002015460ff16600681111562000f1357fe5b1462000f335760405162461bcd60e51b8152600401620006779062002106565b503360009081526009602052604090205490565b60053360009081526001602052604090206002015460ff16600681111562000f6b57fe5b14801562000ff95750816001600160a01b031663abb428a66040518163ffffffff1660e01b815260040160606040518083038186803b15801562000fae57600080fd5b505afa15801562000fc3573d6000803e3d6000fd5b505050506040513d601f19601f8201168201806040525081019062000fe9919062001be8565b602001516001600160a01b031633145b620010185760405162461bcd60e51b8152600401620006779062002047565b6040516307fb74db60e21b81526000906001600160a01b03841690631fedd36c906200104990339060040162001e94565b602060405180830381600087803b1580156200106457600080fd5b505af115801562001079573d6000803e3d6000fd5b505050506040513d601f19601f820116820180604052508101906200109f919062001c61565b9050806002141562000ed557336000908152600860209081526040808320805460018101825590845291832090910180546001600160a01b0319166001600160a01b03871690811790915581516355da145360e11b81529151909163abb428a6916004808301926060929190829003018186803b1580156200112057600080fd5b505afa15801562001135573d6000803e3d6000fd5b505050506040513d601f19601f820116820180604052508101906200115b919062001be8565b516001600160a01b03161462000ed55760405163d7dcbe3b60e01b81526001600160a01b0383169063d7dcbe3b906200119b908690339060040162001ee2565b600060405180830381600087803b158015620011b657600080fd5b505af1158015620011cb573d6000803e3d6000fd5b50505050505050565b60043360009081526001602052604090206002015460ff166006811115620011f857fe5b148062001226575060053360009081526001602052604090206002015460ff1660068111156200122457fe5b145b620012455760405162461bcd60e51b81526004016200067790620020b0565b6040516307fb74db60e21b81526000906001600160a01b03831690631fedd36c906200127690339060040162001e94565b602060405180830381600087803b1580156200129157600080fd5b505af1158015620012a6573d6000803e3d6000fd5b505050506040513d601f19601f82011682018060405250810190620012cc919062001c61565b9050806001141562001311573360009081526005602090815260408220805460018101825590835291200180546001600160a01b0319166001600160a01b0384161790555b5050565b600083338484604051620013299062001710565b62001338949392919062001efc565b604051809103906000f08015801562001355573d6000803e3d6000fd5b5033600090815260066020908152604080832080546001810182559084528284200180546001600160a01b039586166001600160a01b0319918216811790925598909416835260079091529020805490951617909355505050565b6000803360023342604051602001620013cb92919062001e54565b60408051601f1981840301815290829052620013e79162001e76565b602060405180830381855afa15801562001405573d6000803e3d6000fd5b5050506040513d601f19601f820116820180604052508101906200142a919062001c61565b60601c878787876040516200143f906200171e565b620014509695949392919062001ea8565b604051809103906000f0801580156200146d573d6000803e3d6000fd5b503360009081526002602090815260408220805460018101825590835291200180546001600160a01b0319166001600160a01b0383161790559695505050505050565b600960205281600052604060002081815481106200052657fe5b60053360009081526001602052604090206002015460ff166006811115620014ee57fe5b1480156200157c5750826001600160a01b031663abb428a66040518163ffffffff1660e01b815260040160606040518083038186803b1580156200153157600080fd5b505afa15801562001546573d6000803e3d6000fd5b505050506040513d601f19601f820116820180604052508101906200156c919062001be8565b602001516001600160a01b031633145b6200159b5760405162461bcd60e51b8152600401620006779062002047565b600083338484604051620015af906200172c565b620015be949392919062001efc565b604051809103906000f080158015620015db573d6000803e3d6000fd5b5033600090815260096020908152604080832080546001810182559084528284200180546001600160a01b039586166001600160a01b03199182168117909255989094168352600a9091529020805490951617909355505050565b42836001600160a01b03167f22561ca0666e99052dd8231a6c5c337204ed5658c357aa6afcd53c207acfac67868585604051620008609392919062001f27565b828054828255906000526020600020908101928215620016c8579160200282015b82811115620016c85782518051620016b79184916020909101906200173a565b509160200191906001019062001697565b50620016d6929150620017bb565b5090565b611a24806200234683390190565b6040805160808101825260008082526060602083015290918201908152600060209091015290565b6103b88062003d6a83390190565b6111c8806200412283390190565b6103bc80620052ea83390190565b828054600181600116156101000203166002900490600052602060002090601f016020900481019282601f106200177d57805160ff1916838001178555620017ad565b82800160010185558215620017ad579182015b82811115620017ad57825182559160200191906001019062001790565b50620016d6929150620017e3565b6200062e91905b80821115620016d6576000620017d9828262001800565b50600101620017c2565b6200062e91905b80821115620016d65760008155600101620017ea565b50805460018160011615610100020316600290046000825580601f1062001828575062001848565b601f016020900490600052602060002090810190620018489190620017e3565b50565b803562000c11816200232f565b600082601f83011262001869578081fd5b8135620018806200187a82620022dc565b620022b5565b818152915060208083019084810181840286018201871015620018a257600080fd5b60005b84811015620018ce578135620018bb816200232f565b84529282019290820190600101620018a5565b505050505092915050565b600082601f830112620018ea578081fd5b81356001600160401b0381111562001900578182fd5b62001915601f8201601f1916602001620022b5565b91508082528360208285010111156200192d57600080fd5b8060208401602084013760009082016020015292915050565b60006020828403121562001958578081fd5b813562001965816200232f565b9392505050565b600080604083850312156200197f578081fd5b82356200198c816200232f565b915060208301356200199e816200232f565b809150509250929050565b600080600060608486031215620019be578081fd5b8335620019cb816200232f565b92506020840135620019dd816200232f565b91506040840135620019ef816200232f565b809150509250925092565b6000806000806080858703121562001a10578081fd5b843562001a1d816200232f565b9350602085013562001a2f816200232f565b9250604085013562001a41816200232f565b915060608501356001600160401b0381111562001a5c578182fd5b62001a6a87828801620018d9565b91505092959194509250565b600080600080600080600060e0888a03121562001a91578283fd5b873562001a9e816200232f565b96506020880135955060408801356001600160401b038082111562001ac1578485fd5b62001acf8b838c0162001858565b965060608a0135955060808a013591508082111562001aec578485fd5b5062001afb8a828b0162001858565b93505060a088013562001b0e816200232f565b8092505060c0880135905092959891949750929550565b600080600080600060a0868803121562001b3d578081fd5b853562001b4a816200232f565b945060208601359350604086013560ff8116811462001b67578182fd5b94979396509394606081013594506080013592915050565b6000806040838503121562001b92578182fd5b823562001b9f816200232f565b946020939093013593505050565b60008060006060848603121562001bc2578081fd5b833562001bcf816200232f565b9250602084013591506040840135620019ef816200232f565b60006060828403121562001bfa578081fd5b82601f83011262001c09578081fd5b62001c156060620022b5565b80838560608601111562001c27578384fd5b835b600381101562001c5657815162001c40816200232f565b8452602093840193919091019060010162001c29565b509095945050505050565b60006020828403121562001c73578081fd5b5051919050565b6000806000806080858703121562001c90578182fd5b843593506020808601356001600160401b0381111562001cae578384fd5b80870188601f82011262001cc0578485fd5b8035915062001cd36200187a83620022dc565b82815283810190828501875b8581101562001d0c5762001cf98d888435880101620018d9565b8452928601929086019060010162001cdf565b505080975050505050506040850135915062001d2c86606087016200184b565b905092959194509250565b6000806000806080858703121562001d4d578182fd5b8435935060208501359250604085013562001d68816200232f565b9150606085013562001d7a816200232f565b939692955090935050565b60006020828403121562001d97578081fd5b5035919050565b6000806040838503121562001db1578182fd5b8235915060208301356200199e816200232f565b6001600160a01b03169052565b6000815180845260208085019450808401835b8381101562001e0c5781516001600160a01b03168752958201959082019060010162001de5565b509495945050505050565b6000815180845262001e31816020860160208601620022fc565b601f01601f19169290920160200192915050565b6007811062001e5057fe5b9052565b60609290921b6bffffffffffffffffffffffff19168252601482015260340190565b6000825162001e8a818460208701620022fc565b9190910192915050565b6001600160a01b0391909116815260200190565b6001600160a01b0396871681529486166020860152604085019390935260608401919091528316608083015290911660a082015260c00190565b6001600160a01b0392831681529116602082015260400190565b6001600160a01b03948516815292841660208401529083166040830152909116606082015260800190565b6001600160a01b0384811682528316602082015260606040820181905260009062001f559083018462001e17565b95945050505050565b600060018060a01b03808a16835288602084015260e0604084015262001f8860e084018962001dd2565b876060850152838103608085015262001fa2818862001dd2565b9590911660a0840152505060c0015295945050505050565b60006020825262001965602083018462001dd2565b901515815260200190565b90815260200190565b838152606081016007841062001ff557fe5b60208201939093526001600160a01b0391909116604090910152919050565b93845260ff9290921660208401526040830152606082015260800190565b60006020825262001965602083018462001e17565b60208082526043908201527f4f6e6c79204469737472696275746f72206f722063757272656e74206f776e6560408201527f72206f66207061636b6167652063616e2063616c6c20746869732066756e637460608201526234b7b760e91b608082015260a00190565b60208082526036908201527f4f6e6c792057686f6c6573616c657220616e64204469737472696275746f722060408201527531b0b71031b0b636103a3434b990333ab731ba34b7b760511b606082015260800190565b60208082526028908201527f4f6e6c79204469737472696275746f722043616e2063616c6c207468697320666040820152673ab731ba34b7b71760c11b606082015260800190565b60208082526027908201527f4f6e6c792057686f6c6573616c65722043616e2063616c6c20746869732066756040820152663731ba34b7b71760c91b606082015260800190565b60208082526027908201527f4f6e6c79205472616e73706f727465722063616e2063616c6c207468697320666040820152663ab731ba34b7b760c91b606082015260800190565b6020808252601d908201527f5472616e73706f72746572205479706520697320696e636f7272656374000000604082015260600190565b60208082528251828201528281015160806040840152805160a084018190526000929160c0828402860181019285929187019185015b818410156200227d5760bf198886030183526200226885825162001e17565b94506001939093019291850191850162002249565b505050506040850151915062002297606085018362001e45565b60608501519150620022ad608085018362001dc5565b949350505050565b6040518181016001600160401b0381118282101715620022d457600080fd5b604052919050565b60006001600160401b03821115620022f2578081fd5b5060209081020190565b60005b8381101562002319578181015183820152602001620022ff565b8381111562002329576000848401525b50505050565b6001600160a01b03811681146200184857600080fdfe60806040523480156200001157600080fd5b5060405162001a2438038062001a24833981810160405260e08110156200003757600080fd5b815160208301516040808501805191519395929483019291846401000000008211156200006357600080fd5b9083019060208201858111156200007957600080fd5b82518660208202830111640100000000821117156200009757600080fd5b82525081516020918201928201910280838360005b83811015620000c6578181015183820152602001620000ac565b505050509050016040526020018051906020019092919080516040519392919084640100000000821115620000fa57600080fd5b9083019060208201858111156200011057600080fd5b82518660208202830111640100000000821117156200012e57600080fd5b82525081516020918201928201910280838360005b838110156200015d57818101518382015260200162000143565b505050509190910160409081526020838101519390910151600080546001600160a01b038d166001600160a01b0319918216811790925560048054909116909117905560018a905588519395509350620001bf926002925090880190620002a1565b5060088490558251620001da906003906020860190620002a1565b5080600114156200020657600580546001600160a01b0319166001600160a01b0384161790556200022c565b80600214156200022c57600680546001600160a01b0319166001600160a01b0384161790555b6000876040516200023d906200030b565b6001600160a01b03909116815260405190819003602001906000f0801580156200026b573d6000803e3d6000fd5b50600980546001600160a01b0390921661010002610100600160a81b031990921691909117905550620003439650505050505050565b828054828255906000526020600020908101928215620002f9579160200282015b82811115620002f957825182546001600160a01b0319166001600160a01b03909116178255602090920191600190910190620002c2565b506200030792915062000319565b5090565b610b638062000ec183390190565b6200034091905b80821115620003075780546001600160a01b031916815560010162000320565b90565b610b6e80620003536000396000f3fe608060405234801561001057600080fd5b506004361061009e5760003560e01c8063ac42a41511610066578063ac42a41514610197578063c8f5f189146101bd578063d2f3fcc7146101e3578063e002c8a5146101eb578063f5c0e383146102e55761009e565b80631fedd36c146100a35780632f1d7588146100db57806393a668b71461010b578063aab3a9d614610131578063abb428a614610157575b600080fd5b6100c9600480360360208110156100b957600080fd5b50356001600160a01b0316610313565b60408051918252519081900360200190f35b610109600480360360408110156100f157600080fd5b506001600160a01b038135811691602001351661053e565b005b6101096004803603602081101561012157600080fd5b50356001600160a01b03166105c7565b6101096004803603602081101561014757600080fd5b50356001600160a01b0316610634565b61015f610686565b6040518082606080838360005b8381101561018457818101518382015260200161016c565b5050505090500191505060405180910390f35b610109600480360360208110156101ad57600080fd5b50356001600160a01b03166106c1565b610109600480360360208110156101d357600080fd5b50356001600160a01b0316610842565b6100c96108ab565b6101f36108c4565b60405180886001600160a01b03166001600160a01b031681526020018781526020018060200186815260200180602001856001600160a01b03166001600160a01b03168152602001846001600160a01b03166001600160a01b03168152602001838103835288818151815260200191508051906020019060200280838360005b8381101561028b578181015183820152602001610273565b50505050905001838103825286818151815260200191508051906020019060200280838360005b838110156102ca5781810151838201526020016102b2565b50505050905001995050505050505050505060405180910390f35b610109600480360360408110156102fb57600080fd5b506001600160a01b03813581169160200135166109eb565b6005546000906001600160a01b038381169116148061033f57506006546001600160a01b038381169116145b61037a5760405162461bcd60e51b8152600401808060200182810382526035815260200180610a986035913960400191505060405180910390fd5b60095460019060ff16600681111561038e57fe5b10156103dd576040805162461bcd60e51b8152602060048201526019602482015278141c9bd91d58dd081b9bdd081c1a58dad959081d5c081e595d603a1b604482015290519081900360640190fd5b6005546001600160a01b03838116911614801561040a5750600160095460ff16600681111561040857fe5b145b1561048e576009805460ff1916600390811790915560055481546001600160a01b039091169190600019810190811061043f57fe5b60009182526020918290200154604080516002815260039381019390935280516001600160a01b03909216923092600080516020610a78833981519152929181900390910190a4506001610539565b6006546001600160a01b0383811691161480156104bb5750600260095460ff1660068111156104b957fe5b145b15610539576009805460ff19166004179055600654600380546001600160a01b039092169160001981019081106104ee57fe5b60009182526020918290200154604080516003815260049381019390935280516001600160a01b03909216923092600080516020610a78833981519152929181900390910190a45060025b919050565b6006546001600160a01b0382811691161461058a5760405162461bcd60e51b8152600401808060200182810382526023815260200180610aef6023913960400191505060405180910390fd5b600780546001600160a01b0319166001600160a01b03841617905560055b6009805460ff191660018360068111156105be57fe5b02179055505050565b6006546001600160a01b038281169116146106135760405162461bcd60e51b8152600401808060200182810382526023815260200180610aef6023913960400191505060405180910390fd5b60045b6009805460ff1916600183600681111561062c57fe5b021790555050565b600380546001810182556000919091527fc2575a0e9e593c00f959f8c92f12db2869c3395a3b0502d05e2516446f71f85b0180546001600160a01b0319166001600160a01b0392909216919091179055565b61068e610a59565b50604080516060810182526005546001600160a01b03908116825260065481166020830152600754169181019190915290565b6003805460001981019081106106d357fe5b6000918252602090912001546001600160a01b038281169116146107285760405162461bcd60e51b8152600401808060200182810382526027815260200180610b126027913960400191505060405180910390fd5b600060095460ff16600681111561073b57fe5b1461078d576040805162461bcd60e51b815260206004820181905260248201527f5061636b616765206d757374206265206174204d616e7566616374757265722e604482015290519081900360640190fd5b6005546001600160a01b0316156107f0576009805460ff1916600190811790915560055460408051838152602081019390935280516001600160a01b0392831693928516923092600080516020610a7883398151915292918290030190a461083f565b6009805460ff191660029081179091556006546040805160018152602081019390935280516001600160a01b0392831693928516923092600080516020610a7883398151915292918290030190a45b50565b6007546001600160a01b038281169116146108a4576040805162461bcd60e51b815260206004820181905260248201527f5468697320437573746f6d6572206973206e6f74204173736f6369617465642e604482015290519081900360640190fd5b6006610616565b60095460009060ff1660068111156108bf57fe5b905090565b600080606060006060600080600460009054906101000a90046001600160a01b031660015460026008546003600660009054906101000a90046001600160a01b0316600760009054906101000a90046001600160a01b03168480548060200260200160405190810160405280929190818152602001828054801561097157602002820191906000526020600020905b81546001600160a01b03168152600190910190602001808311610953575b50505050509450828054806020026020016040519081016040528092919081815260200182805480156109cd57602002820191906000526020600020905b81546001600160a01b031681526001909101906020018083116109af575b50505050509250965096509650965096509650965090919293949596565b6005546001600160a01b03828116911614610a375760405162461bcd60e51b8152600401808060200182810382526022815260200180610acd6022913960400191505060405180910390fd5b600680546001600160a01b0319166001600160a01b03841617905560026105a8565b6040518060600160405280600390602082028036833750919291505056fe7e89c4b1a4e2b51aae84eb1f90e8a34cb792ece5ac5cb63db4830c891220b28d4f6e6c792057686f6c6573616c6572206f72204469737472696275746f722063616e2063616c6c20746869732066756e6374696f6e746869732057686f6c6573616c6572206973206e6f74204173736f6369617465642e54686973204469737472696275746f72206973206e6f74204173736f6369617465642e4f6e6c79205472616e73706f727465722063616e2063616c6c20746869732066756e6374696f6ea264697066735822122060620228bbbd23bdd9e492a29e741ff334efcefe3dd2c613969b79b5684d09b564736f6c634300060600336080604052600060025534801561001557600080fd5b50604051610b63380380610b6383398101604081905261003491610059565b600080546001600160a01b0319166001600160a01b0392909216919091179055610087565b60006020828403121561006a578081fd5b81516001600160a01b0381168114610080578182fd5b9392505050565b610acd806100966000396000f3fe608060405234801561001057600080fd5b506004361061004c5760003560e01c806327506f53146100515780633626a3681461006f57806378ce1365146100845780639ace38c214610099575b600080fd5b6100596100bf565b60405161006691906108b6565b60405180910390f35b61008261007d3660046107bb565b6102c7565b005b61008c61050b565b6040516100669190610a76565b6100ac6100a7366004610853565b610511565b604051610066979695949392919061097f565b600254606090818167ffffffffffffffff811180156100dd57600080fd5b5060405190808252806020026020018201604052801561011757816020015b61010461066a565b8152602001906001900390816100fc5790505b50905060005b828110156102bf57600081815260016020818152604092839020835160e08101855281548152818401546001600160a01b0390811682850152600280840154909116828701526003830154606083015260048301805487516101009782161597909702600019011691909104601f81018590048502860185019096528585529094919360808601939092908301828280156101f95780601f106101ce576101008083540402835291602001916101f9565b820191906000526020600020905b8154815290600101906020018083116101dc57829003601f168201915b505050918352505060058201805460408051602060026001851615610100026000190190941693909304601f810184900484028201840190925281815293820193929183018282801561028d5780601f106102625761010080835404028352916020019161028d565b820191906000526020600020905b81548152906001019060200180831161027057829003601f168201915b505050505081526020016006820154815250508282815181106102ac57fe5b602090810291909101015260010161011d565b509150505b90565b60025442906103a6576040805160e0810182528881526001600160a01b038089166020808401918252898316848601908152606085018a8152608086018a815260a087018a905260c08701899052600280546000908152600180875299902088518155955198860180549988166001600160a01b03199a8b1617905592519285018054939096169290971691909117909355915160038201559251805192939261037792600485019201906106a5565b5060a082015180516103939160058401916020909101906106a5565b5060c082015181600601559050506104b5565b6002546000190160009081526001602052604090205484146103e35760405162461bcd60e51b81526004016103da90610a3f565b60405180910390fd5b6040805160e0810182528881526001600160a01b038089166020808401918252898316848601908152606085018a8152608086018a815260a087018a905260c08701899052600280546000908152600180875299902088518155955198860180549988166001600160a01b03199a8b1617905592519285018054939096169290971691909117909355915160038201559251805192939261048a92600485019201906106a5565b5060a082015180516104a69160058401916020909101906106a5565b5060c082015181600601559050505b6002805460010190556040517f30d01d358fb0899fe4d50947b2e9301c952d9eed09b14c7ecdcbeed4434557c4906104fa90899089908990899087908a908a906109df565b60405180910390a150505050505050565b60025481565b60016020818152600092835260409283902080548184015460028084015460038501546004860180548a516101009a8216159a909a02600019011693909304601f810188900488028901880190995288885293976001600160a01b039384169793909116959394938301828280156105ca5780601f1061059f576101008083540402835291602001916105ca565b820191906000526020600020905b8154815290600101906020018083116105ad57829003601f168201915b5050505060058301805460408051602060026001851615610100026000190190941693909304601f810184900484028201840190925281815294959493509083018282801561065a5780601f1061062f5761010080835404028352916020019161065a565b820191906000526020600020905b81548152906001019060200180831161063d57829003601f168201915b5050505050908060060154905087565b6040805160e08101825260008082526020820181905291810182905260608082018390526080820181905260a082015260c081019190915290565b828054600181600116156101000203166002900490600052602060002090601f016020900481019282601f106106e657805160ff1916838001178555610713565b82800160010185558215610713579182015b828111156107135782518255916020019190600101906106f8565b5061071f929150610723565b5090565b6102c491905b8082111561071f5760008155600101610729565b600082601f83011261074d578081fd5b813567ffffffffffffffff80821115610764578283fd5b604051601f8301601f191681016020018281118282101715610784578485fd5b60405282815292508284830160200186101561079f57600080fd5b8260208601602083013760006020848301015250505092915050565b60008060008060008060c087890312156107d3578182fd5b8635955060208701356107e581610a7f565b945060408701356107f581610a7f565b935060608701359250608087013567ffffffffffffffff80821115610818578384fd5b6108248a838b0161073d565b935060a0890135915080821115610839578283fd5b5061084689828a0161073d565b9150509295509295509295565b600060208284031215610864578081fd5b5035919050565b60008151808452815b8181101561089057602081850181015186830182015201610874565b818111156108a15782602083870101525b50601f01601f19169290920160200192915050565b60208082528251828201819052600091906040908185019080840286018301878501865b8381101561097157888303603f19018552815180518452878101516001600160a01b03908116898601528782015116878501526060808201519085015260808082015160e082870181905291906109338388018261086b565b91505060a09150818301518682038388015261094f828261086b565b60c09485015197909401969096525050948701949250908601906001016108da565b509098975050505050505050565b8781526001600160a01b038781166020830152861660408201526060810185905260e0608082018190526000906109b89083018661086b565b82810360a08401526109ca818661086b565b9150508260c083015298975050505050505050565b8781526001600160a01b03878116602083015286166040820152606081018590526080810184905260e060a08201819052600090610a1f9083018561086b565b82810360c0840152610a31818561086b565b9a9950505050505050505050565b6020808252601b908201527f5472616e73616374696f6e206572726f72206f63637572726564210000000000604082015260600190565b90815260200190565b6001600160a01b0381168114610a9457600080fd5b5056fea26469706673582212208e8c92ee2ddb954d56a57dcb6fab8b5247c07a9e0c2299012988b1c986ef221464736f6c63430006060033608060405234801561001057600080fd5b506040516103b83803806103b88339818101604052608081101561003357600080fd5b50805160208201516040830151606090930151600080546001600160a01b03199081166001600160a01b03948516908117835560018054831696861696909617909555600280548216909517909455600380548516958416959095179094556004805490931691161760ff60a01b191690556103039081906100b590396000f3fe608060405234801561001057600080fd5b50600436106100415760003560e01c8063443c28d814610046578063d2f3fcc714610076578063d7dcbe3b14610090575b600080fd5b6100746004803603604081101561005c57600080fd5b506001600160a01b03813581169160200135166100be565b005b61007e610190565b60408051918252519081900360200190f35b610074600480360360408110156100a657600080fd5b506001600160a01b03813581169160200135166101b0565b6003546001600160a01b0382811691161461010a5760405162461bcd60e51b815260040180806020018281038252602f81526020018061029f602f913960400191505060405180910390fd5b6004805460ff60a01b1916600160a01b178082556002546040805163f5c0e38360e01b81526001600160a01b03938416948101949094529082166024840152519084169163f5c0e38391604480830192600092919082900301818387803b15801561017457600080fd5b505af1158015610188573d6000803e3d6000fd5b505050505050565b600454600090600160a01b900460ff1660028111156101ab57fe5b905090565b6004546001600160a01b038281169116146101fc5760405162461bcd60e51b815260040180806020018281038252603081526020018061026f6030913960400191505060405180910390fd5b600480546002919060ff60a01b1916600160a01b830217905550816001600160a01b03166393a668b7826040518263ffffffff1660e01b815260040180826001600160a01b03166001600160a01b03168152602001915050600060405180830381600087803b15801561017457600080fdfe4f6e6c79204173736f6369617465642072656365697665722063616e2063616c6c20746869732066756e6374696f6e2e4f6e6c79204173736f63696174656420736869707065722063616e2063616c6c20746869732066756e6374696f6e2ea2646970667358221220c9e15fe359ac9492977bf3f742828127957ea612d6208de7ba60e0d47eed28eb64736f6c63430006060033608060405234801561001057600080fd5b506040516111c83803806111c883398101604081905261002f91610100565b600080546001600160a01b03199081166001600160a01b0389811691821784556001805484168a831617905560028890556003879055600480548416878316179055600580548416918616919091179055600680549092161760ff60a01b19169055604051829061009f906100f3565b6100a99190610173565b604051809103906000f0801580156100c5573d6000803e3d6000fd5b50600880546001600160a01b0319166001600160a01b03929092169190911790555061019f95505050505050565b610b638061066583390190565b60008060008060008060c08789031215610118578182fd5b865161012381610187565b602088015190965061013481610187565b809550506040870151935060608701519250608087015161015481610187565b60a088015190925061016581610187565b809150509295509295509295565b6001600160a01b0391909116815260200190565b6001600160a01b038116811461019c57600080fd5b50565b6104b7806101ae6000396000f3fe608060405234801561001057600080fd5b50600436106100575760003560e01c806350e073bc1461005c57806352b9996814610071578063638e9a3d146100845780636b099dca1461009757806380723520146100b5575b600080fd5b61006f61006a3660046102e8565b6100d0565b005b61006f61007f3660046102e8565b6100f2565b61006f6100923660046102e8565b6101cd565b61009f610293565b6040516100ac9190610478565b60405180910390f35b6100bd6102b3565b6040516100ac9796959493929190610316565b600580546001600160a01b0319166001600160a01b0392909216919091179055565b6005546001600160a01b038281169116146101285760405162461bcd60e51b815260040161011f90610398565b60405180910390fd5b6001600654600160a01b900460ff16600281111561014257fe5b1461015f5760405162461bcd60e51b815260040161011f90610365565b6006805460ff60a01b1916600160a11b179055600554600454600180546040516001600160a01b039485169493841693909116917f7e89c4b1a4e2b51aae84eb1f90e8a34cb792ece5ac5cb63db4830c891220b28d916101c29190600290610357565b60405180910390a450565b6004546001600160a01b038281169116146101fa5760405162461bcd60e51b815260040161011f90610428565b6000600654600160a01b900460ff16600281111561021457fe5b146102315760405162461bcd60e51b815260040161011f906103f1565b6006805460ff60a01b1916600160a01b179055600554600454600180546040516001600160a01b039485169493841693909116917f7e89c4b1a4e2b51aae84eb1f90e8a34cb792ece5ac5cb63db4830c891220b28d916101c291908190610357565b600654600090600160a01b900460ff1660028111156102ae57fe5b905090565b6001546002546003546006546004546005546008546001600160a01b0396871697959694959385169492831693918316921690565b6000602082840312156102f9578081fd5b81356001600160a01b038116811461030f578182fd5b9392505050565b6001600160a01b03978816815260208101969096526040860194909452918516606085015284166080840152831660a083015290911660c082015260e00190565b918252602082015260400190565b602080825260199082015278141c9bd91d58dd081b9bdd081c1a58dad959081d5c081e595d603a1b604082015260600190565b60208082526039908201527f4f6e6c79204d616e756661637475726572206f6620746865207061636b6167656040820152782063616e20726563656965766520746865207061636b61676560381b606082015260800190565b6020808252601c908201527f5061636b616765206d75737420626520617420537570706c6965722e00000000604082015260600190565b60208082526030908201527f4f6e6c79207472616e73706f72746572206f6620746865207061636b6167652060408201526f63616e207069636b207061636b61676560801b606082015260800190565b9081526020019056fea2646970667358221220f89cf8a74742fa82825bdfb0942b36a4d645d52fa4e529e3f5d9125dbf99ac0764736f6c634300060600336080604052600060025534801561001557600080fd5b50604051610b63380380610b6383398101604081905261003491610059565b600080546001600160a01b0319166001600160a01b0392909216919091179055610087565b60006020828403121561006a578081fd5b81516001600160a01b0381168114610080578182fd5b9392505050565b610acd806100966000396000f3fe608060405234801561001057600080fd5b506004361061004c5760003560e01c806327506f53146100515780633626a3681461006f57806378ce1365146100845780639ace38c214610099575b600080fd5b6100596100bf565b60405161006691906108b6565b60405180910390f35b61008261007d3660046107bb565b6102c7565b005b61008c61050b565b6040516100669190610a76565b6100ac6100a7366004610853565b610511565b604051610066979695949392919061097f565b600254606090818167ffffffffffffffff811180156100dd57600080fd5b5060405190808252806020026020018201604052801561011757816020015b61010461066a565b8152602001906001900390816100fc5790505b50905060005b828110156102bf57600081815260016020818152604092839020835160e08101855281548152818401546001600160a01b0390811682850152600280840154909116828701526003830154606083015260048301805487516101009782161597909702600019011691909104601f81018590048502860185019096528585529094919360808601939092908301828280156101f95780601f106101ce576101008083540402835291602001916101f9565b820191906000526020600020905b8154815290600101906020018083116101dc57829003601f168201915b505050918352505060058201805460408051602060026001851615610100026000190190941693909304601f810184900484028201840190925281815293820193929183018282801561028d5780601f106102625761010080835404028352916020019161028d565b820191906000526020600020905b81548152906001019060200180831161027057829003601f168201915b505050505081526020016006820154815250508282815181106102ac57fe5b602090810291909101015260010161011d565b509150505b90565b60025442906103a6576040805160e0810182528881526001600160a01b038089166020808401918252898316848601908152606085018a8152608086018a815260a087018a905260c08701899052600280546000908152600180875299902088518155955198860180549988166001600160a01b03199a8b1617905592519285018054939096169290971691909117909355915160038201559251805192939261037792600485019201906106a5565b5060a082015180516103939160058401916020909101906106a5565b5060c082015181600601559050506104b5565b6002546000190160009081526001602052604090205484146103e35760405162461bcd60e51b81526004016103da90610a3f565b60405180910390fd5b6040805160e0810182528881526001600160a01b038089166020808401918252898316848601908152606085018a8152608086018a815260a087018a905260c08701899052600280546000908152600180875299902088518155955198860180549988166001600160a01b03199a8b1617905592519285018054939096169290971691909117909355915160038201559251805192939261048a92600485019201906106a5565b5060a082015180516104a69160058401916020909101906106a5565b5060c082015181600601559050505b6002805460010190556040517f30d01d358fb0899fe4d50947b2e9301c952d9eed09b14c7ecdcbeed4434557c4906104fa90899089908990899087908a908a906109df565b60405180910390a150505050505050565b60025481565b60016020818152600092835260409283902080548184015460028084015460038501546004860180548a516101009a8216159a909a02600019011693909304601f810188900488028901880190995288885293976001600160a01b039384169793909116959394938301828280156105ca5780601f1061059f576101008083540402835291602001916105ca565b820191906000526020600020905b8154815290600101906020018083116105ad57829003601f168201915b5050505060058301805460408051602060026001851615610100026000190190941693909304601f810184900484028201840190925281815294959493509083018282801561065a5780601f1061062f5761010080835404028352916020019161065a565b820191906000526020600020905b81548152906001019060200180831161063d57829003601f168201915b5050505050908060060154905087565b6040805160e08101825260008082526020820181905291810182905260608082018390526080820181905260a082015260c081019190915290565b828054600181600116156101000203166002900490600052602060002090601f016020900481019282601f106106e657805160ff1916838001178555610713565b82800160010185558215610713579182015b828111156107135782518255916020019190600101906106f8565b5061071f929150610723565b5090565b6102c491905b8082111561071f5760008155600101610729565b600082601f83011261074d578081fd5b813567ffffffffffffffff80821115610764578283fd5b604051601f8301601f191681016020018281118282101715610784578485fd5b60405282815292508284830160200186101561079f57600080fd5b8260208601602083013760006020848301015250505092915050565b60008060008060008060c087890312156107d3578182fd5b8635955060208701356107e581610a7f565b945060408701356107f581610a7f565b935060608701359250608087013567ffffffffffffffff80821115610818578384fd5b6108248a838b0161073d565b935060a0890135915080821115610839578283fd5b5061084689828a0161073d565b9150509295509295509295565b600060208284031215610864578081fd5b5035919050565b60008151808452815b8181101561089057602081850181015186830182015201610874565b818111156108a15782602083870101525b50601f01601f19169290920160200192915050565b60208082528251828201819052600091906040908185019080840286018301878501865b8381101561097157888303603f19018552815180518452878101516001600160a01b03908116898601528782015116878501526060808201519085015260808082015160e082870181905291906109338388018261086b565b91505060a09150818301518682038388015261094f828261086b565b60c09485015197909401969096525050948701949250908601906001016108da565b509098975050505050505050565b8781526001600160a01b038781166020830152861660408201526060810185905260e0608082018190526000906109b89083018661086b565b82810360a08401526109ca818661086b565b9150508260c083015298975050505050505050565b8781526001600160a01b03878116602083015286166040820152606081018590526080810184905260e060a08201819052600090610a1f9083018561086b565b82810360c0840152610a31818561086b565b9a9950505050505050505050565b6020808252601b908201527f5472616e73616374696f6e206572726f72206f63637572726564210000000000604082015260600190565b90815260200190565b6001600160a01b0381168114610a9457600080fd5b5056fea26469706673582212208e8c92ee2ddb954d56a57dcb6fab8b5247c07a9e0c2299012988b1c986ef221464736f6c63430006060033608060405234801561001057600080fd5b506040516103bc3803806103bc8339818101604052608081101561003357600080fd5b50805160208201516040830151606090930151600080546001600160a01b03199081166001600160a01b03948516908117835560018054831696861696909617909555600280548216909517909455600380548516958416959095179094556004805490931691161760ff60a01b191690556103079081906100b590396000f3fe608060405234801561001057600080fd5b50600436106100415760003560e01c806353157b1a14610046578063c0114d0614610076578063f7addc3e14610090575b600080fd5b6100746004803603604081101561005c57600080fd5b506001600160a01b03813581169160200135166100be565b005b61007e610190565b60408051918252519081900360200190f35b610074600480360360408110156100a657600080fd5b506001600160a01b03813581169160200135166101b0565b6003546001600160a01b0382811691161461010a5760405162461bcd60e51b815260040180806020018281038252603381526020018061026f6033913960400191505060405180910390fd5b6004805460ff60a01b1916600160a01b17808255600254604080516305e3aeb160e31b81526001600160a01b039384169481019490945290821660248401525190841691632f1d758891604480830192600092919082900301818387803b15801561017457600080fd5b505af1158015610188573d6000803e3d6000fd5b505050505050565b600454600090600160a01b900460ff1660028111156101ab57fe5b905090565b6004546001600160a01b038281169116146101fc5760405162461bcd60e51b81526004018080602001828103825260308152602001806102a26030913960400191505060405180910390fd5b600480546002919060ff60a01b1916600160a01b830217905550816001600160a01b031663c8f5f189826040518263ffffffff1660e01b815260040180826001600160a01b03166001600160a01b03168152602001915050600060405180830381600087803b15801561017457600080fdfe4f6e6c79204173736f636961746564207472616e73706f727465722063616e2063616c6c20746869732066756e6374696f6e2e4f6e6c79204173736f6369617465642072656365697665722063616e2063616c6c20746869732066756e6374696f6e2ea2646970667358221220adbe28ec6a1b5181e1959c4942be1e3e5b043cb1b0a483eb16b5d0578edd08b364736f6c63430006060033a2646970667358221220efaf06e123c6d7e4ea8fa01a58f518b17ed879d6a04403e53ea5756af24ec31764736f6c63430006060033",
  "immutableReferences": {},
  "source": "pragma solidity ^0.6.6;\npragma experimental ABIEncoderV2;\n\nimport './RawMaterial.sol';\n// import './Supplier.sol';\n// import './Transporter.sol';\nimport './Medicine.sol';\n// import './Manufacturer.sol';\nimport './MedicineW_D.sol';\n// import './Wholesaler.sol';\nimport './MedicineD_C.sol';\n// import './Distributor.sol';\n// import './Customer.sol';\n\n\n//// New supply chain : supplier -> transporter -> manufacturer -> transporter -> whole-saler -> transporter -> distributor -> transporter -> customer/hospital/pharmacy\n\ncontract SupplyChain {\n    \n    address Owner;\n    \n    constructor() public {\n        Owner = msg.sender;\n    }\n    \n    modifier onlyOwner() {\n        require(Owner == msg.sender);\n        _;\n    }\n    \n    modifier checkUser(address addr) {\n        require(addr == msg.sender);\n        _;\n    }\n    \n    enum roles {\n        noRole,\n        supplier,\n        transporter,\n        manufacturer,\n        wholesaler,\n        distributor,\n        customer\n    }\n    \n    \n    //////////////// Events ////////////////////\n    \n    event UserRegister(address indexed _address, bytes32 name);\n    event buyEvent(address buyer, address indexed seller, address packageAddr, bytes signature, uint indexed timestamp);\n    event respondEvent(address indexed buyer, address seller, address packageAddr, bytes signature, uint indexed timestamp);\n    event sendEvent(address seller, address buyer, address indexed packageAddr, bytes signature, uint indexed timestamp);\n    event receivedEvent(address indexed buyer, address seller, address packageAddr, bytes signature, uint indexed timestamp);\n    \n    /////////////// Users (Only Owner Executable) //////////////////////\n    \n    struct userData {\n        bytes32 name;\n        string[] userLoc;\n        roles role;\n        address userAddr;\n    }\n    \n    mapping (address => userData) public userInfo;\n    \n    function registerUser(bytes32 name, string[] memory loc, uint role, address _userAddr) public onlyOwner {\n        userInfo[_userAddr].name = name;\n        userInfo[_userAddr].userLoc = loc;\n        userInfo[_userAddr].role = roles(role);\n        userInfo[_userAddr].userAddr = _userAddr;\n        \n        emit UserRegister(_userAddr, name);\n    }\n    \n    function changeUserRole(uint _role, address _addr) public onlyOwner returns(string memory) {\n        userInfo[_addr].role = roles(_role);\n       return \"Role Updated!\";\n    }\n    \n    function getUserInfo(address _address) public view onlyOwner returns(\n        userData memory\n        ) {\n        return userInfo[_address];\n    }\n    \n\n    /////////////// Supplier //////////////////////\n    \n    mapping (address => address[]) public supplierRawMaterials;\n    \n    function respondToManufacturer(address buyer, address seller, address packageAddr, bytes memory signature) public {\n        emit respondEvent(buyer, seller, packageAddr, signature, now);\n    }\n    \n    function createRawMaterialPackage(\n        bytes32 _description,\n        uint _quantity,\n        address _transporterAddr,\n        address _manufacturerAddr\n    ) public returns(address) {\n\n        RawMaterial rawMaterial = new RawMaterial(\n            msg.sender,\n            address(bytes20(sha256(abi.encodePacked(msg.sender, now)))),\n            _description,\n            _quantity,\n            _transporterAddr,\n            _manufacturerAddr\n        );\n        \n        supplierRawMaterials[msg.sender].push(address(rawMaterial));\n        return address(rawMaterial);\n    }\n    \n    function getNoOfPackagesOfSupplier() public view returns(uint) {\n        return supplierRawMaterials[msg.sender].length;\n    }\n    \n    \n    function getAllPackages() public view returns(address[] memory) {\n        uint len = supplierRawMaterials[msg.sender].length;\n        address[] memory ret = new address[](len);\n        for (uint i = 0; i < len; i++) {\n            ret[i] = supplierRawMaterials[msg.sender][i];\n        }\n        return ret;\n    }\n\n    function sendPackageToManufacturer(address buyer, address seller, address packageAddr, bytes memory signature) public {\n        emit sendEvent(seller, buyer, packageAddr, signature, now);\n    }\n    \n    ///////////////  Transporter ///////////////\n    \n    \n    function transporterHandlePackage(\n        address _addr,\n        uint transportertype,\n        address cid\n        ) public {\n            \n        require(\n            userInfo[msg.sender].role == roles.transporter,\n            \"Only Transporter can call this function\"\n        );\n        require(\n            transportertype > 0,\n            \"Transporter Type is incorrect\"\n        );\n        \n        if(transportertype == 1) { \n            /// Supplier -> Manufacturer\n            RawMaterial(_addr).pickPackage(msg.sender);\n        } else if(transportertype == 2) { \n            /// Manufacturer -> Wholesaler\n            Medicine(_addr).pickMedicine(msg.sender);\n        } else if(transportertype == 3) {   \n            // Wholesaler to Distributer\n            MedicineW_D(cid).pickWD(_addr, msg.sender);\n        } else if(transportertype == 4) {   \n            // Distrubuter to Customer\n            // MedicineD_C(cid).pickDC(_addr, msg.sender);\n        }\n    }\n    \n    \n    ///////////////  Manufacturer ///////////////\n    \n    mapping (address => address[]) public manufacturerRawMaterials;\n    mapping (address => address[]) public manufacturerMedicines;\n    \n    function requestRawMaterial(address manuAddr, address supplierAddr, address rawMaterialAddr, bytes memory signature) public {\n        emit buyEvent(manuAddr, supplierAddr, rawMaterialAddr, signature, now);\n    }\n\n    function manufacturerReceivedPackage(\n        address _addr,\n        address _manufacturerAddress,\n        address _sellerAddr,\n        bytes memory signature\n        ) public {\n            \n        RawMaterial(_addr).receivedPackage(_manufacturerAddress);\n        manufacturerRawMaterials[_manufacturerAddress].push(_addr);\n        emit receivedEvent(msg.sender, _sellerAddr, _addr, signature, now);\n    }\n    \n    \n    function manufacturerCreatesMedicine(\n        address _manufacturerAddr,\n        bytes32 _description,\n        address[] memory _rawAddr,\n        uint _quantity,\n        address[] memory _transporterAddr,\n        address _recieverAddr,\n        uint RcvrType\n        ) public {\n            \n        Medicine _medicine = new Medicine(\n            _manufacturerAddr,\n            _description,\n            _rawAddr,\n            _quantity,\n            _transporterAddr,\n            _recieverAddr,\n            RcvrType\n        );\n        \n        manufacturerMedicines[_manufacturerAddr].push(address(_medicine));\n        \n    }\n    \n\n    ///////////////  Wholesaler  ///////////////\n\n    mapping(address => address[]) public MedicinesAtWholesaler;\n    mapping(address => address[]) public MedicineWtoD;\n    mapping(address => address) public MedicineWtoDTxContract;\n    \n    function wholesalerReceivedMedicine(\n        address _address\n        ) public {\n        require(\n            userInfo[msg.sender].role == roles.wholesaler || userInfo[msg.sender].role == roles.distributor,\n            \"Only Wholesaler and Distributor can call this function\"\n        );\n        \n        uint rtype = Medicine(_address).receivedMedicine(msg.sender);\n        if(rtype == 1) {\n            MedicinesAtWholesaler[msg.sender].push(_address);\n        }\n    }\n    \n    function transferMedicineWtoD(\n            address _address,\n            address transporter,\n            address receiver\n        ) public {\n            \n        MedicineW_D wd = new MedicineW_D(\n            _address,\n            msg.sender,\n            transporter,\n            receiver\n        );\n        MedicineWtoD[msg.sender].push(address(wd));\n        MedicineWtoDTxContract[_address] = address(wd);\n    }\n\n    \n    function getBatchIdByIndexWD(uint index) public view returns(address packageID) {\n        require(\n            userInfo[msg.sender].role == roles.wholesaler,\n            \"Only Wholesaler Can call this function.\"\n        );\n        return MedicineWtoD[msg.sender][index];\n    }\n\n    function getSubContractWD(address _address) public view returns (address SubContractWD) {\n        return MedicineWtoDTxContract[_address];\n    }\n\n\n//     ///////////////  Distributor  ///////////////\n\n    mapping(address => address[]) public MedicinesAtDistributor;\n    mapping(address => address[]) public MedicineDtoC;\n    mapping(address => address) public MedicineDtoCTxContract;\n\n\n    function distributorReceivedMedicine(\n      address _address,\n      address cid\n    ) public {\n        require(\n            userInfo[msg.sender].role == roles.distributor &&\n            msg.sender == Medicine(_address).getWDC()[1],\n            \"Only Distributor or current owner of package can call this function\"  \n        );\n        \n        uint rtype = Medicine(_address).receivedMedicine(msg.sender);\n        if(rtype == 2){\n            MedicinesAtDistributor[msg.sender].push(_address);\n            if(Medicine(_address).getWDC()[0] != address(0)){\n                MedicineW_D(cid).receiveWD(_address, msg.sender);\n            }\n        }\n    }\n\n    function distributorTransferMedicinetoCustomer(\n        address _address,\n        address transporter,\n        address receiver\n    ) public {\n        require(\n            userInfo[msg.sender].role == roles.distributor &&\n            msg.sender == Medicine(_address).getWDC()[1],\n            \"Only Distributor or current owner of package can call this function\"\n        );\n        MedicineD_C dp = new MedicineD_C(\n            _address,\n            msg.sender,\n            transporter,\n            receiver\n        );\n        MedicineDtoC[msg.sender].push(address(dp));\n        MedicineDtoCTxContract[_address] = address(dp);\n    }\n    \n    function getBatchesCountDC() public view returns (uint count){\n        require(\n            userInfo[msg.sender].role == roles.distributor,\n            \"Only Distributor Can call this function.\"\n        );\n        return MedicineDtoC[msg.sender].length;\n    }\n\n    function getBatchIdByIndexDC(uint index) public view returns(address packageID) {\n        require(\n            userInfo[msg.sender].role == roles.distributor,\n            \"Only Distributor Can call this function.\"\n        );\n        return MedicineDtoC[msg.sender][index];\n    }\n\n    function getSubContractDC(address _address) public view returns (address SubContractDP) {\n        return MedicineDtoCTxContract[_address];\n    }\n    \n    \n//     ///////////////  Customer  ///////////////\n    \n    \n//     function customerReceivedMedicine(\n//         address _address,\n//         address cid\n//     ) public {\n//         require(\n//             userInfo[msg.sender].role == roles.customer,\n//             \"Only Customer Can call this function.\"\n//         );\n//         medicineRecievedAtCustomer(_address, cid);\n//     }\n\n//     function updateStatus(\n//         address _address,\n//         uint Status\n//     ) public {\n//         require(\n//             userInfo[msg.sender].role == roles.customer &&\n//             msg.sender == Medicine(_address).getWDC()[2],\n//             \"Only Customer or current owner of package can call this function\"\n//         );\n//         require(sale[_address] == salestatus(1), \"Medicine Must be at Customer\");\n        \n//         updateSaleStatus(_address, Status);\n//     }\n\n//     function getSalesInfo(\n//         address _address\n//     ) public\n//     view\n//     returns(\n//         uint Status \n//     ){\n//         return salesInfo(_address);\n//     }\n\n    \n//     function getBatchesCountC() public view returns(uint count) {\n//         require(\n//             userInfo[msg.sender].role == roles.customer,\n//             \"Only Wholesaler or current owner of package can call this function\"\n//         );\n//         return  MedicineBatchAtCustomer[msg.sender].length;\n//     }\n\n//     function getBatchIdByIndexC(uint index) public view returns(address _address) {\n//         require(\n//             userInfo[msg.sender].role == roles.customer,\n//             \"Only Wholesaler or current owner of package can call this function\"\n//         );\n//         return MedicineBatchAtCustomer[msg.sender][index];\n//     }\n    \n    function verify(address p, bytes32 hash, uint8 v, bytes32 r, bytes32 s) public pure returns(bool) {\n        return ecrecover(hash, v, r, s) == p;\n    }   \n}\n    ",
  "sourcePath": "/Users/sherwyndsouza/Desktop/Work/Blockchain/Medicine-Supply-Chain/blockchain/testing/Testing.sol",
  "compiler": {
    "name": "solc",
    "version": "0.6.6+commit.6c089d02.Emscripten.clang"
  },
  "schemaVersion": "3.2.2",
  "updatedAt": "2021-02-16T07:50:39.280Z",
  "networkType": "ethereum",
  "devdoc": {
    "methods": {}
  },
  "userdoc": {
    "methods": {
      "transporterHandlePackage(address,uint256,address)": {
        "notice": "////////////  Transporter ///////////////"
      }
    },
    "notice": "/ New supply chain : supplier -> transporter -> manufacturer -> transporter -> whole-saler -> transporter -> distributor -> transporter -> customer/hospital/pharmacy"
  }
}