{
  "contractName": "SupplyChain",
  "abi": [
    {
      "inputs": [],
      "stateMutability": "nonpayable",
      "type": "constructor"
    },
    {
      "inputs": [
        {
          "internalType": "address",
          "name": "",
          "type": "address"
        }
      ],
      "name": "carriers",
      "outputs": [
        {
          "internalType": "bool",
          "name": "",
          "type": "bool"
        }
      ],
      "stateMutability": "view",
      "type": "function",
      "constant": true
    },
    {
      "inputs": [
        {
          "internalType": "address",
          "name": "",
          "type": "address"
        }
      ],
      "name": "packageMapping",
      "outputs": [
        {
          "internalType": "bool",
          "name": "isUidGenerated",
          "type": "bool"
        },
        {
          "internalType": "uint256",
          "name": "itemid",
          "type": "uint256"
        },
        {
          "internalType": "string",
          "name": "itemname",
          "type": "string"
        },
        {
          "internalType": "string",
          "name": "transitstatus",
          "type": "string"
        },
        {
          "internalType": "uint256",
          "name": "orderstatus",
          "type": "uint256"
        },
        {
          "internalType": "address",
          "name": "customer",
          "type": "address"
        },
        {
          "internalType": "uint256",
          "name": "ordertime",
          "type": "uint256"
        },
        {
          "internalType": "address",
          "name": "carrier1",
          "type": "address"
        },
        {
          "internalType": "uint256",
          "name": "carrier1_time",
          "type": "uint256"
        },
        {
          "internalType": "address",
          "name": "carrier2",
          "type": "address"
        },
        {
          "internalType": "uint256",
          "name": "carrier2_time",
          "type": "uint256"
        },
        {
          "internalType": "address",
          "name": "carrier3",
          "type": "address"
        },
        {
          "internalType": "uint256",
          "name": "carrier3_time",
          "type": "uint256"
        }
      ],
      "stateMutability": "view",
      "type": "function",
      "constant": true
    },
    {
      "inputs": [
        {
          "internalType": "address",
          "name": "_carrierAddress",
          "type": "address"
        }
      ],
      "name": "ManageCarriers",
      "outputs": [
        {
          "internalType": "string",
          "name": "",
          "type": "string"
        }
      ],
      "stateMutability": "nonpayable",
      "type": "function"
    },
    {
      "inputs": [
        {
          "internalType": "address",
          "name": "_uniqueId",
          "type": "address"
        }
      ],
      "name": "CancelOrder",
      "outputs": [
        {
          "internalType": "string",
          "name": "",
          "type": "string"
        }
      ],
      "stateMutability": "nonpayable",
      "type": "function"
    },
    {
      "inputs": [
        {
          "internalType": "address",
          "name": "_uniqueId",
          "type": "address"
        },
        {
          "internalType": "string",
          "name": "_transitStatus",
          "type": "string"
        }
      ],
      "name": "Carrier1Report",
      "outputs": [],
      "stateMutability": "nonpayable",
      "type": "function"
    },
    {
      "inputs": [
        {
          "internalType": "address",
          "name": "_uniqueId",
          "type": "address"
        },
        {
          "internalType": "string",
          "name": "_transitStatus",
          "type": "string"
        }
      ],
      "name": "Carrier2Report",
      "outputs": [],
      "stateMutability": "nonpayable",
      "type": "function"
    },
    {
      "inputs": [
        {
          "internalType": "address",
          "name": "_uniqueId",
          "type": "address"
        },
        {
          "internalType": "string",
          "name": "_transitStatus",
          "type": "string"
        }
      ],
      "name": "Carrier3Report",
      "outputs": [],
      "stateMutability": "nonpayable",
      "type": "function"
    },
    {
      "inputs": [
        {
          "internalType": "uint256",
          "name": "_itemid",
          "type": "uint256"
        },
        {
          "internalType": "string",
          "name": "_itemname",
          "type": "string"
        }
      ],
      "name": "OrderItem",
      "outputs": [
        {
          "internalType": "address",
          "name": "",
          "type": "address"
        }
      ],
      "stateMutability": "nonpayable",
      "type": "function"
    }
  ],
  "bytecode": "0x608060405234801561001057600080fd5b50336000806101000a81548173ffffffffffffffffffffffffffffffffffffffff021916908373ffffffffffffffffffffffffffffffffffffffff160217905550611981806100606000396000f3fe608060405234801561001057600080fd5b50600436106100885760003560e01c806368c093d31161005b57806368c093d31461035c5780637f63441514610586578063a58a781a14610661578063e45e97601461071e57610088565b8063164f45fe1461008d5780633aa239ed146101685780633ef7bd40146102255780635bb9023e14610281575b600080fd5b610166600480360360408110156100a357600080fd5b81019080803573ffffffffffffffffffffffffffffffffffffffff169060200190929190803590602001906401000000008111156100e057600080fd5b8201836020820111156100f257600080fd5b8035906020019184600183028401116401000000008311171561011457600080fd5b91908080601f016020809104026020016040519081016040528093929190818152602001838380828437600081840152601f19601f820116905080830192505050505050509192919290505050610823565b005b6101aa6004803603602081101561017e57600080fd5b81019080803573ffffffffffffffffffffffffffffffffffffffff169060200190929190505050610a44565b6040518080602001828103825283818151815260200191508051906020019080838360005b838110156101ea5780820151818401526020810190506101cf565b50505050905090810190601f1680156102175780820380516001836020036101000a031916815260200191505b509250505060405180910390f35b6102676004803603602081101561023b57600080fd5b81019080803573ffffffffffffffffffffffffffffffffffffffff169060200190929190505050610c4a565b604051808215151515815260200191505060405180910390f35b61035a6004803603604081101561029757600080fd5b81019080803573ffffffffffffffffffffffffffffffffffffffff169060200190929190803590602001906401000000008111156102d457600080fd5b8201836020820111156102e657600080fd5b8035906020019184600183028401116401000000008311171561030857600080fd5b91908080601f016020809104026020016040519081016040528093929190818152602001838380828437600081840152601f19601f820116905080830192505050505050509192919290505050610c6a565b005b61039e6004803603602081101561037257600080fd5b81019080803573ffffffffffffffffffffffffffffffffffffffff169060200190929190505050610ed3565b604051808e1515151581526020018d815260200180602001806020018c81526020018b73ffffffffffffffffffffffffffffffffffffffff1673ffffffffffffffffffffffffffffffffffffffff1681526020018a81526020018973ffffffffffffffffffffffffffffffffffffffff1673ffffffffffffffffffffffffffffffffffffffff1681526020018881526020018773ffffffffffffffffffffffffffffffffffffffff1673ffffffffffffffffffffffffffffffffffffffff1681526020018681526020018573ffffffffffffffffffffffffffffffffffffffff1673ffffffffffffffffffffffffffffffffffffffff16815260200184815260200183810383528e818151815260200191508051906020019080838360005b838110156104d85780820151818401526020810190506104bd565b50505050905090810190601f1680156105055780820380516001836020036101000a031916815260200191505b5083810382528d818151815260200191508051906020019080838360005b8381101561053e578082015181840152602081019050610523565b50505050905090810190601f16801561056b5780820380516001836020036101000a031916815260200191505b509f5050505050505050505050505050505060405180910390f35b61065f6004803603604081101561059c57600080fd5b81019080803573ffffffffffffffffffffffffffffffffffffffff169060200190929190803590602001906401000000008111156105d957600080fd5b8201836020820111156105eb57600080fd5b8035906020019184600183028401116401000000008311171561060d57600080fd5b91908080601f016020809104026020016040519081016040528093929190818152602001838380828437600081840152601f19601f8201169050808301925050505050505091929192905050506110f6565b005b6106a36004803603602081101561067757600080fd5b81019080803573ffffffffffffffffffffffffffffffffffffffff16906020019092919050505061135e565b6040518080602001828103825283818151815260200191508051906020019080838360005b838110156106e35780820151818401526020810190506106c8565b50505050905090810190601f1680156107105780820380516001836020036101000a031916815260200191505b509250505060405180910390f35b6107e16004803603604081101561073457600080fd5b81019080803590602001909291908035906020019064010000000081111561075b57600080fd5b82018360208201111561076d57600080fd5b8035906020019184600183028401116401000000008311171561078f57600080fd5b91908080601f016020809104026020016040519081016040528093929190818152602001838380828437600081840152601f19601f8201169050808301925050505050505091929192905050506114fd565b604051808273ffffffffffffffffffffffffffffffffffffffff1673ffffffffffffffffffffffffffffffffffffffff16815260200191505060405180910390f35b600160008373ffffffffffffffffffffffffffffffffffffffff1673ffffffffffffffffffffffffffffffffffffffff16815260200190815260200160002060000160009054906101000a900460ff1661087c57600080fd5b600260003373ffffffffffffffffffffffffffffffffffffffff1673ffffffffffffffffffffffffffffffffffffffff16815260200190815260200160002060009054906101000a900460ff166108d257600080fd5b6002600160008473ffffffffffffffffffffffffffffffffffffffff1673ffffffffffffffffffffffffffffffffffffffff168152602001908152602001600020600401541461092157600080fd5b80600160008473ffffffffffffffffffffffffffffffffffffffff1673ffffffffffffffffffffffffffffffffffffffff1681526020019081526020016000206003019080519060200190610977929190611879565b5033600160008473ffffffffffffffffffffffffffffffffffffffff1673ffffffffffffffffffffffffffffffffffffffff16815260200190815260200160002060090160006101000a81548173ffffffffffffffffffffffffffffffffffffffff021916908373ffffffffffffffffffffffffffffffffffffffff16021790555042600160008473ffffffffffffffffffffffffffffffffffffffff1673ffffffffffffffffffffffffffffffffffffffff168152602001908152602001600020600a01819055505050565b6060600160008373ffffffffffffffffffffffffffffffffffffffff1673ffffffffffffffffffffffffffffffffffffffff16815260200190815260200160002060000160009054906101000a900460ff16610a9f57600080fd5b3373ffffffffffffffffffffffffffffffffffffffff16600160008473ffffffffffffffffffffffffffffffffffffffff1673ffffffffffffffffffffffffffffffffffffffff16815260200190815260200160002060050160009054906101000a900473ffffffffffffffffffffffffffffffffffffffff1673ffffffffffffffffffffffffffffffffffffffff1614610b3957600080fd5b6004600160008473ffffffffffffffffffffffffffffffffffffffff1673ffffffffffffffffffffffffffffffffffffffff168152602001908152602001600020600401819055506040518060400160405280601081526020017f4f726465722063616e63656c6c65642100000000000000000000000000000000815250600160008473ffffffffffffffffffffffffffffffffffffffff1673ffffffffffffffffffffffffffffffffffffffff1681526020019081526020016000206003019080519060200190610c0c929190611879565b506040518060400160405280601081526020017f4f726465722063616e63656c6c656421000000000000000000000000000000008152509050919050565b60026020528060005260406000206000915054906101000a900460ff1681565b600160008373ffffffffffffffffffffffffffffffffffffffff1673ffffffffffffffffffffffffffffffffffffffff16815260200190815260200160002060000160009054906101000a900460ff16610cc357600080fd5b600260003373ffffffffffffffffffffffffffffffffffffffff1673ffffffffffffffffffffffffffffffffffffffff16815260200190815260200160002060009054906101000a900460ff16610d1957600080fd5b6002600160008473ffffffffffffffffffffffffffffffffffffffff1673ffffffffffffffffffffffffffffffffffffffff1681526020019081526020016000206004015414610d6857600080fd5b80600160008473ffffffffffffffffffffffffffffffffffffffff1673ffffffffffffffffffffffffffffffffffffffff1681526020019081526020016000206003019080519060200190610dbe929190611879565b5033600160008473ffffffffffffffffffffffffffffffffffffffff1673ffffffffffffffffffffffffffffffffffffffff168152602001908152602001600020600b0160006101000a81548173ffffffffffffffffffffffffffffffffffffffff021916908373ffffffffffffffffffffffffffffffffffffffff16021790555042600160008473ffffffffffffffffffffffffffffffffffffffff1673ffffffffffffffffffffffffffffffffffffffff168152602001908152602001600020600c01819055506003600160008473ffffffffffffffffffffffffffffffffffffffff1673ffffffffffffffffffffffffffffffffffffffff168152602001908152602001600020600401819055505050565b60016020528060005260406000206000915090508060000160009054906101000a900460ff1690806001015490806002018054600181600116156101000203166002900480601f016020809104026020016040519081016040528092919081815260200182805460018160011615610100020316600290048015610f985780601f10610f6d57610100808354040283529160200191610f98565b820191906000526020600020905b815481529060010190602001808311610f7b57829003601f168201915b505050505090806003018054600181600116156101000203166002900480601f0160208091040260200160405190810160405280929190818152602001828054600181600116156101000203166002900480156110365780601f1061100b57610100808354040283529160200191611036565b820191906000526020600020905b81548152906001019060200180831161101957829003601f168201915b5050505050908060040154908060050160009054906101000a900473ffffffffffffffffffffffffffffffffffffffff16908060060154908060070160009054906101000a900473ffffffffffffffffffffffffffffffffffffffff16908060080154908060090160009054906101000a900473ffffffffffffffffffffffffffffffffffffffff169080600a01549080600b0160009054906101000a900473ffffffffffffffffffffffffffffffffffffffff169080600c015490508d565b600160008373ffffffffffffffffffffffffffffffffffffffff1673ffffffffffffffffffffffffffffffffffffffff16815260200190815260200160002060000160009054906101000a900460ff1661114f57600080fd5b600260003373ffffffffffffffffffffffffffffffffffffffff1673ffffffffffffffffffffffffffffffffffffffff16815260200190815260200160002060009054906101000a900460ff166111a557600080fd5b60018060008473ffffffffffffffffffffffffffffffffffffffff1673ffffffffffffffffffffffffffffffffffffffff16815260200190815260200160002060040154146111f357600080fd5b80600160008473ffffffffffffffffffffffffffffffffffffffff1673ffffffffffffffffffffffffffffffffffffffff1681526020019081526020016000206003019080519060200190611249929190611879565b5033600160008473ffffffffffffffffffffffffffffffffffffffff1673ffffffffffffffffffffffffffffffffffffffff16815260200190815260200160002060070160006101000a81548173ffffffffffffffffffffffffffffffffffffffff021916908373ffffffffffffffffffffffffffffffffffffffff16021790555042600160008473ffffffffffffffffffffffffffffffffffffffff1673ffffffffffffffffffffffffffffffffffffffff168152602001908152602001600020600801819055506002600160008473ffffffffffffffffffffffffffffffffffffffff1673ffffffffffffffffffffffffffffffffffffffff168152602001908152602001600020600401819055505050565b60603373ffffffffffffffffffffffffffffffffffffffff166000809054906101000a900473ffffffffffffffffffffffffffffffffffffffff1673ffffffffffffffffffffffffffffffffffffffff16146113b957600080fd5b600260008373ffffffffffffffffffffffffffffffffffffffff1673ffffffffffffffffffffffffffffffffffffffff16815260200190815260200160002060009054906101000a900460ff16611467576001600260008473ffffffffffffffffffffffffffffffffffffffff1673ffffffffffffffffffffffffffffffffffffffff16815260200190815260200160002060006101000a81548160ff0219169083151502179055506114c0565b6000600260008473ffffffffffffffffffffffffffffffffffffffff1673ffffffffffffffffffffffffffffffffffffffff16815260200190815260200160002060006101000a81548160ff0219169083151502179055505b6040518060400160405280601a81526020017f43617272696572207374617475732069732075706461746564210000000000008152509050919050565b60008060023342604051602001808373ffffffffffffffffffffffffffffffffffffffff1673ffffffffffffffffffffffffffffffffffffffff1660601b8152601401828152602001925050506040516020818303038152906040526040518082805190602001908083835b6020831061158c5780518252602082019150602081019050602083039250611569565b6001836020036101000a038019825116818451168082178552505050505050905001915050602060405180830381855afa1580156115ce573d6000803e3d6000fd5b5050506040513d60208110156115e357600080fd5b810190808051906020019092919050505060601c905060018060008373ffffffffffffffffffffffffffffffffffffffff1673ffffffffffffffffffffffffffffffffffffffff16815260200190815260200160002060000160006101000a81548160ff02191690831515021790555083600160008373ffffffffffffffffffffffffffffffffffffffff1673ffffffffffffffffffffffffffffffffffffffff1681526020019081526020016000206001018190555082600160008373ffffffffffffffffffffffffffffffffffffffff1673ffffffffffffffffffffffffffffffffffffffff16815260200190815260200160002060020190805190602001906116f0929190611879565b506040518060600160405280602d815260200161191f602d9139600160008373ffffffffffffffffffffffffffffffffffffffff1673ffffffffffffffffffffffffffffffffffffffff168152602001908152602001600020600301908051906020019061175f929190611879565b5060018060008373ffffffffffffffffffffffffffffffffffffffff1673ffffffffffffffffffffffffffffffffffffffff1681526020019081526020016000206004018190555033600160008373ffffffffffffffffffffffffffffffffffffffff1673ffffffffffffffffffffffffffffffffffffffff16815260200190815260200160002060050160006101000a81548173ffffffffffffffffffffffffffffffffffffffff021916908373ffffffffffffffffffffffffffffffffffffffff16021790555042600160008373ffffffffffffffffffffffffffffffffffffffff1673ffffffffffffffffffffffffffffffffffffffff168152602001908152602001600020600601819055508091505092915050565b828054600181600116156101000203166002900490600052602060002090601f016020900481019282601f106118ba57805160ff19168380011785556118e8565b828001600101855582156118e8579182015b828111156118e75782518255916020019190600101906118cc565b5b5090506118f591906118f9565b5090565b61191b91905b808211156119175760008160009055506001016118ff565b5090565b9056fe596f7572207061636b616765206973206f72646572656420616e6420697320756e6465722070726f6365737321a26469706673582212206c73ba063e503ddb138b7100a3579acd9ae3201ed260a8b9a72eaac98ecdda7964736f6c63430006060033",
  "immutableReferences": {},
  "source": "pragma solidity ^0.6.6;\n\ncontract SupplyChain {\n    \n    address Owner;\n    \n    struct package{\n        bool isUidGenerated;\n        uint itemid;\n        string itemname;\n        string transitstatus;\n        uint orderstatus;\n        \n        address customer;\n        uint ordertime;\n        \n        address carrier1;\n        uint carrier1_time;\n        \n        address carrier2;\n        uint carrier2_time;\n        \n        address carrier3;\n        uint carrier3_time;\n        \n    }\n    \n    mapping(address => package) public packageMapping;\n    mapping(address => bool) public carriers;\n    \n    constructor() public {\n        Owner = msg.sender;\n    }\n    \n    modifier onlyOwner(){\n        require(Owner == msg.sender);\n        _;\n    }\n    \n    function ManageCarriers(address _carrierAddress) onlyOwner public returns(string memory){\n        if(!carriers[_carrierAddress]){\n            carriers[_carrierAddress] = true;\n        }else{\n            carriers[_carrierAddress] = false;\n        }\n        \n        return \"Carrier status is updated!\";\n    }\n\n    function CancelOrder(address _uniqueId) public returns (string memory){\n        require(packageMapping[_uniqueId].isUidGenerated);\n        require(packageMapping[_uniqueId].customer == msg.sender);\n        \n        packageMapping[_uniqueId].orderstatus = 4;\n        packageMapping[_uniqueId].transitstatus = \"Order cancelled!\";\n        \n        return \"Order cancelled!\";\n    }\n    \n    function Carrier1Report(address _uniqueId, string memory _transitStatus) public{\n        require(packageMapping[_uniqueId].isUidGenerated);\n        require(carriers[msg.sender]);\n        require(packageMapping[_uniqueId].orderstatus == 1);\n        \n        packageMapping[_uniqueId].transitstatus = _transitStatus;\n        packageMapping[_uniqueId].carrier1 = msg.sender;\n        packageMapping[_uniqueId].carrier1_time = now;\n        packageMapping[_uniqueId].orderstatus = 2;\n        \n    }\n    \n    function Carrier2Report(address _uniqueId, string memory _transitStatus) public{\n        require(packageMapping[_uniqueId].isUidGenerated);\n        require(carriers[msg.sender]);\n        require(packageMapping[_uniqueId].orderstatus == 2);\n        \n        packageMapping[_uniqueId].transitstatus = _transitStatus;\n        packageMapping[_uniqueId].carrier2 = msg.sender;\n        packageMapping[_uniqueId].carrier2_time = now;\n\n    }\n    \n    function Carrier3Report(address _uniqueId, string memory _transitStatus)public{\n        require(packageMapping[_uniqueId].isUidGenerated);\n        require(carriers[msg.sender]);\n        require(packageMapping[_uniqueId].orderstatus == 2);\n        \n        packageMapping[_uniqueId].transitstatus = _transitStatus;\n        packageMapping[_uniqueId].carrier3 = msg.sender;\n        packageMapping[_uniqueId].carrier3_time = now;\n        packageMapping[_uniqueId].orderstatus = 3;\n        \n    }\n\n    \n    function OrderItem(uint _itemid, string memory _itemname) public returns(address){\n        address uniqueId = address(bytes20(sha256(abi.encodePacked(msg.sender, now))));\n        \n        packageMapping[uniqueId].isUidGenerated = true;\n        packageMapping[uniqueId].itemid = _itemid;\n        packageMapping[uniqueId].itemname = _itemname;\n        packageMapping[uniqueId].transitstatus = \"Your package is ordered and is under process!\";\n        packageMapping[uniqueId].orderstatus = 1;\n        \n        packageMapping[uniqueId].customer = msg.sender;\n        packageMapping[uniqueId].ordertime = now;\n    \n        return uniqueId;\n    }    \n}",
  "sourcePath": "/Users/sherwyndsouza/Desktop/Work/Blockchain/Medicine-Supply-Chain/blockchain/src/contracts/SupplyChain.sol",
  "compiler": {
    "name": "solc",
    "version": "0.6.6+commit.6c089d02.Emscripten.clang"
  },
  "schemaVersion": "3.2.2",
  "updatedAt": "2020-08-08T08:47:18.982Z",
  "networkType": "ethereum",
  "devdoc": {
    "methods": {}
  },
  "userdoc": {
    "methods": {}
  }
}