{
  "contractName": "SupplyChain",
  "abi": [
    {
      "inputs": [],
      "stateMutability": "nonpayable",
      "type": "constructor"
    },
    {
      "anonymous": false,
      "inputs": [
        {
          "indexed": true,
          "internalType": "address",
          "name": "_address",
          "type": "address"
        },
        {
          "indexed": false,
          "internalType": "bytes32",
          "name": "name",
          "type": "bytes32"
        }
      ],
      "name": "UserRegister",
      "type": "event"
    },
    {
      "anonymous": false,
      "inputs": [
        {
          "indexed": false,
          "internalType": "address",
          "name": "buyer",
          "type": "address"
        },
        {
          "indexed": true,
          "internalType": "address",
          "name": "seller",
          "type": "address"
        },
        {
          "indexed": false,
          "internalType": "address",
          "name": "packageAddr",
          "type": "address"
        },
        {
          "indexed": false,
          "internalType": "bytes",
          "name": "signature",
          "type": "bytes"
        },
        {
          "indexed": true,
          "internalType": "uint256",
          "name": "timestamp",
          "type": "uint256"
        }
      ],
      "name": "buyEvent",
      "type": "event"
    },
    {
      "anonymous": false,
      "inputs": [
        {
          "indexed": true,
          "internalType": "address",
          "name": "buyer",
          "type": "address"
        },
        {
          "indexed": false,
          "internalType": "address",
          "name": "seller",
          "type": "address"
        },
        {
          "indexed": false,
          "internalType": "address",
          "name": "packageAddr",
          "type": "address"
        },
        {
          "indexed": false,
          "internalType": "bytes",
          "name": "signature",
          "type": "bytes"
        },
        {
          "indexed": true,
          "internalType": "uint256",
          "name": "timestamp",
          "type": "uint256"
        }
      ],
      "name": "receivedEvent",
      "type": "event"
    },
    {
      "anonymous": false,
      "inputs": [
        {
          "indexed": true,
          "internalType": "address",
          "name": "buyer",
          "type": "address"
        },
        {
          "indexed": false,
          "internalType": "address",
          "name": "seller",
          "type": "address"
        },
        {
          "indexed": false,
          "internalType": "address",
          "name": "packageAddr",
          "type": "address"
        },
        {
          "indexed": false,
          "internalType": "bytes",
          "name": "signature",
          "type": "bytes"
        },
        {
          "indexed": true,
          "internalType": "uint256",
          "name": "timestamp",
          "type": "uint256"
        }
      ],
      "name": "respondEvent",
      "type": "event"
    },
    {
      "anonymous": false,
      "inputs": [
        {
          "indexed": false,
          "internalType": "address",
          "name": "seller",
          "type": "address"
        },
        {
          "indexed": false,
          "internalType": "address",
          "name": "buyer",
          "type": "address"
        },
        {
          "indexed": true,
          "internalType": "address",
          "name": "packageAddr",
          "type": "address"
        },
        {
          "indexed": false,
          "internalType": "bytes",
          "name": "signature",
          "type": "bytes"
        },
        {
          "indexed": true,
          "internalType": "uint256",
          "name": "timestamp",
          "type": "uint256"
        }
      ],
      "name": "sendEvent",
      "type": "event"
    },
    {
      "inputs": [
        {
          "internalType": "address",
          "name": "",
          "type": "address"
        },
        {
          "internalType": "uint256",
          "name": "",
          "type": "uint256"
        }
      ],
      "name": "MedicineDtoC",
      "outputs": [
        {
          "internalType": "address",
          "name": "",
          "type": "address"
        }
      ],
      "stateMutability": "view",
      "type": "function",
      "constant": true
    },
    {
      "inputs": [
        {
          "internalType": "address",
          "name": "",
          "type": "address"
        }
      ],
      "name": "MedicineDtoCTxContract",
      "outputs": [
        {
          "internalType": "address",
          "name": "",
          "type": "address"
        }
      ],
      "stateMutability": "view",
      "type": "function",
      "constant": true
    },
    {
      "inputs": [
        {
          "internalType": "address",
          "name": "",
          "type": "address"
        },
        {
          "internalType": "uint256",
          "name": "",
          "type": "uint256"
        }
      ],
      "name": "MedicineWtoD",
      "outputs": [
        {
          "internalType": "address",
          "name": "",
          "type": "address"
        }
      ],
      "stateMutability": "view",
      "type": "function",
      "constant": true
    },
    {
      "inputs": [
        {
          "internalType": "address",
          "name": "",
          "type": "address"
        }
      ],
      "name": "MedicineWtoDTxContract",
      "outputs": [
        {
          "internalType": "address",
          "name": "",
          "type": "address"
        }
      ],
      "stateMutability": "view",
      "type": "function",
      "constant": true
    },
    {
      "inputs": [
        {
          "internalType": "address",
          "name": "",
          "type": "address"
        },
        {
          "internalType": "uint256",
          "name": "",
          "type": "uint256"
        }
      ],
      "name": "MedicinesAtDistributor",
      "outputs": [
        {
          "internalType": "address",
          "name": "",
          "type": "address"
        }
      ],
      "stateMutability": "view",
      "type": "function",
      "constant": true
    },
    {
      "inputs": [
        {
          "internalType": "address",
          "name": "",
          "type": "address"
        },
        {
          "internalType": "uint256",
          "name": "",
          "type": "uint256"
        }
      ],
      "name": "MedicinesAtWholesaler",
      "outputs": [
        {
          "internalType": "address",
          "name": "",
          "type": "address"
        }
      ],
      "stateMutability": "view",
      "type": "function",
      "constant": true
    },
    {
      "inputs": [
        {
          "internalType": "address",
          "name": "",
          "type": "address"
        },
        {
          "internalType": "uint256",
          "name": "",
          "type": "uint256"
        }
      ],
      "name": "manufacturerMedicines",
      "outputs": [
        {
          "internalType": "address",
          "name": "",
          "type": "address"
        }
      ],
      "stateMutability": "view",
      "type": "function",
      "constant": true
    },
    {
      "inputs": [
        {
          "internalType": "address",
          "name": "",
          "type": "address"
        },
        {
          "internalType": "uint256",
          "name": "",
          "type": "uint256"
        }
      ],
      "name": "manufacturerRawMaterials",
      "outputs": [
        {
          "internalType": "address",
          "name": "",
          "type": "address"
        }
      ],
      "stateMutability": "view",
      "type": "function",
      "constant": true
    },
    {
      "inputs": [
        {
          "internalType": "address",
          "name": "",
          "type": "address"
        },
        {
          "internalType": "uint256",
          "name": "",
          "type": "uint256"
        }
      ],
      "name": "supplierRawMaterials",
      "outputs": [
        {
          "internalType": "address",
          "name": "",
          "type": "address"
        }
      ],
      "stateMutability": "view",
      "type": "function",
      "constant": true
    },
    {
      "inputs": [
        {
          "internalType": "address",
          "name": "",
          "type": "address"
        }
      ],
      "name": "userInfo",
      "outputs": [
        {
          "internalType": "bytes32",
          "name": "name",
          "type": "bytes32"
        },
        {
          "internalType": "enum SupplyChain.roles",
          "name": "role",
          "type": "uint8"
        },
        {
          "internalType": "address",
          "name": "userAddr",
          "type": "address"
        }
      ],
      "stateMutability": "view",
      "type": "function",
      "constant": true
    },
    {
      "inputs": [
        {
          "internalType": "address",
          "name": "buyer",
          "type": "address"
        },
        {
          "internalType": "address",
          "name": "seller",
          "type": "address"
        },
        {
          "internalType": "address",
          "name": "packageAddr",
          "type": "address"
        },
        {
          "internalType": "bytes",
          "name": "signature",
          "type": "bytes"
        }
      ],
      "name": "requestProduct",
      "outputs": [],
      "stateMutability": "nonpayable",
      "type": "function"
    },
    {
      "inputs": [
        {
          "internalType": "address",
          "name": "buyer",
          "type": "address"
        },
        {
          "internalType": "address",
          "name": "seller",
          "type": "address"
        },
        {
          "internalType": "address",
          "name": "packageAddr",
          "type": "address"
        },
        {
          "internalType": "bytes",
          "name": "signature",
          "type": "bytes"
        }
      ],
      "name": "respondToEntity",
      "outputs": [],
      "stateMutability": "nonpayable",
      "type": "function"
    },
    {
      "inputs": [
        {
          "internalType": "address",
          "name": "buyer",
          "type": "address"
        },
        {
          "internalType": "address",
          "name": "seller",
          "type": "address"
        },
        {
          "internalType": "address",
          "name": "packageAddr",
          "type": "address"
        },
        {
          "internalType": "bytes",
          "name": "signature",
          "type": "bytes"
        }
      ],
      "name": "sendPackageToEntity",
      "outputs": [],
      "stateMutability": "nonpayable",
      "type": "function"
    },
    {
      "inputs": [
        {
          "internalType": "bytes32",
          "name": "name",
          "type": "bytes32"
        },
        {
          "internalType": "string[]",
          "name": "loc",
          "type": "string[]"
        },
        {
          "internalType": "uint256",
          "name": "role",
          "type": "uint256"
        },
        {
          "internalType": "address",
          "name": "_userAddr",
          "type": "address"
        }
      ],
      "name": "registerUser",
      "outputs": [],
      "stateMutability": "nonpayable",
      "type": "function"
    },
    {
      "inputs": [
        {
          "internalType": "uint256",
          "name": "_role",
          "type": "uint256"
        },
        {
          "internalType": "address",
          "name": "_addr",
          "type": "address"
        }
      ],
      "name": "changeUserRole",
      "outputs": [
        {
          "internalType": "string",
          "name": "",
          "type": "string"
        }
      ],
      "stateMutability": "nonpayable",
      "type": "function"
    },
    {
      "inputs": [
        {
          "internalType": "address",
          "name": "_address",
          "type": "address"
        }
      ],
      "name": "getUserInfo",
      "outputs": [
        {
          "components": [
            {
              "internalType": "bytes32",
              "name": "name",
              "type": "bytes32"
            },
            {
              "internalType": "string[]",
              "name": "userLoc",
              "type": "string[]"
            },
            {
              "internalType": "enum SupplyChain.roles",
              "name": "role",
              "type": "uint8"
            },
            {
              "internalType": "address",
              "name": "userAddr",
              "type": "address"
            }
          ],
          "internalType": "struct SupplyChain.userData",
          "name": "",
          "type": "tuple"
        }
      ],
      "stateMutability": "view",
      "type": "function",
      "constant": true
    },
    {
      "inputs": [
        {
          "internalType": "bytes32",
          "name": "_description",
          "type": "bytes32"
        },
        {
          "internalType": "uint256",
          "name": "_quantity",
          "type": "uint256"
        },
        {
          "internalType": "address",
          "name": "_transporterAddr",
          "type": "address"
        },
        {
          "internalType": "address",
          "name": "_manufacturerAddr",
          "type": "address"
        }
      ],
      "name": "createRawMaterialPackage",
      "outputs": [
        {
          "internalType": "address",
          "name": "",
          "type": "address"
        }
      ],
      "stateMutability": "nonpayable",
      "type": "function"
    },
    {
      "inputs": [],
      "name": "getNoOfPackagesOfSupplier",
      "outputs": [
        {
          "internalType": "uint256",
          "name": "",
          "type": "uint256"
        }
      ],
      "stateMutability": "view",
      "type": "function",
      "constant": true
    },
    {
      "inputs": [],
      "name": "getAllPackages",
      "outputs": [
        {
          "internalType": "address[]",
          "name": "",
          "type": "address[]"
        }
      ],
      "stateMutability": "view",
      "type": "function",
      "constant": true
    },
    {
      "inputs": [
        {
          "internalType": "address",
          "name": "_addr",
          "type": "address"
        },
        {
          "internalType": "uint256",
          "name": "transportertype",
          "type": "uint256"
        },
        {
          "internalType": "address",
          "name": "cid",
          "type": "address"
        }
      ],
      "name": "transporterHandlePackage",
      "outputs": [],
      "stateMutability": "nonpayable",
      "type": "function"
    },
    {
      "inputs": [
        {
          "internalType": "address",
          "name": "_addr",
          "type": "address"
        },
        {
          "internalType": "address",
          "name": "_manufacturerAddress",
          "type": "address"
        },
        {
          "internalType": "address",
          "name": "_sellerAddr",
          "type": "address"
        },
        {
          "internalType": "bytes",
          "name": "signature",
          "type": "bytes"
        }
      ],
      "name": "manufacturerReceivedPackage",
      "outputs": [],
      "stateMutability": "nonpayable",
      "type": "function"
    },
    {
      "inputs": [
        {
          "internalType": "address",
          "name": "_manufacturerAddr",
          "type": "address"
        },
        {
          "internalType": "bytes32",
          "name": "_description",
          "type": "bytes32"
        },
        {
          "internalType": "address[]",
          "name": "_rawAddr",
          "type": "address[]"
        },
        {
          "internalType": "uint256",
          "name": "_quantity",
          "type": "uint256"
        },
        {
          "internalType": "address[]",
          "name": "_transporterAddr",
          "type": "address[]"
        }
      ],
      "name": "manufacturerCreatesMedicine",
      "outputs": [],
      "stateMutability": "nonpayable",
      "type": "function"
    },
    {
      "inputs": [],
      "name": "getAllCreatedMedicines",
      "outputs": [
        {
          "internalType": "address[]",
          "name": "",
          "type": "address[]"
        }
      ],
      "stateMutability": "view",
      "type": "function",
      "constant": true
    },
    {
      "inputs": [
        {
          "internalType": "address",
          "name": "_address",
          "type": "address"
        },
        {
          "internalType": "address",
          "name": "_sellerAddr",
          "type": "address"
        },
        {
          "internalType": "bytes",
          "name": "signature",
          "type": "bytes"
        }
      ],
      "name": "wholesalerReceivedMedicine",
      "outputs": [],
      "stateMutability": "nonpayable",
      "type": "function"
    },
    {
      "inputs": [
        {
          "internalType": "address",
          "name": "_address",
          "type": "address"
        },
        {
          "internalType": "address",
          "name": "transporter",
          "type": "address"
        },
        {
          "internalType": "address",
          "name": "receiver",
          "type": "address"
        }
      ],
      "name": "transferMedicineWtoD",
      "outputs": [],
      "stateMutability": "nonpayable",
      "type": "function"
    },
    {
      "inputs": [
        {
          "internalType": "uint256",
          "name": "index",
          "type": "uint256"
        }
      ],
      "name": "getBatchIdByIndexWD",
      "outputs": [
        {
          "internalType": "address",
          "name": "packageID",
          "type": "address"
        }
      ],
      "stateMutability": "view",
      "type": "function",
      "constant": true
    },
    {
      "inputs": [
        {
          "internalType": "address",
          "name": "_address",
          "type": "address"
        }
      ],
      "name": "getSubContractWD",
      "outputs": [
        {
          "internalType": "address",
          "name": "SubContractWD",
          "type": "address"
        }
      ],
      "stateMutability": "view",
      "type": "function",
      "constant": true
    },
    {
      "inputs": [],
      "name": "getAllMedicinesAtWholesaler",
      "outputs": [
        {
          "internalType": "address[]",
          "name": "",
          "type": "address[]"
        }
      ],
      "stateMutability": "view",
      "type": "function",
      "constant": true
    },
    {
      "inputs": [
        {
          "internalType": "address",
          "name": "_address",
          "type": "address"
        },
        {
          "internalType": "address",
          "name": "cid",
          "type": "address"
        },
        {
          "internalType": "address",
          "name": "_sellerAddr",
          "type": "address"
        },
        {
          "internalType": "bytes",
          "name": "signature",
          "type": "bytes"
        }
      ],
      "name": "distributorReceivedMedicine",
      "outputs": [],
      "stateMutability": "nonpayable",
      "type": "function"
    },
    {
      "inputs": [
        {
          "internalType": "address",
          "name": "_address",
          "type": "address"
        },
        {
          "internalType": "address",
          "name": "transporter",
          "type": "address"
        },
        {
          "internalType": "address",
          "name": "receiver",
          "type": "address"
        }
      ],
      "name": "distributorTransferMedicinetoCustomer",
      "outputs": [],
      "stateMutability": "nonpayable",
      "type": "function"
    },
    {
      "inputs": [],
      "name": "getBatchesCountDC",
      "outputs": [
        {
          "internalType": "uint256",
          "name": "count",
          "type": "uint256"
        }
      ],
      "stateMutability": "view",
      "type": "function",
      "constant": true
    },
    {
      "inputs": [
        {
          "internalType": "uint256",
          "name": "index",
          "type": "uint256"
        }
      ],
      "name": "getBatchIdByIndexDC",
      "outputs": [
        {
          "internalType": "address",
          "name": "packageID",
          "type": "address"
        }
      ],
      "stateMutability": "view",
      "type": "function",
      "constant": true
    },
    {
      "inputs": [
        {
          "internalType": "address",
          "name": "_address",
          "type": "address"
        }
      ],
      "name": "getSubContractDC",
      "outputs": [
        {
          "internalType": "address",
          "name": "SubContractDP",
          "type": "address"
        }
      ],
      "stateMutability": "view",
      "type": "function",
      "constant": true
    },
    {
      "inputs": [],
      "name": "getAllMedicinesAtDistributor",
      "outputs": [
        {
          "internalType": "address[]",
          "name": "",
          "type": "address[]"
        }
      ],
      "stateMutability": "view",
      "type": "function",
      "constant": true
    },
    {
      "inputs": [
        {
          "internalType": "address",
          "name": "p",
          "type": "address"
        },
        {
          "internalType": "bytes32",
          "name": "hash",
          "type": "bytes32"
        },
        {
          "internalType": "uint8",
          "name": "v",
          "type": "uint8"
        },
        {
          "internalType": "bytes32",
          "name": "r",
          "type": "bytes32"
        },
        {
          "internalType": "bytes32",
          "name": "s",
          "type": "bytes32"
        }
      ],
      "name": "verify",
      "outputs": [
        {
          "internalType": "bool",
          "name": "",
          "type": "bool"
        }
      ],
      "stateMutability": "pure",
      "type": "function",
      "constant": true
    }
  ],
  "bytecode": "0x608060405234801561001057600080fd5b50600080546001600160a01b03191633179055615a3b806100326000396000f3fe60806040523480156200001157600080fd5b5060043610620001fc5760003560e01c80638dfa742d116200011d578063c22470ea11620000ab578063c22470ea1462000497578063cd55152e14620004b0578063d06f7b5514620004ba578063e0cf92fe14620004d1578063e3938b7014620004e8578063f06822d814620004f2578063fc7e01f31462000509578063fd302c351462000520578063ff2b065a146200053757620001fc565b80638dfa742d14620003c65780639100978614620003dd5780639659803814620004035780639af035a3146200041a578063a205a1231462000431578063a999cca1146200043b578063b0fc028d1462000452578063b8b16ca31462000469578063be7ef9c0146200048057620001fc565b80633668669a116200019b5780633668669a14620002e6578063381cb0dc14620002f0578063412afbaf1462000307578063506535f3146200031e57806362c1fe3914620003445780636386c1c7146200035b578063798a826f14620003815780637a0689f014620003985780638ccc8db714620003af57620001fc565b8063050e70db146200020157806306db832414620002305780630a421f0f1462000247578063164bcd5b14620002605780631959a00214620002775780631f90ddaf146200029f57806327ddcd2514620002b85780633475901614620002cf575b600080fd5b620002186200021236600462001e2a565b6200054e565b6040516200022791906200214a565b60405180910390f35b620002186200024136600462001e2a565b62000584565b620002516200059e565b60405162000227919062002263565b620002186200027136600462002030565b62000673565b6200028e6200028836600462001be7565b620006f9565b60405162000227939291906200228c565b620002b6620002b036600462001f25565b62000725565b005b620002b6620002c936600462001d41565b6200082a565b62000218620002e036600462001be7565b620008b1565b62000251620008cf565b620002b66200030136600462001cda565b6200099c565b620002186200031836600462001e2a565b62000ad8565b620003356200032f36600462001dd0565b62000af2565b60405162000227919062002278565b620002186200035536600462001be7565b62000b65565b620003726200036c36600462001be7565b62000b83565b604051620002279190620024ac565b620002186200039236600462001be7565b62000cd8565b620002b6620003a936600462001c5e565b62000cf3565b62000218620003c036600462001e2a565b62000fba565b62000218620003d736600462001e2a565b62000fd4565b620003f4620003ee36600462002049565b62000fee565b604051620002279190620022db565b620002b66200041436600462001c5e565b6200107d565b620002186200042b36600462002030565b62001148565b62000251620011aa565b620002186200044c36600462001e2a565b62001277565b620002186200046336600462001be7565b62001291565b620002b66200047a36600462001c5e565b620012ac565b620002b66200049136600462001e58565b620012ec565b620004a16200143c565b60405162000227919062002283565b620004a16200144f565b620002b6620004cb36600462001c5e565b620014a9565b620002b6620004e236600462001c5e565b620014e9565b6200025162001529565b620002b66200050336600462001c0d565b620015f6565b620002186200051a36600462001fe2565b62001691565b620002186200053136600462001e2a565b62001791565b620002b66200054836600462001c0d565b620017ab565b600660205281600052604060002081815481106200056857fe5b6000918252602090912001546001600160a01b03169150829050565b600260205281600052604060002081815481106200056857fe5b3360009081526002602052604090205460609081816001600160401b0381118015620005c957600080fd5b50604051908082528060200260200182016040528015620005f4578160200160208202803683370190505b50905060005b828110156200066b573360009081526002602052604090208054829081106200061f57fe5b9060005260206000200160009054906101000a90046001600160a01b03168282815181106200064a57fe5b6001600160a01b0390921660209283029190910190910152600101620005fa565b509150505b90565b600060053360009081526001602052604090206002015460ff1660068111156200069957fe5b14620006c25760405162461bcd60e51b8152600401620006b99062002359565b60405180910390fd5b336000908152600960205260409020805483908110620006de57fe5b6000918252602090912001546001600160a01b031692915050565b6001602052600090815260409020805460029091015460ff81169061010090046001600160a01b031683565b6000546001600160a01b031633146200073d57600080fd5b6001600160a01b03811660009081526001602081815260409092208681558551620007719391909201919086019062001917565b508160068111156200077f57fe5b6001600160a01b03821660009081526001602081905260409091206002018054909160ff1990911690836006811115620007b557fe5b02179055506001600160a01b038116600081815260016020526040908190206002018054610100600160a81b0319166101008402179055517f33a7170f028b1e4f5ba321064a00ed820856a920c7f9c6636fbcf385427b1b0f906200081c90879062002283565b60405180910390a250505050565b600085858585856040516200083f906200197b565b6200084f95949392919062002214565b604051809103906000f0801580156200086c573d6000803e3d6000fd5b506001600160a01b0396871660009081526004602090815260408220805460018101825590835291200180546001600160a01b03191691909716179095555050505050565b6001600160a01b039081166000908152600760205260409020541690565b3360009081526005602052604090205460609081816001600160401b0381118015620008fa57600080fd5b5060405190808252806020026020018201604052801562000925578160200160208202803683370190505b50905060005b828110156200066b573360009081526005602052604090208054829081106200095057fe5b9060005260206000200160009054906101000a90046001600160a01b03168282815181106200097b57fe5b6001600160a01b03909216602092830291909101909101526001016200092b565b60043360009081526001602052604090206002015460ff166006811115620009c057fe5b14620009e05760405162461bcd60e51b8152600401620006b990620023a1565b6040516307fb74db60e21b81526000906001600160a01b03851690631fedd36c9062000a119033906004016200214a565b602060405180830381600087803b15801562000a2c57600080fd5b505af115801562000a41573d6000803e3d6000fd5b505050506040513d601f19601f8201168201806040525081019062000a67919062001f0c565b3360008181526005602090815260408083208054600181018255908452919092200180546001600160a01b0319166001600160a01b038916179055519192504291600080516020620059e68339815191529062000aca90879089908890620021dd565b60405180910390a350505050565b600560205281600052604060002081815481106200056857fe5b6000856001600160a01b03166001868686866040516000815260200160405260405162000b239493929190620022bd565b6020604051602081039080840390855afa15801562000b46573d6000803e3d6000fd5b505050602060405103516001600160a01b031614905095945050505050565b6001600160a01b039081166000908152600a60205260409020541690565b62000b8d62001989565b6001600160a01b0382166000908152600160208181526040808420815160808101835281548152938101805483518186028101860190945280845294959194868501949192909184015b8282101562000c885760008481526020908190208301805460408051601f600260001961010060018716150201909416939093049283018590048502810185019091528181529283018282801562000c735780601f1062000c475761010080835404028352916020019162000c73565b820191906000526020600020905b81548152906001019060200180831162000c5557829003601f168201915b50505050508152602001906001019062000bd7565b50505090825250600282015460209091019060ff16600681111562000ca957fe5b600681111562000cb557fe5b81526002919091015461010090046001600160a01b031660209091015292915050565b600a602052600090815260409020546001600160a01b031681565b60053360009081526001602052604090206002015460ff16600681111562000d1757fe5b14801562000da55750836001600160a01b031663abb428a66040518163ffffffff1660e01b815260040160606040518083038186803b15801562000d5a57600080fd5b505afa15801562000d6f573d6000803e3d6000fd5b505050506040513d601f19601f8201168201806040525081019062000d95919062001e93565b602001516001600160a01b031633145b62000dc45760405162461bcd60e51b8152600401620006b990620022f0565b6040516307fb74db60e21b81526000906001600160a01b03861690631fedd36c9062000df59033906004016200214a565b602060405180830381600087803b15801562000e1057600080fd5b505af115801562000e25573d6000803e3d6000fd5b505050506040513d601f19601f8201168201806040525081019062000e4b919062001f0c565b9050806002141562000f7c57336000908152600860209081526040808320805460018101825590845291832090910180546001600160a01b0319166001600160a01b03891690811790915581516355da145360e11b81529151909163abb428a6916004808301926060929190829003018186803b15801562000ecc57600080fd5b505afa15801562000ee1573d6000803e3d6000fd5b505050506040513d601f19601f8201168201806040525081019062000f07919062001e93565b516001600160a01b03161462000f7c5760405163d7dcbe3b60e01b81526001600160a01b0385169063d7dcbe3b9062000f47908890339060040162002198565b600060405180830381600087803b15801562000f6257600080fd5b505af115801562000f77573d6000803e3d6000fd5b505050505b42336001600160a01b0316600080516020620059e683398151915285888660405162000fab93929190620021dd565b60405180910390a35050505050565b600360205281600052604060002081815481106200056857fe5b600860205281600052604060002081815481106200056857fe5b6000546060906001600160a01b031633146200100957600080fd5b8260068111156200101657fe5b6001600160a01b03831660009081526001602081905260409091206002018054909160ff19909116908360068111156200104c57fe5b02179055505060408051808201909152600d81526c526f6c6520557064617465642160981b60208201525b92915050565b604051630a57332d60e31b81526001600160a01b038516906352b9996890620010ab9086906004016200214a565b600060405180830381600087803b158015620010c657600080fd5b505af1158015620010db573d6000803e3d6000fd5b505050506001600160a01b0383811660009081526003602090815260408083208054600181018255908452919092200180546001600160a01b031916928716929092179091555142903390600080516020620059e68339815191529062000aca90869089908790620021dd565b600060043360009081526001602052604090206002015460ff1660068111156200116e57fe5b146200118e5760405162461bcd60e51b8152600401620006b990620023e7565b336000908152600660205260409020805483908110620006de57fe5b3360009081526004602052604090205460609081816001600160401b0381118015620011d557600080fd5b5060405190808252806020026020018201604052801562001200578160200160208202803683370190505b50905060005b828110156200066b573360009081526004602052604090208054829081106200122b57fe5b9060005260206000200160009054906101000a90046001600160a01b03168282815181106200125657fe5b6001600160a01b039092166020928302919091019091015260010162001206565b600460205281600052604060002081815481106200056857fe5b6007602052600090815260409020546001600160a01b031681565b42836001600160a01b03167f22561ca0666e99052dd8231a6c5c337204ed5658c357aa6afcd53c207acfac6786858560405162000aca93929190620021dd565b60023360009081526001602052604090206002015460ff1660068111156200131057fe5b14620013305760405162461bcd60e51b8152600401620006b9906200242e565b60008211620013535760405162461bcd60e51b8152600401620006b99062002475565b8160011415620013c55760405163638e9a3d60e01b81526001600160a01b0384169063638e9a3d906200138b9033906004016200214a565b600060405180830381600087803b158015620013a657600080fd5b505af1158015620013bb573d6000803e3d6000fd5b5050505062001437565b8160021415620013fd5760405163ac42a41560e01b81526001600160a01b0384169063ac42a415906200138b9033906004016200214a565b81600314156200143757604051630887851b60e31b81526001600160a01b0382169063443c28d8906200138b908690339060040162002198565b505050565b3360009081526002602052604090205490565b600060053360009081526001602052604090206002015460ff1660068111156200147557fe5b14620014955760405162461bcd60e51b8152600401620006b99062002359565b503360009081526009602052604090205490565b42826001600160a01b03167f31f87de04fd141167b8131be7a8ccb2bac63361a15671c96d90c39ddc9ef909d85878560405162000aca93929190620021dd565b42846001600160a01b03167f9151271dfe612a18bf915ee1609e6f94f62fd775c704a0ae2ef091519f0c9b3985858560405162000aca93929190620021dd565b3360009081526008602052604090205460609081816001600160401b03811180156200155457600080fd5b506040519080825280602002602001820160405280156200157f578160200160208202803683370190505b50905060005b828110156200066b57336000908152600860205260409020805482908110620015aa57fe5b9060005260206000200160009054906101000a90046001600160a01b0316828281518110620015d557fe5b6001600160a01b039092166020928302919091019091015260010162001585565b6000833384846040516200160a90620019b1565b620016199493929190620021b2565b604051809103906000f08015801562001636573d6000803e3d6000fd5b5033600090815260066020908152604080832080546001810182559084528284200180546001600160a01b039586166001600160a01b0319918216811790925598909416835260079091529020805490951617909355505050565b6000803360023342604051602001620016ac9291906200210a565b60408051601f1981840301815290829052620016c8916200212c565b602060405180830381855afa158015620016e6573d6000803e3d6000fd5b5050506040513d601f19601f820116820180604052508101906200170b919062001f0c565b60601c878787876040516200172090620019bf565b62001731969594939291906200215e565b604051809103906000f0801580156200174e573d6000803e3d6000fd5b503360009081526002602090815260408220805460018101825590835291200180546001600160a01b0319166001600160a01b0383161790559695505050505050565b600960205281600052604060002081815481106200056857fe5b60053360009081526001602052604090206002015460ff166006811115620017cf57fe5b1480156200185d5750826001600160a01b031663abb428a66040518163ffffffff1660e01b815260040160606040518083038186803b1580156200181257600080fd5b505afa15801562001827573d6000803e3d6000fd5b505050506040513d601f19601f820116820180604052508101906200184d919062001e93565b602001516001600160a01b031633145b6200187c5760405162461bcd60e51b8152600401620006b990620022f0565b6000833384846040516200189090620019cd565b6200189f9493929190620021b2565b604051809103906000f080158015620018bc573d6000803e3d6000fd5b5033600090815260096020908152604080832080546001810182559084528284200180546001600160a01b039586166001600160a01b03199182168117909255989094168352600a9091529020805490951617909355505050565b82805482825590600052602060002090810192821562001969579160200282015b8281111562001969578251805162001958918491602090910190620019db565b509160200191906001019062001938565b506200197792915062001a5c565b5090565b611ac080620025ea83390190565b6040805160808101825260008082526060602083015290918201908152600060209091015290565b6103b880620040aa83390190565b6111c8806200446283390190565b6103bc806200562a83390190565b828054600181600116156101000203166002900490600052602060002090601f016020900481019282601f1062001a1e57805160ff191683800117855562001a4e565b8280016001018555821562001a4e579182015b8281111562001a4e57825182559160200191906001019062001a31565b506200197792915062001a84565b6200067091905b808211156200197757600062001a7a828262001aa1565b5060010162001a63565b6200067091905b8082111562001977576000815560010162001a8b565b50805460018160011615610100020316600290046000825580601f1062001ac9575062001ae9565b601f01602090049060005260206000209081019062001ae9919062001a84565b50565b80356200107781620025d3565b600082601f83011262001b0a578081fd5b813562001b2162001b1b8262002575565b6200254e565b81815291506020808301908481018184028601820187101562001b4357600080fd5b60005b8481101562001b6f57813562001b5c81620025d3565b8452928201929082019060010162001b46565b505050505092915050565b600082601f83011262001b8b578081fd5b81356001600160401b0381111562001ba1578182fd5b62001bb6601f8201601f19166020016200254e565b915080825283602082850101111562001bce57600080fd5b8060208401602084013760009082016020015292915050565b60006020828403121562001bf9578081fd5b813562001c0681620025d3565b9392505050565b60008060006060848603121562001c22578182fd5b833562001c2f81620025d3565b9250602084013562001c4181620025d3565b9150604084013562001c5381620025d3565b809150509250925092565b6000806000806080858703121562001c74578081fd5b843562001c8181620025d3565b9350602085013562001c9381620025d3565b9250604085013562001ca581620025d3565b915060608501356001600160401b0381111562001cc0578182fd5b62001cce8782880162001b7a565b91505092959194509250565b60008060006060848603121562001cef578283fd5b833562001cfc81620025d3565b9250602084013562001d0e81620025d3565b915060408401356001600160401b0381111562001d29578182fd5b62001d378682870162001b7a565b9150509250925092565b600080600080600060a0868803121562001d59578081fd5b853562001d6681620025d3565b94506020860135935060408601356001600160401b038082111562001d89578283fd5b62001d9789838a0162001af9565b945060608801359350608088013591508082111562001db4578283fd5b5062001dc38882890162001af9565b9150509295509295909350565b600080600080600060a0868803121562001de8578081fd5b853562001df581620025d3565b945060208601359350604086013560ff8116811462001e12578182fd5b94979396509394606081013594506080013592915050565b6000806040838503121562001e3d578182fd5b823562001e4a81620025d3565b946020939093013593505050565b60008060006060848603121562001e6d578081fd5b833562001e7a81620025d3565b925060208401359150604084013562001c5381620025d3565b60006060828403121562001ea5578081fd5b82601f83011262001eb4578081fd5b62001ec060606200254e565b80838560608601111562001ed2578384fd5b835b600381101562001f0157815162001eeb81620025d3565b8452602093840193919091019060010162001ed4565b509095945050505050565b60006020828403121562001f1e578081fd5b5051919050565b6000806000806080858703121562001f3b578182fd5b843593506020808601356001600160401b0381111562001f59578384fd5b80870188601f82011262001f6b578485fd5b8035915062001f7e62001b1b8362002575565b82815283810190828501875b8581101562001fb75762001fa48d88843588010162001b7a565b8452928601929086019060010162001f8a565b505080975050505050506040850135915062001fd7866060870162001aec565b905092959194509250565b6000806000806080858703121562001ff8578182fd5b843593506020850135925060408501356200201381620025d3565b915060608501356200202581620025d3565b939692955090935050565b60006020828403121562002042578081fd5b5035919050565b600080604083850312156200205c578182fd5b8235915060208301356200207081620025d3565b809150509250929050565b6001600160a01b03169052565b6000815180845260208085019450808401835b83811015620020c25781516001600160a01b0316875295820195908201906001016200209b565b509495945050505050565b60008151808452620020e781602086016020860162002595565b601f01601f19169290920160200192915050565b6200210681620025c8565b9052565b60609290921b6bffffffffffffffffffffffff19168252601482015260340190565b600082516200214081846020870162002595565b9190910192915050565b6001600160a01b0391909116815260200190565b6001600160a01b0396871681529486166020860152604085019390935260608401919091528316608083015290911660a082015260c00190565b6001600160a01b0392831681529116602082015260400190565b6001600160a01b03948516815292841660208401529083166040830152909116606082015260800190565b6001600160a01b038481168252831660208201526060604082018190526000906200220b90830184620020cd565b95945050505050565b600060018060a01b038716825285602083015260a060408301526200223d60a083018662002088565b846060840152828103608084015262002257818562002088565b98975050505050505050565b60006020825262001c06602083018462002088565b901515815260200190565b90815260200190565b838152606081016200229e84620025c8565b60208201939093526001600160a01b0391909116604090910152919050565b93845260ff9290921660208401526040830152606082015260800190565b60006020825262001c066020830184620020cd565b60208082526043908201527f4f6e6c79204469737472696275746f72206f722063757272656e74206f776e6560408201527f72206f66207061636b6167652063616e2063616c6c20746869732066756e637460608201526234b7b760e91b608082015260a00190565b60208082526028908201527f4f6e6c79204469737472696275746f722043616e2063616c6c207468697320666040820152673ab731ba34b7b71760c11b606082015260800190565b60208082526026908201527f4f6e6c792057686f6c6573616c65722063616e2063616c6c20746869732066756040820152653731ba34b7b760d11b606082015260800190565b60208082526027908201527f4f6e6c792057686f6c6573616c65722043616e2063616c6c20746869732066756040820152663731ba34b7b71760c91b606082015260800190565b60208082526027908201527f4f6e6c79205472616e73706f727465722063616e2063616c6c207468697320666040820152663ab731ba34b7b760c91b606082015260800190565b6020808252601d908201527f5472616e73706f72746572205479706520697320696e636f7272656374000000604082015260600190565b60208082528251828201528281015160806040840152805160a084018190526000929160c0828402860181019285929187019185015b81841015620025165760bf1988860301835262002501858251620020cd565b945060019390930192918501918501620024e2565b5050505060408501519150620025306060850183620020fb565b606085015191506200254660808501836200207b565b949350505050565b6040518181016001600160401b03811182821017156200256d57600080fd5b604052919050565b60006001600160401b038211156200258b578081fd5b5060209081020190565b60005b83811015620025b257818101518382015260200162002598565b83811115620025c2576000848401525b50505050565b6007811062001ae957fe5b6001600160a01b038116811462001ae957600080fdfe60806040523480156200001157600080fd5b5060405162001ac038038062001ac0833981810160405260a08110156200003757600080fd5b815160208301516040808501805191519395929483019291846401000000008211156200006357600080fd5b9083019060208201858111156200007957600080fd5b82518660208202830111640100000000821117156200009757600080fd5b82525081516020918201928201910280838360005b83811015620000c6578181015183820152602001620000ac565b505050509050016040526020018051906020019092919080516040519392919084640100000000821115620000fa57600080fd5b9083019060208201858111156200011057600080fd5b82518660208202830111640100000000821117156200012e57600080fd5b82525081516020918201928201910280838360005b838110156200015d57818101518382015260200162000143565b50505050919091016040525050600080546001600160a01b0389166001600160a01b03199182168117909255600480549091169091179055505060018490558251620001b190600290602086019062000268565b5060088290558051620001cc90600390602084019062000268565b50600580546001600160a01b03199081169091556006805490911690556009805460ff1916905560405160009086906200020690620002d2565b6001600160a01b03909116815260405190819003602001906000f08015801562000234573d6000803e3d6000fd5b50600980546001600160a01b0390921661010002610100600160a81b0319909216919091179055506200030a945050505050565b828054828255906000526020600020908101928215620002c0579160200282015b82811115620002c057825182546001600160a01b0319166001600160a01b0390911617825560209092019160019091019062000289565b50620002ce929150620002e0565b5090565b610b638062000f5d83390190565b6200030791905b80821115620002ce5780546001600160a01b0319168155600101620002e7565b90565b610c43806200031a6000396000f3fe608060405234801561001057600080fd5b50600436106100b45760003560e01c8063ac42a41511610071578063ac42a415146101d3578063c8f5f189146101f9578063d2f3fcc71461021f578063e002c8a514610227578063e138d4ce14610341578063f5c0e38314610367576100b4565b80631fedd36c146100b95780632f1d7588146100f157806393a668b71461012157806396991e7914610147578063aab3a9d61461016d578063abb428a614610193575b600080fd5b6100df600480360360208110156100cf57600080fd5b50356001600160a01b0316610395565b60408051918252519081900360200190f35b61011f6004803603604081101561010757600080fd5b506001600160a01b03813581169160200135166105c0565b005b61011f6004803603602081101561013757600080fd5b50356001600160a01b0316610649565b61011f6004803603602081101561015d57600080fd5b50356001600160a01b03166106b6565b61011f6004803603602081101561018357600080fd5b50356001600160a01b03166106d8565b61019b61072a565b6040518082606080838360005b838110156101c05781810151838201526020016101a8565b5050505090500191505060405180910390f35b61011f600480360360208110156101e957600080fd5b50356001600160a01b0316610765565b61011f6004803603602081101561020f57600080fd5b50356001600160a01b03166108e6565b6100df61094f565b61022f610968565b604051808a6001600160a01b03166001600160a01b031681526020018981526020018060200188815260200180602001876001600160a01b03166001600160a01b03168152602001868152602001856001600160a01b03166001600160a01b03168152602001846001600160a01b03166001600160a01b0316815260200183810383528a818151815260200191508051906020019060200280838360005b838110156102e55781810151838201526020016102cd565b50505050905001838103825288818151815260200191508051906020019060200280838360005b8381101561032457818101518382015260200161030c565b505050509050019b50505050505050505050505060405180910390f35b61011f6004803603602081101561035757600080fd5b50356001600160a01b0316610a9e565b61011f6004803603604081101561037d57600080fd5b506001600160a01b0381358116916020013516610ac0565b6005546000906001600160a01b03838116911614806103c157506006546001600160a01b038381169116145b6103fc5760405162461bcd60e51b8152600401808060200182810382526035815260200180610b6d6035913960400191505060405180910390fd5b60095460019060ff16600681111561041057fe5b101561045f576040805162461bcd60e51b8152602060048201526019602482015278141c9bd91d58dd081b9bdd081c1a58dad959081d5c081e595d603a1b604482015290519081900360640190fd5b6005546001600160a01b03838116911614801561048c5750600160095460ff16600681111561048a57fe5b145b15610510576009805460ff1916600390811790915560055481546001600160a01b03909116919060001981019081106104c157fe5b60009182526020918290200154604080516002815260039381019390935280516001600160a01b03909216923092600080516020610b4d833981519152929181900390910190a45060016105bb565b6006546001600160a01b03838116911614801561053d5750600260095460ff16600681111561053b57fe5b145b156105bb576009805460ff19166004179055600654600380546001600160a01b0390921691600019810190811061057057fe5b60009182526020918290200154604080516003815260049381019390935280516001600160a01b03909216923092600080516020610b4d833981519152929181900390910190a45060025b919050565b6006546001600160a01b0382811691161461060c5760405162461bcd60e51b8152600401808060200182810382526023815260200180610bc46023913960400191505060405180910390fd5b600780546001600160a01b0319166001600160a01b03841617905560055b6009805460ff1916600183600681111561064057fe5b02179055505050565b6006546001600160a01b038281169116146106955760405162461bcd60e51b8152600401808060200182810382526023815260200180610bc46023913960400191505060405180910390fd5b60045b6009805460ff191660018360068111156106ae57fe5b021790555050565b600680546001600160a01b0319166001600160a01b0392909216919091179055565b600380546001810182556000919091527fc2575a0e9e593c00f959f8c92f12db2869c3395a3b0502d05e2516446f71f85b0180546001600160a01b0319166001600160a01b0392909216919091179055565b610732610b2e565b50604080516060810182526005546001600160a01b03908116825260065481166020830152600754169181019190915290565b60038054600019810190811061077757fe5b6000918252602090912001546001600160a01b038281169116146107cc5760405162461bcd60e51b8152600401808060200182810382526027815260200180610be76027913960400191505060405180910390fd5b600060095460ff1660068111156107df57fe5b14610831576040805162461bcd60e51b815260206004820181905260248201527f5061636b616765206d757374206265206174204d616e7566616374757265722e604482015290519081900360640190fd5b6005546001600160a01b031615610894576009805460ff1916600190811790915560055460408051838152602081019390935280516001600160a01b0392831693928516923092600080516020610b4d83398151915292918290030190a46108e3565b6009805460ff191660029081179091556006546040805160018152602081019390935280516001600160a01b0392831693928516923092600080516020610b4d83398151915292918290030190a45b50565b6007546001600160a01b03828116911614610948576040805162461bcd60e51b815260206004820181905260248201527f5468697320437573746f6d6572206973206e6f74204173736f6369617465642e604482015290519081900360640190fd5b6006610698565b60095460009060ff16600681111561096357fe5b905090565b6004546001546008546006805460095460009586956060958795879587958695869586956001600160a01b03928316959194600294919360039391169160ff16908111156109b257fe5b6009546005548654604080516020808402820181019092528281526101009094046001600160a01b0390811694931692918991830182828015610a1e57602002820191906000526020600020905b81546001600160a01b03168152600190910190602001808311610a00575b5050505050965084805480602002602001604051908101604052809291908181526020018280548015610a7a57602002820191906000526020600020905b81546001600160a01b03168152600190910190602001808311610a5c575b50505050509450985098509850985098509850985098509850909192939495969798565b600580546001600160a01b0319166001600160a01b0392909216919091179055565b6005546001600160a01b03828116911614610b0c5760405162461bcd60e51b8152600401808060200182810382526022815260200180610ba26022913960400191505060405180910390fd5b600680546001600160a01b0319166001600160a01b038416179055600261062a565b6040518060600160405280600390602082028036833750919291505056fe7e89c4b1a4e2b51aae84eb1f90e8a34cb792ece5ac5cb63db4830c891220b28d4f6e6c792057686f6c6573616c6572206f72204469737472696275746f722063616e2063616c6c20746869732066756e6374696f6e746869732057686f6c6573616c6572206973206e6f74204173736f6369617465642e54686973204469737472696275746f72206973206e6f74204173736f6369617465642e4f6e6c79205472616e73706f727465722063616e2063616c6c20746869732066756e6374696f6ea26469706673582212208c9ded92ac06d5932edcb56800258b461b5e6dea16082f7ebd69c2fae43c449964736f6c634300060600336080604052600060025534801561001557600080fd5b50604051610b63380380610b6383398101604081905261003491610059565b600080546001600160a01b0319166001600160a01b0392909216919091179055610087565b60006020828403121561006a578081fd5b81516001600160a01b0381168114610080578182fd5b9392505050565b610acd806100966000396000f3fe608060405234801561001057600080fd5b506004361061004c5760003560e01c806327506f53146100515780633626a3681461006f57806378ce1365146100845780639ace38c214610099575b600080fd5b6100596100bf565b60405161006691906108b6565b60405180910390f35b61008261007d3660046107bb565b6102c7565b005b61008c61050b565b6040516100669190610a76565b6100ac6100a7366004610853565b610511565b604051610066979695949392919061097f565b600254606090818167ffffffffffffffff811180156100dd57600080fd5b5060405190808252806020026020018201604052801561011757816020015b61010461066a565b8152602001906001900390816100fc5790505b50905060005b828110156102bf57600081815260016020818152604092839020835160e08101855281548152818401546001600160a01b0390811682850152600280840154909116828701526003830154606083015260048301805487516101009782161597909702600019011691909104601f81018590048502860185019096528585529094919360808601939092908301828280156101f95780601f106101ce576101008083540402835291602001916101f9565b820191906000526020600020905b8154815290600101906020018083116101dc57829003601f168201915b505050918352505060058201805460408051602060026001851615610100026000190190941693909304601f810184900484028201840190925281815293820193929183018282801561028d5780601f106102625761010080835404028352916020019161028d565b820191906000526020600020905b81548152906001019060200180831161027057829003601f168201915b505050505081526020016006820154815250508282815181106102ac57fe5b602090810291909101015260010161011d565b509150505b90565b60025442906103a6576040805160e0810182528881526001600160a01b038089166020808401918252898316848601908152606085018a8152608086018a815260a087018a905260c08701899052600280546000908152600180875299902088518155955198860180549988166001600160a01b03199a8b1617905592519285018054939096169290971691909117909355915160038201559251805192939261037792600485019201906106a5565b5060a082015180516103939160058401916020909101906106a5565b5060c082015181600601559050506104b5565b6002546000190160009081526001602052604090205484146103e35760405162461bcd60e51b81526004016103da90610a3f565b60405180910390fd5b6040805160e0810182528881526001600160a01b038089166020808401918252898316848601908152606085018a8152608086018a815260a087018a905260c08701899052600280546000908152600180875299902088518155955198860180549988166001600160a01b03199a8b1617905592519285018054939096169290971691909117909355915160038201559251805192939261048a92600485019201906106a5565b5060a082015180516104a69160058401916020909101906106a5565b5060c082015181600601559050505b6002805460010190556040517f30d01d358fb0899fe4d50947b2e9301c952d9eed09b14c7ecdcbeed4434557c4906104fa90899089908990899087908a908a906109df565b60405180910390a150505050505050565b60025481565b60016020818152600092835260409283902080548184015460028084015460038501546004860180548a516101009a8216159a909a02600019011693909304601f810188900488028901880190995288885293976001600160a01b039384169793909116959394938301828280156105ca5780601f1061059f576101008083540402835291602001916105ca565b820191906000526020600020905b8154815290600101906020018083116105ad57829003601f168201915b5050505060058301805460408051602060026001851615610100026000190190941693909304601f810184900484028201840190925281815294959493509083018282801561065a5780601f1061062f5761010080835404028352916020019161065a565b820191906000526020600020905b81548152906001019060200180831161063d57829003601f168201915b5050505050908060060154905087565b6040805160e08101825260008082526020820181905291810182905260608082018390526080820181905260a082015260c081019190915290565b828054600181600116156101000203166002900490600052602060002090601f016020900481019282601f106106e657805160ff1916838001178555610713565b82800160010185558215610713579182015b828111156107135782518255916020019190600101906106f8565b5061071f929150610723565b5090565b6102c491905b8082111561071f5760008155600101610729565b600082601f83011261074d578081fd5b813567ffffffffffffffff80821115610764578283fd5b604051601f8301601f191681016020018281118282101715610784578485fd5b60405282815292508284830160200186101561079f57600080fd5b8260208601602083013760006020848301015250505092915050565b60008060008060008060c087890312156107d3578182fd5b8635955060208701356107e581610a7f565b945060408701356107f581610a7f565b935060608701359250608087013567ffffffffffffffff80821115610818578384fd5b6108248a838b0161073d565b935060a0890135915080821115610839578283fd5b5061084689828a0161073d565b9150509295509295509295565b600060208284031215610864578081fd5b5035919050565b60008151808452815b8181101561089057602081850181015186830182015201610874565b818111156108a15782602083870101525b50601f01601f19169290920160200192915050565b60208082528251828201819052600091906040908185019080840286018301878501865b8381101561097157888303603f19018552815180518452878101516001600160a01b03908116898601528782015116878501526060808201519085015260808082015160e082870181905291906109338388018261086b565b91505060a09150818301518682038388015261094f828261086b565b60c09485015197909401969096525050948701949250908601906001016108da565b509098975050505050505050565b8781526001600160a01b038781166020830152861660408201526060810185905260e0608082018190526000906109b89083018661086b565b82810360a08401526109ca818661086b565b9150508260c083015298975050505050505050565b8781526001600160a01b03878116602083015286166040820152606081018590526080810184905260e060a08201819052600090610a1f9083018561086b565b82810360c0840152610a31818561086b565b9a9950505050505050505050565b6020808252601b908201527f5472616e73616374696f6e206572726f72206f63637572726564210000000000604082015260600190565b90815260200190565b6001600160a01b0381168114610a9457600080fd5b5056fea26469706673582212208e8c92ee2ddb954d56a57dcb6fab8b5247c07a9e0c2299012988b1c986ef221464736f6c63430006060033608060405234801561001057600080fd5b506040516103b83803806103b88339818101604052608081101561003357600080fd5b50805160208201516040830151606090930151600080546001600160a01b03199081166001600160a01b03948516908117835560018054831696861696909617909555600280548216909517909455600380548516958416959095179094556004805490931691161760ff60a01b191690556103039081906100b590396000f3fe608060405234801561001057600080fd5b50600436106100415760003560e01c8063443c28d814610046578063d2f3fcc714610076578063d7dcbe3b14610090575b600080fd5b6100746004803603604081101561005c57600080fd5b506001600160a01b03813581169160200135166100be565b005b61007e610190565b60408051918252519081900360200190f35b610074600480360360408110156100a657600080fd5b506001600160a01b03813581169160200135166101b0565b6003546001600160a01b0382811691161461010a5760405162461bcd60e51b815260040180806020018281038252602f81526020018061029f602f913960400191505060405180910390fd5b6004805460ff60a01b1916600160a01b178082556002546040805163f5c0e38360e01b81526001600160a01b03938416948101949094529082166024840152519084169163f5c0e38391604480830192600092919082900301818387803b15801561017457600080fd5b505af1158015610188573d6000803e3d6000fd5b505050505050565b600454600090600160a01b900460ff1660028111156101ab57fe5b905090565b6004546001600160a01b038281169116146101fc5760405162461bcd60e51b815260040180806020018281038252603081526020018061026f6030913960400191505060405180910390fd5b600480546002919060ff60a01b1916600160a01b830217905550816001600160a01b03166393a668b7826040518263ffffffff1660e01b815260040180826001600160a01b03166001600160a01b03168152602001915050600060405180830381600087803b15801561017457600080fdfe4f6e6c79204173736f6369617465642072656365697665722063616e2063616c6c20746869732066756e6374696f6e2e4f6e6c79204173736f63696174656420736869707065722063616e2063616c6c20746869732066756e6374696f6e2ea26469706673582212207bcaa32ccb7e1336a066695db5d59a31e4e39255b616971f68d8c4199353475764736f6c63430006060033608060405234801561001057600080fd5b506040516111c83803806111c883398101604081905261002f91610100565b600080546001600160a01b03199081166001600160a01b0389811691821784556001805484168a831617905560028890556003879055600480548416878316179055600580548416918616919091179055600680549092161760ff60a01b19169055604051829061009f906100f3565b6100a99190610173565b604051809103906000f0801580156100c5573d6000803e3d6000fd5b50600880546001600160a01b0319166001600160a01b03929092169190911790555061019f95505050505050565b610b638061066583390190565b60008060008060008060c08789031215610118578182fd5b865161012381610187565b602088015190965061013481610187565b809550506040870151935060608701519250608087015161015481610187565b60a088015190925061016581610187565b809150509295509295509295565b6001600160a01b0391909116815260200190565b6001600160a01b038116811461019c57600080fd5b50565b6104b7806101ae6000396000f3fe608060405234801561001057600080fd5b50600436106100575760003560e01c806350e073bc1461005c57806352b9996814610071578063638e9a3d146100845780636b099dca1461009757806380723520146100b5575b600080fd5b61006f61006a3660046102e8565b6100d0565b005b61006f61007f3660046102e8565b6100f2565b61006f6100923660046102e8565b6101cd565b61009f610293565b6040516100ac9190610478565b60405180910390f35b6100bd6102b3565b6040516100ac9796959493929190610316565b600580546001600160a01b0319166001600160a01b0392909216919091179055565b6005546001600160a01b038281169116146101285760405162461bcd60e51b815260040161011f90610398565b60405180910390fd5b6001600654600160a01b900460ff16600281111561014257fe5b1461015f5760405162461bcd60e51b815260040161011f90610365565b6006805460ff60a01b1916600160a11b179055600554600454600180546040516001600160a01b039485169493841693909116917f7e89c4b1a4e2b51aae84eb1f90e8a34cb792ece5ac5cb63db4830c891220b28d916101c29190600290610357565b60405180910390a450565b6004546001600160a01b038281169116146101fa5760405162461bcd60e51b815260040161011f90610428565b6000600654600160a01b900460ff16600281111561021457fe5b146102315760405162461bcd60e51b815260040161011f906103f1565b6006805460ff60a01b1916600160a01b179055600554600454600180546040516001600160a01b039485169493841693909116917f7e89c4b1a4e2b51aae84eb1f90e8a34cb792ece5ac5cb63db4830c891220b28d916101c291908190610357565b600654600090600160a01b900460ff1660028111156102ae57fe5b905090565b6001546002546003546006546004546005546008546001600160a01b0396871697959694959385169492831693918316921690565b6000602082840312156102f9578081fd5b81356001600160a01b038116811461030f578182fd5b9392505050565b6001600160a01b03978816815260208101969096526040860194909452918516606085015284166080840152831660a083015290911660c082015260e00190565b918252602082015260400190565b602080825260199082015278141c9bd91d58dd081b9bdd081c1a58dad959081d5c081e595d603a1b604082015260600190565b60208082526039908201527f4f6e6c79204d616e756661637475726572206f6620746865207061636b6167656040820152782063616e20726563656965766520746865207061636b61676560381b606082015260800190565b6020808252601c908201527f5061636b616765206d75737420626520617420537570706c6965722e00000000604082015260600190565b60208082526030908201527f4f6e6c79207472616e73706f72746572206f6620746865207061636b6167652060408201526f63616e207069636b207061636b61676560801b606082015260800190565b9081526020019056fea2646970667358221220f89cf8a74742fa82825bdfb0942b36a4d645d52fa4e529e3f5d9125dbf99ac0764736f6c634300060600336080604052600060025534801561001557600080fd5b50604051610b63380380610b6383398101604081905261003491610059565b600080546001600160a01b0319166001600160a01b0392909216919091179055610087565b60006020828403121561006a578081fd5b81516001600160a01b0381168114610080578182fd5b9392505050565b610acd806100966000396000f3fe608060405234801561001057600080fd5b506004361061004c5760003560e01c806327506f53146100515780633626a3681461006f57806378ce1365146100845780639ace38c214610099575b600080fd5b6100596100bf565b60405161006691906108b6565b60405180910390f35b61008261007d3660046107bb565b6102c7565b005b61008c61050b565b6040516100669190610a76565b6100ac6100a7366004610853565b610511565b604051610066979695949392919061097f565b600254606090818167ffffffffffffffff811180156100dd57600080fd5b5060405190808252806020026020018201604052801561011757816020015b61010461066a565b8152602001906001900390816100fc5790505b50905060005b828110156102bf57600081815260016020818152604092839020835160e08101855281548152818401546001600160a01b0390811682850152600280840154909116828701526003830154606083015260048301805487516101009782161597909702600019011691909104601f81018590048502860185019096528585529094919360808601939092908301828280156101f95780601f106101ce576101008083540402835291602001916101f9565b820191906000526020600020905b8154815290600101906020018083116101dc57829003601f168201915b505050918352505060058201805460408051602060026001851615610100026000190190941693909304601f810184900484028201840190925281815293820193929183018282801561028d5780601f106102625761010080835404028352916020019161028d565b820191906000526020600020905b81548152906001019060200180831161027057829003601f168201915b505050505081526020016006820154815250508282815181106102ac57fe5b602090810291909101015260010161011d565b509150505b90565b60025442906103a6576040805160e0810182528881526001600160a01b038089166020808401918252898316848601908152606085018a8152608086018a815260a087018a905260c08701899052600280546000908152600180875299902088518155955198860180549988166001600160a01b03199a8b1617905592519285018054939096169290971691909117909355915160038201559251805192939261037792600485019201906106a5565b5060a082015180516103939160058401916020909101906106a5565b5060c082015181600601559050506104b5565b6002546000190160009081526001602052604090205484146103e35760405162461bcd60e51b81526004016103da90610a3f565b60405180910390fd5b6040805160e0810182528881526001600160a01b038089166020808401918252898316848601908152606085018a8152608086018a815260a087018a905260c08701899052600280546000908152600180875299902088518155955198860180549988166001600160a01b03199a8b1617905592519285018054939096169290971691909117909355915160038201559251805192939261048a92600485019201906106a5565b5060a082015180516104a69160058401916020909101906106a5565b5060c082015181600601559050505b6002805460010190556040517f30d01d358fb0899fe4d50947b2e9301c952d9eed09b14c7ecdcbeed4434557c4906104fa90899089908990899087908a908a906109df565b60405180910390a150505050505050565b60025481565b60016020818152600092835260409283902080548184015460028084015460038501546004860180548a516101009a8216159a909a02600019011693909304601f810188900488028901880190995288885293976001600160a01b039384169793909116959394938301828280156105ca5780601f1061059f576101008083540402835291602001916105ca565b820191906000526020600020905b8154815290600101906020018083116105ad57829003601f168201915b5050505060058301805460408051602060026001851615610100026000190190941693909304601f810184900484028201840190925281815294959493509083018282801561065a5780601f1061062f5761010080835404028352916020019161065a565b820191906000526020600020905b81548152906001019060200180831161063d57829003601f168201915b5050505050908060060154905087565b6040805160e08101825260008082526020820181905291810182905260608082018390526080820181905260a082015260c081019190915290565b828054600181600116156101000203166002900490600052602060002090601f016020900481019282601f106106e657805160ff1916838001178555610713565b82800160010185558215610713579182015b828111156107135782518255916020019190600101906106f8565b5061071f929150610723565b5090565b6102c491905b8082111561071f5760008155600101610729565b600082601f83011261074d578081fd5b813567ffffffffffffffff80821115610764578283fd5b604051601f8301601f191681016020018281118282101715610784578485fd5b60405282815292508284830160200186101561079f57600080fd5b8260208601602083013760006020848301015250505092915050565b60008060008060008060c087890312156107d3578182fd5b8635955060208701356107e581610a7f565b945060408701356107f581610a7f565b935060608701359250608087013567ffffffffffffffff80821115610818578384fd5b6108248a838b0161073d565b935060a0890135915080821115610839578283fd5b5061084689828a0161073d565b9150509295509295509295565b600060208284031215610864578081fd5b5035919050565b60008151808452815b8181101561089057602081850181015186830182015201610874565b818111156108a15782602083870101525b50601f01601f19169290920160200192915050565b60208082528251828201819052600091906040908185019080840286018301878501865b8381101561097157888303603f19018552815180518452878101516001600160a01b03908116898601528782015116878501526060808201519085015260808082015160e082870181905291906109338388018261086b565b91505060a09150818301518682038388015261094f828261086b565b60c09485015197909401969096525050948701949250908601906001016108da565b509098975050505050505050565b8781526001600160a01b038781166020830152861660408201526060810185905260e0608082018190526000906109b89083018661086b565b82810360a08401526109ca818661086b565b9150508260c083015298975050505050505050565b8781526001600160a01b03878116602083015286166040820152606081018590526080810184905260e060a08201819052600090610a1f9083018561086b565b82810360c0840152610a31818561086b565b9a9950505050505050505050565b6020808252601b908201527f5472616e73616374696f6e206572726f72206f63637572726564210000000000604082015260600190565b90815260200190565b6001600160a01b0381168114610a9457600080fd5b5056fea26469706673582212208e8c92ee2ddb954d56a57dcb6fab8b5247c07a9e0c2299012988b1c986ef221464736f6c63430006060033608060405234801561001057600080fd5b506040516103bc3803806103bc8339818101604052608081101561003357600080fd5b50805160208201516040830151606090930151600080546001600160a01b03199081166001600160a01b03948516908117835560018054831696861696909617909555600280548216909517909455600380548516958416959095179094556004805490931691161760ff60a01b191690556103079081906100b590396000f3fe608060405234801561001057600080fd5b50600436106100415760003560e01c806353157b1a14610046578063c0114d0614610076578063f7addc3e14610090575b600080fd5b6100746004803603604081101561005c57600080fd5b506001600160a01b03813581169160200135166100be565b005b61007e610190565b60408051918252519081900360200190f35b610074600480360360408110156100a657600080fd5b506001600160a01b03813581169160200135166101b0565b6003546001600160a01b0382811691161461010a5760405162461bcd60e51b815260040180806020018281038252603381526020018061026f6033913960400191505060405180910390fd5b6004805460ff60a01b1916600160a01b17808255600254604080516305e3aeb160e31b81526001600160a01b039384169481019490945290821660248401525190841691632f1d758891604480830192600092919082900301818387803b15801561017457600080fd5b505af1158015610188573d6000803e3d6000fd5b505050505050565b600454600090600160a01b900460ff1660028111156101ab57fe5b905090565b6004546001600160a01b038281169116146101fc5760405162461bcd60e51b81526004018080602001828103825260308152602001806102a26030913960400191505060405180910390fd5b600480546002919060ff60a01b1916600160a01b830217905550816001600160a01b031663c8f5f189826040518263ffffffff1660e01b815260040180826001600160a01b03166001600160a01b03168152602001915050600060405180830381600087803b15801561017457600080fdfe4f6e6c79204173736f636961746564207472616e73706f727465722063616e2063616c6c20746869732066756e6374696f6e2e4f6e6c79204173736f6369617465642072656365697665722063616e2063616c6c20746869732066756e6374696f6e2ea26469706673582212204b032fe47dba93c33e79f4b4cef6521ad0c8e03b94abdc5351d34ccda62a5d0c64736f6c63430006060033cfbd3a658e0a38877312e3f5767ddb0c6541620d7bd0368d43e0b94a55d9876ea2646970667358221220bbf2838703d239defe04c5fef656658754c0018a4bdff53ba9fe91539d9ee67b64736f6c63430006060033",
  "immutableReferences": {},
  "source": "pragma solidity >=0.4.21 <0.7.0;\npragma experimental ABIEncoderV2;\n\nimport './RawMaterial.sol';\n// import './Supplier.sol';\n// import './Transporter.sol';\nimport './Medicine.sol';\n// import './Manufacturer.sol';\nimport './MedicineW_D.sol';\n// import './Wholesaler.sol';\nimport './MedicineD_C.sol';\n// import './Distributor.sol';\n// import './Customer.sol';\n\n\n//// New supply chain : supplier -> transporter -> manufacturer -> transporter -> whole-saler -> transporter -> distributor -> transporter -> customer/hospital/pharmacy\n\ncontract SupplyChain {\n    \n    address Owner;\n    \n    constructor() public {\n        Owner = msg.sender;\n    }\n    \n    modifier onlyOwner() {\n        require(Owner == msg.sender);\n        _;\n    }\n    \n    modifier checkUser(address addr) {\n        require(addr == msg.sender);\n        _;\n    }\n    \n    enum roles {\n        noRole,\n        supplier,\n        transporter,\n        manufacturer,\n        wholesaler,\n        distributor,\n        customer\n    }\n    \n    \n    //////////////// Events ////////////////////\n    \n    event UserRegister(address indexed _address, bytes32 name);\n    event buyEvent(address buyer, address indexed seller, address packageAddr, bytes signature, uint indexed timestamp);\n    event respondEvent(address indexed buyer, address seller, address packageAddr, bytes signature, uint indexed timestamp);\n    event sendEvent(address seller, address buyer, address indexed packageAddr, bytes signature, uint indexed timestamp);\n    event receivedEvent(address indexed buyer, address seller, address packageAddr, bytes signature, uint indexed timestamp);\n    \n    \n    //////////////// Event functions (All entities) ////////////////////\n\n    \n    function requestProduct(address buyer, address seller, address packageAddr, bytes memory signature) public {\n        emit buyEvent(buyer, seller, packageAddr, signature, now);\n    }\n    \n    function respondToEntity(address buyer, address seller, address packageAddr, bytes memory signature) public {\n        emit respondEvent(buyer, seller, packageAddr, signature, now);\n    }\n    \n    function sendPackageToEntity(address buyer, address seller, address packageAddr, bytes memory signature) public {\n        emit sendEvent(seller, buyer, packageAddr, signature, now);\n    }\n    \n    /////////////// Users (Only Owner Executable) //////////////////////\n    \n    struct userData {\n        bytes32 name;\n        string[] userLoc;\n        roles role;\n        address userAddr;\n    }\n    \n    mapping (address => userData) public userInfo;\n    \n    function registerUser(bytes32 name, string[] memory loc, uint role, address _userAddr) public onlyOwner {\n        userInfo[_userAddr].name = name;\n        userInfo[_userAddr].userLoc = loc;\n        userInfo[_userAddr].role = roles(role);\n        userInfo[_userAddr].userAddr = _userAddr;\n        \n        emit UserRegister(_userAddr, name);\n    }\n    \n    function changeUserRole(uint _role, address _addr) public onlyOwner returns(string memory) {\n        userInfo[_addr].role = roles(_role);\n       return \"Role Updated!\";\n    }\n    \n    function getUserInfo(address _address) public view returns(\n        userData memory\n        ) {\n        return userInfo[_address];\n    }\n    \n\n    /////////////// Supplier //////////////////////\n    \n    mapping (address => address[]) public supplierRawMaterials;\n    \n    \n    function createRawMaterialPackage(\n        bytes32 _description,\n        uint _quantity,\n        address _transporterAddr,\n        address _manufacturerAddr\n    ) public returns(address) {\n\n        RawMaterial rawMaterial = new RawMaterial(\n            msg.sender,\n            address(bytes20(sha256(abi.encodePacked(msg.sender, now)))),\n            _description,\n            _quantity,\n            _transporterAddr,\n            _manufacturerAddr\n        );\n        \n        supplierRawMaterials[msg.sender].push(address(rawMaterial));\n        return address(rawMaterial);\n    }\n    \n    function getNoOfPackagesOfSupplier() public view returns(uint) {\n        return supplierRawMaterials[msg.sender].length;\n    }\n    \n    \n    function getAllPackages() public view returns(address[] memory) {\n        uint len = supplierRawMaterials[msg.sender].length;\n        address[] memory ret = new address[](len);\n        for (uint i = 0; i < len; i++) {\n            ret[i] = supplierRawMaterials[msg.sender][i];\n        }\n        return ret;\n    }\n    \n    ///////////////  Transporter ///////////////\n    \n    \n    function transporterHandlePackage(\n        address _addr,\n        uint transportertype,\n        address cid\n        ) public {\n            \n        require(\n            userInfo[msg.sender].role == roles.transporter,\n            \"Only Transporter can call this function\"\n        );\n        require(\n            transportertype > 0,\n            \"Transporter Type is incorrect\"\n        );\n        \n        if(transportertype == 1) { \n            /// Supplier -> Manufacturer\n            RawMaterial(_addr).pickPackage(msg.sender);\n        } else if(transportertype == 2) { \n            /// Manufacturer -> Wholesaler\n            Medicine(_addr).pickMedicine(msg.sender);\n        } else if(transportertype == 3) {   \n            // Wholesaler to Distributer\n            MedicineW_D(cid).pickWD(_addr, msg.sender);\n        } else if(transportertype == 4) {   \n            // Distrubuter to Customer\n            // MedicineD_C(cid).pickDC(_addr, msg.sender);\n        }\n    }\n    \n    \n    ///////////////  Manufacturer ///////////////\n    \n    mapping (address => address[]) public manufacturerRawMaterials;\n    mapping (address => address[]) public manufacturerMedicines;\n    \n    \n    function manufacturerReceivedPackage(\n        address _addr,\n        address _manufacturerAddress,\n        address _sellerAddr,\n        bytes memory signature\n        ) public {\n            \n        RawMaterial(_addr).receivedPackage(_manufacturerAddress);\n        manufacturerRawMaterials[_manufacturerAddress].push(_addr);\n        emit receivedEvent(msg.sender, _sellerAddr, _addr, signature, now);\n    }\n    \n    \n    function manufacturerCreatesMedicine(\n        address _manufacturerAddr,\n        bytes32 _description,\n        address[] memory _rawAddr,\n        uint _quantity,\n        address[] memory _transporterAddr\n        ) public {\n            \n        Medicine _medicine = new Medicine(\n            _manufacturerAddr,\n            _description,\n            _rawAddr,\n            _quantity,\n            _transporterAddr\n        );\n        \n        manufacturerMedicines[_manufacturerAddr].push(address(_medicine));\n        \n    }\n    \n    function getAllCreatedMedicines() public view returns(address[] memory) {\n        uint len = manufacturerMedicines[msg.sender].length;\n        address[] memory ret = new address[](len);\n        for (uint i = 0; i < len; i++) {\n            ret[i] = manufacturerMedicines[msg.sender][i];\n        }\n        return ret;\n    }\n    \n\n    ///////////////  Wholesaler  ///////////////\n\n    mapping(address => address[]) public MedicinesAtWholesaler;\n    mapping(address => address[]) public MedicineWtoD;\n    mapping(address => address) public MedicineWtoDTxContract;\n    \n    function wholesalerReceivedMedicine(\n        address _address,\n        address _sellerAddr,\n        bytes memory signature\n        ) public {\n        require(\n            userInfo[msg.sender].role == roles.wholesaler,\n            \"Only Wholesaler can call this function\"\n        );\n        \n        uint rtype = Medicine(_address).receivedMedicine(msg.sender);\n        MedicinesAtWholesaler[msg.sender].push(_address);\n        emit receivedEvent(msg.sender, _sellerAddr, _address, signature, now);\n    }\n    \n    function transferMedicineWtoD(\n            address _address,\n            address transporter,\n            address receiver\n        ) public {\n            \n        MedicineW_D wd = new MedicineW_D(\n            _address,\n            msg.sender,\n            transporter,\n            receiver\n        );\n        MedicineWtoD[msg.sender].push(address(wd));\n        MedicineWtoDTxContract[_address] = address(wd);\n    }\n\n    \n    function getBatchIdByIndexWD(uint index) public view returns(address packageID) {\n        require(\n            userInfo[msg.sender].role == roles.wholesaler,\n            \"Only Wholesaler Can call this function.\"\n        );\n        return MedicineWtoD[msg.sender][index];\n    }\n\n    function getSubContractWD(address _address) public view returns (address SubContractWD) {\n        return MedicineWtoDTxContract[_address];\n    }\n    \n    function getAllMedicinesAtWholesaler() public view returns(address[] memory) {\n        uint len = MedicinesAtWholesaler[msg.sender].length;\n        address[] memory ret = new address[](len);\n        for (uint i = 0; i < len; i++) {\n            ret[i] = MedicinesAtWholesaler[msg.sender][i];\n        }\n        return ret;\n    }\n\n\n//     ///////////////  Distributor  ///////////////\n\n    mapping(address => address[]) public MedicinesAtDistributor;\n    mapping(address => address[]) public MedicineDtoC;\n    mapping(address => address) public MedicineDtoCTxContract;\n\n\n    function distributorReceivedMedicine(\n      address _address,\n      address cid,\n      address _sellerAddr,\n      bytes memory signature\n    ) public {\n        require(\n            userInfo[msg.sender].role == roles.distributor &&\n            msg.sender == Medicine(_address).getWDC()[1],\n            \"Only Distributor or current owner of package can call this function\"  \n        );\n        \n        uint rtype = Medicine(_address).receivedMedicine(msg.sender);\n        if(rtype == 2){\n            MedicinesAtDistributor[msg.sender].push(_address);\n            if(Medicine(_address).getWDC()[0] != address(0)){\n                MedicineW_D(cid).receiveWD(_address, msg.sender);\n            }\n        }\n        emit receivedEvent(msg.sender, _sellerAddr, _address, signature, now);\n    }\n\n    function distributorTransferMedicinetoCustomer(\n        address _address,\n        address transporter,\n        address receiver\n    ) public {\n        require(\n            userInfo[msg.sender].role == roles.distributor &&\n            msg.sender == Medicine(_address).getWDC()[1],\n            \"Only Distributor or current owner of package can call this function\"\n        );\n        MedicineD_C dp = new MedicineD_C(\n            _address,\n            msg.sender,\n            transporter,\n            receiver\n        );\n        MedicineDtoC[msg.sender].push(address(dp));\n        MedicineDtoCTxContract[_address] = address(dp);\n    }\n    \n    function getBatchesCountDC() public view returns (uint count){\n        require(\n            userInfo[msg.sender].role == roles.distributor,\n            \"Only Distributor Can call this function.\"\n        );\n        return MedicineDtoC[msg.sender].length;\n    }\n\n    function getBatchIdByIndexDC(uint index) public view returns(address packageID) {\n        require(\n            userInfo[msg.sender].role == roles.distributor,\n            \"Only Distributor Can call this function.\"\n        );\n        return MedicineDtoC[msg.sender][index];\n    }\n\n    function getSubContractDC(address _address) public view returns (address SubContractDP) {\n        return MedicineDtoCTxContract[_address];\n    }\n    \n    function getAllMedicinesAtDistributor() public view returns(address[] memory) {\n        uint len = MedicinesAtDistributor[msg.sender].length;\n        address[] memory ret = new address[](len);\n        for (uint i = 0; i < len; i++) {\n            ret[i] = MedicinesAtDistributor[msg.sender][i];\n        }\n        return ret;\n    }\n    \n    \n//     ///////////////  Customer  ///////////////\n    \n    \n//     function customerReceivedMedicine(\n//         address _address,\n//         address cid\n//     ) public {\n//         require(\n//             userInfo[msg.sender].role == roles.customer,\n//             \"Only Customer Can call this function.\"\n//         );\n//         medicineRecievedAtCustomer(_address, cid);\n//     }\n\n//     function updateStatus(\n//         address _address,\n//         uint Status\n//     ) public {\n//         require(\n//             userInfo[msg.sender].role == roles.customer &&\n//             msg.sender == Medicine(_address).getWDC()[2],\n//             \"Only Customer or current owner of package can call this function\"\n//         );\n//         require(sale[_address] == salestatus(1), \"Medicine Must be at Customer\");\n        \n//         updateSaleStatus(_address, Status);\n//     }\n\n//     function getSalesInfo(\n//         address _address\n//     ) public\n//     view\n//     returns(\n//         uint Status \n//     ){\n//         return salesInfo(_address);\n//     }\n\n    \n//     function getBatchesCountC() public view returns(uint count) {\n//         require(\n//             userInfo[msg.sender].role == roles.customer,\n//             \"Only Wholesaler or current owner of package can call this function\"\n//         );\n//         return  MedicineBatchAtCustomer[msg.sender].length;\n//     }\n\n//     function getBatchIdByIndexC(uint index) public view returns(address _address) {\n//         require(\n//             userInfo[msg.sender].role == roles.customer,\n//             \"Only Wholesaler or current owner of package can call this function\"\n//         );\n//         return MedicineBatchAtCustomer[msg.sender][index];\n//     }\n    \n    function verify(address p, bytes32 hash, uint8 v, bytes32 r, bytes32 s) public pure returns(bool) {\n        return ecrecover(hash, v, r, s) == p;\n    }   \n}\n    ",
  "sourcePath": "/Users/sherwyndsouza/Desktop/Work/Blockchain/Medicine-Supply-Chain/blockchain/testing/Testing.sol",
  "compiler": {
    "name": "solc",
    "version": "0.6.6+commit.6c089d02.Emscripten.clang"
  },
  "schemaVersion": "3.2.2",
  "updatedAt": "2021-03-19T07:11:38.535Z",
  "networkType": "ethereum",
  "devdoc": {
    "methods": {}
  },
  "userdoc": {
    "methods": {
      "requestProduct(address,address,address,bytes)": {
        "notice": "///////////// Event functions (All entities) ////////////////////"
      },
      "transporterHandlePackage(address,uint256,address)": {
        "notice": "////////////  Transporter ///////////////"
      }
    },
    "notice": "/ New supply chain : supplier -> transporter -> manufacturer -> transporter -> whole-saler -> transporter -> distributor -> transporter -> customer/hospital/pharmacy"
  }
}