{
  "contractName": "SupplyChain",
  "abi": [
    {
      "inputs": [],
      "stateMutability": "nonpayable",
      "type": "constructor"
    },
    {
      "anonymous": false,
      "inputs": [
        {
          "indexed": false,
          "internalType": "address",
          "name": "_address",
          "type": "address"
        },
        {
          "indexed": true,
          "internalType": "address",
          "name": "Customer",
          "type": "address"
        },
        {
          "indexed": false,
          "internalType": "uint256",
          "name": "status",
          "type": "uint256"
        }
      ],
      "name": "MedicineStatus",
      "type": "event"
    },
    {
      "anonymous": false,
      "inputs": [
        {
          "indexed": true,
          "internalType": "address",
          "name": "_address",
          "type": "address"
        },
        {
          "indexed": false,
          "internalType": "bytes32",
          "name": "name",
          "type": "bytes32"
        }
      ],
      "name": "UserRegister",
      "type": "event"
    },
    {
      "inputs": [
        {
          "internalType": "address",
          "name": "",
          "type": "address"
        },
        {
          "internalType": "uint256",
          "name": "",
          "type": "uint256"
        }
      ],
      "name": "MedicineBatchAtCustomer",
      "outputs": [
        {
          "internalType": "address",
          "name": "",
          "type": "address"
        }
      ],
      "stateMutability": "view",
      "type": "function",
      "constant": true
    },
    {
      "inputs": [
        {
          "internalType": "address",
          "name": "",
          "type": "address"
        },
        {
          "internalType": "uint256",
          "name": "",
          "type": "uint256"
        }
      ],
      "name": "MedicineDtoC",
      "outputs": [
        {
          "internalType": "address",
          "name": "",
          "type": "address"
        }
      ],
      "stateMutability": "view",
      "type": "function",
      "constant": true
    },
    {
      "inputs": [
        {
          "internalType": "address",
          "name": "",
          "type": "address"
        }
      ],
      "name": "MedicineDtoCTxContract",
      "outputs": [
        {
          "internalType": "address",
          "name": "",
          "type": "address"
        }
      ],
      "stateMutability": "view",
      "type": "function",
      "constant": true
    },
    {
      "inputs": [
        {
          "internalType": "address",
          "name": "",
          "type": "address"
        },
        {
          "internalType": "uint256",
          "name": "",
          "type": "uint256"
        }
      ],
      "name": "MedicineWtoD",
      "outputs": [
        {
          "internalType": "address",
          "name": "",
          "type": "address"
        }
      ],
      "stateMutability": "view",
      "type": "function",
      "constant": true
    },
    {
      "inputs": [
        {
          "internalType": "address",
          "name": "",
          "type": "address"
        }
      ],
      "name": "MedicineWtoDTxContract",
      "outputs": [
        {
          "internalType": "address",
          "name": "",
          "type": "address"
        }
      ],
      "stateMutability": "view",
      "type": "function",
      "constant": true
    },
    {
      "inputs": [
        {
          "internalType": "address",
          "name": "",
          "type": "address"
        },
        {
          "internalType": "uint256",
          "name": "",
          "type": "uint256"
        }
      ],
      "name": "MedicinesAtDistributor",
      "outputs": [
        {
          "internalType": "address",
          "name": "",
          "type": "address"
        }
      ],
      "stateMutability": "view",
      "type": "function",
      "constant": true
    },
    {
      "inputs": [
        {
          "internalType": "address",
          "name": "",
          "type": "address"
        },
        {
          "internalType": "uint256",
          "name": "",
          "type": "uint256"
        }
      ],
      "name": "MedicinesAtWholesaler",
      "outputs": [
        {
          "internalType": "address",
          "name": "",
          "type": "address"
        }
      ],
      "stateMutability": "view",
      "type": "function",
      "constant": true
    },
    {
      "inputs": [],
      "name": "Owner",
      "outputs": [
        {
          "internalType": "address",
          "name": "",
          "type": "address"
        }
      ],
      "stateMutability": "view",
      "type": "function",
      "constant": true
    },
    {
      "inputs": [
        {
          "internalType": "bytes32",
          "name": "_description",
          "type": "bytes32"
        },
        {
          "internalType": "string",
          "name": "_locx",
          "type": "string"
        },
        {
          "internalType": "string",
          "name": "_locy",
          "type": "string"
        },
        {
          "internalType": "uint256",
          "name": "_quantity",
          "type": "uint256"
        },
        {
          "internalType": "address",
          "name": "_transporterAddr",
          "type": "address"
        },
        {
          "internalType": "address",
          "name": "_manufacturerAddr",
          "type": "address"
        }
      ],
      "name": "createRawMaterialPackage",
      "outputs": [],
      "stateMutability": "nonpayable",
      "type": "function"
    },
    {
      "inputs": [],
      "name": "getAllPackages",
      "outputs": [
        {
          "internalType": "address[]",
          "name": "",
          "type": "address[]"
        }
      ],
      "stateMutability": "view",
      "type": "function",
      "constant": true
    },
    {
      "inputs": [],
      "name": "getNoOfPackagesOfSupplier",
      "outputs": [
        {
          "internalType": "uint256",
          "name": "",
          "type": "uint256"
        }
      ],
      "stateMutability": "view",
      "type": "function",
      "constant": true
    },
    {
      "inputs": [
        {
          "internalType": "address",
          "name": "_addr",
          "type": "address"
        },
        {
          "internalType": "uint256",
          "name": "transportertype",
          "type": "uint256"
        },
        {
          "internalType": "address",
          "name": "cid",
          "type": "address"
        }
      ],
      "name": "handlePackage",
      "outputs": [],
      "stateMutability": "nonpayable",
      "type": "function"
    },
    {
      "inputs": [
        {
          "internalType": "address",
          "name": "_manufacturerAddr",
          "type": "address"
        },
        {
          "internalType": "bytes32",
          "name": "_description",
          "type": "bytes32"
        },
        {
          "internalType": "address[]",
          "name": "_rawAddr",
          "type": "address[]"
        },
        {
          "internalType": "uint256",
          "name": "_quantity",
          "type": "uint256"
        },
        {
          "internalType": "address[]",
          "name": "_transporterAddr",
          "type": "address[]"
        },
        {
          "internalType": "address",
          "name": "_recieverAddr",
          "type": "address"
        },
        {
          "internalType": "uint256",
          "name": "RcvrType",
          "type": "uint256"
        }
      ],
      "name": "manufacturerCreatesMedicine",
      "outputs": [],
      "stateMutability": "nonpayable",
      "type": "function"
    },
    {
      "inputs": [
        {
          "internalType": "address",
          "name": "",
          "type": "address"
        },
        {
          "internalType": "uint256",
          "name": "",
          "type": "uint256"
        }
      ],
      "name": "manufacturerMedicines",
      "outputs": [
        {
          "internalType": "address",
          "name": "",
          "type": "address"
        }
      ],
      "stateMutability": "view",
      "type": "function",
      "constant": true
    },
    {
      "inputs": [
        {
          "internalType": "address",
          "name": "",
          "type": "address"
        },
        {
          "internalType": "uint256",
          "name": "",
          "type": "uint256"
        }
      ],
      "name": "manufacturerRawMaterials",
      "outputs": [
        {
          "internalType": "address",
          "name": "",
          "type": "address"
        }
      ],
      "stateMutability": "view",
      "type": "function",
      "constant": true
    },
    {
      "inputs": [
        {
          "internalType": "address",
          "name": "_addr",
          "type": "address"
        },
        {
          "internalType": "address",
          "name": "_manufacturerAddress",
          "type": "address"
        }
      ],
      "name": "manufacturerReceivedPackage",
      "outputs": [],
      "stateMutability": "nonpayable",
      "type": "function"
    },
    {
      "inputs": [
        {
          "internalType": "address",
          "name": "_address",
          "type": "address"
        },
        {
          "internalType": "address",
          "name": "cid",
          "type": "address"
        }
      ],
      "name": "medicineRecievedAtCustomer",
      "outputs": [],
      "stateMutability": "nonpayable",
      "type": "function"
    },
    {
      "inputs": [
        {
          "internalType": "address",
          "name": "_address",
          "type": "address"
        },
        {
          "internalType": "address",
          "name": "cid",
          "type": "address"
        }
      ],
      "name": "medicineRecievedAtDistributor",
      "outputs": [],
      "stateMutability": "nonpayable",
      "type": "function"
    },
    {
      "inputs": [
        {
          "internalType": "address",
          "name": "_address",
          "type": "address"
        }
      ],
      "name": "medicineRecievedAtWholesaler",
      "outputs": [],
      "stateMutability": "nonpayable",
      "type": "function"
    },
    {
      "inputs": [
        {
          "internalType": "address",
          "name": "",
          "type": "address"
        }
      ],
      "name": "sale",
      "outputs": [
        {
          "internalType": "enum Customer.salestatus",
          "name": "",
          "type": "uint8"
        }
      ],
      "stateMutability": "view",
      "type": "function",
      "constant": true
    },
    {
      "inputs": [
        {
          "internalType": "address",
          "name": "_address",
          "type": "address"
        }
      ],
      "name": "salesInfo",
      "outputs": [
        {
          "internalType": "uint256",
          "name": "Status",
          "type": "uint256"
        }
      ],
      "stateMutability": "view",
      "type": "function",
      "constant": true
    },
    {
      "inputs": [
        {
          "internalType": "address",
          "name": "",
          "type": "address"
        },
        {
          "internalType": "uint256",
          "name": "",
          "type": "uint256"
        }
      ],
      "name": "supplierRawMaterials",
      "outputs": [
        {
          "internalType": "address",
          "name": "",
          "type": "address"
        }
      ],
      "stateMutability": "view",
      "type": "function",
      "constant": true
    },
    {
      "inputs": [
        {
          "internalType": "address",
          "name": "_address",
          "type": "address"
        },
        {
          "internalType": "address",
          "name": "transporter",
          "type": "address"
        },
        {
          "internalType": "address",
          "name": "receiver",
          "type": "address"
        }
      ],
      "name": "transferMedicineDtoC",
      "outputs": [],
      "stateMutability": "nonpayable",
      "type": "function"
    },
    {
      "inputs": [
        {
          "internalType": "address",
          "name": "_address",
          "type": "address"
        },
        {
          "internalType": "address",
          "name": "transporter",
          "type": "address"
        },
        {
          "internalType": "address",
          "name": "receiver",
          "type": "address"
        }
      ],
      "name": "transferMedicineWtoD",
      "outputs": [],
      "stateMutability": "nonpayable",
      "type": "function"
    },
    {
      "inputs": [
        {
          "internalType": "address",
          "name": "_address",
          "type": "address"
        },
        {
          "internalType": "uint256",
          "name": "Status",
          "type": "uint256"
        }
      ],
      "name": "updateSaleStatus",
      "outputs": [],
      "stateMutability": "nonpayable",
      "type": "function"
    },
    {
      "inputs": [
        {
          "internalType": "address",
          "name": "",
          "type": "address"
        }
      ],
      "name": "userInfo",
      "outputs": [
        {
          "internalType": "bytes32",
          "name": "name",
          "type": "bytes32"
        },
        {
          "internalType": "enum SupplyChain.roles",
          "name": "role",
          "type": "uint8"
        },
        {
          "internalType": "address",
          "name": "userAddr",
          "type": "address"
        }
      ],
      "stateMutability": "view",
      "type": "function",
      "constant": true
    },
    {
      "inputs": [
        {
          "internalType": "bytes32",
          "name": "name",
          "type": "bytes32"
        },
        {
          "internalType": "string[]",
          "name": "loc",
          "type": "string[]"
        },
        {
          "internalType": "uint256",
          "name": "role",
          "type": "uint256"
        },
        {
          "internalType": "address",
          "name": "_userAddr",
          "type": "address"
        }
      ],
      "name": "registerUser",
      "outputs": [],
      "stateMutability": "nonpayable",
      "type": "function"
    },
    {
      "inputs": [
        {
          "internalType": "uint256",
          "name": "_role",
          "type": "uint256"
        },
        {
          "internalType": "address",
          "name": "_addr",
          "type": "address"
        }
      ],
      "name": "changeUserRole",
      "outputs": [
        {
          "internalType": "string",
          "name": "",
          "type": "string"
        }
      ],
      "stateMutability": "nonpayable",
      "type": "function"
    },
    {
      "inputs": [
        {
          "internalType": "address",
          "name": "_address",
          "type": "address"
        }
      ],
      "name": "getUserInfo",
      "outputs": [
        {
          "components": [
            {
              "internalType": "bytes32",
              "name": "name",
              "type": "bytes32"
            },
            {
              "internalType": "string[]",
              "name": "userLoc",
              "type": "string[]"
            },
            {
              "internalType": "enum SupplyChain.roles",
              "name": "role",
              "type": "uint8"
            },
            {
              "internalType": "address",
              "name": "userAddr",
              "type": "address"
            }
          ],
          "internalType": "struct SupplyChain.userData",
          "name": "",
          "type": "tuple"
        }
      ],
      "stateMutability": "view",
      "type": "function",
      "constant": true
    },
    {
      "inputs": [
        {
          "internalType": "bytes32",
          "name": "_description",
          "type": "bytes32"
        },
        {
          "internalType": "string",
          "name": "_locationx",
          "type": "string"
        },
        {
          "internalType": "string",
          "name": "_locationy",
          "type": "string"
        },
        {
          "internalType": "uint256",
          "name": "_quantity",
          "type": "uint256"
        },
        {
          "internalType": "address",
          "name": "_transporterAddr",
          "type": "address"
        },
        {
          "internalType": "address",
          "name": "_manufacturerAddr",
          "type": "address"
        }
      ],
      "name": "supplierCreatesRawPackage",
      "outputs": [],
      "stateMutability": "nonpayable",
      "type": "function"
    },
    {
      "inputs": [],
      "name": "supplierGetPackageCount",
      "outputs": [
        {
          "internalType": "uint256",
          "name": "",
          "type": "uint256"
        }
      ],
      "stateMutability": "view",
      "type": "function",
      "constant": true
    },
    {
      "inputs": [],
      "name": "supplierGetRawMaterialAddresses",
      "outputs": [
        {
          "internalType": "address[]",
          "name": "",
          "type": "address[]"
        }
      ],
      "stateMutability": "view",
      "type": "function",
      "constant": true
    },
    {
      "inputs": [
        {
          "internalType": "address",
          "name": "_address",
          "type": "address"
        },
        {
          "internalType": "uint256",
          "name": "transporterType",
          "type": "uint256"
        },
        {
          "internalType": "address",
          "name": "cid",
          "type": "address"
        }
      ],
      "name": "transporterHandlePackage",
      "outputs": [],
      "stateMutability": "nonpayable",
      "type": "function"
    },
    {
      "inputs": [
        {
          "internalType": "address",
          "name": "_addr",
          "type": "address"
        }
      ],
      "name": "manufacturerRecivedRawMaterials",
      "outputs": [],
      "stateMutability": "nonpayable",
      "type": "function"
    },
    {
      "inputs": [
        {
          "internalType": "bytes32",
          "name": "_description",
          "type": "bytes32"
        },
        {
          "internalType": "address[]",
          "name": "_rawAddr",
          "type": "address[]"
        },
        {
          "internalType": "uint256",
          "name": "_quantity",
          "type": "uint256"
        },
        {
          "internalType": "address[]",
          "name": "_transporterAddr",
          "type": "address[]"
        },
        {
          "internalType": "address",
          "name": "_receiverAddr",
          "type": "address"
        },
        {
          "internalType": "uint256",
          "name": "RcvrType",
          "type": "uint256"
        }
      ],
      "name": "manufacturerCreatesNewMedicine",
      "outputs": [
        {
          "internalType": "string",
          "name": "",
          "type": "string"
        }
      ],
      "stateMutability": "nonpayable",
      "type": "function"
    },
    {
      "inputs": [
        {
          "internalType": "address",
          "name": "_address",
          "type": "address"
        }
      ],
      "name": "wholesalerReceivedMedicine",
      "outputs": [],
      "stateMutability": "nonpayable",
      "type": "function"
    },
    {
      "inputs": [
        {
          "internalType": "address",
          "name": "_address",
          "type": "address"
        },
        {
          "internalType": "address",
          "name": "transporter",
          "type": "address"
        },
        {
          "internalType": "address",
          "name": "receiver",
          "type": "address"
        }
      ],
      "name": "transferMedicineW_D",
      "outputs": [],
      "stateMutability": "nonpayable",
      "type": "function"
    },
    {
      "inputs": [
        {
          "internalType": "uint256",
          "name": "index",
          "type": "uint256"
        }
      ],
      "name": "getBatchIdByIndexWD",
      "outputs": [
        {
          "internalType": "address",
          "name": "packageID",
          "type": "address"
        }
      ],
      "stateMutability": "view",
      "type": "function",
      "constant": true
    },
    {
      "inputs": [
        {
          "internalType": "address",
          "name": "_address",
          "type": "address"
        }
      ],
      "name": "getSubContractWD",
      "outputs": [
        {
          "internalType": "address",
          "name": "SubContractWD",
          "type": "address"
        }
      ],
      "stateMutability": "view",
      "type": "function",
      "constant": true
    },
    {
      "inputs": [
        {
          "internalType": "address",
          "name": "_address",
          "type": "address"
        },
        {
          "internalType": "address",
          "name": "cid",
          "type": "address"
        }
      ],
      "name": "distributorReceivedMedicine",
      "outputs": [],
      "stateMutability": "nonpayable",
      "type": "function"
    },
    {
      "inputs": [
        {
          "internalType": "address",
          "name": "_address",
          "type": "address"
        },
        {
          "internalType": "address",
          "name": "transporter",
          "type": "address"
        },
        {
          "internalType": "address",
          "name": "receiver",
          "type": "address"
        }
      ],
      "name": "distributorTransferMedicinetoCustomer",
      "outputs": [],
      "stateMutability": "nonpayable",
      "type": "function"
    },
    {
      "inputs": [],
      "name": "getBatchesCountDC",
      "outputs": [
        {
          "internalType": "uint256",
          "name": "count",
          "type": "uint256"
        }
      ],
      "stateMutability": "view",
      "type": "function",
      "constant": true
    },
    {
      "inputs": [
        {
          "internalType": "uint256",
          "name": "index",
          "type": "uint256"
        }
      ],
      "name": "getBatchIdByIndexDC",
      "outputs": [
        {
          "internalType": "address",
          "name": "packageID",
          "type": "address"
        }
      ],
      "stateMutability": "view",
      "type": "function",
      "constant": true
    },
    {
      "inputs": [
        {
          "internalType": "address",
          "name": "_address",
          "type": "address"
        }
      ],
      "name": "getSubContractDC",
      "outputs": [
        {
          "internalType": "address",
          "name": "SubContractDP",
          "type": "address"
        }
      ],
      "stateMutability": "view",
      "type": "function",
      "constant": true
    },
    {
      "inputs": [
        {
          "internalType": "address",
          "name": "_address",
          "type": "address"
        },
        {
          "internalType": "address",
          "name": "cid",
          "type": "address"
        }
      ],
      "name": "customerReceivedMedicine",
      "outputs": [],
      "stateMutability": "nonpayable",
      "type": "function"
    },
    {
      "inputs": [
        {
          "internalType": "address",
          "name": "_address",
          "type": "address"
        },
        {
          "internalType": "uint256",
          "name": "Status",
          "type": "uint256"
        }
      ],
      "name": "updateStatus",
      "outputs": [],
      "stateMutability": "nonpayable",
      "type": "function"
    },
    {
      "inputs": [
        {
          "internalType": "address",
          "name": "_address",
          "type": "address"
        }
      ],
      "name": "getSalesInfo",
      "outputs": [
        {
          "internalType": "uint256",
          "name": "Status",
          "type": "uint256"
        }
      ],
      "stateMutability": "view",
      "type": "function",
      "constant": true
    },
    {
      "inputs": [],
      "name": "getBatchesCountC",
      "outputs": [
        {
          "internalType": "uint256",
          "name": "count",
          "type": "uint256"
        }
      ],
      "stateMutability": "view",
      "type": "function",
      "constant": true
    },
    {
      "inputs": [
        {
          "internalType": "uint256",
          "name": "index",
          "type": "uint256"
        }
      ],
      "name": "getBatchIdByIndexC",
      "outputs": [
        {
          "internalType": "address",
          "name": "_address",
          "type": "address"
        }
      ],
      "stateMutability": "view",
      "type": "function",
      "constant": true
    }
  ],
  "bytecode": "0x608060405234801561001057600080fd5b50600b80546001600160a01b03191633179055614de7806100326000396000f3fe60806040523480156200001157600080fd5b5060043610620002fe5760003560e01c80638dfa742d11620001a7578063c22470ea11620000ff578063dc4c25b311620000b1578063f06822d81162000087578063f06822d81462000729578063f171f1e61462000740578063fd302c351462000757578063ff2b065a146200076e57620002fe565b8063dc4c25b314620006e4578063dd1facb214620006fb578063eae3c207146200071257620002fe565b8063c22470ea1462000681578063c2b70988146200068b578063c40b38af14620006a2578063cd55152e14620006b9578063d1acb52714620006c3578063da48f20c14620006cd57620002fe565b8063a999cca11162000159578063a999cca11462000604578063b0fc028d146200061b578063b4a99a4e1462000632578063b4c200ba146200063c578063bb8ee1c51462000653578063be7ef9c0146200066a57620002fe565b80638dfa742d146200057a5780639100978614620005915780639509c2ff14620005a85780639af035a314620005bf5780639c1ba94a14620005d6578063a4d886b214620005ed57620002fe565b806357bd4c7a116200025b57806375df2684116200020d57806375df268414620004df578063798a826f1462000505578063805bac97146200051c578063824e43e714620005425780638aca032b146200054c5780638ccc8db7146200056357620002fe565b806357bd4c7a14620004445780635fd52520146200045d57806362c1fe3914620004745780636386c1c7146200048b5780636e6c6c1814620004b15780636f41507c14620004c857620002fe565b806331e0afc211620002b557806331e0afc214620003ba5780633475901614620003d1578063412afbaf14620003e85780634aab072614620003ff57806356466dee146200041657806356e5efc4146200042d57620002fe565b8063050e70db146200030357806306db832414620003325780630a421f0f1462000349578063164bcd5b14620003625780631959a00214620003795780631f90ddaf14620003a1575b600080fd5b6200031a62000314366004620022fa565b62000785565b60405162000329919062002701565b60405180910390f35b6200031a62000343366004620022fa565b620007bb565b62000353620007d5565b6040516200032991906200283e565b6200031a62000373366004620025f2565b620008ab565b620003906200038a36600462002196565b62000931565b60405162000329939291906200285c565b620003b8620003b23660046200248f565b6200095d565b005b620003b8620003cb366004620022fa565b62000a5c565b6200031a620003e236600462002196565b62000b87565b6200031a620003f9366004620022fa565b62000ba5565b6200031a62000410366004620022fa565b62000bbf565b620003b862000427366004620021bc565b62000bd9565b620003b86200043e3660046200224a565b62000c7b565b6200044e62000d08565b60405162000329919062002853565b620003b86200046e36600462002196565b62000d62565b6200031a6200048536600462002196565b62000db5565b620004a26200049c36600462002196565b62000dd3565b60405162000329919062002ccf565b620003b8620004c236600462002196565b62000f42565b620003b8620004d936600462002328565b62001013565b620004f6620004f036600462002196565b6200116b565b6040516200032991906200288d565b6200031a6200051636600462002196565b62001180565b620005336200052d366004620023f5565b6200119b565b604051620003299190620028a2565b6200035362001245565b620003b86200055d366004620021bc565b6200129d565b6200031a62000574366004620022fa565b620012ed565b6200031a6200058b366004620022fa565b62001307565b62000533620005a23660046200260b565b62001321565b620003b8620005b9366004620021f9565b620013aa565b6200031a620005d0366004620025f2565b62001485565b6200031a620005e7366004620025f2565b620014e7565b6200044e620005fe36600462002196565b62001549565b6200031a62000615366004620022fa565b62001556565b6200031a6200062c36600462002196565b62001570565b6200031a6200158b565b620003b86200064d3660046200254d565b6200159a565b6200044e6200066436600462002196565b620015f6565b620003b86200067b36600462002328565b6200161e565b6200044e62001692565b620003b86200069c366004620021f9565b620016a5565b620003b8620006b3366004620021bc565b62001740565b6200044e620018c3565b6200044e6200191d565b620003b8620006de366004620021bc565b62001972565b620003b8620006f5366004620021bc565b62001a4f565b620003b86200070c36600462002196565b62001b2c565b620003b862000723366004620022fa565b62001ba8565b620003b86200073a366004620021f9565b62001c30565b620003b8620007513660046200254d565b62001ccb565b6200031a62000768366004620022fa565b62001dd0565b620003b86200077f366004620021f9565b62001dea565b600460205281600052604060002081815481106200079f57fe5b6000918252602090912001546001600160a01b03169150829050565b600060205281600052604060002081815481106200079f57fe5b33600090815260208190526040902054606090818167ffffffffffffffff811180156200080157600080fd5b506040519080825280602002602001820160405280156200082c578160200160208202803683370190505b50905060005b82811015620008a3573360009081526020819052604090208054829081106200085757fe5b9060005260206000200160009054906101000a90046001600160a01b03168282815181106200088257fe5b6001600160a01b039092166020928302919091019091015260010162000832565b509150505b90565b60006005336000908152600c602052604090206002015460ff166006811115620008d157fe5b14620008fa5760405162461bcd60e51b8152600401620008f190620029f7565b60405180910390fd5b3360009081526007602052604090208054839081106200091657fe5b6000918252602090912001546001600160a01b031692915050565b600c602052600090815260409020805460029091015460ff81169061010090046001600160a01b031683565b600b546001600160a01b031633146200097557600080fd5b6001600160a01b0381166000908152600c602090815260409091208581558451620009a99260019092019186019062001ec8565b50816006811115620009b757fe5b6001600160a01b0382166000908152600c60205260409020600201805460ff19166001836006811115620009e757fe5b02179055506001600160a01b0381166000818152600c6020526040908190206002018054610100600160a81b0319166101008402179055517f33a7170f028b1e4f5ba321064a00ed820856a920c7f9c6636fbcf385427b1b0f9062000a4e90879062002853565b60405180910390a250505050565b6006336000908152600c602052604090206002015460ff16600681111562000a8057fe5b14801562000b0e5750816001600160a01b031663abb428a66040518163ffffffff1660e01b815260040160606040518083038186803b15801562000ac357600080fd5b505afa15801562000ad8573d6000803e3d6000fd5b505050506040513d601f19601f8201168201806040525081019062000afe919062002363565b604001516001600160a01b031633145b62000b2d5760405162461bcd60e51b8152600401620008f19062002a3f565b60016001600160a01b0383166000908152600a602052604090205460ff16600481111562000b5757fe5b1462000b775760405162461bcd60e51b8152600401620008f19062002ae2565b62000b83828262001ba8565b5050565b6001600160a01b039081166000908152600560205260409020541690565b600360205281600052604060002081815481106200079f57fe5b600960205281600052604060002081815481106200079f57fe5b604051630a57332d60e31b81526001600160a01b038316906352b999689062000c0790849060040162002701565b600060405180830381600087803b15801562000c2257600080fd5b505af115801562000c37573d6000803e3d6000fd5b505050506001600160a01b03908116600090815260016020818152604083208054928301815583529091200180546001600160a01b03191692909116919091179055565b60008787878787878760405162000c929062001f2c565b62000ca49796959493929190620027c9565b604051809103906000f08015801562000cc1573d6000803e3d6000fd5b506001600160a01b0398891660009081526002602090815260408220805460018101825590835291200180546001600160a01b031916919099161790975550505050505050565b60006006336000908152600c602052604090206002015460ff16600681111562000d2e57fe5b1462000d4e5760405162461bcd60e51b8152600401620008f19062002b19565b503360009081526009602052604090205490565b6003336000908152600c602052604090206002015460ff16600681111562000d8657fe5b1462000da65760405162461bcd60e51b8152600401620008f19062002976565b62000db2813362000bd9565b50565b6001600160a01b039081166000908152600860205260409020541690565b62000ddd62001f3a565b600b546001600160a01b0316331462000df557600080fd5b6001600160a01b0382166000908152600c602090815260408083208151608081018352815481526001820180548451818702810187019095528085529195929486810194939192919084015b8282101562000ef25760008481526020908190208301805460408051601f600260001961010060018716150201909416939093049283018590048502810185019091528181529283018282801562000edd5780601f1062000eb15761010080835404028352916020019162000edd565b820191906000526020600020905b81548152906001019060200180831162000ebf57829003601f168201915b50505050508152602001906001019062000e41565b50505090825250600282015460209091019060ff16600681111562000f1357fe5b600681111562000f1f57fe5b81526002919091015461010090046001600160a01b031660209091015292915050565b6040516307fb74db60e21b81526000906001600160a01b03831690631fedd36c9062000f7390339060040162002701565b602060405180830381600087803b15801562000f8e57600080fd5b505af115801562000fa3573d6000803e3d6000fd5b505050506040513d601f19601f8201168201806040525081019062000fc99190620023dc565b9050806001141562000b83573360009081526003602090815260408220805460018101825590835291200180546001600160a01b0384166001600160a01b03199091161790555050565b8160011415620010855760405163638e9a3d60e01b81526001600160a01b0384169063638e9a3d906200104b90339060040162002701565b600060405180830381600087803b1580156200106657600080fd5b505af11580156200107b573d6000803e3d6000fd5b5050505062001166565b8160021415620010bd5760405163ac42a41560e01b81526001600160a01b0384169063ac42a415906200104b90339060040162002701565b8160031415620010f757604051630887851b60e31b81526001600160a01b0382169063443c28d8906200104b908690339060040162002784565b8160041415620011665760405163298abd8d60e11b81526001600160a01b038216906353157b1a9062001131908690339060040162002784565b600060405180830381600087803b1580156200114c57600080fd5b505af115801562001161573d6000803e3d6000fd5b505050505b505050565b600a6020526000908152604090205460ff1681565b6008602052600090815260409020546001600160a01b031681565b60606003336000908152600c602052604090206002015460ff166006811115620011c157fe5b14620011e15760405162461bcd60e51b8152600401620008f19062002c53565b81620012015760405162461bcd60e51b8152600401620008f190620029c0565b620012123388888888888862000c7b565b506040805180820190915260118152704d65646963696e6520637265617465642160781b60208201529695505050505050565b60606001336000908152600c602052604090206002015460ff1660068111156200126b57fe5b146200128b5760405162461bcd60e51b8152600401620008f19062002b81565b606062001297620007d5565b91505090565b6006336000908152600c602052604090206002015460ff166006811115620012c157fe5b14620012e15760405162461bcd60e51b8152600401620008f19062002a9d565b62000b83828262001972565b600160205281600052604060002081815481106200079f57fe5b600660205281600052604060002081815481106200079f57fe5b600b546060906001600160a01b031633146200133c57600080fd5b8260068111156200134957fe5b6001600160a01b0383166000908152600c60205260409020600201805460ff191660018360068111156200137957fe5b02179055505060408051808201909152600d81526c526f6c6520557064617465642160981b60208201525b92915050565b6004336000908152600c602052604090206002015460ff166006811115620013ce57fe5b148015620014595750826001600160a01b031663abb428a66040518163ffffffff1660e01b815260040160606040518083038186803b1580156200141157600080fd5b505afa15801562001426573d6000803e3d6000fd5b505050506040513d601f19601f820116820180604052508101906200144c919062002363565b516001600160a01b031633145b620014785760405162461bcd60e51b8152600401620008f19062002b19565b6200116683838362001c30565b60006004336000908152600c602052604090206002015460ff166006811115620014ab57fe5b14620014cb5760405162461bcd60e51b8152600401620008f19062002bc5565b3360009081526004602052604090208054839081106200091657fe5b60006006336000908152600c602052604090206002015460ff1660068111156200150d57fe5b146200152d5760405162461bcd60e51b8152600401620008f19062002b19565b3360009081526009602052604090208054839081106200091657fe5b6000620013a482620015f6565b600260205281600052604060002081815481106200079f57fe5b6005602052600090815260409020546001600160a01b031681565b600b546001600160a01b031681565b6001336000908152600c602052604090206002015460ff166006811115620015be57fe5b14620015de5760405162461bcd60e51b8152600401620008f19062002b81565b620015ee86868686868662001ccb565b505050505050565b6001600160a01b0381166000908152600a602052604081205460ff166004811115620013a457fe5b6002336000908152600c602052604090206002015460ff1660068111156200164257fe5b14620016625760405162461bcd60e51b8152600401620008f19062002c0c565b60008211620016855760405162461bcd60e51b8152600401620008f19062002c98565b6200116683838362001013565b3360009081526020819052604090205490565b600083338484604051620016b99062001f62565b620016c894939291906200279e565b604051809103906000f080158015620016e5573d6000803e3d6000fd5b5033600090815260076020908152604080832080546001810182559084528284200180546001600160a01b039586166001600160a01b0319918216811790925598909416835260089091529020805490951617909355505050565b6040516307fb74db60e21b81526000906001600160a01b03841690631fedd36c906200177190339060040162002701565b602060405180830381600087803b1580156200178c57600080fd5b505af1158015620017a1573d6000803e3d6000fd5b505050506040513d601f19601f82011682018060405250810190620017c79190620023dc565b905080600214156200116657336000908152600660209081526040808320805460018101825590845291832090910180546001600160a01b0319166001600160a01b03871690811790915581516355da145360e11b81529151909163abb428a6916004808301926060929190829003018186803b1580156200184857600080fd5b505afa1580156200185d573d6000803e3d6000fd5b505050506040513d601f19601f8201168201806040525081019062001883919062002363565b516001600160a01b031614620011665760405163d7dcbe3b60e01b81526001600160a01b0383169063d7dcbe3b9062001131908690339060040162002784565b60006005336000908152600c602052604090206002015460ff166006811115620018e957fe5b14620019095760405162461bcd60e51b8152600401620008f190620029f7565b503360009081526007602052604090205490565b60006001336000908152600c602052604090206002015460ff1660068111156200194357fe5b14620019635760405162461bcd60e51b8152600401620008f19062002b81565b6200196d62001692565b905090565b604051637bd6ee1f60e11b81526001600160a01b0382169063f7addc3e90620019a2908590339060040162002784565b600060405180830381600087803b158015620019bd57600080fd5b505af1158015620019d2573d6000803e3d6000fd5b50503360009081526009602090815260408220805460018082018355918452919092200180546001600160a01b0319166001600160a01b038716179055915062001a199050565b6001600160a01b0383166000908152600a60205260409020805460ff1916600183600481111562001a4657fe5b02179055505050565b6005336000908152600c602052604090206002015460ff16600681111562001a7357fe5b14801562001b015750816001600160a01b031663abb428a66040518163ffffffff1660e01b815260040160606040518083038186803b15801562001ab657600080fd5b505afa15801562001acb573d6000803e3d6000fd5b505050506040513d601f19601f8201168201806040525081019062001af1919062002363565b602001516001600160a01b031633145b62001b205760405162461bcd60e51b8152600401620008f190620028b7565b62000b83828262001740565b6004336000908152600c602052604090206002015460ff16600681111562001b5057fe5b148062001b7e57506005336000908152600c602052604090206002015460ff16600681111562001b7c57fe5b145b62001b9d5760405162461bcd60e51b8152600401620008f19062002920565b62000db28162000f42565b80600481111562001bb557fe5b6001600160a01b0383166000908152600a60205260409020805460ff1916600183600481111562001be257fe5b0217905550336001600160a01b03167f778762ccb04f5a8838ed8914b13eb6f118224696959cbfa0cfea54133f76a7d5838360405162001c2492919062002825565b60405180910390a25050565b60008333848460405162001c449062001f70565b62001c5394939291906200279e565b604051809103906000f08015801562001c70573d6000803e3d6000fd5b5033600090815260046020908152604080832080546001810182559084528284200180546001600160a01b039586166001600160a01b0319918216811790925598909416835260059091529020805490951617909355505050565b6000336002334260405160200162001ce5929190620026c1565b60408051601f198184030181529082905262001d0191620026e3565b602060405180830381855afa15801562001d1f573d6000803e3d6000fd5b5050506040513d601f19601f8201168201806040525081019062001d449190620023dc565b60601c88888888888860405162001d5b9062001f7e565b62001d6e98979695949392919062002715565b604051809103906000f08015801562001d8b573d6000803e3d6000fd5b50336000908152602081815260408220805460018101825590835291200180546001600160a01b0319166001600160a01b039290921691909117905550505050505050565b600760205281600052604060002081815481106200079f57fe5b6005336000908152600c602052604090206002015460ff16600681111562001e0e57fe5b14801562001e9c5750826001600160a01b031663abb428a66040518163ffffffff1660e01b815260040160606040518083038186803b15801562001e5157600080fd5b505afa15801562001e66573d6000803e3d6000fd5b505050506040513d601f19601f8201168201806040525081019062001e8c919062002363565b602001516001600160a01b031633145b62001ebb5760405162461bcd60e51b8152600401620008f190620028b7565b62001166838383620016a5565b82805482825590600052602060002090810192821562001f1a579160200282015b8281111562001f1a578251805162001f0991849160209091019062001f8c565b509160200191906001019062001ee9565b5062001f289291506200200d565b5090565b610e4f8062002e0483390190565b6040805160808101825260008082526060602083015290918201908152600060209091015290565b6103bc8062003c5383390190565b6103b8806200400f83390190565b6109eb80620043c783390190565b828054600181600116156101000203166002900490600052602060002090601f016020900481019282601f1062001fcf57805160ff191683800117855562001fff565b8280016001018555821562001fff579182015b8281111562001fff57825182559160200191906001019062001fe2565b5062001f2892915062002035565b620008a891905b8082111562001f285760006200202b828262002052565b5060010162002014565b620008a891905b8082111562001f2857600081556001016200203c565b50805460018160011615610100020316600290046000825580601f106200207a575062000db2565b601f01602090049060005260206000209081019062000db2919062002035565b8035620013a48162002ded565b600082601f830112620020b8578081fd5b8135620020cf620020c98262002d99565b62002d71565b818152915060208083019084810181840286018201871015620020f157600080fd5b60005b848110156200211d5781356200210a8162002ded565b84529282019290820190600101620020f4565b505050505092915050565b600082601f83011262002139578081fd5b813567ffffffffffffffff81111562002150578182fd5b62002165601f8201601f191660200162002d71565b91508082528360208285010111156200217d57600080fd5b8060208401602084013760009082016020015292915050565b600060208284031215620021a8578081fd5b8135620021b58162002ded565b9392505050565b60008060408385031215620021cf578081fd5b8235620021dc8162002ded565b91506020830135620021ee8162002ded565b809150509250929050565b6000806000606084860312156200220e578081fd5b83356200221b8162002ded565b925060208401356200222d8162002ded565b915060408401356200223f8162002ded565b809150509250925092565b600080600080600080600060e0888a03121562002265578283fd5b8735620022728162002ded565b965060208801359550604088013567ffffffffffffffff8082111562002296578485fd5b620022a48b838c01620020a7565b965060608a0135955060808a0135915080821115620022c1578485fd5b50620022d08a828b01620020a7565b93505060a0880135620022e38162002ded565b8092505060c0880135905092959891949750929550565b600080604083850312156200230d578182fd5b82356200231a8162002ded565b946020939093013593505050565b6000806000606084860312156200233d578283fd5b83356200234a8162002ded565b92506020840135915060408401356200223f8162002ded565b60006060828403121562002375578081fd5b82601f83011262002384578081fd5b62002390606062002d71565b808385606086011115620023a2578384fd5b835b6003811015620023d1578151620023bb8162002ded565b84526020938401939190910190600101620023a4565b509095945050505050565b600060208284031215620023ee578081fd5b5051919050565b60008060008060008060c087890312156200240e578182fd5b86359550602087013567ffffffffffffffff808211156200242d578384fd5b6200243b8a838b01620020a7565b965060408901359550606089013591508082111562002458578384fd5b506200246789828a01620020a7565b93505060808701356200247a8162002ded565b8092505060a087013590509295509295509295565b60008060008060808587031215620024a5578182fd5b8435935060208086013567ffffffffffffffff811115620024c4578384fd5b80870188601f820112620024d6578485fd5b80359150620024e9620020c98362002d99565b82815283810190828501875b8581101562002522576200250f8d88843588010162002128565b84529286019290860190600101620024f5565b50508097505050505050604085013591506200254286606087016200209a565b905092959194509250565b60008060008060008060c0878903121562002566578384fd5b86359550602087013567ffffffffffffffff8082111562002585578586fd5b620025938a838b0162002128565b96506040890135915080821115620025a9578586fd5b50620025b889828a0162002128565b945050606087013592506080870135620025d28162002ded565b915060a0870135620025e48162002ded565b809150509295509295509295565b60006020828403121562002604578081fd5b5035919050565b600080604083850312156200261e578182fd5b823591506020830135620021ee8162002ded565b6001600160a01b03169052565b6000815180845260208085019450808401835b83811015620026795781516001600160a01b03168752958201959082019060010162002652565b509495945050505050565b600781106200268f57fe5b9052565b60008151808452620026ad81602086016020860162002dba565b601f01601f19169290920160200192915050565b60609290921b6bffffffffffffffffffffffff19168252601482015260340190565b60008251620026f781846020870162002dba565b9190910192915050565b6001600160a01b0391909116815260200190565b6001600160a01b038981168252888116602083015260408201889052610100606083018190526000916200274c8483018a62002693565b848103608086015262002760818a62002693565b60a08601989098525094851660c08401525050911660e09091015295945050505050565b6001600160a01b0392831681529116602082015260400190565b6001600160a01b03948516815292841660208401529083166040830152909116606082015260800190565b600060018060a01b03808a16835288602084015260e06040840152620027f360e08401896200263f565b87606085015283810360808501526200280d81886200263f565b9590911660a0840152505060c0015295945050505050565b6001600160a01b03929092168252602082015260400190565b600060208252620021b560208301846200263f565b90815260200190565b83815260608101600784106200286e57fe5b60208201939093526001600160a01b0391909116604090910152919050565b60208101600583106200289c57fe5b91905290565b600060208252620021b5602083018462002693565b60208082526043908201527f4f6e6c79204469737472696275746f72206f722063757272656e74206f776e6560408201527f72206f66207061636b6167652063616e2063616c6c20746869732066756e637460608201526234b7b760e91b608082015260a00190565b60208082526036908201527f4f6e6c792057686f6c6573616c657220616e64204469737472696275746f722060408201527531b0b71031b0b636103a3434b990333ab731ba34b7b760511b606082015260800190565b6020808252602a908201527f4f6e6c79204d616e7566616374757265722063616e20616363657373207468696040820152693990333ab731ba34b7b760b11b606082015260800190565b6020808252601f908201527f526563696576657220547970652073686f756c6420626520646566696e656400604082015260600190565b60208082526028908201527f4f6e6c79204469737472696275746f722043616e2063616c6c207468697320666040820152673ab731ba34b7b71760c11b606082015260800190565b602080825260409082018190527f4f6e6c7920437573746f6d6572206f722063757272656e74206f776e6572206f908201527f66207061636b6167652063616e2063616c6c20746869732066756e6374696f6e606082015260800190565b60208082526025908201527f4f6e6c7920437573746f6d65722043616e2063616c6c20746869732066756e636040820152643a34b7b71760d91b606082015260800190565b6020808252601c908201527f4d65646963696e65204d75737420626520617420437573746f6d657200000000604082015260600190565b60208082526042908201527f4f6e6c792057686f6c6573616c6572206f722063757272656e74206f776e657260408201527f206f66207061636b6167652063616e2063616c6c20746869732066756e63746960608201526137b760f11b608082015260a00190565b60208082526024908201527f526f6c653d3e537570706c6965722063616e2075736520746869732066756e636040820152633a34b7b760e11b606082015260800190565b60208082526027908201527f4f6e6c792057686f6c6573616c65722043616e2063616c6c20746869732066756040820152663731ba34b7b71760c91b606082015260800190565b60208082526027908201527f4f6e6c79205472616e73706f727465722063616e2063616c6c207468697320666040820152663ab731ba34b7b760c91b606082015260800190565b60208082526025908201527f4f6e6c79204d616e7566616374757265722063616e20637265617465204d65646040820152646963696e6560d81b606082015260800190565b6020808252601d908201527f5472616e73706f72746572205479706520697320696e636f7272656374000000604082015260600190565b60208082528251828201528281015160806040840152805160a084018190526000929160c0828402860181019285929187019185015b8184101562002d395760bf1988860301835262002d2485825162002693565b94506001939093019291850191850162002d05565b505050506040850151915062002d53606085018362002684565b6060850151915062002d69608085018362002632565b949350505050565b60405181810167ffffffffffffffff8111828210171562002d9157600080fd5b604052919050565b600067ffffffffffffffff82111562002db0578081fd5b5060209081020190565b60005b8381101562002dd757818101518382015260200162002dbd565b8381111562002de7576000848401525b50505050565b6001600160a01b038116811462000db257600080fdfe60806040523480156200001157600080fd5b5060405162000e4f38038062000e4f833981810160405260e08110156200003757600080fd5b815160208301516040808501805191519395929483019291846401000000008211156200006357600080fd5b9083019060208201858111156200007957600080fd5b82518660208202830111640100000000821117156200009757600080fd5b82525081516020918201928201910280838360005b83811015620000c6578181015183820152602001620000ac565b505050509050016040526020018051906020019092919080516040519392919084640100000000821115620000fa57600080fd5b9083019060208201858111156200011057600080fd5b82518660208202830111640100000000821117156200012e57600080fd5b82525081516020918201928201910280838360005b838110156200015d57818101518382015260200162000143565b505050509190910160409081526020838101519390910151600080546001600160a01b038d166001600160a01b0319918216811790925560048054909116909117905560018a905588519395509350620001bf92600292509088019062000239565b5060088490558251620001da90600390602086019062000239565b5080600114156200020657600580546001600160a01b0319166001600160a01b0384161790556200022c565b80600214156200022c57600680546001600160a01b0319166001600160a01b0384161790555b50505050505050620002cd565b82805482825590600052602060002090810192821562000291579160200282015b828111156200029157825182546001600160a01b0319166001600160a01b039091161782556020909201916001909101906200025a565b506200029f929150620002a3565b5090565b620002ca91905b808211156200029f5780546001600160a01b0319168155600101620002aa565b90565b610b7280620002dd6000396000f3fe608060405234801561001057600080fd5b506004361061009e5760003560e01c8063ac42a41511610066578063ac42a41514610197578063c8f5f189146101bd578063d2f3fcc7146101e3578063e002c8a5146101eb578063f5c0e383146102e55761009e565b80631fedd36c146100a35780632f1d7588146100db57806393a668b71461010b578063aab3a9d614610131578063abb428a614610157575b600080fd5b6100c9600480360360208110156100b957600080fd5b50356001600160a01b0316610313565b60408051918252519081900360200190f35b610109600480360360408110156100f157600080fd5b506001600160a01b0381358116916020013516610542565b005b6101096004803603602081101561012157600080fd5b50356001600160a01b03166105cb565b6101096004803603602081101561014757600080fd5b50356001600160a01b0316610638565b61015f61068a565b6040518082606080838360005b8381101561018457818101518382015260200161016c565b5050505090500191505060405180910390f35b610109600480360360208110156101ad57600080fd5b50356001600160a01b03166106c5565b610109600480360360208110156101d357600080fd5b50356001600160a01b0316610846565b6100c96108af565b6101f36108c8565b60405180886001600160a01b03166001600160a01b031681526020018781526020018060200186815260200180602001856001600160a01b03166001600160a01b03168152602001846001600160a01b03166001600160a01b03168152602001838103835288818151815260200191508051906020019060200280838360005b8381101561028b578181015183820152602001610273565b50505050905001838103825286818151815260200191508051906020019060200280838360005b838110156102ca5781810151838201526020016102b2565b50505050905001995050505050505050505060405180910390f35b610109600480360360408110156102fb57600080fd5b506001600160a01b03813581169160200135166109ef565b6005546000906001600160a01b038381169116148061033f57506006546001600160a01b038381169116145b61037a5760405162461bcd60e51b8152600401808060200182810382526035815260200180610a9c6035913960400191505060405180910390fd5b60095460019060ff16600681111561038e57fe5b10156103e1576040805162461bcd60e51b815260206004820152601960248201527f50726f64756374206e6f74207069636b65642075702079657400000000000000604482015290519081900360640190fd5b6005546001600160a01b03838116911614801561040e5750600160095460ff16600681111561040c57fe5b145b15610492576009805460ff1916600390811790915560055481546001600160a01b039091169190600019810190811061044357fe5b60009182526020918290200154604080516002815260039381019390935280516001600160a01b03909216923092600080516020610a7c833981519152929181900390910190a450600161053d565b6006546001600160a01b0383811691161480156104bf5750600260095460ff1660068111156104bd57fe5b145b1561053d576009805460ff19166004179055600654600380546001600160a01b039092169160001981019081106104f257fe5b60009182526020918290200154604080516003815260049381019390935280516001600160a01b03909216923092600080516020610a7c833981519152929181900390910190a45060025b919050565b6006546001600160a01b0382811691161461058e5760405162461bcd60e51b8152600401808060200182810382526023815260200180610af36023913960400191505060405180910390fd5b600780546001600160a01b0319166001600160a01b03841617905560055b6009805460ff191660018360068111156105c257fe5b02179055505050565b6006546001600160a01b038281169116146106175760405162461bcd60e51b8152600401808060200182810382526023815260200180610af36023913960400191505060405180910390fd5b60045b6009805460ff1916600183600681111561063057fe5b021790555050565b600380546001810182556000919091527fc2575a0e9e593c00f959f8c92f12db2869c3395a3b0502d05e2516446f71f85b0180546001600160a01b0319166001600160a01b0392909216919091179055565b610692610a5d565b50604080516060810182526005546001600160a01b03908116825260065481166020830152600754169181019190915290565b6003805460001981019081106106d757fe5b6000918252602090912001546001600160a01b0382811691161461072c5760405162461bcd60e51b8152600401808060200182810382526027815260200180610b166027913960400191505060405180910390fd5b600060095460ff16600681111561073f57fe5b14610791576040805162461bcd60e51b815260206004820181905260248201527f5061636b616765206d757374206265206174204d616e7566616374757265722e604482015290519081900360640190fd5b6005546001600160a01b0316156107f4576009805460ff1916600190811790915560055460408051838152602081019390935280516001600160a01b0392831693928516923092600080516020610a7c83398151915292918290030190a4610843565b6009805460ff191660029081179091556006546040805160018152602081019390935280516001600160a01b0392831693928516923092600080516020610a7c83398151915292918290030190a45b50565b6007546001600160a01b038281169116146108a8576040805162461bcd60e51b815260206004820181905260248201527f5468697320437573746f6d6572206973206e6f74204173736f6369617465642e604482015290519081900360640190fd5b600661061a565b60095460009060ff1660068111156108c357fe5b905090565b600080606060006060600080600460009054906101000a90046001600160a01b031660015460026008546003600660009054906101000a90046001600160a01b0316600760009054906101000a90046001600160a01b03168480548060200260200160405190810160405280929190818152602001828054801561097557602002820191906000526020600020905b81546001600160a01b03168152600190910190602001808311610957575b50505050509450828054806020026020016040519081016040528092919081815260200182805480156109d157602002820191906000526020600020905b81546001600160a01b031681526001909101906020018083116109b3575b50505050509250965096509650965096509650965090919293949596565b6005546001600160a01b03828116911614610a3b5760405162461bcd60e51b8152600401808060200182810382526022815260200180610ad16022913960400191505060405180910390fd5b600680546001600160a01b0319166001600160a01b03841617905560026105ac565b6040518060600160405280600390602082028036833750919291505056fe7e89c4b1a4e2b51aae84eb1f90e8a34cb792ece5ac5cb63db4830c891220b28d4f6e6c792057686f6c6573616c6572206f72204469737472696275746f722063616e2063616c6c20746869732066756e6374696f6e746869732057686f6c6573616c6572206973206e6f74204173736f6369617465642e54686973204469737472696275746f72206973206e6f74204173736f6369617465642e4f6e6c79205472616e73706f727465722063616e2063616c6c20746869732066756e6374696f6ea2646970667358221220d381878865cb0bf6e5bb0afcc77fc14787430297a06a17fdbc37851da94583f964736f6c63430006060033608060405234801561001057600080fd5b506040516103bc3803806103bc8339818101604052608081101561003357600080fd5b50805160208201516040830151606090930151600080546001600160a01b03199081166001600160a01b03948516908117835560018054831696861696909617909555600280548216909517909455600380548516958416959095179094556004805490931691161760ff60a01b191690556103079081906100b590396000f3fe608060405234801561001057600080fd5b50600436106100415760003560e01c806353157b1a14610046578063c0114d0614610076578063f7addc3e14610090575b600080fd5b6100746004803603604081101561005c57600080fd5b506001600160a01b03813581169160200135166100be565b005b61007e610190565b60408051918252519081900360200190f35b610074600480360360408110156100a657600080fd5b506001600160a01b03813581169160200135166101b0565b6003546001600160a01b0382811691161461010a5760405162461bcd60e51b815260040180806020018281038252603381526020018061026f6033913960400191505060405180910390fd5b6004805460ff60a01b1916600160a01b17808255600254604080516305e3aeb160e31b81526001600160a01b039384169481019490945290821660248401525190841691632f1d758891604480830192600092919082900301818387803b15801561017457600080fd5b505af1158015610188573d6000803e3d6000fd5b505050505050565b600454600090600160a01b900460ff1660028111156101ab57fe5b905090565b6004546001600160a01b038281169116146101fc5760405162461bcd60e51b81526004018080602001828103825260308152602001806102a26030913960400191505060405180910390fd5b600480546002919060ff60a01b1916600160a01b830217905550816001600160a01b031663c8f5f189826040518263ffffffff1660e01b815260040180826001600160a01b03166001600160a01b03168152602001915050600060405180830381600087803b15801561017457600080fdfe4f6e6c79204173736f636961746564207472616e73706f727465722063616e2063616c6c20746869732066756e6374696f6e2e4f6e6c79204173736f6369617465642072656365697665722063616e2063616c6c20746869732066756e6374696f6e2ea264697066735822122013c3db324ef9a170d343283f07ba8b7562ea76d95c0ad4f130c21691cc14321b64736f6c63430006060033608060405234801561001057600080fd5b506040516103b83803806103b88339818101604052608081101561003357600080fd5b50805160208201516040830151606090930151600080546001600160a01b03199081166001600160a01b03948516908117835560018054831696861696909617909555600280548216909517909455600380548516958416959095179094556004805490931691161760ff60a01b191690556103039081906100b590396000f3fe608060405234801561001057600080fd5b50600436106100415760003560e01c8063443c28d814610046578063d2f3fcc714610076578063d7dcbe3b14610090575b600080fd5b6100746004803603604081101561005c57600080fd5b506001600160a01b03813581169160200135166100be565b005b61007e610190565b60408051918252519081900360200190f35b610074600480360360408110156100a657600080fd5b506001600160a01b03813581169160200135166101b0565b6003546001600160a01b0382811691161461010a5760405162461bcd60e51b815260040180806020018281038252602f81526020018061029f602f913960400191505060405180910390fd5b6004805460ff60a01b1916600160a01b178082556002546040805163f5c0e38360e01b81526001600160a01b03938416948101949094529082166024840152519084169163f5c0e38391604480830192600092919082900301818387803b15801561017457600080fd5b505af1158015610188573d6000803e3d6000fd5b505050505050565b600454600090600160a01b900460ff1660028111156101ab57fe5b905090565b6004546001600160a01b038281169116146101fc5760405162461bcd60e51b815260040180806020018281038252603081526020018061026f6030913960400191505060405180910390fd5b600480546002919060ff60a01b1916600160a01b830217905550816001600160a01b03166393a668b7826040518263ffffffff1660e01b815260040180826001600160a01b03166001600160a01b03168152602001915050600060405180830381600087803b15801561017457600080fdfe4f6e6c79204173736f6369617465642072656365697665722063616e2063616c6c20746869732066756e6374696f6e2e4f6e6c79204173736f63696174656420736869707065722063616e2063616c6c20746869732066756e6374696f6e2ea264697066735822122030073f02407026d452dadc27b50cff277452dd85840dfca31aacfa227b1ee81164736f6c6343000606003360806040523480156200001157600080fd5b50604051620009eb380380620009eb8339810160408190526200003491620002c0565b600080546001600160a01b03808b166001600160a01b03199283161790925560018054928a1692909116919091179055600286905584516200007e90600390602088019062000156565b5083516200009490600390602087019062000156565b506006839055600780546001600160a01b03199081166001600160a01b03858116919091179092556008805482168484161790556009805460ff60a01b199216928b16929092171690556005805460018101825560009190915285516200011291600080516020620009cb8339815191520190602088019062000156565b506005805460018101825560009190915284516200014791600080516020620009cb8339815191520190602087019062000156565b5050505050505050506200038a565b828054600181600116156101000203166002900490600052602060002090601f016020900481019282601f106200019957805160ff1916838001178555620001c9565b82800160010185558215620001c9579182015b82811115620001c9578251825591602001919060010190620001ac565b50620001d7929150620001db565b5090565b620001f891905b80821115620001d75760008155600101620001e2565b90565b80516001600160a01b03811681146200021357600080fd5b92915050565b600082601f8301126200022a578081fd5b81516001600160401b038082111562000241578283fd5b6040516020601f8401601f191682018101838111838210171562000263578586fd5b806040525081945083825286818588010111156200028057600080fd5b600092505b83831015620002a4578583018101518284018201529182019162000285565b83831115620002b65760008185840101525b5050505092915050565b600080600080600080600080610100898b031215620002dd578384fd5b620002e98a8a620001fb565b9750620002fa8a60208b01620001fb565b60408a015160608b015191985096506001600160401b03808211156200031e578586fd5b6200032c8c838d0162000219565b965060808b015191508082111562000342578586fd5b50620003518b828c0162000219565b94505060a089015192506200036a8a60c08b01620001fb565b91506200037b8a60e08b01620001fb565b90509295985092959890939650565b610631806200039a6000396000f3fe608060405234801561001057600080fd5b506004361061004c5760003560e01c806352b9996814610051578063638e9a3d146100665780636b099dca146100795780638072352014610097575b600080fd5b61006461005f36600461039b565b6100b2565b005b61006461007436600461039b565b61018d565b610081610253565b60405161008e91906105f2565b60405180910390f35b61009f610273565b60405161008e9796959493929190610421565b6008546001600160a01b038281169116146100e85760405162461bcd60e51b81526004016100df9061050e565b60405180910390fd5b6001600954600160a01b900460ff16600281111561010257fe5b1461011f5760405162461bcd60e51b81526004016100df906104d7565b6009805460ff60a01b1916600160a11b179055600854600754600180546040516001600160a01b039485169493841693909116917f7e89c4b1a4e2b51aae84eb1f90e8a34cb792ece5ac5cb63db4830c891220b28d9161018291906002906104c9565b60405180910390a450565b6007546001600160a01b038281169116146101ba5760405162461bcd60e51b81526004016100df906105a2565b6000600954600160a01b900460ff1660028111156101d457fe5b146101f15760405162461bcd60e51b81526004016100df9061056b565b6009805460ff60a01b1916600160a01b179055600854600754600180546040516001600160a01b039485169493841693909116917f7e89c4b1a4e2b51aae84eb1f90e8a34cb792ece5ac5cb63db4830c891220b28d91610182919081906104c9565b600954600090600160a01b900460ff16600281111561026e57fe5b905090565b60015460025460065460095460075460085460058054604080516020808402820181019092528281526000998a996060998b998a998a998a996001600160a01b0396871699959890979496938416959284169493909116929187918b9084015b8282101561037e5760008481526020908190208301805460408051601f600260001961010060018716150201909416939093049283018590048502810185019091528181529283018282801561036a5780601f1061033f5761010080835404028352916020019161036a565b820191906000526020600020905b81548152906001019060200180831161034d57829003601f168201915b5050505050815260200190600101906102d3565b505050509450965096509650965096509650965090919293949596565b6000602082840312156103ac578081fd5b81356001600160a01b03811681146103c2578182fd5b9392505050565b60008151808452815b818110156103ee576020818501810151868301820152016103d2565b818111156103ff5782602083870101525b50601f01601f19169290920160200192915050565b6001600160a01b03169052565b600060e0820160018060a01b038a1683526020898185015260e0604085015281895161044d81856105f2565b91508193508281028201838c01865b838110156104865786830385526104748383516103c9565b9486019492509085019060010161045c565b505080955050505050508560608301526104a36080830186610414565b6104b060a0830185610414565b6104bd60c0830184610414565b98975050505050505050565b918252602082015260400190565b60208082526019908201527f50726f64756374206e6f74207069636b65642075702079657400000000000000604082015260600190565b60208082526039908201527f4f6e6c79204d616e756661637475726572206f6620746865207061636b61676560408201527f2063616e20726563656965766520746865207061636b61676500000000000000606082015260800190565b6020808252601c908201527f5061636b616765206d75737420626520617420537570706c6965722e00000000604082015260600190565b60208082526030908201527f4f6e6c79207472616e73706f72746572206f6620746865207061636b6167652060408201526f63616e207069636b207061636b61676560801b606082015260800190565b9081526020019056fea26469706673582212201b155970daa004b501e9f27bb00a41b51fe38e75628cce79c25a0544416d03c764736f6c63430006060033036b6384b5eca791c62761152d0c79bb0604c104a5fb6f4eb0703f3154bb3db0a26469706673582212209507c891878ba73175f316e7e6b40207aa2aed38a3dbb6c61e72cdac1a5378db64736f6c63430006060033",
  "immutableReferences": {},
  "source": "pragma solidity ^0.6.6;\r\npragma experimental ABIEncoderV2;\r\n\r\nimport './RawMaterial.sol';\r\nimport './Supplier.sol';\r\nimport './Transporter.sol';\r\nimport './Medicine.sol';\r\nimport './Manufacturer.sol';\r\nimport './MedicineW_D.sol';\r\nimport './Wholesaler.sol';\r\nimport './MedicineD_C.sol';\r\nimport './Distributor.sol';\r\nimport './Customer.sol';\r\n\r\n\r\n//// New supply chain : supplier -> transporter -> manufacturer -> transporter -> whole-saler -> transporter -> distributor -> transporter -> customer/hospital/pharmacy\r\n\r\n\r\ncontract SupplyChain is Supplier, Transporter, Manufacturer, Wholesaler, Distributor, Customer {\r\n    \r\n    address public Owner;\r\n    \r\n    constructor() public {\r\n        Owner = msg.sender;\r\n    }\r\n    \r\n    modifier onlyOwner() {\r\n        require(Owner == msg.sender);\r\n        _;\r\n    }\r\n    \r\n    modifier checkUser(address addr) {\r\n        require(addr == msg.sender);\r\n        _;\r\n    }\r\n    \r\n    enum roles {\r\n        noRole,\r\n        supplier,\r\n        transporter,\r\n        manufacturer,\r\n        wholesaler,\r\n        distributor,\r\n        customer\r\n    }\r\n    \r\n    \r\n    //////////////// Events ////////////////////\r\n    \r\n    event UserRegister(address indexed _address, bytes32 name);\r\n    \r\n    \r\n    /////////////// Users (Only Owner Executable) //////////////////////\r\n    \r\n    struct userData {\r\n        bytes32 name;\r\n        string[] userLoc;\r\n        roles role;\r\n        address userAddr;\r\n    }\r\n    \r\n    mapping (address => userData) public userInfo;\r\n    \r\n    function registerUser(bytes32 name, string[] memory loc, uint role, address _userAddr) public onlyOwner {\r\n        userInfo[_userAddr].name = name;\r\n        userInfo[_userAddr].userLoc = loc;\r\n        userInfo[_userAddr].role = roles(role);\r\n        userInfo[_userAddr].userAddr = _userAddr;\r\n        \r\n        emit UserRegister(_userAddr, name);\r\n    }\r\n    \r\n    function changeUserRole(uint _role, address _addr) public onlyOwner returns(string memory) {\r\n        userInfo[_addr].role = roles(_role);\r\n       return \"Role Updated!\";\r\n    }\r\n    \r\n    function getUserInfo(address _address) public view onlyOwner returns(\r\n        userData memory\r\n        ) {\r\n        return userInfo[_address];\r\n    }\r\n    \r\n\r\n    /////////////// Supplier //////////////////////\r\n    \r\n    \r\n    function supplierCreatesRawPackage(\r\n        bytes32 _description,\r\n        string memory _locationx,\r\n        string memory _locationy,\r\n        uint _quantity,\r\n        address _transporterAddr,\r\n        address _manufacturerAddr\r\n        ) public {\r\n            \r\n        require(userInfo[msg.sender].role == roles.supplier, \"Role=>Supplier can use this function\");\r\n        \r\n        createRawMaterialPackage(\r\n            _description,\r\n            _locationx,\r\n            _locationy,\r\n            _quantity,\r\n            _transporterAddr,\r\n            _manufacturerAddr\r\n        );\r\n    }\r\n    \r\n    function supplierGetPackageCount() public view returns(uint) {\r\n        require(userInfo[msg.sender].role == roles.supplier, \"Role=>Supplier can use this function\");\r\n        \r\n        return getNoOfPackagesOfSupplier();\r\n    }\r\n    \r\n    function supplierGetRawMaterialAddresses() public view returns(address[] memory) {\r\n        require(userInfo[msg.sender].role == roles.supplier, \"Role=>Supplier can use this function\");\r\n        \r\n        address[] memory ret = getAllPackages();\r\n        return ret;\r\n    }\r\n    \r\n    \r\n    ///////////////  Transporter ///////////////\r\n    \r\n    \r\n    function transporterHandlePackage(\r\n        address _address,\r\n        uint transporterType,\r\n        address cid\r\n        ) public {\r\n            \r\n        require(\r\n            userInfo[msg.sender].role == roles.transporter,\r\n            \"Only Transporter can call this function\"\r\n        );\r\n        require(\r\n            transporterType > 0,\r\n            \"Transporter Type is incorrect\"\r\n        );\r\n        \r\n        handlePackage(_address, transporterType, cid);\r\n    }\r\n    \r\n    \r\n    ///////////////  Manufacturer ///////////////\r\n    \r\n    \r\n    function manufacturerRecivedRawMaterials(address _addr) public {\r\n        require(userInfo[msg.sender].role == roles.manufacturer, \"Only Manufacturer can access this function\");\r\n        manufacturerReceivedPackage(_addr, msg.sender);\r\n    }\r\n    \r\n    function manufacturerCreatesNewMedicine(\r\n        bytes32 _description,\r\n        address[] memory _rawAddr,\r\n        uint _quantity,\r\n        address[] memory _transporterAddr,\r\n        address _receiverAddr,\r\n        uint RcvrType\r\n        ) public returns(string memory){\r\n            \r\n        require(userInfo[msg.sender].role == roles.manufacturer, \"Only Manufacturer can create Medicine\");\r\n        require(RcvrType != 0, \"Reciever Type should be defined\");\r\n        \r\n        manufacturerCreatesMedicine(\r\n            msg.sender,\r\n            _description,\r\n            _rawAddr,\r\n            _quantity,\r\n            _transporterAddr,\r\n            _receiverAddr,\r\n            RcvrType\r\n        );\r\n        \r\n        return \"Medicine created!\";\r\n    }\r\n    \r\n\r\n    ///////////////  Wholesaler  ///////////////\r\n\r\n    \r\n    function wholesalerReceivedMedicine(\r\n        address _address\r\n        ) public {\r\n        require(\r\n            userInfo[msg.sender].role == roles.wholesaler || userInfo[msg.sender].role == roles.distributor,\r\n            \"Only Wholesaler and Distributor can call this function\"\r\n        );\r\n        \r\n        medicineRecievedAtWholesaler(\r\n            _address\r\n        );\r\n    }\r\n    \r\n    function transferMedicineW_D(\r\n        address _address,\r\n        address transporter,\r\n        address receiver) public {\r\n        require(\r\n            userInfo[msg.sender].role == roles.wholesaler &&\r\n            msg.sender == Medicine(_address).getWDC()[0],\r\n            \"Only Wholesaler or current owner of package can call this function\"\r\n        );\r\n        \r\n        transferMedicineWtoD(\r\n            _address,\r\n            transporter,\r\n            receiver\r\n        );\r\n    }\r\n    \r\n    function getBatchIdByIndexWD(uint index) public view returns(address packageID) {\r\n        require(\r\n            userInfo[msg.sender].role == roles.wholesaler,\r\n            \"Only Wholesaler Can call this function.\"\r\n        );\r\n        return MedicineWtoD[msg.sender][index];\r\n    }\r\n\r\n    function getSubContractWD(address _address) public view returns (address SubContractWD) {\r\n        return MedicineWtoDTxContract[_address];\r\n    }\r\n\r\n\r\n    ///////////////  Distributor  ///////////////\r\n\r\n\r\n    function distributorReceivedMedicine(\r\n      address _address,\r\n      address cid\r\n    ) public {\r\n        require(\r\n            userInfo[msg.sender].role == roles.distributor &&\r\n            msg.sender == Medicine(_address).getWDC()[1],\r\n            \"Only Distributor or current owner of package can call this function\"  \r\n        );\r\n        \r\n        medicineRecievedAtDistributor(\r\n            _address,\r\n            cid\r\n        );\r\n    }\r\n\r\n    function distributorTransferMedicinetoCustomer(\r\n        address _address,\r\n        address transporter,\r\n        address receiver\r\n    ) public {\r\n        require(\r\n            userInfo[msg.sender].role == roles.distributor &&\r\n            msg.sender == Medicine(_address).getWDC()[1],\r\n            \"Only Distributor or current owner of package can call this function\"\r\n        );\r\n        transferMedicineDtoC(_address, transporter, receiver);\r\n    }\r\n    \r\n    function getBatchesCountDC() public view returns (uint count){\r\n        require(\r\n            userInfo[msg.sender].role == roles.distributor,\r\n            \"Only Distributor Can call this function.\"\r\n        );\r\n        return MedicineDtoC[msg.sender].length;\r\n    }\r\n\r\n    function getBatchIdByIndexDC(uint index) public view returns(address packageID) {\r\n        require(\r\n            userInfo[msg.sender].role == roles.distributor,\r\n            \"Only Distributor Can call this function.\"\r\n        );\r\n        return MedicineDtoC[msg.sender][index];\r\n    }\r\n\r\n    function getSubContractDC(address _address) public view returns (address SubContractDP) {\r\n        return MedicineDtoCTxContract[_address];\r\n    }\r\n    \r\n    \r\n    ///////////////  Customer  ///////////////\r\n    \r\n    \r\n    function customerReceivedMedicine(\r\n        address _address,\r\n        address cid\r\n    ) public {\r\n        require(\r\n            userInfo[msg.sender].role == roles.customer,\r\n            \"Only Customer Can call this function.\"\r\n        );\r\n        medicineRecievedAtCustomer(_address, cid);\r\n    }\r\n\r\n    function updateStatus(\r\n        address _address,\r\n        uint Status\r\n    ) public {\r\n        require(\r\n            userInfo[msg.sender].role == roles.customer &&\r\n            msg.sender == Medicine(_address).getWDC()[2],\r\n            \"Only Customer or current owner of package can call this function\"\r\n        );\r\n        require(sale[_address] == salestatus(1), \"Medicine Must be at Customer\");\r\n        \r\n        updateSaleStatus(_address, Status);\r\n    }\r\n\r\n    function getSalesInfo(\r\n        address _address\r\n    ) public\r\n    view\r\n    returns(\r\n        uint Status \r\n    ){\r\n        return salesInfo(_address);\r\n    }\r\n\r\n    \r\n    function getBatchesCountC() public view returns(uint count){\r\n        require(\r\n            userInfo[msg.sender].role == roles.customer,\r\n            \"Only Wholesaler or current owner of package can call this function\"\r\n        );\r\n        return  MedicineBatchAtCustomer[msg.sender].length;\r\n    }\r\n\r\n    function getBatchIdByIndexC(uint index) public view returns(address _address){\r\n        require(\r\n            userInfo[msg.sender].role == roles.customer,\r\n            \"Only Wholesaler or current owner of package can call this function\"\r\n        );\r\n        return MedicineBatchAtCustomer[msg.sender][index];\r\n    }\r\n    \r\n}    \r\n    ",
  "sourcePath": "C:/Users/Sherwyn/Desktop/GitHub/Medicine-Supply-Chain/blockchain/src/contracts/SupplyChain.sol",
  "compiler": {
    "name": "solc",
    "version": "0.6.6+commit.6c089d02.Emscripten.clang"
  },
  "schemaVersion": "3.3.1",
  "updatedAt": "2020-11-05T12:09:53.015Z",
  "networkType": "ethereum",
  "devdoc": {
    "methods": {}
  },
  "userdoc": {
    "methods": {
      "customerReceivedMedicine(address,address)": {
        "notice": "////////////  Customer  ///////////////"
      },
      "distributorReceivedMedicine(address,address)": {
        "notice": "////////////  Distributor  ///////////////"
      },
      "manufacturerRecivedRawMaterials(address)": {
        "notice": "////////////  Manufacturer ///////////////"
      },
      "supplierCreatesRawPackage(bytes32,string,string,uint256,address,address)": {
        "notice": "//////////// Supplier //////////////////////"
      },
      "transporterHandlePackage(address,uint256,address)": {
        "notice": "////////////  Transporter ///////////////"
      },
      "wholesalerReceivedMedicine(address)": {
        "notice": "////////////  Wholesaler  ///////////////"
      }
    },
    "notice": "/ New supply chain : supplier -> transporter -> manufacturer -> transporter -> whole-saler -> transporter -> distributor -> transporter -> customer/hospital/pharmacy"
  }
}