{
  "contractName": "Supplier",
  "abi": [
    {
      "inputs": [],
      "stateMutability": "nonpayable",
      "type": "constructor"
    },
    {
      "inputs": [
        {
          "internalType": "address",
          "name": "",
          "type": "address"
        },
        {
          "internalType": "uint256",
          "name": "",
          "type": "uint256"
        }
      ],
      "name": "supplierRawMaterials",
      "outputs": [
        {
          "internalType": "address",
          "name": "",
          "type": "address"
        }
      ],
      "stateMutability": "view",
      "type": "function"
    },
    {
      "inputs": [
        {
          "internalType": "bytes32",
          "name": "_description",
          "type": "bytes32"
        },
        {
          "internalType": "uint256[]",
          "name": "_locationArr",
          "type": "uint256[]"
        },
        {
          "internalType": "uint256",
          "name": "_quantity",
          "type": "uint256"
        },
        {
          "internalType": "address",
          "name": "_transporterAddr",
          "type": "address"
        },
        {
          "internalType": "address",
          "name": "_manufacturerAddr",
          "type": "address"
        }
      ],
      "name": "createRawMaterialPackage",
      "outputs": [],
      "stateMutability": "nonpayable",
      "type": "function"
    },
    {
      "inputs": [],
      "name": "getNoOfPackagesOfSupplier",
      "outputs": [
        {
          "internalType": "uint256",
          "name": "",
          "type": "uint256"
        }
      ],
      "stateMutability": "view",
      "type": "function"
    },
    {
      "inputs": [],
      "name": "getAllPackages",
      "outputs": [
        {
          "internalType": "address[]",
          "name": "",
          "type": "address[]"
        }
      ],
      "stateMutability": "view",
      "type": "function"
    }
  ],
  "bytecode": "0x608060405234801561001057600080fd5b50610bed806100206000396000f3fe608060405234801561001057600080fd5b506004361061004c5760003560e01c806306db8324146100515780630a421f0f146100995780632ae56a9f146100f1578063c22470ea146101b2575b600080fd5b61007d6004803603604081101561006757600080fd5b506001600160a01b0381351690602001356101cc565b604080516001600160a01b039092168252519081900360200190f35b6100a1610201565b60408051602080825283518183015283519192839290830191858101910280838360005b838110156100dd5781810151838201526020016100c5565b505050509050019250505060405180910390f35b6101b0600480360360a081101561010757600080fd5b81359190810190604081016020820135600160201b81111561012857600080fd5b82018360208201111561013a57600080fd5b803590602001918460208302840111600160201b8311171561015b57600080fd5b9190808060200260200160405190810160405280939291908181526020018383602002808284376000920191909152509295505082359350506001600160a01b036020830135811692604001351690506102cf565b005b6101ba61049a565b60408051918252519081900360200190f35b600060205281600052604060002081815481106101e557fe5b6000918252602090912001546001600160a01b03169150829050565b3360009081526020819052604090205460609081816001600160401b038111801561022b57600080fd5b50604051908082528060200260200182016040528015610255578160200160208202803683370190505b50905060005b828110156102c85733600090815260208190526040902080548290811061027e57fe5b9060005260206000200160009054906101000a90046001600160a01b03168282815181106102a857fe5b6001600160a01b039092166020928302919091019091015260010161025b565b5091505090565b6000336002334260405160200180836001600160a01b03166001600160a01b031660601b8152601401828152602001925050506040516020818303038152906040526040518082805190602001908083835b602083106103405780518252601f199092019160209182019101610321565b51815160209384036101000a60001901801990921691161790526040519190930194509192505080830381855afa15801561037f573d6000803e3d6000fd5b5050506040513d602081101561039457600080fd5b505160405160609190911c90889088908890889088906103b3906104ad565b6001600160a01b038089168252878116602080840191909152604083018890526080830186905284821660a084015290831660c083015260e06060830181815287519184019190915286519091610100840191888201910280838360005b83811015610429578181015183820152602001610411565b5050505090500198505050505050505050604051809103906000f080158015610456573d6000803e3d6000fd5b50336000908152602081815260408220805460018101825590835291200180546001600160a01b0319166001600160a01b0392909216919091179055505050505050565b3360009081526020819052604090205490565b6106fd806104bb8339019056fe608060405234801561001057600080fd5b506040516106fd3803806106fd833981810160405260e081101561003357600080fd5b81516020830151604080850151606086018051925194969395919493918201928464010000000082111561006657600080fd5b90830190602082018581111561007b57600080fd5b825186602082028301116401000000008211171561009857600080fd5b82525081516020918201928201910280838360005b838110156100c55781810151838201526020016100ad565b5050505091909101604090815260208381015191840151606090940151600080546001600160a01b03808e166001600160a01b03199283161790925560018054928d169290911691909117905560028990558751929650939450610130925060039190870190610187565b50600492909255600580546001600160a01b03199081166001600160a01b0393841617909155600680548216938316939093179092556007805460ff60a01b199316969091169590951716909355506101ef915050565b8280548282559060005260206000209081019282156101c2579160200282015b828111156101c25782518255916020019190600101906101a7565b506101ce9291506101d2565b5090565b6101ec91905b808211156101ce57600081556001016101d8565b90565b6104ff806101fe6000396000f3fe608060405234801561001057600080fd5b506004361061004c5760003560e01c806352b9996814610051578063638e9a3d146100795780636b099dca1461009f57806380723520146100b9575b600080fd5b6100776004803603602081101561006757600080fd5b50356001600160a01b0316610152565b005b6100776004803603602081101561008f57600080fd5b50356001600160a01b0316610263565b6100a7610378565b60408051918252519081900360200190f35b6100c1610398565b604080516001600160a01b03808a16825260208083018a905260608301889052868216608084015285821660a084015290841660c083015260e09282018381528851938301939093528751919291610100840191898101910280838360005b83811015610138578181015183820152602001610120565b505050509050019850505050505050505060405180910390f35b6006546001600160a01b0382811691161461019e5760405162461bcd60e51b81526004018080602001828103825260398152602001806104616039913960400191505060405180910390fd5b6001600754600160a01b900460ff1660028111156101b857fe5b14610206576040805162461bcd60e51b8152602060048201526019602482015278141c9bd91d58dd081b9bdd081c1a58dad959081d5c081e595d603a1b604482015290519081900360640190fd5b6007805460ff60a01b1916600160a11b17905560065460055460018054604080519283526002602084015280516001600160a01b03958616959485169490921692600080516020610441833981519152929081900390910190a450565b6005546001600160a01b038281169116146102af5760405162461bcd60e51b815260040180806020018281038252603081526020018061049a6030913960400191505060405180910390fd5b6000600754600160a01b900460ff1660028111156102c957fe5b1461031a576040805162461bcd60e51b815260206004820152601c60248201527b2830b1b5b0b3b29036bab9ba1031329030ba1029bab8383634b2b91760211b604482015290519081900360640190fd5b6007805460ff60a01b1916600160a01b1790556006546005546001805460408051838152602081019390935280516001600160a01b03958616959485169490921692600080516020610441833981519152929081900390910190a450565b600754600090600160a01b900460ff16600281111561039357fe5b905090565b60015460025460045460075460055460065460038054604080516020808402820181019092528281526000998a996060998b998a998a998a996001600160a01b03968716999598909794969384169592841694939091169291879183018282801561042257602002820191906000526020600020905b81548152602001906001019080831161040e575b5050505050945096509650965096509650965096509091929394959656fe7e89c4b1a4e2b51aae84eb1f90e8a34cb792ece5ac5cb63db4830c891220b28d4f6e6c79204d616e756661637475726572206f6620746865207061636b6167652063616e20726563656965766520746865207061636b6167654f6e6c79207472616e73706f72746572206f6620746865207061636b6167652063616e207069636b207061636b616765a2646970667358221220af119c1e40ac5da395284e84c9d6c18e50f492df3f8bae7d6f181893739afc7764736f6c63430006060033a26469706673582212208c72642b275363d3ac0f54e425cad9c222a0b3f2eda07a8f52226b9a6ce5826464736f6c63430006060033",
  "immutableReferences": {},
  "source": "pragma solidity ^0.6.6;\r\n\r\nimport './RawMaterial.sol';\r\n\r\ncontract Supplier {\r\n    \r\n    mapping (address => address[]) public supplierRawMaterials;\r\n    \r\n    constructor() public {}\r\n    \r\n    function createRawMaterialPackage(\r\n        bytes32 _description,\r\n        uint[] memory _locationArr,\r\n        uint _quantity,\r\n        address _transporterAddr,\r\n        address _manufacturerAddr\r\n    ) public {\r\n\r\n        RawMaterial rawMaterial = new RawMaterial(\r\n            msg.sender,\r\n        address(bytes20(sha256(abi.encodePacked(msg.sender, now)))),\r\n        _description,\r\n        _locationArr,\r\n        _quantity,\r\n        _transporterAddr,\r\n        _manufacturerAddr\r\n        );\r\n        \r\n        supplierRawMaterials[msg.sender].push(address(rawMaterial));\r\n    }\r\n    \r\n    \r\n    function getNoOfPackagesOfSupplier() public view returns(uint) {\r\n        return supplierRawMaterials[msg.sender].length;\r\n    }\r\n    \r\n    \r\n    function getAllPackages() public view returns(address[] memory) {\r\n        uint len = supplierRawMaterials[msg.sender].length;\r\n        address[] memory ret = new address[](len);\r\n        for (uint i = 0; i < len; i++) {\r\n            ret[i] = supplierRawMaterials[msg.sender][i];\r\n        }\r\n        return ret;\r\n    }\r\n}",
  "sourcePath": "C:\\Users\\Sherwyn\\Desktop\\GitHub\\Medicine-Supply-Chain\\blockchain\\src\\contracts\\Supplier.sol",
  "compiler": {
    "name": "solc",
    "version": "0.6.6+commit.6c089d02.Emscripten.clang"
  },
  "schemaVersion": "3.3.1",
  "updatedAt": "2020-11-05T07:57:51.320Z",
  "devdoc": {
    "methods": {}
  },
  "userdoc": {
    "methods": {}
  }
}