{
  "contractName": "SupplyChain",
  "abi": [
    {
      "inputs": [],
      "stateMutability": "nonpayable",
      "type": "constructor"
    },
    {
      "anonymous": false,
      "inputs": [
        {
          "indexed": false,
          "internalType": "address",
          "name": "_address",
          "type": "address"
        },
        {
          "indexed": true,
          "internalType": "address",
          "name": "Customer",
          "type": "address"
        },
        {
          "indexed": false,
          "internalType": "uint256",
          "name": "status",
          "type": "uint256"
        }
      ],
      "name": "MedicineStatus",
      "type": "event"
    },
    {
      "anonymous": false,
      "inputs": [
        {
          "indexed": true,
          "internalType": "address",
          "name": "_address",
          "type": "address"
        },
        {
          "indexed": false,
          "internalType": "bytes32",
          "name": "name",
          "type": "bytes32"
        }
      ],
      "name": "UserRegister",
      "type": "event"
    },
    {
      "inputs": [
        {
          "internalType": "address",
          "name": "",
          "type": "address"
        },
        {
          "internalType": "uint256",
          "name": "",
          "type": "uint256"
        }
      ],
      "name": "MedicineBatchAtCustomer",
      "outputs": [
        {
          "internalType": "address",
          "name": "",
          "type": "address"
        }
      ],
      "stateMutability": "view",
      "type": "function",
      "constant": true
    },
    {
      "inputs": [
        {
          "internalType": "address",
          "name": "",
          "type": "address"
        },
        {
          "internalType": "uint256",
          "name": "",
          "type": "uint256"
        }
      ],
      "name": "MedicineDtoC",
      "outputs": [
        {
          "internalType": "address",
          "name": "",
          "type": "address"
        }
      ],
      "stateMutability": "view",
      "type": "function",
      "constant": true
    },
    {
      "inputs": [
        {
          "internalType": "address",
          "name": "",
          "type": "address"
        }
      ],
      "name": "MedicineDtoCTxContract",
      "outputs": [
        {
          "internalType": "address",
          "name": "",
          "type": "address"
        }
      ],
      "stateMutability": "view",
      "type": "function",
      "constant": true
    },
    {
      "inputs": [
        {
          "internalType": "address",
          "name": "",
          "type": "address"
        },
        {
          "internalType": "uint256",
          "name": "",
          "type": "uint256"
        }
      ],
      "name": "MedicineWtoD",
      "outputs": [
        {
          "internalType": "address",
          "name": "",
          "type": "address"
        }
      ],
      "stateMutability": "view",
      "type": "function",
      "constant": true
    },
    {
      "inputs": [
        {
          "internalType": "address",
          "name": "",
          "type": "address"
        }
      ],
      "name": "MedicineWtoDTxContract",
      "outputs": [
        {
          "internalType": "address",
          "name": "",
          "type": "address"
        }
      ],
      "stateMutability": "view",
      "type": "function",
      "constant": true
    },
    {
      "inputs": [
        {
          "internalType": "address",
          "name": "",
          "type": "address"
        },
        {
          "internalType": "uint256",
          "name": "",
          "type": "uint256"
        }
      ],
      "name": "MedicinesAtDistributor",
      "outputs": [
        {
          "internalType": "address",
          "name": "",
          "type": "address"
        }
      ],
      "stateMutability": "view",
      "type": "function",
      "constant": true
    },
    {
      "inputs": [
        {
          "internalType": "address",
          "name": "",
          "type": "address"
        },
        {
          "internalType": "uint256",
          "name": "",
          "type": "uint256"
        }
      ],
      "name": "MedicinesAtWholesaler",
      "outputs": [
        {
          "internalType": "address",
          "name": "",
          "type": "address"
        }
      ],
      "stateMutability": "view",
      "type": "function",
      "constant": true
    },
    {
      "inputs": [],
      "name": "Owner",
      "outputs": [
        {
          "internalType": "address",
          "name": "",
          "type": "address"
        }
      ],
      "stateMutability": "view",
      "type": "function",
      "constant": true
    },
    {
      "inputs": [
        {
          "internalType": "bytes32",
          "name": "_description",
          "type": "bytes32"
        },
        {
          "internalType": "uint256[]",
          "name": "_locationArr",
          "type": "uint256[]"
        },
        {
          "internalType": "uint256",
          "name": "_quantity",
          "type": "uint256"
        },
        {
          "internalType": "address",
          "name": "_transporterAddr",
          "type": "address"
        },
        {
          "internalType": "address",
          "name": "_manufacturerAddr",
          "type": "address"
        }
      ],
      "name": "createRawMaterialPackage",
      "outputs": [],
      "stateMutability": "nonpayable",
      "type": "function"
    },
    {
      "inputs": [],
      "name": "getAllPackages",
      "outputs": [
        {
          "internalType": "address[]",
          "name": "",
          "type": "address[]"
        }
      ],
      "stateMutability": "view",
      "type": "function",
      "constant": true
    },
    {
      "inputs": [],
      "name": "getNoOfPackagesOfSupplier",
      "outputs": [
        {
          "internalType": "uint256",
          "name": "",
          "type": "uint256"
        }
      ],
      "stateMutability": "view",
      "type": "function",
      "constant": true
    },
    {
      "inputs": [
        {
          "internalType": "address",
          "name": "_addr",
          "type": "address"
        },
        {
          "internalType": "uint256",
          "name": "transportertype",
          "type": "uint256"
        },
        {
          "internalType": "address",
          "name": "cid",
          "type": "address"
        }
      ],
      "name": "handlePackage",
      "outputs": [],
      "stateMutability": "nonpayable",
      "type": "function"
    },
    {
      "inputs": [
        {
          "internalType": "address",
          "name": "_manufacturerAddr",
          "type": "address"
        },
        {
          "internalType": "bytes32",
          "name": "_description",
          "type": "bytes32"
        },
        {
          "internalType": "address[]",
          "name": "_rawAddr",
          "type": "address[]"
        },
        {
          "internalType": "uint256",
          "name": "_quantity",
          "type": "uint256"
        },
        {
          "internalType": "address[]",
          "name": "_transporterAddr",
          "type": "address[]"
        },
        {
          "internalType": "address",
          "name": "_recieverAddr",
          "type": "address"
        },
        {
          "internalType": "uint256",
          "name": "RcvrType",
          "type": "uint256"
        }
      ],
      "name": "manufacturerCreatesMedicine",
      "outputs": [],
      "stateMutability": "nonpayable",
      "type": "function"
    },
    {
      "inputs": [
        {
          "internalType": "address",
          "name": "",
          "type": "address"
        },
        {
          "internalType": "uint256",
          "name": "",
          "type": "uint256"
        }
      ],
      "name": "manufacturerMedicines",
      "outputs": [
        {
          "internalType": "address",
          "name": "",
          "type": "address"
        }
      ],
      "stateMutability": "view",
      "type": "function",
      "constant": true
    },
    {
      "inputs": [
        {
          "internalType": "address",
          "name": "",
          "type": "address"
        },
        {
          "internalType": "uint256",
          "name": "",
          "type": "uint256"
        }
      ],
      "name": "manufacturerRawMaterials",
      "outputs": [
        {
          "internalType": "address",
          "name": "",
          "type": "address"
        }
      ],
      "stateMutability": "view",
      "type": "function",
      "constant": true
    },
    {
      "inputs": [
        {
          "internalType": "address",
          "name": "_addr",
          "type": "address"
        },
        {
          "internalType": "address",
          "name": "_manufacturerAddress",
          "type": "address"
        }
      ],
      "name": "manufacturerReceivedPackage",
      "outputs": [],
      "stateMutability": "nonpayable",
      "type": "function"
    },
    {
      "inputs": [
        {
          "internalType": "address",
          "name": "_address",
          "type": "address"
        },
        {
          "internalType": "address",
          "name": "cid",
          "type": "address"
        }
      ],
      "name": "medicineRecievedAtCustomer",
      "outputs": [],
      "stateMutability": "nonpayable",
      "type": "function"
    },
    {
      "inputs": [
        {
          "internalType": "address",
          "name": "_address",
          "type": "address"
        },
        {
          "internalType": "address",
          "name": "cid",
          "type": "address"
        }
      ],
      "name": "medicineRecievedAtDistributor",
      "outputs": [],
      "stateMutability": "nonpayable",
      "type": "function"
    },
    {
      "inputs": [
        {
          "internalType": "address",
          "name": "_address",
          "type": "address"
        }
      ],
      "name": "medicineRecievedAtWholesaler",
      "outputs": [],
      "stateMutability": "nonpayable",
      "type": "function"
    },
    {
      "inputs": [
        {
          "internalType": "address",
          "name": "",
          "type": "address"
        }
      ],
      "name": "sale",
      "outputs": [
        {
          "internalType": "enum Customer.salestatus",
          "name": "",
          "type": "uint8"
        }
      ],
      "stateMutability": "view",
      "type": "function",
      "constant": true
    },
    {
      "inputs": [
        {
          "internalType": "address",
          "name": "_address",
          "type": "address"
        }
      ],
      "name": "salesInfo",
      "outputs": [
        {
          "internalType": "uint256",
          "name": "Status",
          "type": "uint256"
        }
      ],
      "stateMutability": "view",
      "type": "function",
      "constant": true
    },
    {
      "inputs": [
        {
          "internalType": "address",
          "name": "",
          "type": "address"
        },
        {
          "internalType": "uint256",
          "name": "",
          "type": "uint256"
        }
      ],
      "name": "supplierRawMaterials",
      "outputs": [
        {
          "internalType": "address",
          "name": "",
          "type": "address"
        }
      ],
      "stateMutability": "view",
      "type": "function",
      "constant": true
    },
    {
      "inputs": [
        {
          "internalType": "address",
          "name": "_address",
          "type": "address"
        },
        {
          "internalType": "address",
          "name": "transporter",
          "type": "address"
        },
        {
          "internalType": "address",
          "name": "receiver",
          "type": "address"
        }
      ],
      "name": "transferMedicineDtoC",
      "outputs": [],
      "stateMutability": "nonpayable",
      "type": "function"
    },
    {
      "inputs": [
        {
          "internalType": "address",
          "name": "_address",
          "type": "address"
        },
        {
          "internalType": "address",
          "name": "transporter",
          "type": "address"
        },
        {
          "internalType": "address",
          "name": "receiver",
          "type": "address"
        }
      ],
      "name": "transferMedicineWtoD",
      "outputs": [],
      "stateMutability": "nonpayable",
      "type": "function"
    },
    {
      "inputs": [
        {
          "internalType": "address",
          "name": "_address",
          "type": "address"
        },
        {
          "internalType": "uint256",
          "name": "Status",
          "type": "uint256"
        }
      ],
      "name": "updateSaleStatus",
      "outputs": [],
      "stateMutability": "nonpayable",
      "type": "function"
    },
    {
      "inputs": [
        {
          "internalType": "address",
          "name": "",
          "type": "address"
        }
      ],
      "name": "userInfo",
      "outputs": [
        {
          "internalType": "bytes32",
          "name": "name",
          "type": "bytes32"
        },
        {
          "internalType": "enum SupplyChain.roles",
          "name": "role",
          "type": "uint8"
        },
        {
          "internalType": "address",
          "name": "userAddr",
          "type": "address"
        }
      ],
      "stateMutability": "view",
      "type": "function",
      "constant": true
    },
    {
      "inputs": [
        {
          "internalType": "bytes32",
          "name": "name",
          "type": "bytes32"
        },
        {
          "internalType": "uint256[]",
          "name": "loc",
          "type": "uint256[]"
        },
        {
          "internalType": "uint256",
          "name": "role",
          "type": "uint256"
        },
        {
          "internalType": "address",
          "name": "_userAddr",
          "type": "address"
        }
      ],
      "name": "registerUser",
      "outputs": [],
      "stateMutability": "nonpayable",
      "type": "function"
    },
    {
      "inputs": [
        {
          "internalType": "uint256",
          "name": "_role",
          "type": "uint256"
        },
        {
          "internalType": "address",
          "name": "_addr",
          "type": "address"
        }
      ],
      "name": "changeUserRole",
      "outputs": [
        {
          "internalType": "string",
          "name": "",
          "type": "string"
        }
      ],
      "stateMutability": "nonpayable",
      "type": "function"
    },
    {
      "inputs": [
        {
          "internalType": "address",
          "name": "_address",
          "type": "address"
        }
      ],
      "name": "getUserInfo",
      "outputs": [
        {
          "components": [
            {
              "internalType": "bytes32",
              "name": "name",
              "type": "bytes32"
            },
            {
              "internalType": "uint256[]",
              "name": "userLoc",
              "type": "uint256[]"
            },
            {
              "internalType": "enum SupplyChain.roles",
              "name": "role",
              "type": "uint8"
            },
            {
              "internalType": "address",
              "name": "userAddr",
              "type": "address"
            }
          ],
          "internalType": "struct SupplyChain.userData",
          "name": "",
          "type": "tuple"
        }
      ],
      "stateMutability": "view",
      "type": "function",
      "constant": true
    },
    {
      "inputs": [
        {
          "internalType": "bytes32",
          "name": "_description",
          "type": "bytes32"
        },
        {
          "internalType": "uint256[]",
          "name": "_locationArr",
          "type": "uint256[]"
        },
        {
          "internalType": "uint256",
          "name": "_quantity",
          "type": "uint256"
        },
        {
          "internalType": "address",
          "name": "_transporterAddr",
          "type": "address"
        },
        {
          "internalType": "address",
          "name": "_manufacturerAddr",
          "type": "address"
        }
      ],
      "name": "supplierCreatesRawPackage",
      "outputs": [],
      "stateMutability": "nonpayable",
      "type": "function"
    },
    {
      "inputs": [],
      "name": "supplierGetPackageCount",
      "outputs": [
        {
          "internalType": "uint256",
          "name": "",
          "type": "uint256"
        }
      ],
      "stateMutability": "view",
      "type": "function",
      "constant": true
    },
    {
      "inputs": [],
      "name": "supplierGetRawMaterialAddresses",
      "outputs": [
        {
          "internalType": "address[]",
          "name": "",
          "type": "address[]"
        }
      ],
      "stateMutability": "view",
      "type": "function",
      "constant": true
    },
    {
      "inputs": [
        {
          "internalType": "address",
          "name": "_address",
          "type": "address"
        },
        {
          "internalType": "uint256",
          "name": "transporterType",
          "type": "uint256"
        },
        {
          "internalType": "address",
          "name": "cid",
          "type": "address"
        }
      ],
      "name": "transporterHandlePackage",
      "outputs": [],
      "stateMutability": "nonpayable",
      "type": "function"
    },
    {
      "inputs": [
        {
          "internalType": "address",
          "name": "_addr",
          "type": "address"
        }
      ],
      "name": "manufacturerRecivedRawMaterials",
      "outputs": [],
      "stateMutability": "nonpayable",
      "type": "function"
    },
    {
      "inputs": [
        {
          "internalType": "bytes32",
          "name": "_description",
          "type": "bytes32"
        },
        {
          "internalType": "address[]",
          "name": "_rawAddr",
          "type": "address[]"
        },
        {
          "internalType": "uint256",
          "name": "_quantity",
          "type": "uint256"
        },
        {
          "internalType": "address[]",
          "name": "_transporterAddr",
          "type": "address[]"
        },
        {
          "internalType": "address",
          "name": "_receiverAddr",
          "type": "address"
        },
        {
          "internalType": "uint256",
          "name": "RcvrType",
          "type": "uint256"
        }
      ],
      "name": "manufacturerCreatesNewMedicine",
      "outputs": [
        {
          "internalType": "string",
          "name": "",
          "type": "string"
        }
      ],
      "stateMutability": "nonpayable",
      "type": "function"
    },
    {
      "inputs": [
        {
          "internalType": "address",
          "name": "_address",
          "type": "address"
        }
      ],
      "name": "wholesalerReceivedMedicine",
      "outputs": [],
      "stateMutability": "nonpayable",
      "type": "function"
    },
    {
      "inputs": [
        {
          "internalType": "address",
          "name": "_address",
          "type": "address"
        },
        {
          "internalType": "address",
          "name": "transporter",
          "type": "address"
        },
        {
          "internalType": "address",
          "name": "receiver",
          "type": "address"
        }
      ],
      "name": "transferMedicineW_D",
      "outputs": [],
      "stateMutability": "nonpayable",
      "type": "function"
    },
    {
      "inputs": [
        {
          "internalType": "uint256",
          "name": "index",
          "type": "uint256"
        }
      ],
      "name": "getBatchIdByIndexWD",
      "outputs": [
        {
          "internalType": "address",
          "name": "packageID",
          "type": "address"
        }
      ],
      "stateMutability": "view",
      "type": "function",
      "constant": true
    },
    {
      "inputs": [
        {
          "internalType": "address",
          "name": "_address",
          "type": "address"
        }
      ],
      "name": "getSubContractWD",
      "outputs": [
        {
          "internalType": "address",
          "name": "SubContractWD",
          "type": "address"
        }
      ],
      "stateMutability": "view",
      "type": "function",
      "constant": true
    },
    {
      "inputs": [
        {
          "internalType": "address",
          "name": "_address",
          "type": "address"
        },
        {
          "internalType": "address",
          "name": "cid",
          "type": "address"
        }
      ],
      "name": "distributorReceivedMedicine",
      "outputs": [],
      "stateMutability": "nonpayable",
      "type": "function"
    },
    {
      "inputs": [
        {
          "internalType": "address",
          "name": "_address",
          "type": "address"
        },
        {
          "internalType": "address",
          "name": "transporter",
          "type": "address"
        },
        {
          "internalType": "address",
          "name": "receiver",
          "type": "address"
        }
      ],
      "name": "distributorTransferMedicinetoCustomer",
      "outputs": [],
      "stateMutability": "nonpayable",
      "type": "function"
    },
    {
      "inputs": [],
      "name": "getBatchesCountDC",
      "outputs": [
        {
          "internalType": "uint256",
          "name": "count",
          "type": "uint256"
        }
      ],
      "stateMutability": "view",
      "type": "function",
      "constant": true
    },
    {
      "inputs": [
        {
          "internalType": "uint256",
          "name": "index",
          "type": "uint256"
        }
      ],
      "name": "getBatchIdByIndexDC",
      "outputs": [
        {
          "internalType": "address",
          "name": "packageID",
          "type": "address"
        }
      ],
      "stateMutability": "view",
      "type": "function",
      "constant": true
    },
    {
      "inputs": [
        {
          "internalType": "address",
          "name": "_address",
          "type": "address"
        }
      ],
      "name": "getSubContractDC",
      "outputs": [
        {
          "internalType": "address",
          "name": "SubContractDP",
          "type": "address"
        }
      ],
      "stateMutability": "view",
      "type": "function",
      "constant": true
    },
    {
      "inputs": [
        {
          "internalType": "address",
          "name": "_address",
          "type": "address"
        },
        {
          "internalType": "address",
          "name": "cid",
          "type": "address"
        }
      ],
      "name": "customerReceivedMedicine",
      "outputs": [],
      "stateMutability": "nonpayable",
      "type": "function"
    },
    {
      "inputs": [
        {
          "internalType": "address",
          "name": "_address",
          "type": "address"
        },
        {
          "internalType": "uint256",
          "name": "Status",
          "type": "uint256"
        }
      ],
      "name": "updateStatus",
      "outputs": [],
      "stateMutability": "nonpayable",
      "type": "function"
    },
    {
      "inputs": [
        {
          "internalType": "address",
          "name": "_address",
          "type": "address"
        }
      ],
      "name": "getSalesInfo",
      "outputs": [
        {
          "internalType": "uint256",
          "name": "Status",
          "type": "uint256"
        }
      ],
      "stateMutability": "view",
      "type": "function",
      "constant": true
    },
    {
      "inputs": [],
      "name": "getBatchesCountC",
      "outputs": [
        {
          "internalType": "uint256",
          "name": "count",
          "type": "uint256"
        }
      ],
      "stateMutability": "view",
      "type": "function",
      "constant": true
    },
    {
      "inputs": [
        {
          "internalType": "uint256",
          "name": "index",
          "type": "uint256"
        }
      ],
      "name": "getBatchIdByIndexC",
      "outputs": [
        {
          "internalType": "address",
          "name": "_address",
          "type": "address"
        }
      ],
      "stateMutability": "view",
      "type": "function",
      "constant": true
    }
  ],
  "bytecode": "0x608060405234801561001057600080fd5b50600b80546001600160a01b031916331790556147c3806100326000396000f3fe60806040523480156200001157600080fd5b50600436106200026e5760003560e01c8063050e70db146200027357806306db832414620002a25780630a421f0f14620002b9578063164bcd5b14620002d25780631959a00214620002e95780632ae56a9f146200031157806331e0afc2146200032a578063347590161462000341578063412afbaf14620003585780634aab0726146200036f57806356466dee146200038657806356e5efc4146200039d57806357bd4c7a14620003b45780635fd5252014620003cd57806362c1fe3914620003e45780636386c1c714620003fb5780636e6c6c1814620004215780636f41507c146200043857806375df2684146200044f578063798a826f1462000475578063805bac97146200048c578063824e43e714620004b25780638aca032b14620004bc5780638ccc8db714620004d35780638dfa742d14620004ea5780639035a03314620005015780639100978614620005185780639509c2ff146200052f5780639af035a314620005465780639c1ba94a146200055d578063a4d886b21462000574578063a999cca1146200058b578063b0fc028d14620005a2578063b4a99a4e14620005b9578063bb8ee1c514620005c3578063be7ef9c014620005da578063c22470ea14620005f1578063c2b7098814620005fb578063c40b38af1462000612578063cd55152e1462000629578063d1acb5271462000633578063da48f20c146200063d578063da6c8d401462000654578063dc4c25b3146200066b578063dd1facb21462000682578063eae3c2071462000699578063f06822d814620006b0578063fd302c3514620006c7578063ff2b065a14620006de575b600080fd5b6200028a62000284366004620020b1565b620006f5565b60405162000299919062002419565b60405180910390f35b6200028a620002b3366004620020b1565b6200072b565b620002c362000745565b6040516200029991906200253a565b6200028a620002e336600462002328565b6200081a565b62000300620002fa36600462001f4e565b620008a0565b604051620002999392919062002558565b6200032862000322366004620022ab565b620008cc565b005b620003286200033b366004620020b1565b620009ce565b6200028a6200035236600462001f4e565b62000af9565b6200028a62000369366004620020b1565b62000b17565b6200028a62000380366004620020b1565b62000b31565b620003286200039736600462001f74565b62000b4b565b62000328620003ae36600462002002565b62000bed565b620003be62000c7a565b6040516200029991906200254f565b62000328620003de36600462001f4e565b62000cd4565b6200028a620003f536600462001f4e565b62000d27565b620004126200040c36600462001f4e565b62000d45565b604051620002999190620029ea565b620003286200043236600462001f4e565b62000e18565b6200032862000449366004620020df565b62000ee9565b620004666200046036600462001f4e565b62001041565b60405162000299919062002589565b6200028a6200048636600462001f4e565b62001056565b620004a36200049d366004620021ac565b62001071565b6040516200029991906200259e565b620002c36200111b565b62000328620004cd36600462001f74565b62001173565b6200028a620004e4366004620020b1565b620011c3565b6200028a620004fb366004620020b1565b620011dd565b620003286200051236600462002245565b620011f7565b620004a36200052936600462002341565b620012f6565b620003286200054036600462001fb1565b6200137e565b6200028a6200055736600462002328565b62001459565b6200028a6200056e36600462002328565b620014bb565b620003be6200058536600462001f4e565b6200151d565b6200028a6200059c366004620020b1565b62001530565b6200028a620005b336600462001f4e565b6200154a565b6200028a62001565565b620003be620005d436600462001f4e565b62001574565b62000328620005eb366004620020df565b6200159c565b620003be62001610565b620003286200060c36600462001fb1565b62001623565b620003286200062336600462001f74565b620016be565b620003be62001841565b620003be6200189b565b620003286200064e36600462001f74565b620018f0565b6200032862000665366004620022ab565b620019cd565b620003286200067c36600462001f74565b62001a27565b620003286200069336600462001f4e565b62001b04565b62000328620006aa366004620020b1565b62001b80565b62000328620006c136600462001fb1565b62001c08565b6200028a620006d8366004620020b1565b62001ca3565b62000328620006ef36600462001fb1565b62001cbd565b600460205281600052604060002081815481106200070f57fe5b6000918252602090912001546001600160a01b03169150829050565b600060205281600052604060002081815481106200070f57fe5b3360009081526020819052604090205460609081816001600160401b03811180156200077057600080fd5b506040519080825280602002602001820160405280156200079b578160200160208202803683370190505b50905060005b828110156200081257336000908152602081905260409020805482908110620007c657fe5b9060005260206000200160009054906101000a90046001600160a01b0316828281518110620007f157fe5b6001600160a01b0390921660209283029190910190910152600101620007a1565b509150505b90565b60006005336000908152600c602052604090206002015460ff1660068111156200084057fe5b14620008695760405162461bcd60e51b8152600401620008609062002713565b60405180910390fd5b3360009081526007602052604090208054839081106200088557fe5b6000918252602090912001546001600160a01b031692915050565b600c602052600090815260409020805460029091015460ff81169061010090046001600160a01b031683565b60003360023342604051602001620008e6929190620023de565b60408051601f19818403018152908290526200090291620023fb565b602060405180830381855afa15801562000920573d6000803e3d6000fd5b5050506040513d601f19601f8201168201806040525081019062000945919062002193565b60601c87878787876040516200095b9062001d9b565b6200096d97969594939291906200242d565b604051809103906000f0801580156200098a573d6000803e3d6000fd5b50336000908152602081815260408220805460018101825590835291200180546001600160a01b0319166001600160a01b0392909216919091179055505050505050565b6006336000908152600c602052604090206002015460ff166006811115620009f257fe5b14801562000a805750816001600160a01b031663abb428a66040518163ffffffff1660e01b815260040160606040518083038186803b15801562000a3557600080fd5b505afa15801562000a4a573d6000803e3d6000fd5b505050506040513d601f19601f8201168201806040525081019062000a7091906200211a565b604001516001600160a01b031633145b62000a9f5760405162461bcd60e51b815260040162000860906200275b565b60016001600160a01b0383166000908152600a602052604090205460ff16600481111562000ac957fe5b1462000ae95760405162461bcd60e51b81526004016200086090620027fe565b62000af5828262001b80565b5050565b6001600160a01b039081166000908152600560205260409020541690565b600360205281600052604060002081815481106200070f57fe5b600960205281600052604060002081815481106200070f57fe5b604051630a57332d60e31b81526001600160a01b038316906352b999689062000b7990849060040162002419565b600060405180830381600087803b15801562000b9457600080fd5b505af115801562000ba9573d6000803e3d6000fd5b505050506001600160a01b03908116600090815260016020818152604083208054928301815583529091200180546001600160a01b03191692909116919091179055565b60008787878787878760405162000c049062001da9565b62000c169796959493929190620024c5565b604051809103906000f08015801562000c33573d6000803e3d6000fd5b506001600160a01b0398891660009081526002602090815260408220805460018101825590835291200180546001600160a01b031916919099161790975550505050505050565b60006006336000908152600c602052604090206002015460ff16600681111562000ca057fe5b1462000cc05760405162461bcd60e51b8152600401620008609062002834565b503360009081526009602052604090205490565b6003336000908152600c602052604090206002015460ff16600681111562000cf857fe5b1462000d185760405162461bcd60e51b8152600401620008609062002692565b62000d24813362000b4b565b50565b6001600160a01b039081166000908152600860205260409020541690565b62000d4f62001db7565b6001600160a01b0382166000908152600c60209081526040918290208251608081018452815481526001820180548551818602810186019096528086529194929385810193929083018282801562000dc757602002820191906000526020600020905b81548152602001906001019080831162000db2575b5050509183525050600282015460209091019060ff16600681111562000de957fe5b600681111562000df557fe5b81526002919091015461010090046001600160a01b031660209091015292915050565b6040516307fb74db60e21b81526000906001600160a01b03831690631fedd36c9062000e4990339060040162002419565b602060405180830381600087803b15801562000e6457600080fd5b505af115801562000e79573d6000803e3d6000fd5b505050506040513d601f19601f8201168201806040525081019062000e9f919062002193565b9050806001141562000af5573360009081526003602090815260408220805460018101825590835291200180546001600160a01b0384166001600160a01b03199091161790555050565b816001141562000f5b5760405163638e9a3d60e01b81526001600160a01b0384169063638e9a3d9062000f2190339060040162002419565b600060405180830381600087803b15801562000f3c57600080fd5b505af115801562000f51573d6000803e3d6000fd5b505050506200103c565b816002141562000f935760405163ac42a41560e01b81526001600160a01b0384169063ac42a4159062000f2190339060040162002419565b816003141562000fcd57604051630887851b60e31b81526001600160a01b0382169063443c28d89062000f21908690339060040162002480565b81600414156200103c5760405163298abd8d60e11b81526001600160a01b038216906353157b1a9062001007908690339060040162002480565b600060405180830381600087803b1580156200102257600080fd5b505af115801562001037573d6000803e3d6000fd5b505050505b505050565b600a6020526000908152604090205460ff1681565b6008602052600090815260409020546001600160a01b031681565b60606003336000908152600c602052604090206002015460ff1660068111156200109757fe5b14620010b75760405162461bcd60e51b815260040162000860906200296e565b81620010d75760405162461bcd60e51b81526004016200086090620026dc565b620010e83388888888888862000bed565b506040805180820190915260118152704d65646963696e6520637265617465642160781b60208201529695505050505050565b60606001336000908152600c602052604090206002015460ff1660068111156200114157fe5b14620011615760405162461bcd60e51b815260040162000860906200289c565b60606200116d62000745565b91505090565b6006336000908152600c602052604090206002015460ff1660068111156200119757fe5b14620011b75760405162461bcd60e51b81526004016200086090620027b9565b62000af58282620018f0565b600160205281600052604060002081815481106200070f57fe5b600660205281600052604060002081815481106200070f57fe5b600b546001600160a01b031633146200120f57600080fd5b6001600160a01b0381166000908152600c602090815260409091208581558451620012439260019092019186019062001ddf565b508160068111156200125157fe5b6001600160a01b0382166000908152600c60205260409020600201805460ff191660018360068111156200128157fe5b02179055506001600160a01b0381166000818152600c6020526040908190206002018054610100600160a81b0319166101008402179055517f33a7170f028b1e4f5ba321064a00ed820856a920c7f9c6636fbcf385427b1b0f90620012e89087906200254f565b60405180910390a250505050565b600b546060906001600160a01b031633146200131157600080fd5b8260068111156200131e57fe5b6001600160a01b0383166000908152600c60205260409020600201805460ff191660018360068111156200134e57fe5b02179055505060408051808201909152600d81526c526f6c6520557064617465642160981b602082015292915050565b6004336000908152600c602052604090206002015460ff166006811115620013a257fe5b1480156200142d5750826001600160a01b031663abb428a66040518163ffffffff1660e01b815260040160606040518083038186803b158015620013e557600080fd5b505afa158015620013fa573d6000803e3d6000fd5b505050506040513d601f19601f820116820180604052508101906200142091906200211a565b516001600160a01b031633145b6200144c5760405162461bcd60e51b8152600401620008609062002834565b6200103c83838362001c08565b60006004336000908152600c602052604090206002015460ff1660068111156200147f57fe5b146200149f5760405162461bcd60e51b81526004016200086090620028e0565b3360009081526004602052604090208054839081106200088557fe5b60006006336000908152600c602052604090206002015460ff166006811115620014e157fe5b14620015015760405162461bcd60e51b8152600401620008609062002834565b3360009081526009602052604090208054839081106200088557fe5b60006200152a8262001574565b92915050565b600260205281600052604060002081815481106200070f57fe5b6005602052600090815260409020546001600160a01b031681565b600b546001600160a01b031681565b6001600160a01b0381166000908152600a602052604081205460ff1660048111156200152a57fe5b6002336000908152600c602052604090206002015460ff166006811115620015c057fe5b14620015e05760405162461bcd60e51b8152600401620008609062002927565b60008211620016035760405162461bcd60e51b81526004016200086090620029b3565b6200103c83838362000ee9565b3360009081526020819052604090205490565b600083338484604051620016379062001e2f565b6200164694939291906200249a565b604051809103906000f08015801562001663573d6000803e3d6000fd5b5033600090815260076020908152604080832080546001810182559084528284200180546001600160a01b039586166001600160a01b0319918216811790925598909416835260089091529020805490951617909355505050565b6040516307fb74db60e21b81526000906001600160a01b03841690631fedd36c90620016ef90339060040162002419565b602060405180830381600087803b1580156200170a57600080fd5b505af11580156200171f573d6000803e3d6000fd5b505050506040513d601f19601f8201168201806040525081019062001745919062002193565b905080600214156200103c57336000908152600660209081526040808320805460018101825590845291832090910180546001600160a01b0319166001600160a01b03871690811790915581516355da145360e11b81529151909163abb428a6916004808301926060929190829003018186803b158015620017c657600080fd5b505afa158015620017db573d6000803e3d6000fd5b505050506040513d601f19601f820116820180604052508101906200180191906200211a565b516001600160a01b0316146200103c5760405163d7dcbe3b60e01b81526001600160a01b0383169063d7dcbe3b9062001007908690339060040162002480565b60006005336000908152600c602052604090206002015460ff1660068111156200186757fe5b14620018875760405162461bcd60e51b8152600401620008609062002713565b503360009081526007602052604090205490565b60006001336000908152600c602052604090206002015460ff166006811115620018c157fe5b14620018e15760405162461bcd60e51b815260040162000860906200289c565b620018eb62001610565b905090565b604051637bd6ee1f60e11b81526001600160a01b0382169063f7addc3e9062001920908590339060040162002480565b600060405180830381600087803b1580156200193b57600080fd5b505af115801562001950573d6000803e3d6000fd5b50503360009081526009602090815260408220805460018082018355918452919092200180546001600160a01b0319166001600160a01b0387161790559150620019979050565b6001600160a01b0383166000908152600a60205260409020805460ff19166001836004811115620019c457fe5b02179055505050565b6001336000908152600c602052604090206002015460ff166006811115620019f157fe5b1462001a115760405162461bcd60e51b815260040162000860906200289c565b62001a208585858585620008cc565b5050505050565b6005336000908152600c602052604090206002015460ff16600681111562001a4b57fe5b14801562001ad95750816001600160a01b031663abb428a66040518163ffffffff1660e01b815260040160606040518083038186803b15801562001a8e57600080fd5b505afa15801562001aa3573d6000803e3d6000fd5b505050506040513d601f19601f8201168201806040525081019062001ac991906200211a565b602001516001600160a01b031633145b62001af85760405162461bcd60e51b81526004016200086090620025d3565b62000af58282620016be565b6004336000908152600c602052604090206002015460ff16600681111562001b2857fe5b148062001b5657506005336000908152600c602052604090206002015460ff16600681111562001b5457fe5b145b62001b755760405162461bcd60e51b815260040162000860906200263c565b62000d248162000e18565b80600481111562001b8d57fe5b6001600160a01b0383166000908152600a60205260409020805460ff1916600183600481111562001bba57fe5b0217905550336001600160a01b03167f778762ccb04f5a8838ed8914b13eb6f118224696959cbfa0cfea54133f76a7d5838360405162001bfc92919062002521565b60405180910390a25050565b60008333848460405162001c1c9062001e3d565b62001c2b94939291906200249a565b604051809103906000f08015801562001c48573d6000803e3d6000fd5b5033600090815260046020908152604080832080546001810182559084528284200180546001600160a01b039586166001600160a01b0319918216811790925598909416835260059091529020805490951617909355505050565b600760205281600052604060002081815481106200070f57fe5b6005336000908152600c602052604090206002015460ff16600681111562001ce157fe5b14801562001d6f5750826001600160a01b031663abb428a66040518163ffffffff1660e01b815260040160606040518083038186803b15801562001d2457600080fd5b505afa15801562001d39573d6000803e3d6000fd5b505050506040513d601f19601f8201168201806040525081019062001d5f91906200211a565b602001516001600160a01b031633145b62001d8e5760405162461bcd60e51b81526004016200086090620025d3565b6200103c83838362001623565b6106fd8062002ae283390190565b610e3b80620031df83390190565b6040805160808101825260008082526060602083015290918201908152600060209091015290565b82805482825590600052602060002090810192821562001e1d579160200282015b8281111562001e1d57825182559160200191906001019062001e00565b5062001e2b92915062001e4b565b5090565b6103bc806200401a83390190565b6103b880620043d683390190565b6200081791905b8082111562001e2b576000815560010162001e52565b600082601f83011262001e79578081fd5b813562001e9062001e8a8262002a6d565b62002a46565b81815291506020808301908481018184028601820187101562001eb257600080fd5b60005b8481101562001ede57813562001ecb8162002acb565b8452928201929082019060010162001eb5565b505050505092915050565b600082601f83011262001efa578081fd5b813562001f0b62001e8a8262002a6d565b81815291506020808301908481018184028601820187101562001f2d57600080fd5b60005b8481101562001ede5781358452928201929082019060010162001f30565b60006020828403121562001f60578081fd5b813562001f6d8162002acb565b9392505050565b6000806040838503121562001f87578081fd5b823562001f948162002acb565b9150602083013562001fa68162002acb565b809150509250929050565b60008060006060848603121562001fc6578081fd5b833562001fd38162002acb565b9250602084013562001fe58162002acb565b9150604084013562001ff78162002acb565b809150509250925092565b600080600080600080600060e0888a0312156200201d578283fd5b87356200202a8162002acb565b96506020880135955060408801356001600160401b03808211156200204d578485fd5b6200205b8b838c0162001e68565b965060608a0135955060808a013591508082111562002078578485fd5b50620020878a828b0162001e68565b93505060a08801356200209a8162002acb565b8092505060c0880135905092959891949750929550565b60008060408385031215620020c4578182fd5b8235620020d18162002acb565b946020939093013593505050565b600080600060608486031215620020f4578283fd5b8335620021018162002acb565b925060208401359150604084013562001ff78162002acb565b6000606082840312156200212c578081fd5b82601f8301126200213b578081fd5b62002147606062002a46565b80838560608601111562002159578384fd5b835b600381101562002188578151620021728162002acb565b845260209384019391909101906001016200215b565b509095945050505050565b600060208284031215620021a5578081fd5b5051919050565b60008060008060008060c08789031215620021c5578182fd5b8635955060208701356001600160401b0380821115620021e3578384fd5b620021f18a838b0162001e68565b96506040890135955060608901359150808211156200220e578384fd5b506200221d89828a0162001e68565b9350506080870135620022308162002acb565b8092505060a087013590509295509295509295565b600080600080608085870312156200225b578081fd5b8435935060208501356001600160401b0381111562002278578182fd5b620022868782880162001ee9565b935050604085013591506060850135620022a08162002acb565b939692955090935050565b600080600080600060a08688031215620022c3578283fd5b8535945060208601356001600160401b03811115620022e0578384fd5b620022ee8882890162001ee9565b945050604086013592506060860135620023088162002acb565b915060808601356200231a8162002acb565b809150509295509295909350565b6000602082840312156200233a578081fd5b5035919050565b6000806040838503121562002354578182fd5b82359150602083013562001fa68162002acb565b6000815180845260208085019450808401835b83811015620023a25781516001600160a01b0316875295820195908201906001016200237b565b509495945050505050565b6000815180845260208085019450808401835b83811015620023a257815187529582019590820190600101620023c0565b60609290921b6001600160601b0319168252601482015260340190565b600082516200240f81846020870162002a8d565b9190910192915050565b6001600160a01b0391909116815260200190565b600060018060a01b03808a168352808916602084015287604084015260e060608401526200245f60e0840188620023ad565b608084019690965293841660a083015250911660c090910152949350505050565b6001600160a01b0392831681529116602082015260400190565b6001600160a01b03948516815292841660208401529083166040830152909116606082015260800190565b600060018060a01b03808a16835288602084015260e06040840152620024ef60e084018962002368565b876060850152838103608085015262002509818862002368565b9590911660a0840152505060c0015295945050505050565b6001600160a01b03929092168252602082015260400190565b60006020825262001f6d602083018462002368565b90815260200190565b838152606081016200256a8462002ac0565b60208201939093526001600160a01b0391909116604090910152919050565b60208101600583106200259857fe5b91905290565b6000602082528251806020840152620025bf81604085016020870162002a8d565b601f01601f19169190910160400192915050565b60208082526043908201527f4f6e6c79204469737472696275746f72206f722063757272656e74206f776e6560408201527f72206f66207061636b6167652063616e2063616c6c20746869732066756e637460608201526234b7b760e91b608082015260a00190565b60208082526036908201527f4f6e6c792057686f6c6573616c657220616e64204469737472696275746f722060408201527531b0b71031b0b636103a3434b990333ab731ba34b7b760511b606082015260800190565b6020808252602a908201527f4f6e6c79204d616e7566616374757265722063616e20616363657373207468696040820152693990333ab731ba34b7b760b11b606082015260800190565b6020808252601f908201527f526563696576657220547970652073686f756c6420626520646566696e656400604082015260600190565b60208082526028908201527f4f6e6c79204469737472696275746f722043616e2063616c6c207468697320666040820152673ab731ba34b7b71760c11b606082015260800190565b602080825260409082018190527f4f6e6c7920437573746f6d6572206f722063757272656e74206f776e6572206f908201527f66207061636b6167652063616e2063616c6c20746869732066756e6374696f6e606082015260800190565b60208082526025908201527f4f6e6c7920437573746f6d65722043616e2063616c6c20746869732066756e636040820152643a34b7b71760d91b606082015260800190565b6020808252601c908201527b26b2b234b1b4b7329026bab9ba1031329030ba1021bab9ba37b6b2b960211b604082015260600190565b60208082526042908201527f4f6e6c792057686f6c6573616c6572206f722063757272656e74206f776e657260408201527f206f66207061636b6167652063616e2063616c6c20746869732066756e63746960608201526137b760f11b608082015260a00190565b60208082526024908201527f526f6c653d3e537570706c6965722063616e2075736520746869732066756e636040820152633a34b7b760e11b606082015260800190565b60208082526027908201527f4f6e6c792057686f6c6573616c65722043616e2063616c6c20746869732066756040820152663731ba34b7b71760c91b606082015260800190565b60208082526027908201527f4f6e6c79205472616e73706f727465722063616e2063616c6c207468697320666040820152663ab731ba34b7b760c91b606082015260800190565b60208082526025908201527f4f6e6c79204d616e7566616374757265722063616e20637265617465204d65646040820152646963696e6560d81b606082015260800190565b6020808252601d908201527f5472616e73706f72746572205479706520697320696e636f7272656374000000604082015260600190565b6000602082528251602083015260208301516080604084015262002a1260a0840182620023ad565b6040850151915062002a248262002ac0565b6060848101929092529301516001600160a01b03166080909201919091525090565b6040518181016001600160401b038111828210171562002a6557600080fd5b604052919050565b60006001600160401b0382111562002a83578081fd5b5060209081020190565b60005b8381101562002aaa57818101518382015260200162002a90565b8381111562002aba576000848401525b50505050565b6007811062000d2457fe5b6001600160a01b038116811462000d2457600080fdfe608060405234801561001057600080fd5b506040516106fd3803806106fd833981810160405260e081101561003357600080fd5b81516020830151604080850151606086018051925194969395919493918201928464010000000082111561006657600080fd5b90830190602082018581111561007b57600080fd5b825186602082028301116401000000008211171561009857600080fd5b82525081516020918201928201910280838360005b838110156100c55781810151838201526020016100ad565b5050505091909101604090815260208381015191840151606090940151600080546001600160a01b03808e166001600160a01b03199283161790925560018054928d169290911691909117905560028990558751929650939450610130925060039190870190610187565b50600492909255600580546001600160a01b03199081166001600160a01b0393841617909155600680548216938316939093179092556007805460ff60a01b199316969091169590951716909355506101ef915050565b8280548282559060005260206000209081019282156101c2579160200282015b828111156101c25782518255916020019190600101906101a7565b506101ce9291506101d2565b5090565b6101ec91905b808211156101ce57600081556001016101d8565b90565b6104ff806101fe6000396000f3fe608060405234801561001057600080fd5b506004361061004c5760003560e01c806352b9996814610051578063638e9a3d146100795780636b099dca1461009f57806380723520146100b9575b600080fd5b6100776004803603602081101561006757600080fd5b50356001600160a01b0316610152565b005b6100776004803603602081101561008f57600080fd5b50356001600160a01b0316610263565b6100a7610378565b60408051918252519081900360200190f35b6100c1610398565b604080516001600160a01b03808a16825260208083018a905260608301889052868216608084015285821660a084015290841660c083015260e09282018381528851938301939093528751919291610100840191898101910280838360005b83811015610138578181015183820152602001610120565b505050509050019850505050505050505060405180910390f35b6006546001600160a01b0382811691161461019e5760405162461bcd60e51b81526004018080602001828103825260398152602001806104616039913960400191505060405180910390fd5b6001600754600160a01b900460ff1660028111156101b857fe5b14610206576040805162461bcd60e51b8152602060048201526019602482015278141c9bd91d58dd081b9bdd081c1a58dad959081d5c081e595d603a1b604482015290519081900360640190fd5b6007805460ff60a01b1916600160a11b17905560065460055460018054604080519283526002602084015280516001600160a01b03958616959485169490921692600080516020610441833981519152929081900390910190a450565b6005546001600160a01b038281169116146102af5760405162461bcd60e51b815260040180806020018281038252603081526020018061049a6030913960400191505060405180910390fd5b6000600754600160a01b900460ff1660028111156102c957fe5b1461031a576040805162461bcd60e51b815260206004820152601c60248201527b2830b1b5b0b3b29036bab9ba1031329030ba1029bab8383634b2b91760211b604482015290519081900360640190fd5b6007805460ff60a01b1916600160a01b1790556006546005546001805460408051838152602081019390935280516001600160a01b03958616959485169490921692600080516020610441833981519152929081900390910190a450565b600754600090600160a01b900460ff16600281111561039357fe5b905090565b60015460025460045460075460055460065460038054604080516020808402820181019092528281526000998a996060998b998a998a998a996001600160a01b03968716999598909794969384169592841694939091169291879183018282801561042257602002820191906000526020600020905b81548152602001906001019080831161040e575b5050505050945096509650965096509650965096509091929394959656fe7e89c4b1a4e2b51aae84eb1f90e8a34cb792ece5ac5cb63db4830c891220b28d4f6e6c79204d616e756661637475726572206f6620746865207061636b6167652063616e20726563656965766520746865207061636b6167654f6e6c79207472616e73706f72746572206f6620746865207061636b6167652063616e207069636b207061636b616765a2646970667358221220af119c1e40ac5da395284e84c9d6c18e50f492df3f8bae7d6f181893739afc7764736f6c6343000606003360806040523480156200001157600080fd5b5060405162000e3b38038062000e3b833981810160405260e08110156200003757600080fd5b815160208301516040808501805191519395929483019291846401000000008211156200006357600080fd5b9083019060208201858111156200007957600080fd5b82518660208202830111640100000000821117156200009757600080fd5b82525081516020918201928201910280838360005b83811015620000c6578181015183820152602001620000ac565b505050509050016040526020018051906020019092919080516040519392919084640100000000821115620000fa57600080fd5b9083019060208201858111156200011057600080fd5b82518660208202830111640100000000821117156200012e57600080fd5b82525081516020918201928201910280838360005b838110156200015d57818101518382015260200162000143565b505050509190910160409081526020838101519390910151600080546001600160a01b038d166001600160a01b0319918216811790925560048054909116909117905560018a905588519395509350620001bf92600292509088019062000239565b5060088490558251620001da90600390602086019062000239565b5080600114156200020657600580546001600160a01b0319166001600160a01b0384161790556200022c565b80600214156200022c57600680546001600160a01b0319166001600160a01b0384161790555b50505050505050620002cd565b82805482825590600052602060002090810192821562000291579160200282015b828111156200029157825182546001600160a01b0319166001600160a01b039091161782556020909201916001909101906200025a565b506200029f929150620002a3565b5090565b620002ca91905b808211156200029f5780546001600160a01b0319168155600101620002aa565b90565b610b5e80620002dd6000396000f3fe608060405234801561001057600080fd5b506004361061008e5760003560e01c80631fedd36c146100935780632f1d7588146100cb57806393a668b7146100fb578063aab3a9d614610121578063abb428a614610147578063ac42a41514610187578063c8f5f189146101ad578063d2f3fcc7146101d3578063e002c8a5146101db578063f5c0e383146102d5575b600080fd5b6100b9600480360360208110156100a957600080fd5b50356001600160a01b0316610303565b60408051918252519081900360200190f35b6100f9600480360360408110156100e157600080fd5b506001600160a01b038135811691602001351661052e565b005b6100f96004803603602081101561011157600080fd5b50356001600160a01b03166105b7565b6100f96004803603602081101561013757600080fd5b50356001600160a01b0316610624565b61014f610676565b6040518082606080838360005b8381101561017457818101518382015260200161015c565b5050505090500191505060405180910390f35b6100f96004803603602081101561019d57600080fd5b50356001600160a01b03166106b1565b6100f9600480360360208110156101c357600080fd5b50356001600160a01b0316610832565b6100b961089b565b6101e36108b4565b60405180886001600160a01b03166001600160a01b031681526020018781526020018060200186815260200180602001856001600160a01b03166001600160a01b03168152602001846001600160a01b03166001600160a01b03168152602001838103835288818151815260200191508051906020019060200280838360005b8381101561027b578181015183820152602001610263565b50505050905001838103825286818151815260200191508051906020019060200280838360005b838110156102ba5781810151838201526020016102a2565b50505050905001995050505050505050505060405180910390f35b6100f9600480360360408110156102eb57600080fd5b506001600160a01b03813581169160200135166109db565b6005546000906001600160a01b038381169116148061032f57506006546001600160a01b038381169116145b61036a5760405162461bcd60e51b8152600401808060200182810382526035815260200180610a886035913960400191505060405180910390fd5b60095460019060ff16600681111561037e57fe5b10156103cd576040805162461bcd60e51b8152602060048201526019602482015278141c9bd91d58dd081b9bdd081c1a58dad959081d5c081e595d603a1b604482015290519081900360640190fd5b6005546001600160a01b0383811691161480156103fa5750600160095460ff1660068111156103f857fe5b145b1561047e576009805460ff1916600390811790915560055481546001600160a01b039091169190600019810190811061042f57fe5b60009182526020918290200154604080516002815260039381019390935280516001600160a01b03909216923092600080516020610a68833981519152929181900390910190a4506001610529565b6006546001600160a01b0383811691161480156104ab5750600260095460ff1660068111156104a957fe5b145b15610529576009805460ff19166004179055600654600380546001600160a01b039092169160001981019081106104de57fe5b60009182526020918290200154604080516003815260049381019390935280516001600160a01b03909216923092600080516020610a68833981519152929181900390910190a45060025b919050565b6006546001600160a01b0382811691161461057a5760405162461bcd60e51b8152600401808060200182810382526023815260200180610adf6023913960400191505060405180910390fd5b600780546001600160a01b0319166001600160a01b03841617905560055b6009805460ff191660018360068111156105ae57fe5b02179055505050565b6006546001600160a01b038281169116146106035760405162461bcd60e51b8152600401808060200182810382526023815260200180610adf6023913960400191505060405180910390fd5b60045b6009805460ff1916600183600681111561061c57fe5b021790555050565b600380546001810182556000919091527fc2575a0e9e593c00f959f8c92f12db2869c3395a3b0502d05e2516446f71f85b0180546001600160a01b0319166001600160a01b0392909216919091179055565b61067e610a49565b50604080516060810182526005546001600160a01b03908116825260065481166020830152600754169181019190915290565b6003805460001981019081106106c357fe5b6000918252602090912001546001600160a01b038281169116146107185760405162461bcd60e51b8152600401808060200182810382526027815260200180610b026027913960400191505060405180910390fd5b600060095460ff16600681111561072b57fe5b1461077d576040805162461bcd60e51b815260206004820181905260248201527f5061636b616765206d757374206265206174204d616e7566616374757265722e604482015290519081900360640190fd5b6005546001600160a01b0316156107e0576009805460ff1916600190811790915560055460408051838152602081019390935280516001600160a01b0392831693928516923092600080516020610a6883398151915292918290030190a461082f565b6009805460ff191660029081179091556006546040805160018152602081019390935280516001600160a01b0392831693928516923092600080516020610a6883398151915292918290030190a45b50565b6007546001600160a01b03828116911614610894576040805162461bcd60e51b815260206004820181905260248201527f5468697320437573746f6d6572206973206e6f74204173736f6369617465642e604482015290519081900360640190fd5b6006610606565b60095460009060ff1660068111156108af57fe5b905090565b600080606060006060600080600460009054906101000a90046001600160a01b031660015460026008546003600660009054906101000a90046001600160a01b0316600760009054906101000a90046001600160a01b03168480548060200260200160405190810160405280929190818152602001828054801561096157602002820191906000526020600020905b81546001600160a01b03168152600190910190602001808311610943575b50505050509450828054806020026020016040519081016040528092919081815260200182805480156109bd57602002820191906000526020600020905b81546001600160a01b0316815260019091019060200180831161099f575b50505050509250965096509650965096509650965090919293949596565b6005546001600160a01b03828116911614610a275760405162461bcd60e51b8152600401808060200182810382526022815260200180610abd6022913960400191505060405180910390fd5b600680546001600160a01b0319166001600160a01b0384161790556002610598565b6040518060600160405280600390602082028036833750919291505056fe7e89c4b1a4e2b51aae84eb1f90e8a34cb792ece5ac5cb63db4830c891220b28d4f6e6c792057686f6c6573616c6572206f72204469737472696275746f722063616e2063616c6c20746869732066756e6374696f6e746869732057686f6c6573616c6572206973206e6f74204173736f6369617465642e54686973204469737472696275746f72206973206e6f74204173736f6369617465642e4f6e6c79205472616e73706f727465722063616e2063616c6c20746869732066756e6374696f6ea2646970667358221220b05748e4a69b66fe06fffc3505b467d374ca0195b098d104bdb7dcf51e9179f764736f6c63430006060033608060405234801561001057600080fd5b506040516103bc3803806103bc8339818101604052608081101561003357600080fd5b50805160208201516040830151606090930151600080546001600160a01b03199081166001600160a01b03948516908117835560018054831696861696909617909555600280548216909517909455600380548516958416959095179094556004805490931691161760ff60a01b191690556103079081906100b590396000f3fe608060405234801561001057600080fd5b50600436106100415760003560e01c806353157b1a14610046578063c0114d0614610076578063f7addc3e14610090575b600080fd5b6100746004803603604081101561005c57600080fd5b506001600160a01b03813581169160200135166100be565b005b61007e610190565b60408051918252519081900360200190f35b610074600480360360408110156100a657600080fd5b506001600160a01b03813581169160200135166101b0565b6003546001600160a01b0382811691161461010a5760405162461bcd60e51b815260040180806020018281038252603381526020018061026f6033913960400191505060405180910390fd5b6004805460ff60a01b1916600160a01b17808255600254604080516305e3aeb160e31b81526001600160a01b039384169481019490945290821660248401525190841691632f1d758891604480830192600092919082900301818387803b15801561017457600080fd5b505af1158015610188573d6000803e3d6000fd5b505050505050565b600454600090600160a01b900460ff1660028111156101ab57fe5b905090565b6004546001600160a01b038281169116146101fc5760405162461bcd60e51b81526004018080602001828103825260308152602001806102a26030913960400191505060405180910390fd5b600480546002919060ff60a01b1916600160a01b830217905550816001600160a01b031663c8f5f189826040518263ffffffff1660e01b815260040180826001600160a01b03166001600160a01b03168152602001915050600060405180830381600087803b15801561017457600080fdfe4f6e6c79204173736f636961746564207472616e73706f727465722063616e2063616c6c20746869732066756e6374696f6e2e4f6e6c79204173736f6369617465642072656365697665722063616e2063616c6c20746869732066756e6374696f6e2ea264697066735822122046c6e60c977b4c112c4102f322935a0dd2ec5bd8803dc3f7dadbf9f6795d61ec64736f6c63430006060033608060405234801561001057600080fd5b506040516103b83803806103b88339818101604052608081101561003357600080fd5b50805160208201516040830151606090930151600080546001600160a01b03199081166001600160a01b03948516908117835560018054831696861696909617909555600280548216909517909455600380548516958416959095179094556004805490931691161760ff60a01b191690556103039081906100b590396000f3fe608060405234801561001057600080fd5b50600436106100415760003560e01c8063443c28d814610046578063d2f3fcc714610076578063d7dcbe3b14610090575b600080fd5b6100746004803603604081101561005c57600080fd5b506001600160a01b03813581169160200135166100be565b005b61007e610190565b60408051918252519081900360200190f35b610074600480360360408110156100a657600080fd5b506001600160a01b03813581169160200135166101b0565b6003546001600160a01b0382811691161461010a5760405162461bcd60e51b815260040180806020018281038252602f81526020018061029f602f913960400191505060405180910390fd5b6004805460ff60a01b1916600160a01b178082556002546040805163f5c0e38360e01b81526001600160a01b03938416948101949094529082166024840152519084169163f5c0e38391604480830192600092919082900301818387803b15801561017457600080fd5b505af1158015610188573d6000803e3d6000fd5b505050505050565b600454600090600160a01b900460ff1660028111156101ab57fe5b905090565b6004546001600160a01b038281169116146101fc5760405162461bcd60e51b815260040180806020018281038252603081526020018061026f6030913960400191505060405180910390fd5b600480546002919060ff60a01b1916600160a01b830217905550816001600160a01b03166393a668b7826040518263ffffffff1660e01b815260040180826001600160a01b03166001600160a01b03168152602001915050600060405180830381600087803b15801561017457600080fdfe4f6e6c79204173736f6369617465642072656365697665722063616e2063616c6c20746869732066756e6374696f6e2e4f6e6c79204173736f63696174656420736869707065722063616e2063616c6c20746869732066756e6374696f6e2ea264697066735822122039596268d0f1bdb8e794d5233959ef3c490ec5bf7d2b826e27c857dd6ca3f76864736f6c63430006060033a2646970667358221220258b83c898d51d742d244223f541436c019c63aa70dbad6a21bba7bd608d556964736f6c63430006060033",
  "immutableReferences": {},
  "source": "pragma solidity ^0.6.6;\r\npragma experimental ABIEncoderV2;\r\n\r\nimport './RawMaterial.sol';\r\nimport './Supplier.sol';\r\nimport './Transporter.sol';\r\nimport './Medicine.sol';\r\nimport './Manufacturer.sol';\r\nimport './MedicineW_D.sol';\r\nimport './Wholesaler.sol';\r\nimport './MedicineD_C.sol';\r\nimport './Distributor.sol';\r\nimport './Customer.sol';\r\n\r\n\r\n//// New supply chain : supplier -> transporter -> manufacturer -> transporter -> whole-saler -> transporter -> distributor -> transporter -> customer/hospital/pharmacy\r\n\r\n\r\ncontract SupplyChain is Supplier, Transporter, Manufacturer, Wholesaler, Distributor, Customer {\r\n    \r\n    address public Owner;\r\n    \r\n    constructor() public {\r\n        Owner = msg.sender;\r\n    }\r\n    \r\n    modifier onlyOwner() {\r\n        require(Owner == msg.sender);\r\n        _;\r\n    }\r\n    \r\n    modifier checkUser(address addr) {\r\n        require(addr == msg.sender);\r\n        _;\r\n    }\r\n    \r\n    enum roles {\r\n        noRole,\r\n        supplier,\r\n        transporter,\r\n        manufacturer,\r\n        wholesaler,\r\n        distributor,\r\n        customer\r\n    }\r\n    \r\n    \r\n    //////////////// Events ////////////////////\r\n    \r\n    event UserRegister(address indexed _address, bytes32 name);\r\n    \r\n    \r\n    /////////////// Users (Only Owner Executable) //////////////////////\r\n    \r\n    struct userData {\r\n        bytes32 name;\r\n        uint[] userLoc;\r\n        roles role;\r\n        address userAddr;\r\n    }\r\n    \r\n    mapping (address => userData) public userInfo;\r\n    \r\n    function registerUser(bytes32 name, uint[] memory loc, uint role, address _userAddr) public onlyOwner {\r\n        userInfo[_userAddr].name = name;\r\n        userInfo[_userAddr].userLoc = loc;\r\n        userInfo[_userAddr].role = roles(role);\r\n        userInfo[_userAddr].userAddr = _userAddr;\r\n        \r\n        emit UserRegister(_userAddr, name);\r\n    }\r\n    \r\n    function changeUserRole(uint _role, address _addr) public onlyOwner returns(string memory) {\r\n        userInfo[_addr].role = roles(_role);\r\n       return \"Role Updated!\";\r\n    }\r\n    \r\n    function getUserInfo(address _address) public view returns(\r\n        userData memory\r\n        ) {\r\n        return userInfo[_address];\r\n    }\r\n    \r\n\r\n    /////////////// Supplier //////////////////////\r\n    \r\n    \r\n    function supplierCreatesRawPackage(\r\n        bytes32 _description,\r\n        uint[] memory _locationArr,\r\n        uint _quantity,\r\n        address _transporterAddr,\r\n        address _manufacturerAddr\r\n        ) public {\r\n            \r\n        require(userInfo[msg.sender].role == roles.supplier, \"Role=>Supplier can use this function\");\r\n        \r\n        createRawMaterialPackage(\r\n            _description,\r\n            _locationArr,\r\n            _quantity,\r\n            _transporterAddr,\r\n            _manufacturerAddr\r\n        );\r\n    }\r\n    \r\n    function supplierGetPackageCount() public view returns(uint) {\r\n        require(userInfo[msg.sender].role == roles.supplier, \"Role=>Supplier can use this function\");\r\n        \r\n        return getNoOfPackagesOfSupplier();\r\n    }\r\n    \r\n    function supplierGetRawMaterialAddresses() public view returns(address[] memory) {\r\n        require(userInfo[msg.sender].role == roles.supplier, \"Role=>Supplier can use this function\");\r\n        \r\n        address[] memory ret = getAllPackages();\r\n        return ret;\r\n    }\r\n    \r\n    \r\n    ///////////////  Transporter ///////////////\r\n    \r\n    \r\n    function transporterHandlePackage(\r\n        address _address,\r\n        uint transporterType,\r\n        address cid\r\n        ) public {\r\n            \r\n        require(\r\n            userInfo[msg.sender].role == roles.transporter,\r\n            \"Only Transporter can call this function\"\r\n        );\r\n        require(\r\n            transporterType > 0,\r\n            \"Transporter Type is incorrect\"\r\n        );\r\n        \r\n        handlePackage(_address, transporterType, cid);\r\n    }\r\n    \r\n    \r\n    ///////////////  Manufacturer ///////////////\r\n    \r\n    \r\n    function manufacturerRecivedRawMaterials(address _addr) public {\r\n        require(userInfo[msg.sender].role == roles.manufacturer, \"Only Manufacturer can access this function\");\r\n        manufacturerReceivedPackage(_addr, msg.sender);\r\n    }\r\n    \r\n    function manufacturerCreatesNewMedicine(\r\n        bytes32 _description,\r\n        address[] memory _rawAddr,\r\n        uint _quantity,\r\n        address[] memory _transporterAddr,\r\n        address _receiverAddr,\r\n        uint RcvrType\r\n        ) public returns(string memory){\r\n            \r\n        require(userInfo[msg.sender].role == roles.manufacturer, \"Only Manufacturer can create Medicine\");\r\n        require(RcvrType != 0, \"Reciever Type should be defined\");\r\n        \r\n        manufacturerCreatesMedicine(\r\n            msg.sender,\r\n            _description,\r\n            _rawAddr,\r\n            _quantity,\r\n            _transporterAddr,\r\n            _receiverAddr,\r\n            RcvrType\r\n        );\r\n        \r\n        return \"Medicine created!\";\r\n    }\r\n    \r\n\r\n    ///////////////  Wholesaler  ///////////////\r\n\r\n    \r\n    function wholesalerReceivedMedicine(\r\n        address _address\r\n        ) public {\r\n        require(\r\n            userInfo[msg.sender].role == roles.wholesaler || userInfo[msg.sender].role == roles.distributor,\r\n            \"Only Wholesaler and Distributor can call this function\"\r\n        );\r\n        \r\n        medicineRecievedAtWholesaler(\r\n            _address\r\n        );\r\n    }\r\n    \r\n    function transferMedicineW_D(\r\n        address _address,\r\n        address transporter,\r\n        address receiver) public {\r\n        require(\r\n            userInfo[msg.sender].role == roles.wholesaler &&\r\n            msg.sender == Medicine(_address).getWDC()[0],\r\n            \"Only Wholesaler or current owner of package can call this function\"\r\n        );\r\n        \r\n        transferMedicineWtoD(\r\n            _address,\r\n            transporter,\r\n            receiver\r\n        );\r\n    }\r\n    \r\n    function getBatchIdByIndexWD(uint index) public view returns(address packageID) {\r\n        require(\r\n            userInfo[msg.sender].role == roles.wholesaler,\r\n            \"Only Wholesaler Can call this function.\"\r\n        );\r\n        return MedicineWtoD[msg.sender][index];\r\n    }\r\n\r\n    function getSubContractWD(address _address) public view returns (address SubContractWD) {\r\n        return MedicineWtoDTxContract[_address];\r\n    }\r\n\r\n\r\n    ///////////////  Distributor  ///////////////\r\n\r\n\r\n    function distributorReceivedMedicine(\r\n      address _address,\r\n      address cid\r\n    ) public {\r\n        require(\r\n            userInfo[msg.sender].role == roles.distributor &&\r\n            msg.sender == Medicine(_address).getWDC()[1],\r\n            \"Only Distributor or current owner of package can call this function\"  \r\n        );\r\n        \r\n        medicineRecievedAtDistributor(\r\n            _address,\r\n            cid\r\n        );\r\n    }\r\n\r\n    function distributorTransferMedicinetoCustomer(\r\n        address _address,\r\n        address transporter,\r\n        address receiver\r\n    ) public {\r\n        require(\r\n            userInfo[msg.sender].role == roles.distributor &&\r\n            msg.sender == Medicine(_address).getWDC()[1],\r\n            \"Only Distributor or current owner of package can call this function\"\r\n        );\r\n        transferMedicineDtoC(_address, transporter, receiver);\r\n    }\r\n    \r\n    function getBatchesCountDC() public view returns (uint count){\r\n        require(\r\n            userInfo[msg.sender].role == roles.distributor,\r\n            \"Only Distributor Can call this function.\"\r\n        );\r\n        return MedicineDtoC[msg.sender].length;\r\n    }\r\n\r\n    function getBatchIdByIndexDC(uint index) public view returns(address packageID) {\r\n        require(\r\n            userInfo[msg.sender].role == roles.distributor,\r\n            \"Only Distributor Can call this function.\"\r\n        );\r\n        return MedicineDtoC[msg.sender][index];\r\n    }\r\n\r\n    function getSubContractDC(address _address) public view returns (address SubContractDP) {\r\n        return MedicineDtoCTxContract[_address];\r\n    }\r\n    \r\n    \r\n    ///////////////  Customer  ///////////////\r\n    \r\n    \r\n    function customerReceivedMedicine(\r\n        address _address,\r\n        address cid\r\n    ) public {\r\n        require(\r\n            userInfo[msg.sender].role == roles.customer,\r\n            \"Only Customer Can call this function.\"\r\n        );\r\n        medicineRecievedAtCustomer(_address, cid);\r\n    }\r\n\r\n    function updateStatus(\r\n        address _address,\r\n        uint Status\r\n    ) public {\r\n        require(\r\n            userInfo[msg.sender].role == roles.customer &&\r\n            msg.sender == Medicine(_address).getWDC()[2],\r\n            \"Only Customer or current owner of package can call this function\"\r\n        );\r\n        require(sale[_address] == salestatus(1), \"Medicine Must be at Customer\");\r\n        \r\n        updateSaleStatus(_address, Status);\r\n    }\r\n\r\n    function getSalesInfo(\r\n        address _address\r\n    ) public\r\n    view\r\n    returns(\r\n        uint Status \r\n    ){\r\n        return salesInfo(_address);\r\n    }\r\n\r\n    \r\n    function getBatchesCountC() public view returns(uint count){\r\n        require(\r\n            userInfo[msg.sender].role == roles.customer,\r\n            \"Only Wholesaler or current owner of package can call this function\"\r\n        );\r\n        return  MedicineBatchAtCustomer[msg.sender].length;\r\n    }\r\n\r\n    function getBatchIdByIndexC(uint index) public view returns(address _address){\r\n        require(\r\n            userInfo[msg.sender].role == roles.customer,\r\n            \"Only Wholesaler or current owner of package can call this function\"\r\n        );\r\n        return MedicineBatchAtCustomer[msg.sender][index];\r\n    }\r\n    \r\n}    \r\n    ",
  "sourcePath": "C:/Users/Sherwyn/Desktop/GitHub/Medicine-Supply-Chain/blockchain/src/contracts/SupplyChain.sol",
  "compiler": {
    "name": "solc",
    "version": "0.6.6+commit.6c089d02.Emscripten.clang"
  },
  "schemaVersion": "3.3.1",
  "updatedAt": "2020-11-05T07:57:56.063Z",
  "networkType": "ethereum",
  "devdoc": {
    "methods": {}
  },
  "userdoc": {
    "methods": {
      "customerReceivedMedicine(address,address)": {
        "notice": "////////////  Customer  ///////////////"
      },
      "distributorReceivedMedicine(address,address)": {
        "notice": "////////////  Distributor  ///////////////"
      },
      "manufacturerRecivedRawMaterials(address)": {
        "notice": "////////////  Manufacturer ///////////////"
      },
      "supplierCreatesRawPackage(bytes32,uint256[],uint256,address,address)": {
        "notice": "//////////// Supplier //////////////////////"
      },
      "transporterHandlePackage(address,uint256,address)": {
        "notice": "////////////  Transporter ///////////////"
      },
      "wholesalerReceivedMedicine(address)": {
        "notice": "////////////  Wholesaler  ///////////////"
      }
    },
    "notice": "/ New supply chain : supplier -> transporter -> manufacturer -> transporter -> whole-saler -> transporter -> distributor -> transporter -> customer/hospital/pharmacy"
  }
}